:1000000080590020153D00001B5F0100453D0000A8
:10001000453D0000453D0000453D0000000000005A
:10002000000000000000000000000000DD3A0000B9
:10003000453D000000000000893A00004B5B0100D4
:10004000D53C0000E5020100D53C0000D53C000095
:10005000D53C0000D53C0000D53C0000D53C00005C
:10006000D53C0000D53C0000D53C0000D53C00004C
:10007000D53C0000D53C0000D53C0000D53C00003C
:10008000D53C0000D53C0000D53C0000D53C00002C
:10009000D53C0000D53C0000D53C0000D53C00001C
:1000A000D53C0000D53C0000D53C0000D53C00000C
:1000B000D53C0000D53C0000D53C0000D53C0000FC
:1000C000D53C0000D53C0000D53C0000D53C0000EC
:0C00D000D53C0000D53C0000D53C0000F1
:0400DC00FFFFFFFF24
:1000E0007BB972B90029BEBF00204FF0004106E085
:1000F00008BF00281CBF6FF000414FF0FF3000F038
:10010000B9B9ADF1080C6DE904CE002909DB002B6B
:100110001ADB00F04DF8DDF804E0DDE9022304B05D
:100120007047404261EB4101002B1BDB00F040F8BF
:10013000DDF804E0DDE9022304B0404261EB410157
:10014000524263EB43037047524263EB430300F0B8
:100150002FF8DDF804E0DDE9022304B0404261EB52
:1001600041017047524263EB430300F021F8DDF890
:1001700004E0DDE9022304B0524263EB430370471D
:1001800053B94AB9002908BF00281CBF4FF0FF31FE
:100190004FF0FF3000F06EB9ADF1080C6DE904CE00
:1001A00000F006F8DDF804E0DDE9022304B0704752
:1001B0002DE9F047089D0E4604468C46002B40F082
:1001C00081808A42174645D9B2FA82F24AB1C2F119
:1001D000200106FA02F320FA01F1974041EA030CEC
:1001E00094404FEA174E230CBCFBFEF6B9B20EFB4F
:1001F00016CC43EA0C4306FB01F0984209D9FB18E0
:1002000006F1FF3C80F01581984240F21281023ED7
:100210003B441B1AA4B2B3FBFEF00EFB103344EABE
:10022000034400FB01F1A14209D93C1900F1FF335D
:1002300080F00181A14240F2FE8002383C44641A01
:1002400040EA064000211DB1D4400023C5E9004327
:10025000BDE8F08702B9FFDEB2FA82F2002A4FD180
:10026000CB1B4FEA174E1FFA87F80121B3FBFEFCA8
:10027000260C0EFB1C3346EA034608FB0CF3B34284
:1002800007D9BE190CF1FF3002D2B34200F2EB8065
:100290008446F61AA3B2B6FBFEF00EFB106643EAE4
:1002A000064408FB00F8A04507D93C1900F1FF33CC
:1002B00002D2A04500F2D2801846A4EB080440EA1E
:1002C0000C40C0E78B4208D9002D00F0AF80002120
:1002D000C5E900060846BDE8F087B3FA83F10029B6
:1002E00049D1B34202D3824200F2BB80841A66EB4A
:1002F000030301209C46002DAAD0C5E9004CA7E7C6
:10030000C2F120039740D8409140DE404FEA174E9B
:1003100008434FEA104CB6FBFEF11FFA87F80EFBBC
:1003200011664CEA064601FB08F3B34204FA02F4F4
:1003300009D9BE1901F1FF3C80F08E80B34240F232
:100340008B8002393E44F31A86B2B3FBFEF00EFBFB
:10035000103346EA034600FB08F3B34207D9BE193F
:1003600000F1FF3C74D2B34272D902383E44F31A12
:1003700040EA01417AE7C1F1200703FA01F422FAC9
:1003800007F31C4320FA07F906FA01F34FEA144C6D
:10039000FE4049EA03094FEA1943B6FBFCFE1FFA87
:1003A00084F80CFB1E6643EA06460EFB08FAB245CB
:1003B00002FA01F200FA01F308D9A6190EF1FF3092
:1003C00048D2B24546D9AEF1020E2644A6EB0A0643
:1003D0001FFA89F9B6FBFCF00CFB106649EA0646E9
:1003E00000FB08F8B04507D9A61900F1FF3C2DD253
:1003F000B0452BD90238264440EA0E40A6EB080649
:10040000A0FB02894E45C446CE4618D315D075B31D
:10041000B3EB0C0266EB0E0606FA07F722FA01F3BD
:10042000CE401F43C5E90076002111E72946284642
:100430000EE76646EDE6184601E74345E7D2B8EB1E
:10044000020C69EB04040138A646E0E76046D3E7F6
:1004500060468CE78646B9E7614674E702383C445B
:100460002BE7084647E7ACF1020C3E4411E729466A
:10047000EEE600BF704700BF2DE9F04FB14C94F895
:10048000D6608FB006F00106002800F0CA81CEBB0E
:1004900094F87C7094F8290094F82C204FF02709E8
:1004A0002D2309FB074700F0030019FB0239FF2346
:1004B00084F82A300FF06CF994F8D600410707F160
:1004C0007D0704EB090800F1268114F80900314684
:1004D000C0F3801008F08AFC06220146054608F1A8
:1004E000020015F04EFD29460622B81C15F049FD04
:1004F00014F809305A060AD413F00E0F40F0E380C6
:10050000636A93B10C2630460FB0BDE8F08F062128
:1005100008F1020007F0D0F8002800F02F8214F84C
:10052000093013F00E0FEBD0CDE00AF05FFE8246EB
:10053000002800F04A820AF065FE8346002800F099
:100540005D820CF015F80546002800F054824FF645
:10055000FF73806FAB8505F11C030B93002800F03F
:10056000308205F16C0205F1680107F0B1F8B5F8C9
:100570006420754995F83DE095F8DC0095F840C099
:10058000C5F830A10A4042F4887295F8261142F06D
:1005900001020EF03F0E6EF07F0E20F0030021F0FE
:1005A0000301A5F86420002262F3000C4FF01B1336
:1005B00085F83DE085F8DC0085F82611634864493C
:1005C00085F83F204FF0060EC5E913226A866A635C
:1005D0006A65A5F8C820A5F8CC20A5F8E82085F81C
:1005E000EA20C5F80021A5F80421A5F81821C5F8CE
:1005F0002021A5F8242185F82F21AA67EB6585F82D
:1006000040C02866A5F8C4E0C5F81C11A5F87C20F8
:1006100095F872E195F89AC195F87E0095F8521117
:10062000A5F8502162F3C30C62F3041E21F0070108
:1006300020F01F00A5F87021A5F89821A5F8A421A5
:1006400085F89AC185F872E185F8521185F87E0027
:100650000CF0D8FAA5F8D6000CF0DAFAD5F8A831E3
:100660003C49A5F8D8001940C5F8A8110CF0D6FAF5
:1006700095F8AC1160F3020185F8AC110CF0D4FAD6
:10068000C4E933AB0B9B636295F8AC1195F820C0BD
:10069000ED610301002203F0700321F078010B43A8
:1006A00062F3000CC5E96E22C5E96C22C5E905229A
:1006B000C5F8C02185F8AC3185F820C010F02EFABD
:1006C000002840F0678194F828300121C3F34203E9
:1006D0000DA88DF8343007F073F9002800F09680EB
:1006E00014F8093003F00F03022B00F1FF3233D06E
:1006F000012B00F0538178781030C100002B00F0FE
:100700003F81062B00F07F814FF4DA704FF41B71AC
:1007100000FB02102BE0C0F3C000324604F1D70109
:100720000FF00CFAFF2884F82A0002D030460FF0B0
:10073000CFF8414603480FF045F8024839460FF01C
:1007400041F8D5E6B818002080F8FFFF48014801BD
:100750007F4101000000FFF698F801301033DB0004
:1007600000FB03F000F5AA70642303FB020094F879
:100770002070B14AE4610025312365F30007A0FB36
:100780000201236084F82070A9A3D3E90023C4E9FF
:100790000555C4E90155FFF7F3FCB4F8D480E060D7
:1007A00008F01EFB0746B8F1000F08D114F80950F5
:1007B00005F00F05A5F10105B5FA85F56D0994F869
:1007C0002820E36865F3000212F0010584F8282070
:1007D00000F08580DFF87492984904930020022588
:1007E0000DF1300801930591CDE907980321CDE97A
:1007F000020006942A4600903B460C9508F03EFA0B
:1008000041460AF087FD002800F0A580636A002BAE
:100810003FF478AE0BF092F80C2630460FB0BDE8EE
:10082000F08F002E3FF46EAE20460AF081FD844228
:100830000CD0834A8349844840F2197314F0DEFDDA
:10084000404080F311884FF0030002DF94F8283015
:10085000D8070DAD0ED502220D9203217B4B0095DA
:100860000122002008F076FA29460AF053FD0028FC
:1008700040F0D38002220321744B009500200D929A
:1008800008F068FA29460AF045FD002840F09F80EC
:100890006F480AF089FD002840F085806D480AF015
:1008A00053FD84420CD0664A6649674840F23B7368
:1008B00014F0A4FD404080F311884FF0030002DFE4
:1008C000636A0BB10BF03AF894F8D63000266FF358
:1008D0000003304684F8D6300FB0BDE8F08F5E4894
:1008E0005E4ADFF868E1DFF854C10694A8FB000116
:1008F0004FF0910909FB081103F24718C2F8008074
:100900004FF00209049309920DF1300848A3D3E98E
:1009100000234FF6FF7ACDE907E80295CDF8309035
:10092000CDF814C0CDF80CA0FFF72AFC4A46CDE95B
:1009300000503B462846032108F04AF941460AF098
:10094000E9FC00287FF462AF94F8D63043F001034D
:1009500084F8D630D7E5424905914AF2D832009260
:10096000CDE90798CDE90300CDE9010006943B46A7
:10097000012203210C9508F081F9DFE71226C2E578
:1009800098F801001030C00000F54D73194400F5CF
:100990009A70BDE60AF0D2FF0326B4E54FF4F27078
:1009A0004FF47F71B4E6264A2E4927484FF4E76397
:1009B00014F024FD404080F311884FF0030002DF63
:1009C0006CE705F17000A867CBE507269BE5214899
:1009D0000AF0BAFC84423FF495AD40F23273184AF3
:1009E0001849194814F00AFD404080F311884FF06F
:1009F000030002DF86E558460AF00AFC50460AF07A
:100A0000FBFB07267FE598F801301033DB0003F588
:100A10004D70014403F59A707AE60E480AF094FC92
:100A200084423FF46FAD40F22473D8E7AFF3008007
:100A30008D49FD1A0700000000CA9A3BADB60000C0
:100A40004C9601003C9701002494010009B300007A
:100A5000D4180020B8180020002AE7849819002034
:100A6000B9B80000549501002DE9F04F044690F804
:100A7000E93090F8E80083428BB00D4616460ED060
:100A8000C01A00F0030002281BD094F82D2194F81E
:100A90002C319A4230D100200BB0BDE8F08F94F891
:100AA000522112F00108F0D194F8051194F8047164
:100AB0008F4200F07683981E012284F8E90084F8C2
:100AC000EA2094F8983194F899219A4206D094F843
:100AD0009A2102F00601042900F0A78394F8EA7035
:100AE0007A1E052A00F24F83DFE812F05C00E6026E
:100AF00062024D031003C401294806F093FD58B368
:100B000094F82C3184F82D310379022243F0030349
:100B100042710371C271D4F8B03194F82E2102727F
:100B20002BB394F85221910721D494F8AB21D2072A
:100B30001DD4D4F8BC21934204BF1A68C4F8BC2168
:100B4000D4F8B421B2B91A68026018600368C4E925
:100B50006D000BB9C4F8C001B4F8CC0000289AD1DC
:100B6000B4F8C630012B0ED9A4F8CC3093E7D4F8F2
:100B7000B42172B1D4F8B8311A6802601860036801
:100B8000C4F8B801E5E70133A4F8CC300BB0BDE8F8
:100B9000F08F0360C4E96C00C4F8B801D9E700BF66
:100BA000041C0020A64F3B68002B00F0E284B4F840
:100BB0003680628E94F806319044B04413F00303FB
:100BC0001FFA88F840F06A84B4F8EC90A8EB0902A8
:100BD00010041FFA82FA3FF558AF94F8701194F898
:100BE000712194F8040184F805018A4294F8E80020
:100BF00084F8E90009D094F8722102F00702052A6E
:100C000004BF84F87111A4F8CC303B689C4204BF47
:100C100000233B60D4F80071002F00F06585386830
:100C2000002800F06185B4F80831E28D4168C4F80D
:100C300000119342B4F80A11B4F80CC100F0AC866C
:100C4000A28DFA804FF00C0E0022FB833984A7F8A6
:100C500022C087F804E03A7739460AF0DFFA0AF052
:100C6000E7FA2368002B09DAD4E9011223F00043E4
:100C70008A422CBFA91869182360CD1AE38DB4F8F5
:100C8000087113FB0AF39BB2B3FBF7F117FB01F2F8
:100C900092B293421FFA81FB80F01485D31A6948FF
:100CA00040F2E24202FB03F3A3FB000162A3D3E99B
:100CB0000023FFF765FA20F07F400544628E94F927
:100CC0003D30A9EB0808D8443244904440F2E24950
:100CD000002BA4F8328009FB07F7C0F215855A4AA9
:100CE0005A495B4840F65F1314F088FB404080F39C
:100CF00011884FF0030002DF4FF000083E46B4F8C1
:100D00000C21B4F80A11534B5348218642F2107C4F
:100D10000CFB02723B443844B3FBF7F301F1060CC1
:100D2000013AB2FBF7F2B0FBF7F798B2A4F8C6208D
:100D30006045B4F80821A4F8D200A4F8CA70E2858E
:100D400002DD401A063880B294F80631A4F8CE00CD
:100D5000590744BF0023A4F8C8300221012011F034
:100D60001FFD002202218146012006F0FFFC3B49C5
:100D70004FF4E472204606F08BFCC21C5FFA82FA44
:100D8000374B009452460121002007F0E3FF30F07A
:100D900002030CD02C4A33492D4840F68E1314F030
:100DA0002DFB404080F311884FF0030002DF254BFC
:100DB000A6FB0367304620A3D3E900233946FFF79B
:100DC000DFF9294AE368049320F07F4BABFB022351
:100DD000072000FB0B33B01A67EB0301089406945D
:100DE0004FF47A7200240023204F214E0797059676
:100DF0000394FFF7C5F92B46CDE901B0CDF800808B
:100E000020465246012107F039FF30F002030CD092
:100E10000D4A14490E4840F6A81314F0EFFA40406A
:100E200080F311884FF0030002DFB9F1000F40F0AA
:100E3000CC856FF047002FE68D49FD1A07000000B2
:100E4000801B002000CA9A3B48970100849401004F
:100E5000249401007FC3C901FF596202B819002020
:100E6000A5C10000809801008D49FD1A4DC1000008
:100E7000B1F00000618EE28E94F8EC300A44324406
:100E800096B2DA07194600F12182B4F8EE20B61ABC
:100E900030043FF5FAAD94F8642094F8658094F836
:100EA000E800B4F8627084F8E90013F01C0F02F057
:100EB000070908F0070840F09185B4F8606013F066
:100EC000E00F08D094F865205B0963F3020284F810
:100ED00065204FF4A47794F8AC3194F86420D4F8EA
:100EE0000051C3F3C00363F3C30284F86420002DF0
:100EF00000F08C852868002800F0888594F864E06C
:100F000094F865204368C4F800318907CEF3020CD9
:100F10000EF00703C2F3020E02F0070202D4994555
:100F200000F04B87A38DEB801022002385F81DC0B5
:100F300085F81EE02A712B7729460AF06FF9D4F85C
:100F40000051002D00F0CF852868002800F0CB85E7
:100F5000B4F860304268C4F80021B3420AD3B3F554
:100F6000A47F07D8B4F86230BB4203D3B3F5A47FA3
:100F700040F23787A4F86060A4F862702B7FA28DDE
:100F8000EA8043F003030221092229712B776A7753
:100F9000B4F85E30B4F85C202B841523AA84EB7778
:100FA00029466F84EE840AF039F90AF041F96CE5BC
:100FB00094F8EC3013F0030500F0158294F93D30FD
:100FC000002BBFF662AD012D7FF45FADBB4806F08C
:100FD00029FB054600283FF458AD03790D2243F064
:100FE0000303042700F1080603714271C7710C2145
:100FF00030460FF095FB3146082204F1F60014F05C
:10100000C0FF3A4605F1100104F19C0014F0B9FF4D
:10101000D4F8B031002B00F0AD8694F85221970738
:1010200000F1A88694F8AB21D60700F1A386D4F886
:10103000BC21934204BF1A68C4F8BC21D4F8B4217F
:10104000002A01F0E480D4F8B8311A682A601D60E3
:101050002B68C4F8B851002B01F082800AF00CF91B
:10106000054600283FF411AD2B7FA28DEA8043F0A6
:1010700003030226172103222B776977EA7704F20C
:10108000551108222E7105F1200014F07AFF94F812
:10109000533185F8283094F8543185F82930286880
:1010A00029460AF0BBF80AF0C3F894F8EC3066F36E
:1010B000010384F8EC30E8E4E28E618E94F8EC30C1
:1010C0000A44324496B2DA0700F15B81B4F8F220A8
:1010D000B61A33043FF5D9AC94F8E83084F8E93017
:1010E00004F13805052204F1ED01284614F049FF0A
:1010F0002846052106F064FC94F83D30012260F397
:10110000050384F83D3084F8C421BEE46B4806F042
:1011100089FA00283FF4B9AC94F8E83084F8E93053
:10112000012302794371D4F8B03142F00302122155
:101130000271C171002B00F0BA8294F85221950718
:1011400000F1B58294F8AB21D10700F1B082D4F858
:10115000BC21934204BF1A68C4F8BC21D4F8B4215E
:10116000002A01F01580D4F8B8311A6802601860BE
:101170000368C4F8B801002B00F0C584B4F8CA3085
:10118000A4F8CC3081E44E4A4E494F484FF46F7377
:1011900014F034F9404080F311884FF0030002DF6F
:1011A00073E494F8197194F818C1674554D194F810
:1011B000257194F824C1674500F0F882A7EB0C076D
:1011C000FF077FF562AC94F82631D80740F101871C
:1011D0009F0740F1EB860AF04FF8014600B394F800
:1011E000243184F82531037FA28DC28043F00303AC
:1011F0000B77022006220C2308714A77CB7794F8EC
:101200002701B4F82821B4F82A31A1F8233081F855
:101210002000A1F8212008680AF000F80AF008F878
:1012200094F8E80094F8E9302AE402F0070106296E
:1012300001F2428101A050F821F000BF0516000024
:10124000DD0A0000DD0A0000DD0A0000791500005B
:1012500079150000DD0A0000A7EB0C07F8077FF501
:1012600014AC94F8DC1011F0010700F0E1830AF0EF
:1012700003F807460028D3D094F8183184F81931C0
:10128000037FA28DC28043F003030922022041465E
:101290003B7738717A77FA7707F12000082214F04B
:1012A0009BFED4F8203187F82030C3F307221B0CB3
:1012B00087F8212087F822303946ACE7041C00204B
:1012C000489701008494010024940100022009F051
:1012D000B5FF074600283FF4D8ABC84806F0A2F98E
:1012E000054600283FF4D1AB94F8EC306FF30003CF
:1012F000C3F38200C3F3421250EA020884F8EC30D0
:10130000DBB240F0358694F8E820A4F8EE809B0725
:1013100084F8E92000F1EC864346414605226A71D3
:1013200085F808802A796B72D4F8B031698142F06F
:10133000030218212A71E971002B4AD094F8522136
:10134000970746D494F8AB21D60742D4D4F8BC21F1
:10135000934204BF1A68C4F8BC21D4F8B421002A0F
:1013600000F02987D4F8B8311A682A601D602B680C
:10137000C4F8B851002B7FF488ABC4F8C051FFF714
:1013800084BB9E4806F04EF9054600283FF47DAB2D
:10139000238E027994F8EC1033440633A4F8F2302B
:1013A0006FF30001012342F00302082084F8EC10DF
:1013B0002A716871EB71052204F1ED01281814F00F
:1013C000E0FDD4F8B031B4F8F220A5F80D20002BE0
:1013D000B4D1D4F8B421002AC4D12B60C4E96C552F
:1013E000C4F8B851C6E7854806F01CF9064600283F
:1013F0003FF44BAB94F93D30002B00F1040880F230
:101400004B8494F87E30190700F1308694F8ED5043
:10141000002D00F0EF84037994F8DC2043F00303FF
:10142000D207037140F15086D4F81C315B0740F1BC
:101430004B86112203234572C27103727771D4F86F
:10144000B031002284F8ED20002B00F01D8594F8C7
:101450005221900700F1188594F8AB21D10700F1D3
:101460001385D4F8BC21934204BF1A68C4F8BC2188
:10147000D4F8B421002A00F0F186D4F8B8311A6803
:1014800032601E60C4F8B8613368002B00F06C85D0
:1014900094F8E83084F8E930FFF7F7BA012009F052
:1014A000CDFE064600283FF4F0AA544806F0BAF8EC
:1014B000054600283FF4E9AA09F0DEFE238E3268D3
:1014C00094F806014344063399B2D4F800315360CE
:1014D0002A79C4F800616FF301000C2384F8060137
:1014E000A4F8EC1042F003026B71D4F81031D4F878
:1014F000B001434E2A710022EA71A6FB032394F83F
:101500001461B4F808212E72C3F38F23B4F80A6172
:10151000A5F80B20B4F80C21A5F80F20A5F80D6054
:10152000A5F81110A5F80930002800F0618294F8A0
:1015300052319F0700F15C8294F8AB31DE0700F175
:101540005782D4F8BC31984204BF0368C4F8BC3158
:10155000D4F8B431002B00F03986D4F8B8311A68C9
:101560002A601D602868C4F8B85100287FF48DAA4D
:1015700003E73C60FFF71BBB02F00702B4F89CC115
:10158000B4F8A011B4F89E91B4F8A281A4F85EC09A
:10159000042AA4F8621000F0978494F89A31062285
:1015A00062F3020384F89A31D4F80071002F00F03E
:1015B00077843868002800F073843B7F4268B4F871
:1015C0002CE0C4F8002143F0030302223B774FF0E4
:1015D000090A1523A7F806E0A7F820C079843A7114
:1015E000FB773946A7F82490A7F8268087F81DA036
:1015F00009F014FE09F01CFEFFF770BA041C00206D
:101600005917B7D1DC4806F00DF800283FF466AA58
:1016100094F89A31B4F89E71B4F8A221A4F8D67067
:101620000121A4F8D82061F30203092284F89A3139
:1016300042710279D4F8B031878142F003024FF051
:10164000140CC172C173002702711B21482280F85B
:1016500007C04772017282728273002B00F01183FF
:1016600094F85221910700F10C8394F8AB21D20732
:1016700000F10783D4F8BC21934204BF1A68C4F870
:10168000BC21D4F8B421002A00F0D885D4F8B831B0
:101690001A68026018600368C4F8B801002B00F0F3
:1016A0001985B4F8CA30A4F8CC30FFF717BAD4F8CB
:1016B000B421002A7FF457AD0360C4E96C00C4F87C
:1016C000B80158E507FB113340F2E242AB489BB248
:1016D00002FB03F3A3FB0001A5A3D3E90023FEF75C
:1016E0004FFD2D1AFFF7EABAA54AA649A64840F6CB
:1016F000EA0313F083FE404080F311884FF00300AB
:1017000002DF3868FFF78FBAE26C636C9B4E03FB15
:101710001A23E3640FF0D6FE804694F8DC00C0F391
:1017200082000FF0D1FE08EB000307FB03F397489C
:10173000E26C94F8141103F5742303F23F23A0FB29
:1017400003034FEA934A0AFB0BF07B080244963BE3
:101750009A4228BF1A4609FB01FC4FF0000EC4E96B
:101760001232A0FB060182A3D3E90023C4F854C0BF
:10177000C4F8E4E0C4F844A0FEF702FDD4F8103148
:1017800084468348A0FB0330800A09FB00F0A0FBDD
:10179000060177A3D3E90023A5EB0C05FEF7F0FCC7
:1017A000A7EB0A0620F07F48FFF7A9BA94F871C1A9
:1017B00094F87071BC4500F0AA81764FD7F800C04C
:1017C000BCF1000F00F0B58464457FF45EA994F885
:1017D00072C10CF0070CBCF1050F00F28B860FF202
:1017E000080E5EF82CF000BFD3180000511800005E
:1017F00001180000810A0000810A0000810A00002F
:1018000090073FF542A909F037FD014600283FF453
:1018100007AD037F94F87221032060F302020343B3
:1018200084F87221A08D0B77022718230F714B7754
:10183000B4F87421B4F87631C880B4F878010A8419
:10184000B4F87A214B840F238884CA84CB77E2E4EE
:1018500094F87381B8F1000F40F01B8594F93D3086
:10186000002BC0F23A8594F8723194F87C01C4F8E8
:101870001081052262F30203012284F8723184F898
:101880001421002800F00686B4F87431B3FBF0F39D
:10189000134413FB00F39BB294F8722194F80601F1
:1018A000A4F80831C2F3C0039B0020F0070243F004
:1018B00002031343B4F87801B4F87A2184F80631AE
:1018C000013984F80511A4F80A01A4F80C21FFF7E6
:1018D000DCB82948B4F83680B4F8329005F0A2FE9E
:1018E000014600283FF49CAC94F872010A794FF04D
:1018F000040C6CF3020042F003024FF0180C84F861
:10190000720108EB09030A7181F805C0B4F874C1CB
:10191000B4F87601B4F87821A1F808C03344B4F8DB
:101920007AC148818A810F200022A1F811304FF03E
:10193000FF33C8714B758B75CB750B764B768B76F9
:10194000CB760B774B778B772046A1F80EC00A74C5
:10195000CA740A750AF0F6FAB4F8CA30A4F8CC30A2
:1019600094F8E80094F8E9303C60FFF789B800BFCC
:101970008D49FD1A07000000041C002000CA9A3B94
:10198000489701006C9801002494010083DE1B43FA
:101990005917B7D1801B0020228E8A427FF450A9AC
:1019A00040F2E24202FB03FB42F21072B4F8C6E0DE
:1019B00002FB0CB2013AB2FBFBF292B296457FF405
:1019C0003FA903233B71FFF747B9012210460221CB
:1019D00005F0CCFE6FF04700FFF75EB8C3F382005E
:1019E00060F3020284F864204FF4A476FFF767BA2C
:1019F000D4F8B431002B7FF4B0AD2860C4E96C5545
:101A0000C4F8B85100287FF440A8B6E4D44AD549B8
:101A1000D54840F6636313F0F1FC404080F3118831
:101A20004FF0030002DF286894F8EC10FFF766BA65
:101A3000CE4805F0F7FD804600283FF4F1AB94F85E
:101A40001931CB4AC4F81C21013B092284F8193111
:101A5000427194F93D200379002AACBF08220E227E
:101A600043F00303C271082203713946104414F095
:101A7000B3FAD4F81C3188F80830C3F307221B0CE2
:101A800088F8092088F80A30D4F8B031002B00F02B
:101A90007D8194F85221910700F1788194F8AB216F
:101AA000D20700F17381D4F8BC21934204BF1A68B5
:101AB000C4F8BC21D4F8B421002A00F0E083D4F8A3
:101AC000B8311A68C8F80020C3F80080D8F8003090
:101AD000C4F8B881002B00F04783B4F8CA30A4F8EA
:101AE000CC30FFF79DBB9E4A9E499F4840F68F63CE
:101AF00013F084FC404080F311884FF0030002DFB4
:101B00002868FFF725BAC4F8C001FFF737BB94F87F
:101B1000987194F89921BA4200F0E18194F89A11F1
:101B200001F00702062A00F2D6840FF2080C5CF8D6
:101B300022F000BFDD1B0000810A0000810A0000C6
:101B4000810A0000511B0000511B0000810A0000A7
:101B5000B4F89C31A4F85E3001F00703B4F8A0217A
:101B6000B4F89E91B4F8A281A4F86220042B00F08E
:101B70007C830B46062262F3020384F89A31D4F880
:101B80000071002F00F04B833868002800F0478375
:101B90003B7F4268B4F82CC0C4F8002143F0030333
:101BA0003B77022209237B773A71B4F85E10B4F8D0
:101BB00062207A841523FB77A7F806C03984A7F83A
:101BC00024903946A7F8268009F028FB09F030FB5D
:101BD00094F8E80094F8E930FEF752BF634805F046
:101BE00021FD034600283FF41BAB94F89A21B4F87A
:101BF0009E71B4F8A211A4F8D6700120A4F8D810F0
:101C000060F30202092184F89A2159711979D4F8F4
:101C1000B0219F8141F003014FF0140CD872D873AA
:101C2000002719711B20482183F807C05F721872C2
:101C300099729973002A00F0DF8294F85211890793
:101C400000F1DA8294F8AB11CF0700F1D582D4F815
:101C5000BC118A4204BF1168C4F8BC11D4F8B41195
:101C6000002900F01B84D4F8B821116819601360B2
:101C7000C4F8B8311A68002A7FF42FAFC4F8C03115
:101C80002BE7D4F8B421002A7FF400AD0360C4E947
:101C90006C00C4F8B80101E504F17F073B462A4611
:101CA00004F1EE0104F25D1010F028F9394610221B
:101CB00004F1A00014F065F9082204F1980104F180
:101CC000B90014F05EF994F8970094F8B82094F8ED
:101CD0007E3084F88F5043F0080365F3000042F033
:101CE000010284F8970084F87E3084F8905084F8DC
:101CF000915084F8925084F8935084F8945084F86A
:101D0000955084F89650C4F8B0504146C4F8B45089
:101D100084F8B82020460AF0E3FAD4F8B031002B5A
:101D200040D094F8522195073CD494F8AB21D007C9
:101D300038D4D4F8BC21934204BF1A68C4F8BC213B
:101D4000D4F8B421002A00F08182D4F8B8311A689E
:101D500032601E603368C4F8B861FFF796BB00BFFD
:101D6000489701006C98010024940100041C002095
:101D70007F410100D4F8B421002A7FF464A92B60CC
:101D8000C4E96C55C4F8B851FFF765B9D4F8B4216B
:101D9000002A7FF494AEC8F80030C4E96C88C4F817
:101DA000B88197E6D4F8B421002ACED13360C4E9D3
:101DB0006C66C4F8B861FFF768BB90457FF4B2A8C1
:101DC00003232B71294609F029FAD4F80051002D7C
:101DD00000F00F832868002800F00B834368C4F8E4
:101DE000003103232B71294609F018FA09F020FA73
:101DF000FEF74BBE04F17F073B462A4604F1EE0195
:101E000004F25D1010F07AF83946102204F1A000B7
:101E100014F0B7F8082204F1980104F1B90014F0A5
:101E2000B0F894F8972094F8B81094F87E3084F8BD
:101E30008F5042F0010265F3000143F008030120D6
:101E400084F8972084F8B81084F87E3084F8905095
:101E500084F8915084F8925084F8935084F8945008
:101E600084F8955084F89650C4F8B050C4F8B45033
:101E700032797071D4F8B03142F003020521327129
:101E8000F171002B7FF4E3AAD4F8B421002A7FF487
:101E9000F4AA3360C4E96C66C4F8B861FFF7F4BA19
:101EA000D04AD149D14840F6335313F0A7FA404005
:101EB00080F311884FF0030002DF3868B4F85EC089
:101EC000B4F86210FFF779BBB4F8A421002A40F0FF
:101ED0004E8184F89931A4F8CC20FFF765BB94F8C3
:101EE000A82194F8A91191423EF4CFAD94F8AA111B
:101EF00001F00300032800F03A8200287EF4C5AD0B
:101F0000BB4805F08FFB014600283FF489A994F8EF
:101F1000AA3194F8AC2194F8AB71012060F301036D
:101F2000C3F3820060F30202C3F3421060F30612AF
:101F3000C7F34007087984F8AA3167F3C30284F82D
:101F4000AC21C3F3820C40F00300C3F34213032718
:101F500016220871CA7181F808C04B724F710022B5
:101F6000204609F0EFFFB8E5C4F8C061FFF790BA6A
:101F7000238E33440633A4F8EE3009F07DF93B6834
:101F8000D4F800215A60C4F8007109F075F90368AB
:101F9000D4F800215A6094F8EC30B4F8EE10C4F88C
:101FA0000001C3F382085B09FFF7B8B940F652336A
:101FB0008C4A90498D4813F021FA404080F31188F3
:101FC0004FF0030002DF94F8E80094F8E930FEF7E0
:101FD00057BD874805F026FB00283FF421A994F857
:101FE000252194F82631013A84F82521027943F01D
:101FF0000103062184F8263142F003024171D4F82E
:10200000B03102710B216FF00E020C270172427287
:1020100005214FF0FF32C7718172C2720273002B2B
:1020200000F0BE8094F85221910700F1B98094F835
:10203000AB21D20700F1B480D4F8BC21934204BF95
:102040001A68C4F8BC21D4F8B421002A00F01C821C
:10205000D4F8B8311A6802601860C4F8B80103688F
:10206000002B7FF43AADC4F8C00136E54146204666
:102070000AF036F9D4F8B03183B394F852219207BC
:102080002CD494F8AB21D70728D4D4F8BC219342A0
:1020900004BF1A68C4F8BC21D4F8B421002A00F0A7
:1020A000B781D4F8B8311A6832601E60C4F8B861DC
:1020B0003368002B00F0878094F8523123F003033B
:1020C00084F85231FFF7E4B90D233572F37102271A
:1020D000FFF7B4B9C4F8C001FFF7E3BAD4F8B421EC
:1020E000002ADED13360C4E96C66C4F8B861DFE76A
:1020F00009F0C2F81023A28D87F81C803B7194F878
:1021000064303868FA80C3F302037B7794F8653053
:10211000C3F30203BB77394609F080F809F088F869
:1021200094F8EC30B4F8EE10C3F382085B09FFF7C3
:10213000F5B894F8723103F00703052B00F2DA8149
:1021400001A050F823F000BFD31800005118000080
:10215000011800008B0A00008B0A00008B0A0000A7
:10216000C4F8C051FEF77ABFC4F8C081B5E494F852
:102170009A01B4F8A671A4F89E21002363F302002B
:1021800084F89A01A4F8A431A4F8A271FFF70CBA5C
:102190001A68026018600368C4E96D00FEF7EBBFBF
:1021A000D4F8B421002A7FF453AF0360C4E96C0073
:1021B000C4F8B80153E71A682A601D602B68C4E9A7
:1021C0006D55FFF7D7B8C4F8C06175E703682B6099
:1021D00005602868C4E96D5500287EF456ACFFF709
:1021E000CCB800BF489701006C980100249401000E
:1021F000041C002084940100D4F8B41100297FF459
:1022000032AD1A60C4E96C33C4F8B83132E51A68EB
:102210002A601D602B68C4E96D55FEF71CBFB74AE4
:10222000B749B84840F6335313F0E8F8404080F31C
:1022300011884FF0030002DF3868A9E41A680260D1
:1022400018600368C4E96D00FFF728BA1A683260A5
:102250001E603368C4E96D66FFF717B91A6832600B
:102260001E60C4E96D66FFF70FB9B4F8A421002A17
:1022700040F0D48084F89971A4F8CC207FE41A68E7
:10228000C8F80020C3F80080D8F80030C4E96D8891
:1022900020E49D4805F0C6F9014600283EF4C0AF91
:1022A000037943F003030B71112003220F23C8713C
:1022B0004A710B7294F873314B722046002209F078
:1022C00041FE94F8703184F8713100233B6094F83A
:1022D000E80094F8E930FEF7D3BB8B4805F0A2F98B
:1022E000014600283EF49CAF0379182243F0030313
:1022F00003714271B4F87421B4F87631B4F87801FE
:102300000A81B4F87A214B8110238881CA81CB716C
:1023100094F87C310B74B4F87E31B4F88001B4F8D1
:102320008221A1F81130B4F88431A1F81300B4F877
:102330008601A1F81520B4F88821A1F81730B4F867
:102340008A31A1F81D30A1F81900A1F81B20204600
:10235000424609F0F7FD94F8703184F8713194F831
:10236000E80094F8E930C7F80080FEF789BB080759
:1023700084F8A921C1F3820268D594F8AA21022128
:1023800061F3840284F8AA2194F8AA2157064FEA3F
:10239000521153D5022161F3471284F8AA2194F80F
:1023A000AA1194F864C094F8650094F8AB21C1F3C5
:1023B00082070CF0070C00F00700C2F38002BC4556
:1023C00008BF00275200B0EB511F42F001024FEA54
:1023D000511108BF002142EA4112023B42EA870242
:1023E000062184F8E93084F8EC2084F8EA10FEF73E
:1023F00075BB424A4249434840F6726312F0FEFF01
:10240000404080F311884FF0030002DF2868E5E4C4
:102410001A6832601E60C4E96D6649E600200B460A
:1024200060F30203A4F89E21B4F8A62184F89A313F
:10243000A4F8A401A4F8A221FFF7A1BBC8070FD5F7
:10244000012161F3471284F8AA21A8E7D10710D52A
:1024500094F8AA21012161F3840284F8AA2193E768
:1024600011F0040118BF042161F3471284F8AA2176
:1024700095E712F0040218D094F8AA21042161F320
:10248000840284F8AA217FE71A6802601860C4E910
:102490006D00E4E5B4F87631FFF7FEB91168196014
:1024A0001360C4E96D33FFF7E5BB94F8AA1162F33A
:1024B000840184F8AA1167E7104A1449114840F6CC
:1024C0005B5312F09BFF404080F311884FF00300F4
:1024D00002DFFEF703BB094A0C490A4840F65B538A
:1024E00012F08CFF404080F311884FF0030002DFB0
:1024F000FEF796BE40F65F435AE500BF48970100DD
:102500006C98010024940100041C002084940100B4
:102510002DE9F04F9C4695B05CF80C6B1D46136896
:1025200086460C4660462E31174605F1080A0322FE
:10253000D3F80090CDF828E005F11C0813F021FD38
:1025400004F12A010422504613F01BFD04F13A0164
:102550000522404613F015FD4046052105F030FAEE
:1025600095F8213000F03F0060F30503012885F85D
:1025700021300AD994F83F3003F01F02053AC3F323
:1025800004010B2A85F8221002D915B0BDE8F08F9E
:102590003A6896F8DC1000209060B4F83480A5F812
:1025A000128094F8362094F837005B0942EA002242
:1025B00063F38401AA82638E86F8DC10ADF83030B4
:1025C0000EF080FF034696F8DC000B93C0F3820008
:1025D0000EF07AFF0B9BDFF828C394F83110AA8A1B
:1025E00040F2E24B0BFB08F8184408FB00F000F542
:1025F000742000F23F20ACFB00C04FEA580C800C66
:102600000BFB01F1ACF1960CA862C5F82CC0E96394
:10261000218FB14BADF8361042F2107C0CFB0181DA
:10262000AE48434402F1060C0139B3FBF8F3B1FBA9
:10263000F8F1A6F8C61099B261454044A6F8D21048
:10264000B0FBF8F0A6F8CA0002DD891A063989B293
:10265000A6F8CE100422514606F1E00013F091FCDA
:10266000237F04F11E0A5146C3F38013062212A8E9
:102670008DF8403013F085FC237F4FF48072A283E5
:1026800099F82A0097F812B0C3F340128DF83C2055
:102690000B920DF03BFD0146062204F12B000029B0
:1026A00040F0ED8013F098FC04F12503BBF1FF0F1F
:1026B0000E9304F11F0300F0EB801A465146584672
:1026C0000CF0A0FFA27F0E980232A27712A9062278
:1026D00013F057FC96F8DC30698AAA8AA286C3F305
:1026E000820384F83830BDF83630E38661863046A0
:1026F00009F04AFF21462882E0807C680A9808F0A9
:102700008DFD2B8AE3800F2323710B9B2068002B08
:1027100000F0BA8095F809E02B7A95F80BC0A97AF9
:1027200095F8212041EA0C2143EA0E234B4042F068
:10273000400201216B8485F821202177214608F091
:102740006DFD08F075FD95F84900012100F00700C6
:102750000EF046F9624A4FF0000A8346312300F238
:102760005240A0FB02013360C6E901AA58A3D3E995
:102770000023FDF705FDFC68BDF83020AD6A20F0B0
:102780007F4040F2E24303FB023302215246F060F5
:10279000A4F5AE7401201C4404F0E8FF484609F09B
:1027A00057FA821C4F4BCDF80090D2B2504601210F
:1027B00006F0D0FA0128A8EB0508A4EB0B047FD0A3
:1027C00099F82830DB0773D4304609F0DDFEDFF8D6
:1027D00010B1A8FB0B893EA3D3E900230546494667
:1027E0004046FDF7CDFC404A069620F07F4AAAFB02
:1027F0000223072101FB0A3340F23F11BF68089111
:102800003A4907913A490591B8EB020069EB030197
:10281000F368049300264FF47A7200230396FDF7C1
:10282000AFFC2BA3D3E900238446A4FB0B01CDE925
:1028300001ACFDF7A5FC033520F07F40EDB2313F40
:102840003B4600902A463046012106F017FA30F048
:1028500002030CD0274A284928484FF4A07312F0ED
:10286000CDFD404080F311884FF0030002DF0122CC
:102870001046022104F07AFF15B0BDE8F08F04F194
:10288000240113F07EFB0FE79DF83C30237755E7DA
:102890000E9811930622002113F09EFB9DF8403004
:1028A000A377119B12A91846062213F06AFB11E7C1
:1028B0000023012200931846114606F04BFA83E7E5
:1028C00008F04EFD81453FF47BAF0CF0CDFB77E780
:1028D0008D49FD1A070000007FC3C901FF5962023C
:1028E00000CA9A3B95F000008D49FD1A39F00000AE
:1028F000B1F000003C99010080980100249401008F
:1029000083DE1B43000000002DE9F041D0E90BC736
:10291000D0F828800CEB07043034A0450E4615464D
:1029200018D81B4F18A3D3E90023ACFB0701FDF710
:1029300027FCA4EB080420F07F40306012A3D3E909
:102940000023A4FB0701FDF71BFC20F07F4028605B
:10295000BDE8F0810E4C0CA3D3E90023A8FB0401D1
:10296000FDF70EFC20F07F4307F130003360A0FB41
:10297000040105A3D3E90023FDF702FC20F07F400A
:102980002860BDE8F08100BF8D49FD1A07000000F6
:1029900000CA9A3B70B516F0C6F8144C01460546BD
:1029A000134812F02BFD2168124812F027FD23680E
:1029B000B3F5007F15D2104E1A013068855000EB38
:1029C000031000F08BF92368356805EB031510F050
:1029D0009DF9C1B2284600F045F923680133236010
:1029E00070BDBDE87040054812F008BD5C0E0020C7
:1029F00010A001002CA00100580E00204FA00100E3
:102A000037B5414812F0FAFC4049414812F0F6FC53
:102A10004FF4005012F0A4FC3E4B3C4A3E49186073
:102A200000284AD03D4812F0E9FC002437493C48D0
:102A300012F0E4FC00F038F9344A002842D136495B
:102A4000384812F0DBFC3149374812F0D7FC00203F
:102A500002F038FC2D4A00283BD12F49334812F0B0
:102A6000CDFC2A49324812F0C9FC324932480022D2
:102A700016F084F84FF4167200232F48CDE9002396
:102A800012F08AFB214A24492C4812F0B7FC1F4956
:102A90002B4812F0B3FC00F0BBF81C4A00BB1E49E7
:102AA000284812F0ABFC14F0020520D0264812F0A2
:102AB000A5FC0124204603B030BD184812F09EFC4E
:102AC0000224B3E72149174812F098FC84F001046E
:102AD000B9E71E49154812F091FC84F00204C0E7E2
:102AE0001A49184812F08AFC84F00104DBE714F05C
:102AF000010404D0164812F081FC2C46DAE7154890
:102B000012F07CFCD6E700BF74A0010011A2010006
:102B100098A00100580E00201EA20100ACA00100E8
:102B2000C1A00100CFA00100DEA00100EEA00100C5
:102B3000FFA00100952900001808002012A1010043
:102B400026A1010040A101005BA1010008A2010033
:102B50007AA10100A9A1010008B5FFF751FF28B92A
:102B6000054812F04BFCFFF715FFFEE7034812F093
:102B700045FC002008BD00BFD8A10100F0A1010064
:102B800037B510481C46154612F038FC00238DF866
:102B90000730BDF8183023440F2B07DD0A4812F028
:102BA0002DFC6FF00604204603B030BD01222946FB
:102BB0000DF1070013F0E5F9044B9DF807209A7218
:102BC000F1E700BF27A2010049A2010096480020BA
:102BD000F0B50C4685B005460B481F46164612F068
:102BE0000DFC0F230293E3680193BDF82830009396
:102BF00032463B462146284614F0A6FF034B0022EE
:102C00009A7305B0F0BD00BF69A20100964800208C
:102C100070B50F480F4D88B012F0F0FB0E4B0F4807
:102C20001D2200261A70FF229E705A70DA7012F070
:102C3000E5FB0FCD03AC0FC42B6823600849009659
:102C40003346032203A802F0B3FC08B070BD00BFF6
:102C50008AA201000090010096480020B2A2010063
:102C60006890010038B504460D480D4612F0C6FBC9
:102C70000C4BB4F9042094F9051019715A71E288CB
:102C8000DA71110A997122895A72110A1972DD7268
:102C9000A2895A73110AFF2219739A73002038BD52
:102CA000CFA201009648002008B5084811F024FA88
:102CB000074B186020B9074812F0A0FB012008BD9F
:102CC000054812F09BFB0020F9E700BFECA20100D1
:102CD000600E0020F3A2010016A3010070B5234D81
:102CE0002B688AB00446002B3DD0214812F086FBA9
:102CF000286883683821DB689847286804AA0D2172
:102D000012F04AFB286806AA102112F045FB08AA17
:102D10000E21286812F040FB164812F06FFBDDE927
:102D2000041201EB810303EB830042F2107392FB68
:102D3000F3F505EB8000DDE90656A08005EB850084
:102D400000EB800096FBF3F303EB8003E38009982C
:102D5000089B0090CDE901560748238112F04EFBF5
:102D600000200AB070BD0120FBE700BF600E00200C
:102D700032A301004FA301007BA301002DE9F04322
:102D800087B0214C9DF83C909DF8408006460F4648
:102D900010461946142550EA010317D1119C142D31
:102DA00018BF0135A4F1150408BF30232C4408BF17
:102DB0008DF8143024EAE47414B1B9F1000F12D183
:102DC000142D15D9D4B907B0BDE8F0830E9A0023AD
:102DD000FDF7D6F9A25C0DF8052084460B46604647
:102DE0001946013DD7E739464046B047013CE3E785
:102DF0001DF805003946B0470135E1E73946404640
:102E0000B047013CDEE700BFB6A301000B68013309
:102E10000B60014B1B68184738010020014B1860FC
:102E2000704700BF380100202DE9F04F002687B021
:102E300005468B461C4602F1FF3A4FF0FF383746F5
:102E40004FF0000907E0B9F1000F0BD1252800F081
:102E50000A815946A8471AF8010F0028F3D107B094
:102E6000BDE8F08F7A280AD8622810D8302851D0CF
:102E700044D8252800F0F5802D2800F0FB80594625
:102E80002520A8479AF800005946A847D8E7A0F19E
:102E90006303172BF3D801A252F823F05B30000034
:102EA0005D2F00007F2E00007F2E00007F2E00008F
:102EB0003F2F00005D2F00007F2E00007F2E0000BE
:102EC0003F2F00007F2E00007F2E00007F2E00008D
:102ED000D72F00007F2E00007F2E0000233000003F
:102EE0007F2E00005D2F00007F2E00007F2E00004F
:102EF000052F00007F2E00003F2F0000392815D934
:102F00005828BCD19AF80030702B6ED154F8042B9D
:102F1000002375E0B8F1000F0BDA002F00F0AC8051
:102F2000A0F13008002F08BF022794E7B8F1000F86
:102F3000F6DB0A2303FB0808A8F13008F2E768284B
:102F400003D1682E06D1482685E76C2802D16C2E65
:102F500000F09480002E92D106467CE77A2E06D1AE
:102F6000A14659F8042BD317752823D10FE06C2EF6
:102F7000F6D04C2E05D1073424F00709F9E80223D6
:102F8000F2E77528226804F1040912D10023F81E23
:102F900018BF0120012F0CBF3024202401900A20EB
:102FA000CDE90248009059462846FFF7E7FE4C4617
:102FB00046E7D317002A73F10001E8DA59462D20BD
:102FC000CDE90423A847DDE90423524263EB430320
:102FD00008F1FF38DBE759463020A84759467820EA
:102FE000A8474FF0080801278CE76C2E8ED04C2E96
:102FF0008CD1E31D23F007031C465B6854F8082BB3
:10300000F81E18BF0120012F0CBF30212021CDE96F
:10301000021810210190009128465946FFF7AEFE94
:103020000EE754F8043B99464A4619F8010B78B963
:10303000032F25D1A2EB0309A8EB0909B9F1000F71
:103040007FF7FEAE59462020A84709F1FF39F5E782
:1030500059460493A847049BE6E754F8040B5946E5
:1030600013E7594611E74E464F464FF0FF384FF0F1
:103070000109F0E60327EEE60127ECE64C26EAE636
:103080008146E8E607B50B46002102460191034858
:1030900001A9FFF7C9FE03B05DF804FB0D2E000087
:1030A0002DE9F84FB0F8189019F008080446934637
:1030B0000DD001290CBF49F0100949F02009A0F8F2
:1030C00018908BF31188BFF36F8FBDE8F88F09F06C
:1030D0000709022907D1204612F09DF90028F0D0F7
:1030E0000128238B50D16769218B002F15DA2568C1
:1030F00021F00701C4E9008841F001012183002685
:10310000218B01F0070ACA4502D0A368002B5CD1CD
:103110000DB9002E74D0002358E001F007035A1FA8
:10312000012A20D821F00701062B256889B2C4E9BD
:1031300000880CD1002D2B4638BF00232BB1628BA9
:103140001B6801326283002BF8D141F00201218318
:10315000204612F060F906460028D1D0238B43F0B8
:1031600020032383CBE7042B0CD121F0070189B284
:103170002183204612F04FF905460028BFD041F0C8
:10318000200121830025BAE7032809D1226923F011
:103190000703166843F00603238300252F46AFE795
:1031A000042806D1226923F00703566843F004037C
:1031B000F2E7052806D1226923F00703966843F059
:1031C0000503E9E700252E46E8E7012341F0080161
:1031D00021838BF31188BFF36F8F03BB002D33D195
:1031E00016B121492046B0474FF02003EFF3118B71
:1031F00083F31188BFF36F8F238B23F0080323839E
:10320000238BDA0628D523F0100323830121B4F899
:10321000189009F0070900297FF45BAF51E7A16816
:103220000029DBD00B68D1F804B0002B38BF002395
:10323000994652463B462046D847B9F1000FCDD0BB
:10324000D9F800304946EEE729463B46524620462B
:103250002D6812F0FCF8C1E713F020011EBF23F027
:10326000200323830221D2E77B54010010B50748D5
:10327000074C10F041FF074B1860204600F05EFF3E
:103280002046FFF7CBFD002010BD00BFC7A3010003
:1032900099320000640E00200A2838B5074D044614
:1032A00004D1286883680D215B6898472868836883
:1032B000E1B25B689847204638BD00BF640E00202D
:1032C0000E4A70B5841AA3100D4C5C430546E4B257
:1032D0000C2000FB04200E464021084412F0AAFBFB
:1032E000011E05DB074B03EBC4046368984700210C
:1032F00028463346BDE87040184700BF780E0020CE
:10330000B76DDBB6D09001002DE9F041104E841B63
:10331000A310104C5C43E4B20C256543804605F1D4
:1033200040000F463044402112F09DFB011E09DB96
:10333000094A7319C3E90E27084B53F83430BDE826
:10334000F041184740463B46BDE8F041184700BFF2
:10335000780E0020B76DDBB6C95A0100D09001008D
:10336000002270B501210446104600F0F9FB002050
:1033700000F0C4FB0F4810F08FFB0F4B984215D1A3
:1033800014F0E5FFE6680D49304612F093F8002886
:103390000BDB01253564E468084904F11C0012F0D8
:1033A00089F8002801DBE564002070BD6FF004009F
:1033B000FBE700BFF53300000000AD0BE09001001B
:1033C00001460C2309484B4370B5C418D4E90E5686
:1033D00000224033A263184412F063FB2DB1324641
:1033E0002B460348BDE87040184770BD780E00209A
:1033F000DC05002010B1012804D07047034B1B6C82
:103400005B0701D1FFF7DCBF704700BF780E0020DB
:1034100008B54FF02003EFF3118183F31188BFF358
:103420006F8F124A136843F0020013F0010310601B
:103430000CD04FF08042D2F80C34D2F80C2413F0A8
:10344000010303D00A4812F02CFB012381F31188F9
:10345000BFF36F8F23B1BDE808400020FFF7B0BF76
:10346000BDE80840012010F027BB00BFC80E0020B7
:10347000B80E002010B5074C23782BB94FF4A57077
:1034800015F085FA01232370BDE81040002010F0EC
:1034900013BB00BFA5480020094BBFF35B8F53E867
:1034A000002F22F0020143E800100028F7D1BFF3FB
:1034B0005B8FD30702D4012010F04ABB704700BFD6
:1034C000C80E002010B58AB000230122CDE90632D3
:1034D000019308AA094BCDE9082204AC01AACDE961
:1034E0000444CDE9023412F012FB002804DB05226B
:1034F0000023204611F060FB0AB010BDDB5A01002A
:10350000024AC3B21C2003FB00207047780E002043
:10351000094BBFF35B8F53E8002F42F0010143E8F2
:1035200000100028F7D1BFF35B8F930702D401206E
:1035300010F0C2BA704700BFC80E0020094BBFF39D
:103540005B8F53E8002F22F0010143E800100028B0
:10355000F7D1BFF35B8F930702D4012010F0F8BAC4
:10356000704700BFC80E00202DE9F8433A49BFF369
:103570005B8F0646012251E8003F41E80020002809
:10358000F9D1BFF35B8F33B9344935484B60CB6019
:103590008A6011F0A2FF731E012B32D8012E07D1D1
:1035A0004FF08043D3F81C3403F00303012B28D0E1
:1035B00015F0E7F9044618B92A4B1B78002B44D1C3
:1035C0004FF02003EFF3118583F31188BFF36F8F62
:1035D0000124254FDFF89480DFF894904FF080426B
:1035E000D2F81834D2F81824D2030CD503F0030310
:1035F000012B01D0012E06D10CB385F31188BFF346
:103600006F8FBDE8F883ACB1284600F033FB4FF074
:103610008042D2F81835002BE0D139680029DDD07E
:103620003B603B680123C2F81835C8F88031C9F8FF
:103630000030D3E70021012011F076FAE7E74FF0E0
:1036400080430222C3F80423DBE74FF080430222C9
:10365000C3F808230546BCE7CC0E0020680E002006
:10366000940E0020D34C00200401004000E100E053
:1036700008000040821C084B22F07F42C3F840251E
:10368000D3F80425904200D17047D3F80405821C7A
:1036900022F07F42F2E700BF001001400A4B0022F7
:1036A0001A601B68094A0A4B1168D3F8400540F6B6
:1036B000CC43401A20F07F40B0FBF3F003FB001333
:1036C000136011F0BDBC00BF40110140D00E0020BE
:1036D0000010014038B5104D104B0024C5F80845C6
:1036E0001C601B680E4B4FF40032C3F880214FF46E
:1036F0008033C5F8043322460121112000F030FA4E
:10370000112000F0FBF9074A0123136002202B600F
:10371000FFF72AFF204638BD00100140401101404C
:1037200000E100E0081001402DE9F041324A334C3D
:103730001568D4F8043540F6FF115B1BB0F1FF3F6C
:1037400008BF084623F07F421B0240D4013820EA1C
:10375000E0708842A8BF084640F6CC434FF4803161
:10376000C4F808131A4403FB0020D4F80425B0FB66
:10377000F3F05843D4F84035214F224E4FF0000863
:103780009B1AC7F8008023F07F43B04294BF2D18E6
:10379000AD193868012B22F07F40C4F84005C4F809
:1037A000441305D10F2015F0F2F8C7F800803B68EC
:1037B000154B4FF40032C3F88021D4F804052B1ABE
:1037C00023F07F43012B04D1FFF754FF0DE00020CD
:1037D000C2E725F07F43C4F84035D4F804052D1A1C
:1037E000023D25F07F45B542EED84FF48033C4F852
:1037F0000433BDE8F08100BFD00E0020001001406E
:103800004011014034EB7F0000E100E04FF0200266
:10381000EFF3118382F31188BFF36F8F084AD2F858
:103820000405084A1268801A20F07F4040F6CC4216
:10383000B0FBF2F083F31188BFF36F8F704700BFC6
:1038400000100140D00E00204FF02003EFF3118252
:1038500083F31188BFF36F8F0649074B0868D3F8CD
:10386000043582F31188BFF36F8F1B1A23F07F4357
:1038700018447047D00E00200010014010B5114CC4
:10388000114AA2610323C4E90433104BE3612266A9
:103890004FF480630E4A0F492362626600231022B0
:1038A000E01DA3626362E3622367E3666367A26667
:1038B00012F03AFB0849204612F036FB2023A37190
:1038C00010BD00BFD40E0020DEA30100B6480020CA
:1038D000A6480020E7A30100EBA30100F0B5264EA7
:1038E00007460C460FCE8DB001AD0FC50FCE0FC5EC
:1038F00096E8070085E807003846002F38D0002CEE
:1039000038D0381F2146024610344B780D781B04FE
:1039100043EA0563CD782B438D78043143EA0523D0
:103920008C4242F8043FF0D1144C04218A07036909
:1039300016D1C3F30742A55C1A0EA25C42EA0562E7
:10394000C3F30725DBB2655DE35C42EA054242EA68
:1039500003220CAD21F003032B4453F82C3C5340BD
:1039600050F8042F013153402C290361DED101208E
:103970000DB0F0BD2046FBE714900100F2A301005A
:103980002DE9F043154689B00646002858D0002995
:1039900059D0002A59D010230A466846194612F019
:1039A000DDF8294668462A4C12F0F0F805F11007B8
:1039B000A146A035E8466A4610231178013B615CB8
:1039C00002F8011BF9D1684612F025F9694604A8EE
:1039D00012F05AF901A905A812F056F902A906A891
:1039E00012F052F903A907A812F04EF91023194654
:1039F0000DEB0302684612F0B1F8394668461037FD
:103A000012F0C4F8AF42D5D1102498F80030013C30
:103A100019F8033008F8013BF7D1684612F0FBF8BB
:103A20002946684612F0B2F8102319466A46304615
:103A300012F094F868461022214612F09CF80120FA
:103A400009B0BDE8F0830846FAE71046F8E700BF82
:103A5000F2A30100094A0A4993680968D96709492C
:103A600098674B6843F080534B60002383F31188C1
:103A7000BFF36F8F9368D86F704700BF002400209A
:103A80000CA0010000ED00E012498A684FF03800F8
:103A90001044EFF3098C80E8F01F202080F3118898
:103AA000BFF36F8F0C4F4FF000668A6A8A603E60EA
:103AB000906F0023936780F3118804B5104600F0DF
:103AC00083FABDE8044002F1380090E8F01F8CF35F
:103AD000098870470024002004ED00E01EF0040F68
:103AE0000CBFEFF30880EFF30980816911F8021C25
:103AF0000229FFD001B512F00CFA01BD43B2002B30
:103B000008DB012200F01F0002FA00F05B09024A04
:103B100042F82300704700BF00E100E043B2002BF1
:103B20000DDB01225B0900F01F0002FA00F02033D8
:103B3000034A42F82300BFF34F8FBFF36F8F7047E4
:103B400000E100E0054B420900F01F0053F822207D
:103B5000012303FA00F01040704700BF00E100E0CD
:103B600043B2002BA8BF03F1604301F10101B8BFCC
:103B7000064B4FEA4111ACBF03F5614300F00F0063
:103B8000C9B2B4BF195483F80013704714ED00E0B4
:103B900008B572B6044B586A18B100225A6214F084
:103BA000B0FC62B608BD00BF0024002042F8203CF3
:103BB000009B42F81C3C0A49019B42F8183C029BBE
:103BC00042F8143C21F001014FF0807342F8043CAC
:103BD00042F8081C0023203A82658367704700BFC3
:103BE0006D5501000B4A0346906890B113F1160F12
:103BF000806E05D0A0F120029A4206D8834204D2FA
:103C000081422CBF0021012100E00021002908BFD2
:103C1000002070470024002008B504460E461546D3
:103C200000F0B6F9084B20469C6000F0CDF928461C
:103C300086F30988002163B681F31188BFF36F8F83
:103C40000022002311F092FC0024002001491022E0
:103C50000A60704710ED00E072B6404080F31188B2
:103C6000BFF36F8FBFF34F8F30BF62B6BFF36F8F5D
:103C7000704700BF72B6494081F3118820BF80F3BE
:103C8000118862B6704700BF30BFFFF7FDBF00BFAD
:103C90000E4A08B50E4B22F07F029A60BFF34F8F99
:103CA000BFF36F8FD3F8882022F47002C3F8882006
:103CB000EFF3148323F0040383F3148810F080FAE5
:103CC00010F088FA00F036F910F0C2FA0000000097
:103CD00000ED00E001B572B60B4A506A00281EBF25
:103CE0000021516214F00DFC62B6EFF30580A0F1E3
:103CF00010004FEAC0000549014409C99847BDE8D2
:103D00000140034908470000002400208C8E010078
:103D1000193F000012F086F9202080F3118808482E
:103D20004FF40261401880F30988EFF314800221F8
:103D3000084380F31488BFF36F8FFFF7A9FF0000DB
:103D4000005B0020EFF30880EFF3098101B57246B4
:103D500000F064F801BD00BF38B5174B14469A6AED
:103D60009A6A9A6A0546900716D5586B9A6A12069F
:103D700004D519B19A6A22F080029A629A6A9A6A04
:103D80009A6AD2060BD400200B4A936A43F0FF03D1
:103D900093620023237038BD6FF01500EEE75B6877
:103DA0001B05F0D52946FFF71DFF0028EBD080F357
:103DB00009880220E8E700BF00ED00E00D4B9A6A99
:103DC0009A6A9A6A920508D59A6B9A6A120404D57F
:103DD00018B19A6A22F400429A62064B9A6A9A6A69
:103DE000D20558BF9A6A9A6A002042F47F429A62CA
:103DF0000870704700ED00E0074B9A6A9A6A9A6A69
:103E00009A6A9A6A9A6A9A6A6FEA02426FEA124258
:103E10009A620020704700BF00ED00E070B5374B9C
:103E20005B688AB00E46C3F30803002585F311884A
:103E3000BFF36F8F02F07F41B1F17F4F11D102F0DC
:103E40000C0108290DD0110701D4064601250022D6
:103E5000033B8DF80720032B48D8DFE803F0043F2D
:103E6000433C2E46F3E7254BDA6A92073ED4DC6AE0
:103E700014F0804409D028331B78F3B10DF1070208
:103E800001213046FFF768FF04469DF8073093B9DB
:103E90002022314602A812F074F8099B45B3C3F3FF
:103EA000080222B96FEA53236FEA4323099302A958
:103EB000204612F02CF80AB070BD114B1B782BB1C4
:103EC0000DF107010120FFF779FFDDE70D4B1888A1
:103ED00084B2002CD9D0FFF78FFFD5E70DF1070290
:103EE0000021CEE70DF107010020ECE70024CCE72C
:103EF00023F4FF7323F00103D8E700BF00ED00E0D7
:103F000029ED00E02AED00E0024A536943F0100376
:103F10005361704700ED00E0044B9968986A88424D
:103F200003D003494FF080520A60704700240020FC
:103F300004ED00E0044800232021C2180133272BA0
:103F400082F80013F9D1704700E100E008B50E4B8C
:103F50009B68834207D1EFF3058393B10B4A536803
:103F600043F08053536010F083FC4FF02003EFF3D5
:103F7000118083F31188BFF36F8FBDE8084014F000
:103F80001EBC10F00FFF00BF0024002000ED00E079
:103F90001FB5084B0193084B0293084B039301ABE9
:103FA0000093074A074B0121684600F0A7F805B0C7
:103FB0005DF804FB000000200000000000000B067C
:103FC00000000020000001201FB5836E203B0193FC
:103FD000064B2022CDE90223012101AB6846009364
:103FE00000F096F805B05DF804FB00BF00000B156B
:103FF000DFF884C0F0B50646002710468F4200DB8C
:10400000F0BD56F827E0DEF8044094B343B1651ED6
:104010002C4219D11F2C17D9DEF80020154213D1DC
:10402000202CC2B2DEF80050DEF808000FD9B4F13F
:10403000004F0ED8013CB4FA84F4C4F11F046400AC
:10404000072A44EA000406D96FF01500D8E70824CF
:10405000F6E73E24F4E725F01F05154345F010056B
:1040600044F00104CCF80820501CCCF80C50CCF8DB
:1040700010400137C2E700BF90ED00E0034B05227E
:104080005A60BFF34F8FBFF36F8F704790ED00E022
:10409000BFF35F8F014B00225A60704790ED00E044
:1040A00013490868082810B51ED8FFF7F1FF114C16
:1040B00049680022904201F10C0105D10E4B1870A5
:1040C000FFF7DCFF002010BDA26051F80C3C23F08C
:1040D0001F03134343F01003E36051F8043C43F023
:1040E000010323610132E5E74FF0FF30EBE700BF4A
:1040F000EC90010090ED00E0B64C002010B5034CB0
:1041000001232278FFF774FF207010BDB64C002009
:1041100008B5084A00231278FFF76AFF10F1160F5E
:1041200003D0054B0022072800DD08BD98601A6106
:104130000130F8E7B64C002090ED00E0014B18602C
:10414000704700BF3C0100204FF02003EFF31182C5
:1041500083F31188BFF36F8F06490123C1F84035FF
:104160004FF08041C1F8783582F31188BFF36F8F2B
:104170000020704700E0014020B1034B800143F074
:1041800001031847704700BF60900100F0B4027847
:10419000012A04460B4616D0022A2CD08AB9194AA5
:1041A0000D4602F11007106851682E4603C608320A
:1041B000BA423546F7D11278327062885A73120AC1
:1041C0009A73F0BC70470F4A0D4602F11007106851
:1041D00051682E4603C60832BA423546F7D11278E6
:1041E000327062685A73C2F30721120CDA73120A32
:1041F00099731A74E5E70146F0BC1122184611F0D4
:10420000C0BE00BF01A50100F8B50A4F0646002553
:10421000FB79ECB2A34202D86FF0010408E0C4EBD2
:10422000C4013944304612F000F801350028EFD1BE
:104230002046F8BD00000020436837B50446580505
:1042400008D422690AB1D90704D5164D2078EB7934
:10425000834202D8002003B030BDC0EBC000002371
:10426000694628440093CDF8033011F0DEFF0028A2
:10427000F0D06368DA0706D495F83820082A02D807
:10428000A2689F2AE6D9DB0601D4236943B9D4E9A1
:1042900002239A42DED81F2ADCD9B3F5804FD9D841
:1042A0000120D8E70000002010B5012104460830A5
:1042B00013F09AFD2146034A0078BDE81040072319
:1042C00011F04ABF0C91010013B50C4C01460522B8
:1042D00094F8370001F09AFC70B9094B18689A8875
:1042E00000909B79ADF8042094F837008DF80630E3
:1042F0000422694601F08AFC02B010BD00000020D3
:104300004E900100F0B5284A067885B005460F4664
:1043100002F12C00062111F03AFF144640B10821A9
:1043200002F12C0011F033FF10B1137EB34231D1F2
:104330002E46694616F80B3B84F83730304600238A
:104340000093CDF8033011F070FF0446287864B173
:10435000314612F006FB0446F8B92878314601F0E0
:1043600005FC0546E0B105210EE06FF0FF03029366
:1043700002A94FF6FF73ADF80C308DF80E3001F046
:10438000F5FB054660B1042101F066FC3D60204666
:1043900005B0F0BD6FF02204F9E76FF01504F6E701
:1043A0006FF00B04F3E700BF000000202DE9F04799
:1043B00000258768DFF8E890A8463B789D4201DB3E
:1043C000BDE8F08707EB8503B3F80100B3F803609D
:1043D0004FF02003EFF3118A83F31188BFF36F8F3F
:1043E00001F0ECFB044628B98AF31188BFF36F8F04
:1043F0000135E2E78AF31188BFF36F8F00F1280AD5
:1044000026B34FF02003EFF3118283F31188BFF33B
:104410006F8FE3696BB1013BE36182F31188BFF3F6
:104420006F8F204601F0A6FA013E10F09FFBB6B256
:10443000E6E763692BB1A169186860618B4208BF28
:10444000A06182F31188BFF36F8F1BB9204612F071
:1044500073FACDE74FF02002EFF3118182F3118858
:10446000BFF36F8FDA68E261C3F80080626AC3F855
:104470000C808AB9C4E9083381F31188BFF36F8FC8
:10448000012104F1300011F00BFFC307C9D45146DC
:10449000484614F035F9C4E713606362ECE700BFE7
:1044A000B80D0020F8B5064688790C460EF03EFBA4
:1044B000194B83422ED120460EF040FB20460EF0D1
:1044C0003DFB164D0C2707FB00535B685BB156B9EB
:1044D00020460EF033FB07FB00504368D3E9000190
:1044E0001A7A11F0FBFE20460EF028FB0C2707FB82
:1044F0000050836873B120460EF020FB78432E54A1
:1045000020460EF01BFB07FB0055A868BDE8F840ED
:1045100010F02CBBF8BD00BF780700207C0F0020F6
:1045200038B503210446083013F05EFCA368057813
:1045300018782146FFF7B6FF25B10348BDE838409B
:1045400010F014BB38BD00BFE800002038B50421CE
:104550000446083013F048FC457800782146FFF700
:10456000A1FF25B10248BDE8384010F0FFBA38BDC0
:10457000E80000202DE9F84F4FF0FF324FF0FF33F5
:1045800005461648DFF858800E4613F0B0FB044687
:1045900000F1080B00210027584613F0C7FB2775D0
:1045A00020460EF0CBFA4FF00C0A0AFB0080458043
:1045B00020460EF0C3FA0AFB0080876020460EF00A
:1045C000BDFA0AFB008003214760584613F0E5FB63
:1045D000867005802046BDE8F88F00BF7807002070
:1045E0007C0F0020F0B5154687B00C4621B9FFF7C7
:1045F000C1FF0446002847D001220021684614F07C
:10460000B0F920460EF09AFA214E0C2303FB00600D
:10461000C0F808D0204613F09AFB1E48214613F03C
:1046200089FB64220023684610F0C6FA074680B171
:10463000194A1A491A484FF4BC7310F0DFFE1948A2
:10464000394610F0DBFE404080F311884FF0030044
:1046500002DF20460EF072FA0C234343F65C56B19B
:1046600020460EF01FFB092E0CBF6FF03C006FF0D0
:10467000040007B0F0BD15B12C603046F9E72046C4
:104680000EF010FB2846F4E76FF03600F1E700BFAC
:104690007C0F00200401002012A5010046A50100A6
:1046A0004FA501006CA5010070B5154E062206F15C
:1046B0003101054611F055FC0446E0B1062142F2F5
:1046C0000500FFF757FF0446B8B106222946083017
:1046D00013F069FB2146002242F20500FFF782FF3A
:1046E000044640B90622294606F1310011F049FC82
:1046F000012386F83030204670BD6FF03604FAE7AB
:1047000000000020F7B5044611F00100154615D051
:104710001C4EC4EBC403E700F35C012B05D03C1B2B
:104720000020335D2B7003B0F0BD072010FB043078
:104730003044FFF7B9FF0028F1D0F4E74B0710D55C
:10474000104EC4EBC403E700F35C012B05D1072036
:1047500010FB04303044FFF7A7FF3C1B335D2B7088
:10476000E1E70621684605F035FD40B99DF80530C2
:10477000684603F03F038DF80530FFF795FF0123EE
:10478000EDE700BF000000202DE9F04F87B006469E
:104790009DF84880DDF840909DF844A00C461746EF
:1047A0000021102202A81D4611F016FCB8F1000FDE
:1047B0000ED0B4BB002D3FD1DFF8B0B0584611F099
:1047C000BDFB09238DF800308DF80100CDF804B051
:1047D000CDE90247B8F1000F30D0BAF1000F2DD16A
:1047E0000123CDF810D00593022202A942F208005D
:1047F00011F0D8FD044638B9BAF1000F20D10421D8
:1048000006F1140011F04CFD204607B0BDE8F08F12
:1048100014F83320083A012A25D901339F42F7D1F1
:10482000C8E70023FAE715F83320083A012A1AD915
:1048300001339945F7D1BFE70023FAE70122D4E716
:10484000CDE902590122B8F1000F03D00592CDF84D
:1048500010D0022202A942F2090011F0A3FD0028A3
:10486000CDD00446D0E76FF01504CDE78CA501004C
:104870007FB506460D4642F20A000121FFF77AFE97
:104880000446E8B10830CDB1012113F095FA143691
:1048900006232046029301968DF80C500EF04EF937
:1048A000094B0C2202FB003001AB43600022214681
:1048B00042F20A00FFF796FE04B070BD2946E4E715
:1048C0006FF03600F8E700BF7C0F002030B5134DC5
:1048D000C0EBC00085B005440C4671B100236946A9
:1048E00020460093CDF8033011F09FFC28B12146FB
:1048F000284611F053FC05B030BD02A811F0A0FD10
:1049000002A8FFF781FC0028F7DA02A9284611F077
:1049100045FC002CEFD029462046EAE700000020A5
:10492000024BD3F81C311B69184700BF0000002060
:1049300038B505460C4619B9FFF71CFE044698B178
:1049400040F635439D4209D12046FFF7E9FF054671
:1049500010B120460EF0A6F9284638BD044821467D
:1049600013F0E8F90025F7E76FF03605F4E700BF2C
:10497000040100207FB5837A072B04461ED1061D53
:104980000D21304611F003FCD0B9E37823B12B4B55
:1049900093F8A0301D0713D5022142F21600FFF74D
:1049A000E9FD054660B10221083013F0F6F92388CD
:1049B0000380294642F21600FFF7BAFF04B070BD2B
:1049C0000C21304611F0E3FB1C4D014678B995F8F7
:1049D000A130D8070BD5022300911A46204611F0CA
:1049E00074FD20B98021304611F05AFCE6E795F8B5
:1049F000A0309A0611D5D5F81C319B689B070CD5C1
:104A00000DF10E0103A811F0B5FC30B9BDF80E2070
:104A1000BDF80C10204611F03BFDE378012BCDD101
:104A20000821304611F0B3FB0028C7D13222002301
:104A300004F15801024810F0EFF9BFE70000002030
:104A4000B80D00202DE9F84FDFF80481DFF814A13C
:104A5000D8F80C303D486FF31033C8F80C3001F033
:104A600047F8451C3A484FF0FF324FF0FF332946D4
:104A700010F0EEFB60B13749374841F286435246A9
:104A800010F0BCFC404080F311884FF0030002DFBF
:104A9000DFF8D4902E4EA9F58277A9F11C0B15B939
:104AA0000FF0F4FFD4E7F368C3F30433042B42D1CF
:104AB000337B002B42D100220023484613F01CF91F
:104AC000044660B92549244841F22343524610F078
:104AD00095FC404080F311884FF0030002DF4FF057
:104AE000FF324FF0FF33584610F066F8D7F8000158
:104AF00020B10EF0D7F80023C7F80031204613F09C
:104B000026F9C7F800012046FFF70AFF98B11448BC
:104B100010F02CF820460EF011F821461F20FFF768
:104B2000C1FCD7F800010EF0BDF800232046C7F8FD
:104B300000310EF0B7F81436013DB0E7012BFAD181
:104B40003069343801F0F4F9F5E700BF5401002072
:104B50004001002046A501004FA5010093A50100DA
:104B6000E800002012A50100040100202DE9F04119
:104B7000044600F10806304613F046F9B4F80C80FC
:104B8000B8F1010F05460CD81C4A1D491D4841F6D5
:104B9000DC0310F033FC404080F311884FF0030039
:104BA00002DF0221304613F01FF90746007811F0AA
:104BB000C1FAC20706460CD4104A134911484FF4F3
:104BC000C75310F01BFC404080F311884FF00300E6
:104BD00002DF05230D4A3878214611F0BDFAB307EC
:104BE00007D52069A4F80C8010FA85F5A560BDE80A
:104BF000F0812046BDE8F0410EF054B812A5010046
:104C000097A501004FA50100B0A50100A4910100E6
:104C100070B5037D012B044636D0032B63D1838905
:104C2000032B0CD8324A3349334840F20C5310F06E
:104C3000E5FB404080F311884FF0030002DF0421C0
:104C400004F1080013F0D0F8FF224388068862754B
:104C5000A289C6F30B009A42E08203D020460EF0F0
:104C600021F80FE000F0AAFF05460028F6D001F079
:104C7000C7F9320B60752146284611F0D5FD28464C
:104C800011F05AFE002070BD8389012B0CD8184A00
:104C90001849194841F2104310F0B0FB404080F32E
:104CA00011884FF0030002DF022104F1080013F025
:104CB0009BF80546007811F03DFA83070CD40C4AA6
:104CC0000E490D4841F2144310F098FB404080F328
:104CD00011884FF0030002DF094A28780423214697
:104CE00011F03AFABAE70DF0DDFF6FF01500CAE7F0
:104CF00012A5010097A501004FA50100C9A501005B
:104D00008491010010B5037D012B04460CD0094AA3
:104D100009490A4841F6231310F070FB404080F324
:104D200011884FF0030002DF2046FFF71FFF00202D
:104D300010BD00BF12A50100F7A501004FA501009D
:104D4000084A0346D2F81C0130B9D96839B119694B
:104D500029B1C2F81C3170476FF0440070476FF002
:104D600015007047000000200148022111F098BA98
:104D700098000020004870478CA5010037B50C460C
:104D8000054618B9ECB16FF0150417E00023694629
:104D90000093CDF8033011F048FA0028F2D02B78B8
:104DA000012BF0D1AB7903F0C003C02BEBD1284627
:104DB000FFF72AFA0028E5DB6FF04404204603B031
:104DC00030BD074BDC79012C06D0621C29462046F9
:104DD000DA71FFF77BFDF1E76FF00B04EEE700BF40
:104DE0000000002070B586B001AA002141F2090040
:104DF000FFF7F8FB1A4E044618B10023F37106B012
:104E000070BD019B9D6804900135ADF81400062229
:104E100004A9284611F0A5F818B901980DF042FF31
:104E2000EBE7104B186802909B88ADF80C30062217
:104E300002A9284611F095F80028EED0294606224E
:104E40000DF1110011F09DF801988DF810400DF052
:104E500029FF012304A92046F371FFF737FDCEE7B0
:104E600000000020559001002DE9F341154B93F807
:104E70008A4014F0010407460E4615D001AA00210D
:104E80004FF60940FFF7AEFB0546C8B9019B9B688A
:104E90005C78B44228BF34464FF016089E1CA542E9
:104EA00006DB01980DF0FEFE204602B0BDE8F08161
:104EB00008FB05701622314611F063F80135EEE764
:104EC0000024F1E700000020F0B5144DEC7989B022
:104ED000F4B9012102A8FFF7C7FFE871C0B1162796
:104EE0000FE002AB07FB063106220DF1010011F0C5
:104EF00048F80123694630468DF80030FFF7E6FC9C
:104F00000134EB79E6B2B342EBD8002009B0F0BD32
:104F100000210846FFF732FFF8E700BF000000203D
:104F200073B53B4DD5F81C31996811F001011FD1C3
:104F300001AA40F60340FFF755FB0446002864D160
:104F4000019B9B681B7883B905F19803184611F003
:104F500018F9BFF35B8F00F0050053E8002F43E81A
:104F600000010029F9D1BFF35B8F01980DF09AFE83
:104F700001AA002141F20300FFF734FB0446002898
:104F800043D1019B234899680822013110F0F9FFB1
:104F900001980DF087FE214601AA41F20100FFF7BA
:104FA00021FB0446002830D1019883685A7885F89F
:104FB0003820D9789A7842EA01226A871A7985F8E6
:104FC0003920197ADA7942EA0122AA875A799B793B
:104FD00042EA0323EB870DF065FE214601AA41F268
:104FE0000200FFF7FFFA044678B9019B0A48996866
:104FF0004022013110F0C5FF01980DF053FE95F8E5
:1050000044305E060AD46FF01204204602B070BD30
:10501000000000204000002048000020214601AA96
:1050200042F20300FFF7DEFA04460028EDD1019BAF
:105030009F4899680822013110F0A3FF01980DF0F4
:1050400031FE214601AA42F20200FFF7CBFA0446E4
:105050000028DAD1019B9B68B3F80120A5F8CC2089
:1050600091B221B1DA789348114613F07AFC019895
:105070000DF018FE95F8446016F0200600F0FB8055
:1050800095F864301C0711D501AA002142F21C00DA
:10509000FFF7A8FA04460028B7D10198836853F8AF
:1050A000012F5B68C5E92A230DF0FCFD95F8A030BF
:1050B000980623D50DF10201684611F05BF904460C
:1050C0000028A2D1042142F22400FFF753FA064639
:1050D000002800F0D7800421083012F05EFEBDF8F1
:1050E00000300380BDF8023043802246314642F250
:1050F0002400FFF777FA0446002886D1082142F2FF
:105100000100FFF737FA0446002800F0BB800821B1
:10511000084412F042FE95F8A02012F0020F14BFCE
:105120002F230F23910695F8A12048BF43F0400399
:1051300012F0090F18BF43F4006300220370C3F399
:10514000072343708270C270027142718271C27112
:10515000214642F20100FFF745FA044600287FF499
:1051600054AF95F844309A061ED4B5F8CC10D9B98E
:1051700001AA41F20500FFF735FA044600287FF442
:1051800044AFB5F8CC3063B9019B9B685A789978E5
:1051900042EA0122A5F8CC209A884648114613F02D
:1051A000E0FB01980DF07EFD082140F60140FFF77D
:1051B000E1F90446002865D00821084412F0EDFD0D
:1051C000102303708823002243700226202382705C
:1051D000C670027142718271C371214640F601406E
:1051E000FFF700FA044600287FF40FAF014601AA3A
:1051F0004FF60140FFF7F6F940BB01980DF052FD64
:1052000001AA21464FF60240FFF7ECF9F0B9019BE5
:10521000294899683246013110F0B3FE01980DF02B
:1052200041FD95F889305B0710D501AA21464FF65C
:105230000340FFF7D7F948B9019B2048996801223C
:10524000114410F09EFE01980DF02CFDEB79002B1F
:105250007FF4DBAEFFF7C6FDEB79002B7FF4D5AE14
:10526000FFF732FE044600287FF4CFAE1448FFF764
:105270001BFA0446C9E6022140F66D40FFF77AF9B1
:10528000044610B96FF03604BFE60221083012F070
:1052900084FD0123037046702146324640F66D407E
:1052A000FFF7A0F9044600283FF4EAAEADE600BFE0
:1052B000A0000020D00000208900002088000020ED
:1052C0000100002070B5274DD5F81C3188B0064686
:1052D000002B40D0012105F1980010F0E1FF10F003
:1052E00001033BD1204A1660002000216FF0080224
:1052F000CDE90601CDE90232CDE9003304931B4923
:105300001B4B1C484FF420720FF0CAFC1A49194875
:1053100013F03FFBD5F81C31DB689847044650B9C1
:1053200066B9FFF7FDFD044628B900F075FE044696
:1053300008B9FFF719FD204608B070BD012105F13D
:10534000940010F0ADFFC307F5D40C4805F18C01B3
:1053500013F0D6F9EFE76FF01204ECE76FF04404B6
:10536000E9E700BF00000020940F0020E04C00207F
:10537000454A0000500800201AA60100B80D002080
:1053800010B5FFF7CDFD044628B900F045FE0446F0
:1053900008B9FFF7E9FC044B1B681BB12046BDE8C8
:1053A0001040184710BD00BF940F00202DE9F04FAA
:1053B0008DB005469A467C480E6900230C469146FE
:1053C000059310F0DEFE800740F1DF800846FEF70F
:1053D00033FF0746002800F0DB8005F114080621A2
:1053E000404610F0D4FE8346002840F0D4800F22BF
:1053F000014608A810F0F0FDA368ADF82030E3687E
:10540000ADF8223007232A788DF82D3023788DF8D7
:105410002EB09A4204D064486FF4805110F04FFFD0
:10542000624B2078287083F8370061680DF12502FF
:10543000FFF768F98346002866D105F10B00002EBE
:105440003FD0216910F0AAFE6068C10741D5002E47
:105450003CD010F0100F14BF0423012321698DF8F4
:1054600024300DF1260010F099FE0F2142F20600C3
:10547000FFF780F88346002800F090800F2208A9EB
:10548000083012F090FC0022594642F20600FFF765
:10549000A9F8002840F0858036B36368DA0737D46E
:1054A00001212846FFF7E4F983460598BBF1000F78
:1054B00065D048B3002100F0CFFB059811F03CFA0D
:1054C00022E0069606A9CDF81B60BBE78DF82460A4
:1054D000CBE7169B33B9C0F3C007C7F103038DF8C0
:1054E0002430C2E70127F8E76368C3F3C003CDE9BE
:1054F0000173179B00935246169B49462846FFF7B7
:1055000043F983460028C8D058460DB0BDE8F08F57
:1055100005A92846FEF7F6FE83460028C0D010F104
:105520000C0FF1D1002EEFD163689B07ECD46268B9
:1055300082F00202C2F3400B0BF001020C21404644
:1055400010F0CCFE62680721C2F3C002404610F0A2
:10555000C5FE6268082102F00102404610F0BEFE5E
:105560003A460921404610F0B9FE62680B21C2F3A9
:105570008002404610F0B2FE4FF0000BC4E708B1C5
:1055800011F0DAF9002ED7D1D1E76FF00A0BBBE7A3
:105590006FF0150BB8E76FF0440BB5E76FF0360B03
:1055A000B2E78346B0E700BF98000020000000206B
:1055B00013B5049CCDE9003413460A46014602485F
:1055C000FFF7F4FE02B010BD1800002013B5184814
:1055D00010F0D7FDC10429D5154810F0D2FD4206C0
:1055E000C0F3801422D4124810F0CBFDC3051DD5A2
:1055F000104801A9FEF786FEC0B90E480121FFF749
:1056000037F950B12146019800F026FB08486FF4A5
:10561000805110F054FEC0F30034019811F08CF961
:1056200024B103484FF4805110F03AFE02B010BD8F
:105630002C00002018000020F0B5057885B0044645
:105640009DB13C2D40D16FF04001434810F037FE32
:105650000020FEF739FE0446B0B34572002100F089
:10566000FBFA204611F068F92EE00379B0F80160EA
:10567000023B051D012BB7B2294602A826D810F01F
:105680008DFD9DF808300622023B04F111010DF159
:1056900001008DF8083010F074FC01238DF8003003
:1056A000E378012B0CD102A8FEF70EFEE378012B64
:1056B000054604D128486FF0400110F000FE65B99E
:1056C0001F21384610F0CAFE05B0F0BD10F066FD8F
:1056D0002946684610F062FDE2E7284602A920F854
:1056E000886B10F05BFD227EE37D43EA0223A5F880
:1056F0009E30A27E637E43EA0223A5F8A430E37EB7
:10570000227F43EA0223A5F8A630E378EB70002459
:10571000012B6C7216D1694605F18F0010F03EFD29
:10572000297A0E4EC1EBC101314405F1960010F00B
:1057300035FDD6F8AC10224601F04003134301D0EA
:10574000FFF744FF0721284600F086FA2846FFF7B6
:1057500011F9284686E700BF2C0000200000002039
:1057600038B50546054812F0C2FA044620B10021BA
:10577000083012F0DBFA2575204638BDA00700205E
:1057800070B502460B464FF02001EFF3118581F30F
:105790001188BFF36F8F0C480021D0F80041C0F88A
:1057A000001185F31188BFF36F8F24B9BDE87040F5
:1057B0000120FFF7D5BF012304F108002375A18163
:1057C00012F0B4FA204670BD0000002070B5044607
:1057D0000F2C0D461046194605D80D2C12D9BDE8E0
:1057E0007040FFF7CDBF132C0CD10B4812F07FFA9D
:1057F000044628B10021083012F098FA01232375DD
:10580000204670BD02460B460DB10448EEE7BDE8E8
:1058100070400120FFF7A4BFC80700202807002020
:105820000023C0E901330146C360014812F068BF9C
:10583000D006002038B5094B1D680446617A2DB9A1
:1058400051B92046BDE8384001F04ABE2B680BB183
:10585000204698472D69F1E738BD00BF980F00201A
:105860002DE9F8434D6904460E4690461F464FF019
:10587000FF333F484FF0FF320FF09EF9A37A072B1A
:1058800046D14FF02003EFF3118283F31188BFF369
:105890006F8F002D4ED000232B60A369002B46D1C3
:1058A000C4E9055582F31188BFF36F8F042106F117
:1058B000080012F089FA238808F0FD0843EA083846
:1058C000B389A0F80080043B43800223337530463F
:1058D000FFF726F8002849D04FF02003EFF311819D
:1058E00083F31188BFF36F8F002D39D063690022D5
:1058F00053B19D4231D12B684ABBA2696361954285
:1059000000D1A36100232B6081F31188BFF36F8F57
:1059100017480FF02BF915B12846FFF781FF1FB18B
:1059200030460DF0BFF900273846BDE8F8831D600A
:10593000A561B7E7A36933B103F10C09DB68013353
:10594000C9F80030AEE7E36904F11C09F7E713601A
:10595000A3699D4208BFA261D4E71A461B68C7E746
:10596000D9F80030013BC9F80030CDE70127DBE76B
:10597000D000002000487047D0000020031D70B503
:105980000446184610F0E5FE820519D5B4F89E20AD
:10599000B4F8A010914213D8B4F8A21091420FD3DA
:1059A000D4E9291291420BD1BFF35B8F53E8002F4A
:1059B00022F4007243E800210029F7D1BFF35B8F86
:1059C000074B1D6805B970BDEE683EB1B4F8A6304E
:1059D000B4F8A420B4F89E102046B0472D69F1E732
:1059E000980F0020F8B5074608460D4610F008FD50
:1059F000044610B900242046F8BD094B1E68002E4D
:105A0000F9D0B3680BB93669F9E7294638469847A3
:105A10000028EFD0284610F0F3FC0028F3D1E9E786
:105A2000980F002070B5044600F1340600220023D0
:105A3000304612F061F9054658B9204610F0EBFEE9
:105A400004F158010748BDE87040002200230FF020
:105A5000E3B9686908B1FFF7E3FE28460DF022F9C3
:105A6000E4E700BFB80D00202DE9F0419846837AA5
:105A7000072B06460D46174605D008460DF012F9CD
:105A80006FF0380015E062B30FF06AF8164B8342EE
:105A9000164807BF002200234FF0FF324FF0FF33BC
:105AA0000EF0E8FC044630B928460DF0FBF86FF024
:105AB0003600BDE8F081B37A072B06D028460DF0FA
:105AC000F1F82046FFF7ACFEDAE70023C0E90178E1
:105AD000C360686106F13400294612F02BF90020FA
