:10000000405C0020116C00001BAA0100416C000044
:10001000416C0000416C0000416C000000000000D9
:10002000000000000000000000000000D96900008E
:10003000416C000000000000856900004BA6010033
:10004000D16B000075320100D16B0000D16B000054
:10005000D16B0000D16B0000D16B0000D16B0000B0
:10006000D16B0000D16B0000D16B0000D16B0000A0
:10007000D16B0000D16B0000D16B0000D16B000090
:10008000D16B0000D16B0000D16B0000D16B000080
:10009000D16B0000D16B0000D16B0000D16B000070
:1000A000D16B0000D16B0000D16B0000D16B000060
:1000B000D16B0000D16B0000D16B0000D16B000050
:1000C000D16B0000D16B0000D16B0000D16B000040
:0C00D000D16B0000D16B0000D16B000070
:0400DC00FFFFFFFF24
:1000E00001F0FF01102A2BDB10F0070F08D010F8E9
:1000F000013B013A8B422DD010F0070F42B3F6D1ED
:10010000F0B441EA012141EA014122F007047FF005
:1001100000070023F0E80256083C85EA010586EA5C
:10012000010685FA47F5A3FA87F586FA47F6A5FA98
:1001300087F68EB9EED1F0BC01F0FF0102F00702A4
:1001400032B110F8013B013A83EA010313B1F8D14F
:100150000020704701387047002D06BF3546033830
:10016000073815F0010F07D1013015F4807F02BF69
:10017000013015F4C03F0130F0BC0138704700BFBA
:1001800081F0004102E000BF83F0004330B54FEA48
:1001900041044FEA430594EA050F08BF90EA020FB5
:1001A0001FBF54EA000C55EA020C7FEA645C7FEA48
:1001B000655C00F0E2804FEA5454D4EB5555B8BF6B
:1001C0006D420CDD2C4480EA020281EA030382EADC
:1001D000000083EA010180EA020281EA0303362D6E
:1001E00088BF30BD11F0004F4FEA01314FF4801C41
:1001F0004CEA113102D0404261EB410113F0004F53
:100200004FEA03334CEA133302D0524263EB430309
:1002100094EA050F00F0A780A4F10104D5F1200EA7
:100220000DDB02FA0EFC22FA05F2801841F1000102
:1002300003FA0EF2801843FA05F359410EE0A5F1D6
:1002400020050EF1200E012A03FA0EFC28BF4CF007
:10025000020C43FA05F3C01851EBE37101F00045BD
:1002600007D54FF0000EDCF1000C7EEB00006EEBCA
:100270000101B1F5801F1BD3B1F5001F0CD3490854
:100280005FEA30004FEA3C0C04F101044FEA4452AB
:1002900012F5800F80F09A80BCF1004F08BF5FEA32
:1002A000500C50F1000041EB045141EA050130BD12
:1002B0005FEA4C0C404141EB0101013C28BFB1F524
:1002C000801FE9D291F0000F04BF01460020B1FA6F
:1002D00081F308BF2033A3F10B03B3F120020CDA42
:1002E0000C3208DD02F1140CC2F10C0201FA0CF020
:1002F00021FA02F10CE002F11402D8BFC2F1200C85
:1003000001FA02F120FA0CFCDCBF41EA0C0190403A
:10031000E41AA2BF01EB0451294330BD6FEA040483
:100320001F3C1CDA0C340EDC04F11404C4F120026E
:1003300020FA04F001FA02F340EA030021FA04F380
:1003400045EA030130BDC4F10C04C4F1200220FAD7
:1003500002F001FA04F340EA0300294630BD21FA15
:1003600004F0294630BD94F0000F83F4801306BFDB
:1003700081F480110134013D4EE77FEA645C18BFCF
:100380007FEA655C29D094EA050F08BF90EA020F66
:1003900005D054EA000C04BF1946104630BD91EA5E
:1003A000030F1EBF0021002030BD5FEA545C05D161
:1003B0004000494128BF41F0004130BD14F58004A0
:1003C0003CBF01F5801130BD01F0004545F0FE4114
:1003D00041F470014FF0000030BD7FEA645C1ABF49
:1003E000194610467FEA655C1CBF0B46024650EA80
:1003F000013406BF52EA033591EA030F41F40021AC
:1004000030BD00BF90F0000F04BF0021704730B531
:100410004FF4806404F132044FF000054FF0000106
:1004200050E700BF90F0000F04BF0021704730B5C7
:100430004FF4806404F1320410F0004548BF40429C
:100440004FF000013EE700BF42004FEAE2014FEAF1
:1004500031014FEA02701FBF12F07F4393F07F4FCC
:1004600081F06051704732F07F4208BF704793F0CF
:100470007F4F04BF41F40021704730B54FF46074E2
:1004800001F0004521F000411CE700BF50EA0102E5
:1004900008BF704730B54FF000050AE050EA01028E
:1004A00008BF704730B511F0004502D5404261EBFE
:1004B00041014FF4806404F132045FEA915C3FF43F
:1004C000D8AE4FF003025FEADC0C18BF03325FEADC
:1004D000DC0C18BF033202EBDC02C2F1200300FA8D
:1004E00003FC20FA02F001FA03FE40EA0E0021FAB2
:1004F00002F11444BDE600BF70B54FF0FF0C4CF4A0
:10050000E06C1CEA11541DBF1CEA135594EA0C0F51
:1005100095EA0C0F00F0DEF82C4481EA030621EA8C
:100520004C5123EA4C5350EA013518BF52EA0335C7
:1005300041F4801143F4801338D0A0FB02CE4FF079
:100540000005E1FB02E506F00042E0FB03E54FF0A9
:100550000006E1FB03569CF0000F18BF4EF0010EA1
:10056000A4F1FF04B6F5007F64F5407404D25FEA9D
:100570004E0E6D4146EB060642EAC62141EA555150
:100580004FEAC52040EA5E504FEACE2EB4F1FD0C92
:1005900088BFBCF5E06F1ED8BEF1004F08BF5FEA10
:1005A000500E50F1000041EB045170BD06F00046C2
:1005B00046EA010140EA020081EA0301B4EB5C046F
:1005C000C2BFD4EB0C0541EA045170BD41F4801167
:1005D0004FF0000E013C00F3AB8014F1360FDEBF8C
:1005E000002001F0004170BDC4F10004203C35DA68
:1005F0000C341BDC04F11404C4F1200500FA05F3EB
:1006000020FA04F001FA05F240EA020001F000428B
:1006100021F0004110EBD37021FA04F642EB060101
:100620005EEA430E08BF20EAD37070BDC4F10C042B
:10063000C4F1200500FA04F320FA05F001FA04F2EF
:1006400040EA020001F0004110EBD37041F10001DB
:100650005EEA430E08BF20EAD37070BDC4F12005E6
:1006600000FA05F24EEA020E20FA04F301FA05F24E
:1006700043EA020321FA04F001F0004121FA04F2F6
:1006800020EA020000EBD3705EEA430E08BF20EAC6
:10069000D37070BD94F0000F0FD101F00046400000
:1006A00041EB010111F4801F08BF013CF7D041EA82
:1006B000060195F0000F18BF704703F00046520086
:1006C00043EB030313F4801F08BF013DF7D043EA57
:1006D0000603704794EA0C0F0CEA135518BF95EA0D
:1006E0000C0F0CD050EA410618BF52EA4306D1D194
:1006F00081EA030101F000414FF0000070BD50EAB3
:10070000410606BF1046194652EA430619D094EA3C
:100710000C0F02D150EA013613D195EA0C0F05D126
:1007200052EA03361CBF104619460AD181EA03017A
:1007300001F0004141F0FE4141F470014FF0000032
:1007400070BD41F0FE4141F4780170BD70B54FF0CD
:10075000FF0C4CF4E06C1CEA11541DBF1CEA13554D
:1007600094EA0C0F95EA0C0F00F0A7F8A4EB05042F
:1007700081EA030E52EA03354FEA013100F0888026
:100780004FEA03334FF0805545EA131343EA1263EF
:100790004FEA022245EA111545EA10654FEA0026A4
:1007A0000EF000419D4208BF964244F1FD0404F55D
:1007B000407402D25B084FEA3202B61A65EB0305B9
:1007C0005B084FEA32024FF480104FF4002CB6EB76
:1007D000020E75EB030E22BFB61A754640EA0C00F6
:1007E0005B084FEA3202B6EB020E75EB030E22BF36
:1007F000B61A754640EA5C005B084FEA3202B6EB77
:10080000020E75EB030E22BFB61A754640EA9C0035
:100810005B084FEA3202B6EB020E75EB030E22BF05
:10082000B61A754640EADC0055EA060E18D04FEAC3
:10083000051545EA16754FEA06164FEAC30343EA63
:1008400052734FEAC2025FEA1C1CC0D111F4801F30
:100850000BD141EA00014FF000004FF0004CB6E729
:1008600011F4801F04BF01430020B4F1FD0C88BFC8
:10087000BCF5E06F3FF6AFAEB5EB030C04BFB6EBD3
:10088000020C5FEA500C50F1000041EB045170BDC6
:100890000EF0004E4EEA113114EB5C04C2BFD4EBF3
:1008A0000C0541EA045170BD41F480114FF0000E77
:1008B000013C90E645EA060E8DE60CEA135594EAF3
:1008C0000C0F08BF95EA0C0F3FF43BAF94EA0C0FF6
:1008D0000AD150EA01347FF434AF95EA0C0F7FF46B
:1008E00025AF104619462CE795EA0C0F06D152EABF
:1008F00003353FF4FDAE1046194622E750EA4106A3
:1009000018BF52EA43067FF4C5AE50EA41047FF4B3
:100910000DAF52EA43057FF4EBAE12E74A0011D265
:1009200012F5001211D20DD56FF47873B3EB625249
:100930000ED44FEAC12343F0004343EA505323FA55
:1009400002F070474FF00000704750EA013002D1CA
:100950004FF0FF3070474FF0000070477BB972B91D
:100960000029BEBF00204FF0004106E008BF00286C
:100970001CBF6FF000414FF0FF3000F0B9B9ADF18E
:10098000080C6DE904CE002909DB002B1ADB00F00E
:100990004DF8DDF804E0DDE9022304B07047404281
:1009A00061EB4101002B1BDB00F040F8DDF804E0B7
:1009B000DDE9022304B0404261EB4101524263EBA6
:1009C00043037047524263EB430300F02FF8DDF816
:1009D00004E0DDE9022304B0404261EB41017047CD
:1009E000524263EB430300F021F8DDF804E0DDE957
:1009F000022304B0524263EB4303704753B94AB930
:100A0000002908BF00281CBF4FF0FF314FF0FF3016
:100A100000F06EB9ADF1080C6DE904CE00F006F8F7
:100A2000DDF804E0DDE9022304B070472DE9F0476A
:100A3000089D0E4604468C46002B40F081808A4279
:100A4000174645D9B2FA82F24AB1C2F1200106FA3C
:100A500002F320FA01F1974041EA030C94404FEA77
:100A6000174E230CBCFBFEF6B9B20EFB16CC43EAC4
:100A70000C4306FB01F0984209D9FB1806F1FF3C34
:100A800080F01581984240F21281023E3B441B1ACD
:100A9000A4B2B3FBFEF00EFB103344EA034400FBA8
:100AA00001F1A14209D93C1900F1FF3380F0018125
:100AB000A14240F2FE8002383C44641A40EA0640FB
:100AC00000211DB1D4400023C5E90043BDE8F087F3
:100AD00002B9FFDEB2FA82F2002A4FD1CB1B4FEAF5
:100AE000174E1FFA87F80121B3FBFEFC260C0EFB04
:100AF0001C3346EA034608FB0CF3B34207D9BE1980
:100B00000CF1FF3002D2B34200F2EB808446F61AB9
:100B1000A3B2B6FBFEF00EFB106643EA064408FBE8
:100B200000F8A04507D93C1900F1FF3302D2A045D7
:100B300000F2D2801846A4EB080440EA0C40C0E75B
:100B40008B4208D9002D00F0AF800021C5E90006D6
:100B50000846BDE8F087B3FA83F1002949D1B342D2
:100B600002D3824200F2BB80841A66EB03030120A9
:100B70009C46002DAAD0C5E9004CA7E7C2F120038E
:100B80009740D8409140DE404FEA174E08434FEA65
:100B9000104CB6FBFEF11FFA87F80EFB11664CEA0B
:100BA000064601FB08F3B34204FA02F409D9BE1960
:100BB00001F1FF3C80F08E80B34240F28B8002391D
:100BC0003E44F31A86B2B3FBFEF00EFB103346EA46
:100BD000034600FB08F3B34207D9BE1900F1FF3CFE
:100BE00074D2B34272D902383E44F31A40EA01414A
:100BF0007AE7C1F1200703FA01F422FA07F31C4354
:100C000020FA07F906FA01F34FEA144CFE4049EACC
:100C100003094FEA1943B6FBFCFE1FFA84F80CFBEC
:100C20001E6643EA06460EFB08FAB24502FA01F2D6
:100C300000FA01F308D9A6190EF1FF3048D2B245E7
:100C400046D9AEF1020E2644A6EB0A061FFA89F930
:100C5000B6FBFCF00CFB106649EA064600FB08F800
:100C6000B04507D9A61900F1FF3C2DD2B0452BD9CC
:100C70000238264440EA0E40A6EB0806A0FB028993
:100C80004E45C446CE4618D315D075B3B3EB0C020F
:100C900066EB0E0606FA07F722FA01F3CE401F4371
:100CA000C5E90076002111E7294628460EE7664689
:100CB000EDE6184601E74345E7D2B8EB020C69EBD5
:100CC00004040138A646E0E76046D3E760468CE7B7
:100CD0008646B9E7614674E702383C442BE708468C
:100CE00047E7ACF1020C3E4411E72946EEE600BFAF
:100CF000704700BF4FF0FF3C06E000BF4FF0010C13
:100D000002E000BF4FF0010C4DF804CD4FEA410C5A
:100D10007FEA6C5C4FEA430C18BF7FEA6C5C1BD027
:100D200001B050EA410C0CBF52EA430C91EA030FA8
:100D300002BF90EA020F0020704710F1000F91EA05
:100D4000030F58BF994208BF90422CBFD8176FEAD3
:100D5000E37040F0010070474FEA410C7FEA6C5CA1
:100D600002D150EA013C07D14FEA430C7FEA6C5CA8
:100D7000D6D152EA033CD3D05DF8040B704700BFD4
:100D80008446104662468C461946634600E000BF22
:100D900001B5FFF7B7FF002848BF10F1000F01BDF4
:100DA0004DF808EDFFF7F4FF0CBF012000205DF8BF
:100DB00008FB00BF4DF808EDFFF7EAFF34BF012044
:100DC00000205DF808FB00BF4DF808EDFFF7E0FFDD
:100DD00094BF012000205DF808FB00BF4DF808ED2E
:100DE000FFF7CEFF94BF012000205DF808FB00BF95
:100DF0004DF808EDFFF7C4FF34BF012000205DF877
:100E000008FB00BF4FEA410C7FEA6C5C02D150EA5C
:100E1000013C0AD14FEA430C7FEA6C5C02D152EAF2
:100E2000033C02D14FF0000070474FF001007047C3
:100E30004FEA410212F5001215D211D56FF4787302
:100E4000B3EB625212D94FEAC12343F0004343EAA5
:100E5000505311F0004F23FA02F018BF4042704780
:100E60004FF00000704750EA013005D111F000400A
:100E700008BF6FF0004070474FF00000704700BFA0
:100E800010F8012B11F8013B012A28BF9A42F7D034
:100E9000D01A7047034613F8012B002AFBD1181A09
:100EA00001387047000000002DE9F04397B0044678
:100EB000142200210CA81CF07FFD022705AB0A2696
:100EC00001251422002111A80E938DF840600D9584
:100ED0000F971CF071FD04238DF85460684E129337
:100EE0000DF11603CDE91337306883680CA95B68F0
:100EF00098473068836811A95B689847BDF914006A
:100F0000FFF790FA4CA3D3E90023FFF7F5FA4CA3BF
:100F1000D3E90023FFF7F0FA4BA3D3E90023FFF74F
:100F200015FC064602460B4656480F4618F0A8FA2E
:100F300047A3D3E900235449002017F0AFFB46A391
:100F4000D3E900238046894630463946FFF71CF92D
:100F500043A3D3E9002306460F4640464946FFF720
:100F6000CBFA02460B4630463946FFF7EFFB3EA36D
:100F7000D3E90023FFF7EAFB3DA3D3E9002317F0F1
:100F80008DFB3DA3D3E90023FFF7B6FAFFF7C6FCBC
:100F9000BDF91410A0813D483D4E18F099FFBDF9F0
:100FA00016103A4818F094FFA1893A4818F090FFBB
:100FB0003368002B3ED0384818F08AFF30688368C9
:100FC0003821DB689847306806AA0D2118F04EFFDB
:100FD000306808AA102118F049FF0AAA0E213068CB
:100FE00018F044FF2D4818F073FFDDE9061201EBFD
:100FF000810303EB830042F2107392FBF3F505EBE0
:101000008000DDE90856A08005EB850000EB80003C
:1010100096FBF3F303EB8003E3800B980A9B0090AD
:10102000CDE901561E48238118F052FF002017B069
:10103000BDE8F0832846FAE76666666666660A409B
:101040005C8FC2F5285CF33F0000000000F88F4081
:1010500003CDE7DCED7ABD3FCDCCCCCCCCCCF43F9E
:1010600063B83A00E24E0840BE4F55A18158B63FE2
:10107000F513CE6E2D130840EA3E00A94D9CDC3FCF
:1010800018110020D1FB010000003940E4FB0100F1
:101090001C110020FCFB010018FC010035FC0100C4
:1010A00061FC0100000000002DE9F04FB34C94F802
:1010B000D6608FB006F00106002800F0CE81C6BBD6
:1010C00094F87C7094F8290094F82C204FF02709AC
:1010D0002D2309FB074700F0030019FB0239FF230A
:1010E00084F82A3011F018FB94F8D600410707F174
:1010F0007D0704EB090800F1258114F80900314649
:10110000C0F380100AF0A2FE0368C8F8023083889A
:10111000A8F806300368C7F802308388FB8014F80B
:1011200009305A060AD413F00E0F40F0E380636AC8
:1011300093B10C2630460FB0BDE8F08F062108F1C0
:10114000020009F0E9FA002800F0348214F80930AE
:1011500013F00E0FEBD0CDE00DF07CF882460028A6
:1011600000F04F820DF082F88346002800F0628282
:101170000EF05AFA0546002800F059824FF6FF7328
:10118000806FAB8505F11C030B93002800F03582BE
:1011900005F16C0205F1680109F0CAFAB5F864209E
:1011A000774995F83DE095F8DC0095F840C0C5F822
:1011B00030A10A4042F4887295F8261142F00102EB
:1011C0000EF03F0E6EF07F0E20F0030021F00301C1
:1011D000A5F86420002262F3000C4FF01B1385F881
:1011E0003DE085F8DC0085F826116648664985F8FB
:1011F0003F204FF0060EC5E913226A866A636A65CE
:10120000A5F8C820A5F8CC20A5F8E82085F8EA20A4
:10121000C5F80021A5F80421A5F81821C5F820215A
:10122000A5F8242185F82F21AA67EB6585F840C031
:101230002866A5F8C4E0C5F81C11A5F87C2095F82F
:1012400072E195F89AC195F87E0095F85211A5F8CB
:10125000502162F3C30C62F3041E21F0070120F059
:101260001F00A5F87021A5F89821A5F8A42185F8FC
:101270009AC185F872E185F8521185F87E000EF06A
:101280000BFDA5F8D6000EF00DFDD5F8A8313F49AD
:10129000A5F8D8001940C5F8A8110EF009FD95F879
:1012A000AC1160F3020185F8AC110EF007FDC4E942
:1012B00033AB0B9B636295F8AC1195F820C0ED61E0
:1012C0000301002203F0700321F078010B4362F365
:1012D000000CC5E96E22C5E96C22C5E90522C5F8F6
:1012E000C02185F8AC3185F820C012F0DFFB002862
:1012F00040F06C8194F828300121C3F342030DA81B
:101300008DF8343009F08CFB002800F09B8014F835
:10131000093003F00F03022B00F1FF3238D0012B0C
:1013200000F0588178781030C100002B00F0448123
:10133000062B00F084814FF4DA704FF41B7100FB30
:10134000021030E0C0F3C000324604F1D70111F0C2
:10135000B5FBFF2884F82A0002D0304611F07CFA51
:101360000648414611F0F2F90448394611F0EEF909
:1013700014F809305A067FF5D6AEDFE6781B002058
:1013800080F8FFFF480148017F4101000000FFF69F
:1013900098F801301033DB0000FB03F000F5AA7071
:1013A000642303FB020094F82070B14AE461002535
:1013B000312365F30007A0FB0201236084F820704D
:1013C000A9A3D3E90023C4E90555C4E90155FFF7F2
:1013D00015FBB4F8D480E0600AF032FD0746B8F19E
:1013E000000F08D114F8095005F00F05A5F101050B
:1013F000B5FA85F56D0994F82820E36865F30002D5
:1014000012F0010584F8282000F08580DFF874923E
:1014100098490493002002250DF1300801930591AD
:10142000CDE907980321CDE9020006942A460090F1
:101430003B460C950AF052FC41460CF09FFF0028F9
:1014400000F0A580636A002B3FF473AE0DF0B2FA92
:101450000C2630460FB0BDE8F08F002E3FF469AE89
:1014600020460CF099FF84420CD0834A834984487B
:101470004FF4E56318F02CFD404080F311884FF0E5
:10148000030002DF94F82830D8070DAD0ED50222F4
:101490000D9203217B4B0095012200200AF08AFC6B
:1014A00029460CF06BFF002840F0D3800222032174
:1014B000744B009500200D920AF07CFC29460CF03C
:1014C0005DFF002840F09F806F480CF0A1FF0028CE
:1014D00040F085806D480CF06BFF84420CD0664A6A
:1014E0006649674840F24A7318F0F2FC404080F3C6
:1014F00011884FF0030002DF636A0BB10DF05AFA56
:1015000094F8D63000266FF30003304684F8D630C6
:101510000FB0BDE8F08F5E485E4ADFF868E1DFF8A3
:1015200054C10694A8FB00014FF0910909FB081172
:1015300003F24718C2F800804FF0020904930992A1
:101540000DF1300848A3D3E900234FF6FF7ACDE927
:1015500007E80295CDF83090CDF814C0CDF80CA076
:10156000FFF74CFA4A46CDE900503B462846032196
:101570000AF05EFB41460CF001FF00287FF462AFE9
:1015800094F8D63043F0010384F8D630D2E54249CE
:1015900005914AF2D8320092CDE90798CDE90300CF
:1015A000CDE9010006943B46012203210C950AF087
:1015B00095FBDFE71226BDE598F801001030C0006A
:1015C00000F54D73194400F59A70B8E60DF0F2F984
:1015D0000326AFE54FF4F2704FF47F71AFE6264A71
:1015E0002E49274840F2477318F072FC404080F3C0
:1015F00011884FF0030002DF6CE705F17000A86767
:10160000C6E5072696E521480CF0D2FE84423FF459
:1016100090AD40F24173184A1849194818F058FC27
:10162000404080F311884FF0030002DF81E5584607
:101630000CF022FE50460CF013FE07267AE598F8CF
:1016400001301033DB0003F54D70014403F59A704F
:1016500075E60E480CF0ACFE84423FF46AAD40F2F1
:101660003373D8E7AFF300808D49FD1A07000000FF
:1016700000CA9A3B85E6000008EE0100F8EE010082
:10168000E8EB010071E30000941B0020781B0020B0
:10169000002AE784581C002031E9000018ED010001
:1016A0002DE9F04F0446808D4FF6FF7398428BB0C2
:1016B0000E46154600F0898094F8E92094F8E80079
:1016C00082420ED0801A00F0030002281BD094F84A
:1016D0002D2194F82C319A4230D100200BB0BDE876
:1016E000F08F94F8521111F00108F0D194F805C16F
:1016F00094F80431634500F08983901E012384F837
:10170000E90084F8EA3094F8983194F899219A42E3
:1017100006D094F89A2102F00601042900F0BA8359
:1017200094F8EA707B1E052B00F26283DFE813F069
:101730007000FA027C0260032303DE01304808F0E7
:10174000A3FF58B394F82C3184F82D310379022289
:1017500043F0030342710371C271D4F8B03194F8BD
:101760002E2102722BB394F85221910721D494F8C0
:10177000AB21D2071DD4D4F8BC21934204BF1A6810
:10178000C4F8BC21D4F8B421B2B91A680260186058
:101790000368C4E96D000BB9C4F8C001B4F8CC000B
:1017A00000289AD1B4F8C630012B1CD9A4F8CC304B
:1017B00093E7D4F8B421E2B1D4F8B8311A680260E2
:1017C0001860C4F8B8010368E5E70E4A0E490F48EF
:1017D00040F2F32318F07CFB404080F311884FF077
:1017E000030002DF68E70133A4F8CC300BB0BDE89A
:1017F000F08F0360C4E96C00C4F8B801CBE700BF08
:10180000BC1E002004EF01006CF00100E8EB0100B9
:10181000A94F3B68002B00F00E85B4F83680628E2D
:1018200094F806319044A84413F003031FFA88F893
:1018300040F08683B4F8EC90A8EB09021FFA82FB13
:1018400012043FF544AF94F8701194F8712194F8A4
:10185000040184F805018A4294F8E80084F8E9005C
:1018600009D094F8722102F00702052A04BF84F817
:101870007111A4F8CC303B689C4204BF00233B604C
:10188000D4F80071002F00F091853868002800F02E
:101890008D85B4F80831E28D4168C4F80011934297
:1018A000B4F80A11B4F80CC100F0D286A28DFA8007
:1018B0004FF00C0E0022FB833984A7F822C087F872
:1018C00004E03A7739460CF0DDFC0CF0E5FC2368C7
:1018D000002B09DAD4E9011223F000438A422CBF1D
:1018E000B61876182360F61AE38DB4F8087113FB66
:1018F0000BF39BB2B3FBF7F117FB01F292B29342E9
:101900001FFA81FA80F04085D31A6C4840F2E24217
:1019100002FB03F3A3FB000165A3D3E90023FFF758
:101920006DF820F07F400644638EA9EB08081D4443
:1019300094F93D30D044A84440F2E249002BA4F889
:10194000328009FB07F7C0F241855D4A5D495E4878
:1019500040F6241318F0BCFA404080F311884FF091
:10196000030002DF4FF00008BA46B4F80C21B4F8C7
:101970000A11564B5648218642F2107C0CFB02722B
:101980003B443844B3FBF7F301F1060C013AB2FBD8
:10199000F7F2B0FBF7F798B2A4F8C6206045B4F8A8
:1019A0000821A4F8D200A4F8CA70E28502DD401A2A
:1019B000063880B294F80631A4F8CE00580744BF28
:1019C0000023A4F8C8300221012013F09FFE00225A
:1019D00002210746012008F0F9FE3E494FF4E47267
:1019E000204608F085FEC21C5FFA82F93A4B00944B
:1019F0004A46012100200AF0DDF930F002030CD044
:101A00002F4A3649304840F6531318F061FA4040E7
:101A100080F311884FF0030002DF284BAAFB03ABD1
:101A2000504623A3D3E900235946FEF7E7FF2C4A8B
:101A3000E368049320F07F45A5FB0223072000FB09
:101A40000533BAEB02006BEB0301DFF898E0DFF837
:101A500098C0089406944FF47A7200240023CDF8BD
:101A60001CE0CDF814C00394FEF7C8FF3346CDE95F
:101A70000150CDF8008020464A4601210AF02EF997
:101A800030F002030CD00E4A14490F4840F66D1393
:101A900018F01EFA404080F311884FF0030002DF77
:101AA000002F40F0EE856FF08B0017E6AFF300805B
:101AB0008D49FD1A07000000401E002000CA9A3B15
:101AC00004EF010048EC0100E8EB01007FC3C9010D
:101AD000FF596202781C0020F5F10000E4EF0100DC
:101AE0008D49FD1A9DF10000D1200100628EE38E28
:101AF00094F8EC1013441D44CA07ADB28C4600F1B3
:101B00008D82B4F8EE30ED1A28043FF5E0AD94F87C
:101B1000643094F8658094F8E820B4F8627084F832
:101B2000E92011F01C0F03F0070908F0070840F046
:101B3000B185B4F8606011F0E00F08D094F865202A
:101B40004B0963F3020284F865204FF4A47794F8FC
:101B5000AC3194F86420D4F80051C3F3C00363F3AC
:101B6000C30284F86420002D00F0B48528680028A2
:101B700000F0B08594F8643094F865204168C4F8AA
:101B800000111CF0020FC3F30201C2F3020E03F0B6
:101B9000070302F0070202D1994500F08187A38D67
:101BA000EB8010220023697785F81EE02A712B77DD
:101BB00029460CF067FBD4F80051002D00F0F185A8
:101BC0002868002800F0ED85B4F860304268C4F859
:101BD0000021B3420AD3B3F5A47F07D8B4F862302A
:101BE000BB4203D3B3F5A47F40F26E87A4F86060D4
:101BF000A4F862702B7FA28DEA8043F003030221D8
:101C0000092229712B776A77B4F85E30B4F85C202A
:101C10002B841523AA84EB7729466F84EE840CF07D
:101C200031FB0CF039FB52E594F8EC2012F003057F
:101C300000F09F8294F93D30002BBFF648AD012D96
:101C40007FF445ADBA4808F01FFD064600283FF472
:101C50003EAD0379042243F003030D2100F1080592
:101C600003714171C2710C21284611F021FDB36846
:101C7000F268C4F8FA20C4F8F630D4F8B03132690A
:101C8000C4F89C20002B00F0E78694F852219507B9
:101C900000F1E28694F8AB21D00700F1DD86D4F89C
:101CA000BC21934204BF1A68C4F8BC21D4F8B42103
:101CB000002A01F03281D4F8B8311A6832601E600F
:101CC000C4F8B8613368002B01F0CE800CF008FB3B
:101CD000014600283FF4FBAC0B7FA28DCA8043F085
:101CE000030302251720032248770B770D71CA776B
:101CF000D4F85531D4F859214A620B6294F8533123
:101D000081F8283094F8543181F8293008680CF0B3
:101D1000B9FA0CF0C1FA94F8EC3065F3010384F8D9
:101D2000EC30D4E4618EE38E94F8EC200B441D4437
:101D3000D107ADB200F1D081B4F8F230ED1A2E0423
:101D40003FF5C5AC94F8E83084F8E930234604F157
:101D5000380053F8ED2FA2631B790371052108F0B9
:101D60005FFE94F83D30012260F3050384F83D30B6
:101D700084F8C421ABE46E4808F086FC00283FF4E8
:101D8000A6AC94F8E83084F8E93001230279437175
:101D9000D4F8B03142F0030212210271C171002B5C
:101DA00000F0E78294F85221950700F1E28294F85E
:101DB000AB21D10700F1DD82D4F8BC21934204BFEE
:101DC0001A68C4F8BC21D4F8B421002A01F061805B
:101DD000D4F8B8311A6802601860C4F8B801036812
:101DE000002B00F0EE84B4F8CA30A4F8CC306EE4D6
:101DF000504A5149514840F2793318F069F840404F
:101E000080F311884FF0030002DF60E494F8193189
:101E100094F81871BB4253D194F8253194F8247189
:101E2000BB4200F02583DB1BDF077FF550AC94F845
:101E30002631D80740F151879F0740F13F870CF0CA
:101E40004FFA014600286CD094F8243184F82531EB
:101E5000037FA28DC28043F003030B77022006228A
:101E60000C2308714A77CB77B4F8282194F827011E
:101E7000B4F82A31A1F8233081F82000A1F82120FC
:101E800008680CF0FFF90CF007FA94F8E80094F8F1
:101E9000E92017E402F00701062901F2878101A079
:101EA00050F821F0C922000021170000211700007E
:101EB00021170000452200004522000021170000E4
:101EC000DB1BD8077FF503AC94F8DC3013F0010777
:101ED00000F012840CF004FA014610B394F81831A3
:101EE00084F81931A78DC0F82080C0F8248002231F
:101EF00009200A7F0B714877D4F82031CF8042F057
:101F00000302C3F307270A771A0CC87781F8203039
:101F100081F8217081F8222008680CF0B3F90CF0E8
:101F2000BBF994F8E80094F8E920FFF7CBBB00BFB9
:101F3000BC1E002004EF010048EC0100E8EB0100AA
:101F400001200CF0AFF9064600283FF4C0ABBB48B7
:101F500008F09AFB054600283FF4B9AB0CF0C0F935
:101F600094F80611238E3268D4F8000150606FF3A4
:101F70000101434484F8061106332979C4F800614D
:101F80009BB20C22A4F8EC3041F003016A71D4F842
:101F90001021D4F8B001AA4E29710021E971A6FBE5
:101FA000021294F81461B4F808112E72C2F38F2251
:101FB000B4F80A61A5F80B10B4F80C11A5F80F10CD
:101FC000A5F80D60A5F81130A5F80920002800F04B
:101FD000768394F852319E0700F1718394F8AB3107
:101FE000D90700F16C83D4F8BC31984204BF036870
:101FF000C4F8BC31D4F8B431002B00F06087D4F8B9
:10200000B8311A682A601D60C4F8B85128680028E1
:102010007FF45DABC4F8C051FFF759BB02200CF050
:1020200041F9074600283FF452AB844808F02CFBE6
:10203000064600283FF44BAB94F8EC306FF30003F6
:10204000C3F38200C3F3421250EA020884F8EC3072
:10205000DBB240F0158694F8E820A4F8EE809B07E8
:1020600084F8E92000F1C986434641460522727191
:1020700086F8088032797372D4F8B031718142F0F9
:10208000030218213271F171002B00F09E8394F845
:102090005221970700F1998394F8AB21D50700F1FD
:1020A0009483D4F8BC21934204BF1A68C4F8BC21BD
:1020B000D4F8B421002A00F01287D4F8B8311A6895
:1020C00032601E60C4F8B8613368002B7FF4FFAA49
:1020D000C4F8C061FFF7FBBA584808F0D5FA0028E9
:1020E0003FF4F5AA238E94F8EC1002791D44AB1D41
:1020F000A4F8F23042F0030223466FF300010826F1
:10210000012584F8EC1046710271C57153F8ED2F6A
:1021100082601B790373D4F8B031B4F8F220A0F8D0
:102120000D20002B00F0C08294F85221920700F19C
:10213000BB8294F8AB21D70700F1B682D4F8BC215A
:10214000934204BF1A68C4F8BC21D4F8B421002A11
:1021500000F0BD86D4F8B8311A6802601860C4F87F
:10216000B8010368002B7FF4B2AAC4F8C001FFF7DE
:10217000AEBA324808F088FA804600283FF4A7AA91
:1021800094F93D30002B00F1040980F2F78394F8B4
:102190007E301B0700F1E68594F8ED50002D00F02D
:1021A0009C84037994F8DC2043F00303D607037181
:1021B00040F10986D4F81C31580740F104861122F9
:1021C000032388F8095088F8072088F8083088F831
:1021D0000570D4F8B031002284F8ED20002B00F017
:1021E000D58494F85221910700F1D08494F8AB2162
:1021F000D20700F1CB84D4F8BC21934204BF1A6803
:10220000C4F8BC21D4F8B421002A00F0AF86D4F879
:10221000B8311A68C8F80020C3F80080C4F8B88143
:10222000D8F80030002B00F0278594F8E83084F8C7
:10223000E930FFF74CBA3C60FFF7EFBABC1E002054
:102240005917B7D102F00702B4F89CC1B4F8A01135
:10225000B4F89E91B4F8A281A4F85EC0042AA4F850
:10226000621000F0B48494F89A31062262F30203FB
:1022700084F89A31D4F80071002F00F09484386803
:10228000002800F090843B7F4268B4F82CE0C4F84A
:10229000002143F0030302223B774FF0090A152384
:1022A000A7F806E0A7F820C079843A71FB77394691
:1022B000A7F82490A7F8268087F81DA00BF0E2FF6E
:1022C0000BF0EAFFFFF72CBAD94808F0DDF9002837
:1022D0003FF426AA94F89A31B4F89E71B4F8A2217A
:1022E000A4F8D6700121A4F8D82061F302030922D2
:1022F00084F89A3142710279D4F8B031878142F082
:1023000003024FF0140CC172C173002702711B212C
:10231000482280F807C04772017282728273002BD4
:1023200000F0168394F85221920700F1118394F87B
:10233000AB21D70700F10C83D4F8BC21934204BF32
:102340001A68C4F8BC21D4F8B421002A00F0FC8536
:10235000D4F8B8311A6802601860C4F8B80103688C
:10236000002B00F04685B4F8CA30A4F8CC30FFF753
:10237000D7B9D4F8B421002A7FF42AAD0360C4E9A8
:102380006C00C4F8B8012BE507FB113340F2E242C0
:10239000A8489BB202FB03F3A3FB0001A2A3D3E96D
:1023A0000023FEF72BFB361AFFF7BEBAA24AA34959
:1023B000A34840F6AF0317F08BFD404080F311882F
:1023C0004FF0030002DF3868FFF763BAE26C636C1A
:1023D000984D03FB1B23E36412F064F8804694F8E5
:1023E000DC00C0F3820012F05FF808EB000307FB8B
:1023F00003F39448E26C94F8141103F5742303F288
:102400003F23A0FB03034FEA934B0BFB0AF07B082F
:102410000244963B9A4228BF1A4609FB01FC4FF042
:10242000000EC4E91232C4F854C07FA3D3E90023DC
:10243000C4F8E4E0C4F844B0A0FB0501FEF7DEFAFE
:10244000D4F8103184468048A0FB0330800A09FB91
:1024500000F075A3D3E90023A0FB0501A6EB0C0651
:10246000FEF7CCFAA7EB0B0A20F07F48FFF77DBA06
:1024700094F8717194F870319F4200F0B181734FFC
:102480003B68002B00F0DA849C427FF420A994F88A
:10249000723103F00703052B00F297860FF2040E4A
:1024A0005EF823F0912500000D250000BD240000FA
:1024B000C5160000C5160000C516000088073FF5C8
:1024C00006A90BF00DFF014600283FF42AAD037F5B
:1024D00094F87221032060F30202034384F872210E
:1024E000A08D0B77022718230F714B77B4F8742156
:1024F000B4F87631C880B4F878010A84B4F87A2147
:102500004B840F238884CA84CB7705E594F87381C4
:10251000B8F1000F40F03B8594F93D30002BC0F23C
:10252000A28594F8723194F87C11C4F810810522C8
:1025300062F30203012284F8723184F81421002925
:1025400000F0F985B4F87431B3FBF1F3134413FBD5
:1025500001F39BB294F8722194F80611A4F80831A3
:10256000C2F3C0039B0021F0070243F002031343B0
:10257000B4F87811B4F87A2184F806310CF1FF3CF4
:1025800084F805C1A4F80A11A4F80C21FFF79FB83C
:102590002748B4F83680B4F8329008F075F8014650
:1025A00000283FF4BEAC94F872010A794FF0040C95
:1025B0006CF3020042F003024FF0180C84F8720131
:1025C00008EB09030A7181F805C0B4F874C1B4F8C6
:1025D0007601B4F87821A1F808C02B44B4F87AC188
:1025E00048818A810F200022A1F811304FF0FF337B
:1025F000C8714B758B75CB750B764B768B76CB761E
:102600000B774B778B77A1F80EC00A74CA740A75E2
:1026100020460CF0B5FCB4F8CA303C60A4F8CC30CD
:102620007FE400BFAFF300808D49FD1A0700000072
:10263000BC1E002000CA9A3B04EF010088F0010094
:10264000E8EB010083DE1B435917B7D1401E002081
:10265000228E8A427FF42AA940F2E24202FB03FA68
:1026600042F21072B4F8C6E002FB0CA2013AB2FBCF
:10267000FAF292B296457FF419A903233B71FFF752
:1026800021B901221046022108F0A0F86FF08B005A
:10269000FFF724B8C1F3820262F3020384F86430C6
:1026A0004FF4A476FFF747BAD4F8B421002A7FF498
:1026B00051AD0360C4E96C00C4F8B80152E5D4F828
:1026C000B431002B7FF49BAC2860C4E96C55C4F88E
:1026D000B8519CE4A44AA549A54840F6286317F0E0
:1026E000F7FB404080F311884FF0030002DF2868B9
:1026F00094F8ECC0FFF73EBA9E4807F0C5FF0028EB
:102700003FF40FAC94F819219B4BC4F81C31013AEB
:10271000092384F81921437194F93D108760C7603B
:10272000D4F81C310372C3F307221B0C427283726C
:102730000279D4F8B0310029ACBF08210E2142F053
:102740000302C1710271002B00F0928194F85221B2
:10275000910700F18D8194F8AB21D20700F18881B7
:10276000D4F8BC21934204BF1A68C4F8BC21D4F841
:10277000B421002A00F00384D4F8B8311A6802604A
:102780001860C4F8B8010368002B00F02483B4F883
:10279000CA3094F8E80094F8E920A4F8CC30FEF7A9
:1027A00091BF714A7149724840F6546317F090FB2B
:1027B000404080F311884FF0030002DF2868FFF7E4
:1027C00003BAC4F8C001FFF70EBBD4F8B421002A45
:1027D0007FF473AC3360C4E96C66C4F8B86174E428
:1027E00094F8987194F89931BB4200F0FB8194F809
:1027F0009A3103F00701062900F2D5840FF2040C88
:102800005CF821F0AB280000C5160000C5160000DA
:10281000C51600002128000021280000C516000070
:10282000B4F89C21A4F85E2003F00702B4F8A011CC
:10283000B4F89E91B4F8A281A4F86210042A00F0C2
:102840008B83062262F3020384F89A31D4F8007174
:10285000002F00F06A833868002800F066833B7F11
:102860004268B4F82CC0C4F8002143F003033B775E
:10287000022209237B773A71B4F86220B4F85E1023
:10288000398415237A84A7F806C0FB773946A7F860
:102890002490A7F826800BF0F5FC0BF0FDFC94F8D3
:1028A000E80094F8E920FEF70DBF324807F0ECFE8F
:1028B000034600283FF435AB94F89A21B4F89E7192
:1028C000B4F8A211A4F8D6700120A4F8D81060F3CF
:1028D0000202092184F89A2159711979D4F8B0219A
:1028E0009F8141F003014FF0140CD872D873002778
:1028F00019711B20482183F807C05F721872997202
:102900009973002A00F0FE8294F85211890700F1B1
:10291000F98294F8AB11CF0700F1F482D4F8BC111E
:102920008A4204BF1168C4F8BC11D4F8B41100295C
:1029300000F02B84D4F8B821116819601360C4F832
:10294000B8311A68002A7FF422AFC4F8C0311EE7FC
:10295000D4F8B421002A7FF4FBAC0360C4E96C0016
:10296000C4F8B801FCE400BF04EF010088F00100E6
:10297000E8EB0100BC1E00207F41010004F17F064E
:1029800033462A4604F1EE0104F25D1012F06CFAAF
:10299000D4F88B20C4F8AC20D4F87F00D4F883108E
:1029A000D4F88730C4F8A0002246C4F8A830C4F890
:1029B000A41052F8981F94F89700526894F87E304B
:1029C000C4F8BD2094F8B820C4F8B91043F0080347
:1029D00065F3000042F0010284F8970084F87E302D
:1029E00084F88F5084F8905084F8915084F8925075
:1029F00084F8935084F8945084F8955084F8965055
:102A0000C4F8B0504946C4F8B45084F8B820204601
:102A10000CF0C0FCD4F8B031ABB394F8522191075C
:102A200031D494F8AB21D2072DD4D4F8BC219342F1
:102A300004BF1A68C4F8BC21D4F8B421002A7FF47A
:102A4000E6AB1A68C8F80020C3F80080D8F8003058
:102A5000C4E96D88FFF7E6BBD4F8B421002A7FF4FF
:102A60002AA93360C4E96C66C4F8B861FFF72BB9D2
:102A7000D4F8B421002A7FF47FAE0360C4E96C006F
:102A8000C4F8B80180E6D4F8B421002A7FF4BFABC3
:102A9000C8F80030C4E96C88C4F8B881FFF7C2BB3D
:102AA00090457FF47CA803232B7129460BF0EAFBA9
:102AB000D4F80051002D00F020832868002800F091
:102AC0001C834368C4F8003103232B7129460BF0A3
:102AD000D9FB0BF0E1FBFEF7FABD04F17F063346AC
:102AE0002A4604F1EE0104F25D1012F0BDF9D4F8AB
:102AF0008B20C4F8AC20D4F87F00D4F88310D4F82D
:102B00008730C4F8A0002246C4F8A410C4F8A83046
:102B100052F8981F94F8B8005268C4F8BD20C4F861
:102B2000B91094F87E2094F8971098F8043084F83F
:102B30008F5042F0080241F0010165F300000126C8
:102B400084F87E2084F8905084F8915084F8925054
:102B500084F8935084F8945084F8955084F89650F3
:102B6000C4F8B050C4F8B45084F8971084F8B80092
:102B700043F00303052288F8056088F8043088F8DC
:102B80000720D4F8B031002B7FF42BABD4F8B4215C
:102B9000002A7FF43CABC8F80030C4E96C88C4F864
:102BA000B881FFF73DBBD24AD249D34840F6F8433B
:102BB00017F08EF9404080F311884FF0030002DFD8
:102BC0003868B4F85EC0B4F86210FFF75CBBB4F8C4
:102BD000A421002A40F04C8184F89931A4F8CC203B
:102BE000FFF748BB94F8A83194F8A91199423EF434
:102BF0006EAD94F8AA1101F00300032800F0EF81F4
:102C000000287EF464ADBD4807F03EFD0146002873
:102C10003FF487A994F8AA3194F8AC2194F8AB71E9
:102C2000012060F30103C3F3820060F30202C3F3E7
:102C3000421060F30612C7F34007087984F8AA31FE
:102C400067F3C30284F8AC21C3F3820C40F00300A5
:102C5000C3F34213162203274B720871CA7181F81D
:102C600008C04F71002220460CF08AF9B4F8CA302F
:102C7000A4F8CC30FFF755B9C4F8C081FFF7D5BA36
:102C8000238E1D44AB1DA4F8EE300BF029FB3B68EE
:102C9000D4F800215A60C4F800710BF021FB0368DE
:102CA000D4F800215A6094F8EC30B4F8EE10C4F86F
:102CB0000001C3F382085B09FFF7D8B940F6173368
:102CC0008B4A8F498C4817F003F9404080F31188F4
:102CD0004FF0030002DFFFF724B9884807F0D4FC67
:102CE00000283FF41EA994F8252194F82631013AD2
:102CF00084F82521027943F00103062184F8263166
:102D000042F003024171D4F8B03102710B216FF02F
:102D10000E020C270172427205214FF0FF32C7717B
:102D20008172C2720273002B00F0BB8094F85221B2
:102D3000910700F1B68094F8AB21D20700F1B18081
:102D4000D4F8BC21934204BF1A68C4F8BC21D4F85B
:102D5000B421002A7FF410AD1A6802601860C4E93B
:102D60006D0010E5494620460CF014FBD4F8B03154
:102D7000A3B394F85221970730D494F8AB21D60727
:102D80002CD4D4F8BC21934204BF1A68C4F8BC21E7
:102D9000D4F8B421002A00F01A81D4F8B8311A68A6
:102DA000C8F80020C3F80080C4F8B881D8F8003013
:102DB000002B00F0818094F8523123F0030384F853
:102DC0005231FFF732BA0D2388F8085088F80730DF
:102DD0000227FFF7FCB9C4F8C001D8E4D4F8B42145
:102DE000002ADAD1C8F80030C4E96C88C4F8B88188
:102DF000DCE7C4F8C001FFF7B6BA0BF071FA102394
:102E0000A28D87F81C803B7194F864303868FA8092
:102E1000C3F302037B7794F86530C3F30203BB77F7
:102E200039460BF02FFA0BF037FA94F8EC30B4F87F
:102E3000EE10C3F382085B09FFF718B994F87231FA
:102E400003F00703052B00F2C08101A252F823F022
:102E5000912500000D250000BD240000CF160000C4
:102E6000CF160000CF160000C4F8C061FEF72EBFD9
:102E700094F89A01B4F8A671A4F89E21002363F394
:102E8000020084F89A01A4F8A431A4F8A271FFF713
:102E9000F1B91A68026018600368C4E96D00FEF7B2
:102EA0009FBFD4F8B421002A7FF466AC0360C4E964
:102EB0006C00C4F8B80166E4C4F8C0817BE703681D
:102EC0002B6005602868C4E96D55FFF7A0B81A6843
:102ED000026018600368C4E96D00FFF743B91A681F
:102EE00032601E603368C4E96D66FFF7EEB800BF5C
:102EF00004EF010088F00100E8EB0100BC1E002097
:102F000048EC0100D4F8B41100297FF413AD1A6025
:102F1000C4E96C33C4F8B83113E51A6832601E6036
:102F20003368C4E96D66FEF7CEBEA94AA949AA482E
:102F300040F6F84316F0CCFF404080F311884FF084
:102F4000030002DF38688AE41A68026018600368C8
:102F5000C4E96D00FFF704BAB4F8A421002A40F0D8
:102F6000DB8084F89971A4F8CC206FE41A68C8F863
:102F70000020C3F80080C4E96D88FFF751B91A68D2
:102F8000026018600368C4E96D00FFF7FDBB934859
:102F900007F07AFB014600283EF4C3AF037943F003
:102FA00003030B71112003220F23C8714A710B72A6
:102FB00094F873314B72002220460BF0E1FF94F835
:102FC000703184F8713100233B60FEF7AABF1A68A4
:102FD000C8F80020C3F80080C4E96D88E6E6080759
:102FE00084F8A931C1F3820340F1B18094F8AA3189
:102FF000022161F3840384F8AA3194F8AA315F06B0
:103000004FEA531140F19B80022161F3471384F88A
:10301000AA3194F8AA1194F864C094F8650094F861
:10302000AB31C1F382070CF0070C00F00700C3F3CB
:103030008003BC4508BF00275B00B0EB511F43F085
:1030400001034FEA511108BF002143EA4113023A3C
:1030500043EA8703062184F8E92084F8EC3084F8F9
:10306000EA10FEF75DBB5D4807F00EFB0146002845
:103070003EF457AF0379182243F003030371427102
:10308000B4F87421B4F87631B4F878010A81B4F850
:103090007A214B8110238881CA81CB7194F87C31CD
:1030A0000B74B4F87E31B4F88001B4F88221A1F831
:1030B0001130B4F88431A1F81300B4F88601A1F8F6
:1030C0001520B4F88821A1F81730B4F88A31A1F896
:1030D0001D30A1F81900A1F81B20204642460BF034
:1030E0004FFF94F8703194F8E80094F8E920C7F89D
:1030F000008084F87131FEF7E5BA354A3549364823
:1031000040F6376316F0E4FE404080F311884FF03C
:10311000030002DF2868D4E4002161F30203A4F86D
:103120009E21B4F8A62184F89A31A4F8A411A4F839
:10313000A221FFF78BBBB4F87631FFF70BBAC807B3
:103140000FD5012161F3471384F8AA3161E7D9074C
:1031500010D594F8AA31012161F3840384F8AA31CF
:103160004BE711F0040118BF042161F3471384F801
:10317000AA314EE713F004030ED094F8AA310421CB
:1031800061F3840384F8AA3137E71168196013608A
:10319000C4E96D33FFF7D5BB94F8AA1163F384013A
:1031A00084F8AA1129E74FF4526389E5084A0C49CB
:1031B00009484FF4526316F08BFE404080F31188AB
:1031C0004FF0030002DFFEF7ABBA40F6244377E589
:1031D00004EF010088F00100E8EB0100BC1E0020B4
:1031E00048EC0100000000002DE9F04F1C46136878
:1031F0000D46D3F800A031F82ECF2346174653F8DA
:103200000C6B8A78A4F80CC09A70D5F82A30A360A9
:103210002B46814653F83A2FE26104F11C001B79DA
:10322000037193B0052107F0FBFB94F8213000F007
:103230003F0060F30503012884F821300AD995F88E
:103240003F3003F01F02053AC3F304010B2A84F850
:10325000221002D913B0BDE8F08F3A6896F8DC105E
:1032600000209060B5F83480A4F8128095F83620DC
:1032700095F8370042EA0022A2825B0963F38401D9
:103280006B8EADF82C3086F8DC1040F2E24303FB85
:1032900008F811F007F9834696F8DC00C0F38200C5
:1032A00011F002F9584408FB00F0DFF824E395F828
:1032B00031C0A18ABC4A00F5742000F23F20AEFB69
:1032C00000304FEA580E40F2E24303FB0CF3800C4F
:1032D000AEF1960EA062E363C4F82CE0B5F838B006
:1032E000B24842F2107303FB0B83424401F1060C17
:1032F000013BB2FBF8F2B3FBF8F3A6F8C63093B289
:1033000063454044A6F8D230B0FBF8F0A6F8CA00F6
:1033100002DD5B1A063B9BB2A6F8CE302946A368B5
:10332000C6F8E03051F81E0F2B7F8A88ADF8442094
:103330004FF4807CC3F38012A5F81CC08DF83820B0
:10334000C3F3401210908DF83C200A929AF82A009C
:10335000BA7C0D910C920FF0A1FEDDE90C2105F174
:103360002B03002840F0ED80FF2AC5F82B00988041
:1033700005F1250300F0F180104605F11F020C93C2
:103380000FF002F9AA7F0C9BBDF844101098C5F805
:1033900025000232AA77998096F8DC30618AA28AE9
:1033A000AA86C3F3820385F838306986A5F836B05B
:1033B00030460CF045F929462082E8807D68484671
:1033C0000AF060FF238AEB800F232B710A9B286889
:1033D000002B00F0D18094F809E0237A94F80BC018
:1033E000A17A94F8212041EA0C2143EA0E234B40B4
:1033F00042F040020121638484F821202977294684
:103400000AF040FF0AF048FF94F84900012100F05B
:10341000070010F0ADFA664A00258146312300F21C
:103420005240A0FB02013360C6E901555CA3D3E919
:103430000023FDF7E3FAFA68D4F828C0A2F5AE74C9
:10344000BDF82C2020F07F4040F2E24303FB023322
:1034500002212A46F06001201C44A8EB0C0807F06A
:10346000B5F950460BF02EFC821C524BCDF800A053
:10347000D2B22846012108F09DFC0128A4EB0904E2
:1034800000F086809AF82830DB0779D430460CF0BB
:10349000D7F8DFF81CB1A8FB0B8941A3D3E90023BF
:1034A000054649464046FDF7A9FA434A069620F0EC
:1034B0007F4AAAFB0223072101FB0A3340F23D1198
:1034C000BF6808913D4907913D490591B8EB02005D
:1034D00069EB0301F368049300264FF47A7200232A
:1034E0000396FDF78BFA2EA3D3E900238446A4FBB1
:1034F0000B01CDE901ACFDF781FA033520F07F40E7
:10350000EDB2313F3B4600902A463046012108F09B
:10351000E5FB30F002030CD02A4A2B492B484FF42C
:103520009F7316F0D5FC404080F311884FF00300E4
:1035300002DF01221046022113B0BDE8F04F07F070
:1035400045B92846FF2A50F824CFC5F82BC08088FB
:10355000988005F125037FF40FAF0022BDF84410D9
:103560001098C5F825209A809DF83830A5F82310CA
:10357000AB77C5F81F000FE79DF83C302B773EE78F
:103580000023012200931846114608F013FC7DE742
:103590000AF01AFF82453FF475AF0EF075FD71E732
:1035A0008D49FD1A070000007FC3C901FF5962025F
:1035B00000CA9A3BB52001008D49FD1A592001002F
:1035C000D120010028F10100E4EF0100E8EB010047
:1035D00083DE1B43000000002DE9F041D0E90BC75A
:1035E000D0F828800CEB07043034A0450E46154671
:1035F00018D81B4F18A3D3E90023ACFB0701FDF734
:10360000FDF9A4EB080420F07F40306012A3D3E959
:103610000023A4FB0701FDF7F1F920F07F402860AB
:10362000BDE8F0810E4C0CA3D3E90023A8FB0401F4
:10363000FDF7E4F920F07F4307F130003360A0FB91
:10364000040105A3D3E90023FDF7D8F920F07F405A
:103650002860BDE8F08100BF8D49FD1A0700000019
:1036600000CA9A3B00000000B0B5D8B000AFC7E96F
:103670000201C7E90023D7E90223C7E92223D7F8CB
:103680008C30C7F81C31D7F88830C7F81831D7E923
:103690000023C7E92023D7F88430C7F81431D7F8BE
:1036A0008030C7F81031D7F81C3123F00043C7F839
:1036B0002031D7F8143123F00043C7F80C31D7F884
:1036C0000C21D7F810311343002B04D14FF0000424
:1036D000BC4D01F0B7B8D7F82031BB4A934216DC95
:1036E000D7F82031B84A934203D1D7F81831002BCC
:1036F0000DD1D7F80C31B44A934208DCD7F80C311D
:10370000B14A93421BD1D7F81031002B17D0D7F80C
:10371000203103F1404303F580131A46D7F81831DE
:103720001343002B04D14FF00004A64D01F08AB8DA
:10373000A64815F037FA04460D4601F083B8002379
:10374000C7F82831D7F81C31002B58DAD7F80C31DC
:103750009F4A934203DD0223C7F828314FE0D7F890
:103760000C319C4A93424ADDD7F80C311B15A3F269
:10377000FF33C7F82C31D7F82C31142B1DDDD7F8C7
:103780002C31C3F13403D7F8102122FA03F3C7F820
:103790000831D7F82C31C3F13403D7F808219A4007
:1037A000D7F810319A422AD1D7F8083103F0010333
:1037B000C3F10203C7F8283121E0D7F81031002BFC
:1037C0001DD1D7F82C31C3F11403D7F80C2142FADC
:1037D00003F3C7F80831D7F82C31C3F11403D7F835
:1037E000082102FA03F3D7F80C219A4207D1D7F83F
:1037F000083103F00103C3F10203C7F82831D7F8F9
:103800001031002B76D1D7F80C316F4A934235D165
:10381000D7F8203103F1404303F580131A46D7F857
:1038200018311343002B04D14FF00004654D01F013
:1038300009B8D7F82031674A93420DDDD7F8143123
:10384000002B03DBD7E9004500F0FCBF4FF000047C
:103850004FF0000500F0F6BFD7F81431002B07DA5F
:103860003B461C683B1D1B6883F0004500F0EABF27
:103870004FF000044FF0000500F0E4BFD7F80C3122
:10388000504A934214D1D7F81431002B0CDA4FF080
:1038900000004C49D7E90223FCF758FF02460B46CB
:1038A00014461D4600F0CEBFD7E9024500F0CABF5E
:1038B000D7F81431B3F1804F0BD1D7E90223D7E900
:1038C0000201FCF719FE02460B4614461D4600F0A5
:1038D000B9BFD7F81431404A93420BD1D7F81C3105
:1038E000002B07DBD7E9020100F0B6FF04460D46C6
:1038F00000F0A8BFD7E9020119F0C8FFC7E95401D9
:10390000D7F81831002B69D1D7F820312E4A9342CD
:1039100008D0D7F82031002B04D0D7F82031294A1D
:1039200093425BD1D7E95423C7E95623D7F8143122
:10393000002B0ADA4FF000002249D7E95623FCF7A2
:1039400005FF02460B46C7E95623D7F81C31002B6A
:1039500033DAD7F8203103F1404303F58013D7F869
:1039600028211343002B1AD1D7E95623D7E9560152
:10397000FCF70AFC02460B4614461D46D7E95623BF
:10398000D7E95601FCF700FC02460B4620462946C3
:10399000FCF7DCFE02460B46C7E956230DE0D7F8DC
:1039A0002831012B09D1D7F85831C7F85831D7F849
:1039B0005C3183F00043C7F85C31D7E9564500F02D
:1039C00041BF00BF0000F03F0000F07FBCE60100F7
:1039D000FFFF3F43FFFFEF3F0000E03FD7F81C3100
:1039E000DB0F5A1ED7F828311343002B1BD1D7E920
:1039F0000223D7E90201FCF7C7FB02460B46144637
:103A00001D46D7E90223D7E90201FCF7BDFB0246B8
:103A10000B4620462946FCF799FE02460B46144603
:103A20001D4600F00FBFD7F80C31C34A934240F354
:103A30002181D7F80C31C14A934249DDD7F82031B2
:103A4000BF4A93421FDCD7F81431002B0DDAAEA128
:103A5000D1E90001ACA3D3E90023FCF74DFD0246F8
:103A60000B4614461D4600F0EDBEA9A1D1E90001A8
:103A7000A7A3D3E90023FCF73FFD02460B461446FB
:103A80001D4600F0DFBED7F82031AD4A93421FDD5E
:103A9000D7F81431002B0DDD9BA1D1E900019AA3C9
:103AA000D3E90023FCF728FD02460B4614461D46C9
:103AB00000F0C8BE96A1D1E9000195A3D3E9002387
:103AC000FCF71AFD02460B4614461D4600F0BABE2E
:103AD000D7F820319A4A93421FDAD7F81431002BD5
:103AE0000DDA89A1D1E9000187A3D3E90023FCF70E
:103AF00003FD02460B4614461D4600F0A3BE84A1FA
:103B0000D1E9000182A3D3E90023FCF7F5FC0246CA
:103B10000B4614461D4600F095BED7F82031894A61
:103B200093421FDDD7F81431002B0DDD76A1D1E9CA
:103B3000000175A3D3E90023FCF7DEFC02460B4627
:103B400014461D4600F07EBE71A1D1E9000170A3AC
:103B5000D3E90023FCF7D0FC02460B4614461D4671
:103B600000F070BE4FF00002764BD7E95401FCF72D
:103B70000BFB02460B46C7E92A23D7E92A23D7E9DC
:103B80002A01FCF7B9FC02460B4614461D464FF0CD
:103B900000026D4BD7E92A01FCF7AEFC02460B464A
:103BA0005DA1D1E90001FCF7EFFA02460B46104691
:103BB0001946D7E92A23FCF79FFC02460B464FF033
:103BC00000006249FCF7E0FA02460B46204629460F
:103BD000FCF792FC02460B46C7E9282350A3D3E921
:103BE0000023D7E92A01FCF787FC02460B46C7E908
:103BF00040234DA1D1E90001D7E92A23FCF77CFC41
:103C000002460B4614461D4649A1D1E90001D7E9F9
:103C10002823FCF771FC02460B4620462946FCF798
:103C2000B3FA02460B46C7E93E23D7E93E23D7E95C
:103C30004001FCF7ABFA02460B46C7E95023D7E92F
:103C40005023C7E91E230023BB67D7E91E23C7E91A
:103C50005023D7E94023D7E95001FCF795FA0246F3
:103C60000B46D7E93E01FCF78FFA02460B46C7E93F
:103C70004E23E3E20023C7F82431D7F82031B3F50F
:103C8000801F16DA4FF00002314BD7E95401FCF7E0
:103C900033FC02460B46C7E95423D7F82431353BA1
:103CA000C7F82431D7E95423C7E91C237B6FC7F831
:103CB0002031D7F820311B15A3F2FF33D7F8242188
:103CC0001344C7F82431D7F82031C3F31303C7F8DE
:103CD0000831D7F8083143F07F5343F44013C7F855
:103CE0002031D7F808311B4A934203DC0023C7F880
:103CF0002C3141E0D7F80831174A93422EDC0123DA
:103D0000C7F82C3138E000BF9C7500883CE4377E52
:103D100059F3F8C21F6EA501555555555555D53F58
:103D2000000000604715F73F44DF5DF80BAE543EDE
:103D3000FE822B654715F73F0000E0410000F0438D
:103D4000FFFFEF3F0000F03F0000D03F0000E03FEA
:103D5000000040438E98030079B60B000023C7F89B
:103D60002C31D7F824310133C7F82431D7F820316A
:103D7000A3F58013C7F82031D7E95423C7E91A23E4
:103D8000D7F82031FB66D7E91A23C7E95423BA4A8A
:103D9000D7F82C31DB001344D3E90023D7E95401D1
:103DA000FCF7F2F902460B46C7E940234FF0000446
:103DB000B24DB14AD7F82C31DB001344D3E90001EE
:103DC000D7E95423FCF7E2F902460B462046294680
:103DD000FCF7BCFC02460B46C7E93E23D7E93E236D
:103DE000D7E94001FCF788FB02460B46C7E94C23A4
:103DF000D7E94C23C7E93C23D7E93C23C7E918237B
:103E000007F1600300221A60D7E91823C7E93C23B1
:103E10004FF000024FF00003C7E93A23D7E93A23F5
:103E2000C7E91623D7F820315B1043F0005303F5A0
:103E30000022D7F82C319B0413441A4607F158038B
:103E40005A60D7E91623C7E93A238B4AD7F82C31B1
:103E5000DB001344D3E90023D7E93A01FCF794F9D6
:103E600002460B46D7E95401FCF78EF902460B4691
:103E7000C7E93823D7E93A23D7E93C01FCF73CFBF3
:103E800002460B46D7E94001FCF77EF902460B4695
:103E900014461D46D7E93823D7E93C01FCF72CFB33
:103EA00002460B4620462946FCF76EF902460B46B1
:103EB000D7E93E01FCF720FB02460B46C7E9362353
:103EC000D7E94C23D7E94C01FCF716FB02460B4619
:103ED000C7E93423D7E93423D7E93401FCF70CFBD5
:103EE00002460B4614461D4657A1D1E90001D7E909
:103EF0003423FCF701FB02460B461046194654A337
:103F0000D3E90023FCF742F902460B461046194656
:103F1000D7E93423FCF7F0FA02460B46104619465F
:103F20004DA3D3E90023FCF731F902460B461046B6
:103F30001946D7E93423FCF7DFFA02460B46104650
:103F4000194647A3D3E90023FCF720F902460B46A4
:103F500010461946D7E93423FCF7CEFA02460B4641
:103F60001046194640A3D3E90023FCF70FF9024697
:103F70000B4610461946D7E93423FCF7BDFA024632
:103F80000B46104619463AA3D3E90023FCF7FEF886
:103F900002460B4620462946FCF7AEFA02460B467F
:103FA000C7E93223D7E94C23D7E93C01FCF7EEF807
:103FB00002460B4610461946D7E93623FCF79CFA11
:103FC00002460B46D7E93201FCF7E0F802460B4601
:103FD000C7E93223D7E93C23D7E93C01FCF78CFA47
:103FE00002460B46C7E934234FF00002244BD7E9C1
:103FF0003401FCF7CBF802460B46D7E93201FCF757
:10400000C5F802460B46C7E93A23D7E93A23C7E980
:10401000142307F1500300221A60D7E91423C7E9DB
:104020003A234FF00002164BD7E93A01FCF7ACF8FF
:1040300002460B4610461946D7E93423FCF7A4F88C
:1040400002460B461EE000BFEF4E454A287ECA3F9F
:1040500065DBC9934A86CD3F01411DA96074D13FFC
:104060004D268F515555D53FFFAB6FDBB66DDB3F0E
:10407000033333333333E33FE8E601000000F03F1E
:1040800000000840D7E93201FCF77EF802460B46F3
:10409000C7E93823D7E93A23D7E93C01FCF72CFAE2
:1040A00002460B46C7E94023D7E93A23D7E9360150
:1040B000FCF722FA02460B4614461D46D7E94C236C
:1040C000D7E93801FCF718FA02460B462046294684
:1040D000FCF75CF802460B46C7E93E23D7E93E23CE
:1040E000D7E94001FCF752F802460B46C7E95223D4
:1040F000D7E95223C7E9122307F1480300221A60C7
:10410000D7E91223C7E95223D7E94023D7E952015F
:10411000FCF73AF802460B46D7E93E01FCF734F8C3
:1041200002460B46C7E93023B9A3D3E90023D7E9F8
:104130005201FCF7E1F902460B46C7E92E23B6A16E
:10414000D1E90001D7E95223FCF7D6F902460B4624
:1041500014461D46B2A1D1E90001D7E93023FCF78E
:10416000CBF902460B4620462946FCF70FF80246DB
:104170000B4610461946B24AD7F82C31DB001344DF
:10418000D3E90023FCF702F802460B46C7E92C23CB
:10419000D7F82401FCF746F902460B46C7E92A2363
:1041A000D7E92C23D7E92E01FBF7F0FF02460B4697
:1041B00010461946A34AD7F82C31DB001344D3E943
:1041C0000023FBF7E3FF02460B46D7E92A01FBF782
:1041D000DDFF02460B46C7E95023D7E95023C7E964
:1041E000102307F1400300221A60D7E91023C7E922
:1041F0005023D7E92A23D7E95001FBF7C5FF024630
:104200000B46104619468F4AD7F82C31DB00134471
:10421000D3E90023FBF7B8FF02460B4610461946C8
:10422000D7E92E23FBF7B0FF02460B46D7E92C0156
:10423000FBF7AAFF02460B46C7E94E234FF00002E8
:10424000814BC7E94C23D7F81C31DB0F013BD7F872
:104250002821013A1343002B09D14FF000027A4B79
:104260001146C7F8301183F00043C7F83431D7E95D
:104270000023C7E92623D7E92623C7E90E2307F140
:10428000380300221A60D7E90E23C7E92623D7E9AD
:104290002623D7E90001FBF777FF02460B461046BD
:1042A0001946D7E95023FCF727F902460B46144676
:1042B0001D46D7E94E23D7E90001FCF71DF9024658
:1042C0000B4620462946FBF761FF02460B46C7E92D
:1042D0003023D7E95023D7E92601FCF70DF9024630
:1042E0000B46C7E95223D7E95223D7E93001FBF740
:1042F0004DFF02460B46C7E95623D7E95623C7E9C7
:104300000C2307F130035B68C7F8083107F130036D
:104310001B68C7F89430D7F808314C4A93424FDDF8
:10432000D7F8083103F13F4303F5E003D7F89420B1
:104330001343002B14D03CA1D1E90001D7E94C2351
:10434000FCF7DAF802460B461046194636A3D3E9C5
:104350000023FCF7D1F802460B4614461D4671E2D5
:1043600033A1D1E90001D7E93023FBF70FFF024663
:104370000B4614461D46D7E95223D7E95601FBF7F1
:1043800003FF02460B4620462946FCF731FD034653
:10439000002B00F0898024A1D1E90001D7E94C234A
:1043A000FCF7AAF802460B46104619461EA3D3E9AD
:1043B0000023FCF7A1F802460B4614461D4641E2D5
:1043C000D7F8083123F00043214A93426CDDD7F837
:1043D0000821204B1344D7F894201343002B3BD0E3
:1043E00015A1D1E90001D7E94C23FCF785F8024675
:1043F0000B461046194610A3D3E90023FCF77CF8BE
:1044000002460B4614461D461CE200BFAFF3008077
:10441000000000E009C7EE3FF5015B14E02F3EBE4F
:10442000FD033ADC09C7EE3F9C7500883CE4377E0B
:10443000FE822B654715973C59F3F8C21F6EA50104
:1044400008E70100F8E601000000F03FFFFF8F40A1
:10445000FFCB904000346F3FD7E95223D7E9560194
:10446000FBF792FE02460B46D7E93001FCF7ACFCA5
:104470000346002B18D00AA1D1E90001D7E94C234B
:10448000FCF73AF802460B461046194604A3D3E956
:104490000023FCF731F802460B4614461D46D1E1D5
:1044A00059F3F8C21F6EA501D7F8083123F0004375
:1044B000C7F89430D7F894301B15A3F2FF33C7F830
:1044C0002C310023C7F82431D7F89430C24A9342E4
:1044D00050DDD7F82C3101334FF4801242FA03F348
:1044E000D7F808211344C7F82431D7F824311B1515
:1044F000C3F30A03A3F2FF33C7F82C314FF00002D5
:104500004FF00003C7E92A23D7E92A23C7E90A2382
:10451000B24AD7F82C3142FA03F3DA43D7F8243100
:1045200013401A4607F128035A60D7E90A23C7E95E
:104530002A23D7F82431C3F3130343F48012D7F8A6
:104540002C31C3F1140342FA03F3C7F82431D7F82E
:104550000831002B04DAD7F824315B42C7F8243144
:10456000D7E92A23D7E95201FBF70EFE02460B4694
:10457000C7E95223D7E95223D7E93001FBF706FEFA
:1045800002460B46C7E92A23D7E92A23C7E90823AD
:1045900007F1200300221A60D7E90823C7E92A237C
:1045A0007DA3D3E90023D7E92A01FBF7A5FF024643
:1045B0000B46C7E94023D7E95223D7E92A01FBF785
:1045C000E3FD02460B46D7E93001FBF7DDFD02466D
:1045D0000B461046194672A3D3E90023FBF78CFF64
:1045E00002460B4614461D466FA1D1E90001D7E9EA
:1045F0002A23FBF781FF02460B4620462946FBF79C
:10460000C5FD02460B46C7E93E23D7E93E23D7E95D
:104610004001FBF7BBFD02460B46C7E95623D7E92D
:104620004023D7E95601FBF7AFFD02460B46D7E919
:104630003E01FBF7A9FD02460B46C7E92823D7E94F
:104640005623D7E95601FBF757FF02460B46C7E949
:104650002A2357A1D1E90001D7E92A23FBF74CFF10
:1046600002460B461046194653A3D3E90023FBF735
:104670008DFD02460B4610461946D7E92A23FBF763
:104680003BFF02460B46104619464DA3D3E90023D3
:10469000FBF77CFD02460B4610461946D7E92A2354
:1046A000FBF72AFF02460B461046194646A3D3E9FC
:1046B0000023FBF76BFD02460B4610461946D7E96F
:1046C0002A23FBF719FF02460B461046194640A362
:1046D000D3E90023FBF75AFD02460B461046194664
:1046E000D7E92A23FBF708FF02460B46D7E9560114
:1046F000FBF74AFD02460B46C7E95023D7E9502392
:10470000D7E95601FBF7F8FE02460B4614461D4654
:104710004FF000024FF08043D7E95001FBF734FD22
:1047200002460B4620462946FCF710F802460B4687
:1047300014461D46D7E92823D7E95601FBF7DCFECE
:1047400002460B4610461946D7E92823FBF71EFD03
:1047500002460B4620462946FBF716FD02460B464D
:10476000C7E932234FF000041D4DD7E95623D7E99E
:104770003201FBF709FD02460B4620462946FBF7AE
:1047800003FD02460B46C7E95623D7E95623C7E97E
:10479000062307F1180325E000000000432EE63F42
:1047A000EF39FAFE422EE63F396CA80C615C20BE60
:1047B000D0A4BE726937663EF16BD2C541BDBBBEA7
:1047C0002CDE25AF6A56113F93BDBE166CC166BF85
:1047D0003E5555555555C53F0000E03FFFFF0F00C2
:1047E0000000F03F5B68C7F80831D7F824311B059B
:1047F000D7F808211344C7F80831D7F808311B153A
:10480000002B08DCD7F82421D7E9560100F0D0F9B5
:10481000C7E956010CE0D7E95623C7E90423D7F8C6
:10482000082107F110035A60D7E90423C7E956238A
:10483000D7E95623D7E94C01FBF75EFE02460B464B
:1048400014461D4622462B461046194607F5B077FA
:10485000BD46B0BD00000000B0B594B000AFC7E9E0
:1048600000014FF00043BB62D7E90023C7E90423EE
:104870007B69FB633B697B64FA6B6A4B1340694A53
:10488000934210D1D7E90023D7E90001FBF734FEAA
:1048900002460B4610461946D7E90023FBF776FC83
:1048A00002460B4676E1FB6B002B27DCBB6ADA4342
:1048B000FB6B13401A467B6C1343002B02D1D7E9E4
:1048C000002367E1FB6B002B18DAD7E90023D7E957
:1048D0000001FBF759FC02460B4614461D46D7E97A
:1048E0000023D7E90001FBF74FFC02460B462046A8
:1048F0002946FBF72BFF02460B464BE1FB6B1B15D2
:104900003B633B6B002B2ED10AE03B6B153B3B63BB
:104910007B6CDA0AFB6B1343FB637B6C5B057B648C
:10492000FB6B002BF1D00023FB6205E0FB6B5B000F
:10493000FB63FB6A0133FB62FB6B03F48013002B08
:10494000F4D0FB6A013B3A6BD31A3B63FB6AC3F1B9
:1049500020037A6CDA40FB6B1343FB637A6CFB6ACF
:1049600002FA03F37B643B6BA3F2FF333B63FB6B05
:10497000C3F3130343F48013FB633B6B03F00103A6
:10498000002B0BD0BA6A7B6C1340DA0FFB6B1A4416
:10499000FB6B1344FB637B6C5B007B643B6B5B10CA
:1049A0003B63BA6A7B6C1340DA0FFB6B1A44FB6BF8
:1049B0001344FB637B6C5B007B640023BB640023BC
:1049C000BB63BB6B3B643B6C7B634FF40013FB64CA
:1049D00022E0BA6BFB6C1344BB61BA69FB6B9A4271
:1049E0000BDCBA69FB6C1344BB63FA6BBB69D31A6B
:1049F000FB637A6BFB6C13447B63BA6A7B6C13407A
:104A0000DA0FFB6B1A44FB6B1344FB637B6C5B009C
:104A10007B64FB6C5B08FB64FB6C002BD9D1BB6A2D
:104A2000FB6447E00000F07FBA6CFB6C1344FB6151
:104A3000BB6BBB61BA69FB6B9A4207DBBA69FB6B64
:104A40009A4228D1FA697B6C9A4224D8FA69FB6CA5
:104A50001344BB64BA6AFB691A40BB6A9A4207D125
:104A6000BA6ABB6C1340002B02D1BB6B0133BB6332
:104A7000FA6BBB69D31AFB637A6CFB699A4202D268
:104A8000FB6B013BFB637A6CFB69D31A7B643A6C6A
:104A9000FB6C13443B64BA6A7B6C1340DA0FFB6B0C
:104AA0001A44FB6B1344FB637B6C5B007B64FB6C05
:104AB0005B08FB64FB6C002BB6D1FA6B7B6C134379
:104AC000002B45D04FF00000374935A3D3E9002330
:104AD000FBF75AFB02460B46C7E908234FF00002DA
:104AE000314BD7E90801FCF779F90346002B2FD0A9
:104AF0004FF000002C492AA3D3E90023FBF746FB23
:104B000002460B46C7E908233B6CB3F1FF3F05D1D2
:104B100000233B647B6B01337B6319E04FF00002A1
:104B2000214BD7E90801FCF763F90346002B0AD0B3
:104B30003B6C13F1020F02D17B6B01337B633B6C47
:104B400002333B6404E03B6C013323F001033B641C
:104B50007B6B5B1003F17F5303F50013FB633B6C2E
:104B60005B087B647B6B03F00103002B03D0BB6A03
:104B70007A6C13437B643B6B1B05FA6B1344FB633A
:104B8000FB6BFB607B6CBB60D7E90223C7E90823A2
:104B9000D7E90823104619465037BD46B0BD00BFBF
:104BA00059F3F8C21F6EA5010000F03F000000009D
:104BB00080B590B000AFC7E902017A60D7E902235F
:104BC000C7E90A23FB6ABB63BB6A7B63BB6B1B152C
:104BD000C3F30A03FB63FB6B002B2ED1BB6B23F0EB
:104BE00000427B6B1343002B02D1D7E90223A5E0DF
:104BF0004FF00002584BD7E90201FBF77DFC02465B
:104C00000B46C7E90223D7E90223C7E908237B6AD9
:104C1000BB63BB6B1B15C3F30A03363BFB637B68AB
:104C20004E4A934209DA48A1D1E90001D7E90223AB
:104C3000FBF762FC02460B4680E0FB6B40F2FF7222
:104C4000934208D1D7E9020102460B46FBF79EFAD0
:104C500002460B4672E0FA6B7B681344FB63FB6B06
:104C600040F2FE7293420EDD39A1D1E90001D7E98D
:104C7000022318F05AFE36A3D3E90023FBF73CFCCD
:104C800002460B465AE0FB6B002B13DDD7E90223EB
:104C9000C7E90623BB6B23F0FF4323F4E003FA6B61
:104CA00012051343FB61D7E90623C7E90223D7E9BD
:104CB000022343E0FB6B13F1350F22DA7B684CF2E1
:104CC000503293420EDD22A1D1E90001D7E902233F
:104CD00018F02BFE1EA3D3E90023FBF70DFC0246C0
:104CE0000B462BE018A1D1E90001D7E9022318F007
:104CF0001CFE15A3D3E90023FBF7FEFB02460B467F
:104D00001CE0FB6B3633FB63D7E90223C7E90423BE
:104D1000BB6B23F0FF4323F4E003FA6B120513434C
:104D20007B61D7E90423C7E902234FF000000C4957
:104D3000D7E90223FBF7E0FB02460B461046194673
:104D40004037BD4680BD00BF59F3F8C21F6EA501B4
:104D50009C7500883CE4377E00005043B03CFFFF68
:104D60000000903C000000002DE9F04F446A99B02B
:104D700016461F46CDE90467DDF8948005463CB928
:104D8000102014F02FFCC0E9014468620460C46084
:104D90006B6A196851B15A684A60012393408B606D
:104DA000284619F018F86B6A00221A603B1EB9BF3A
:104DB00023F0004305930023C8F80030DDF8149079
:104DC000A74BBCBF0122C8F8002033EA090319D160
:104DD000249A42F20F731360C9F31303334300F0B4
:104DE0006D85269B53B99F4B23E09F4B039308335C
:104DF000269A1360039819B0BDE8F08F994B03937E
:104E00000333F5E7DDE90434CDE90C34DDE90C01C9
:104E100000220023FBF7C4FF804660B1249A0123DF
:104E20001360269B002B00F04685904B269A13605A
:104E3000013B0393DEE716AB019317AB00932846C3
:104E4000DDE90C2319F0FFF9C9F30A548346002C5D
:104E50007ED00D9BCDF84C80C3F31303DDE90C012C
:104E600043F07F5141F44011A4F2FF34804B002203
:104E7000FBF78AF974A3D3E90023FBF73DFB74A386
:104E8000D3E90023FBF782F9064620460F46FBF7DD
:104E9000C9FA71A3D3E90023FBF72EFB02460B46A8
:104EA00030463946FBF772F906460F46FBF7C0FF5E
:104EB00000228246002330463946FBF77BFF48B18B
:104EC0005046FBF7AFFA32463B46FBF769FF08B99D
:104ED0000AF1FF3ABAF1160F57D8664B03EBCA0333
:104EE000D3E90023DDE90C01FBF764FF00284ED075
:104EF0000AF1FF3A00230F93169B1C1B631E0993B4
:104F000045BFC4F101030693002300234CBF09935E
:104F10000693BAF1000F3CDB099BCDF838A053444F
:104F2000099300230A93229B092B00F2B580052BDD
:104F3000C4BF043B2293229BA3F10203CCBF0024F5
:104F40000124032B00F2B480DFE803F02D987AA44B
:104F5000DDE916431C4404F23243202BC3BFC3F1E6
:104F6000400304F2124009FA03F3C3F12003C6BF61
:104F700026FA00F0184306FA03F0FBF743FA012380
:104F8000A1F1F871013C139370E70123B3E70F908F
:104F9000B2E7069BA3EB0A030693CAF100030A9348
:104FA00000230E93BFE700230B93239B002B00F3FA
:104FB00082804FF00109CDF820904B46CDF88C90BF
:104FC0006E6A00227260042202F114009842716835
:104FD00077D9284618F0CBFE6B6A30601B680393C4
:104FE000089B0E2B00F2EE80002C00F0EB80BAF153
:104FF000000F7ADD1F4A0AF00F0302EBC303D3E967
:1050000000341AF4807FCDE910344FEA2A145CD0C2
:10501000194BDDE90C01D3E90823FBF797FBCDE938
:10502000040104F00F040327134E002C4FD1DDE9D7
:105030001023DDE90401FBF789FBCDE904016EE0F3
:105040000123B1E7AFF3008061436F63A787D23FCD
:10505000B3C8608B288AC63FFB799F501344D33F67
:105060000000F07FCAFF0100C1FF010034FE010013
:105070000000F83F50E7010028E7010000230B93F0
:10508000239B0AEB030909F10103012B0893B8BF25
:10509000012395E70123F2E70124002322930B94D7
:1050A0004FF0FF390022CDF820901223239287E79A
:1050B00001230B93F4E7DDF88C90CDF820904B465C
:1050C0007EE70131716052007EE70227ACE7E1071D
:1050D00008D5DDE91001D6E90023FBF70DFACDE98B
:1050E00010010137641008369FE700F0A580CAF16F
:1050F0000004A44BA44E04F00F0203EBC203D3E957
:105100000023DDE90C01FBF7F7F9CDE904012411D7
:1051100000230227002C40F08480002B8DD10F9BB0
:10512000002B00F08B80DDE90434CDE91034DDE99B
:105130001001964B0022FBF73DFE00287ED0089B15
:10514000002B7BD0B9F1000F38DDDDE91001904B69
:105150000022FBF7D1F9CDE904010AF1FF3801374C
:105160004C463846FBF75EF9DDE90423FBF7C4F94A
:10517000884B0022FBF70AF8A1F15076CDE9100127
:105180001196002C5DD1DDE90401834B0022FAF772
:10519000FBFF02460B46CDE90423109A3346FBF78A
:1051A00027FE002840F09782DDE90401109A06F1FD
:1051B0000043FBF7FFFD002840F08B82DDE90C3453
:1051C000CDE90434179B002BC0F25181BAF10E0FC8
:1051D00000F34D816B4B03EBCA03D3E90034CDE9F7
:1051E0000634239B002B80F2DB80089B002B00F30E
:1051F000D78040F06D82684B0022DDE90601FBF7A5
:105200007BF9DDE90423FBF7E9FD089C264600282D
:1052100040F04382039F312307F8013B0AF1010A62
:105220003FE2E20705D5D6E90023FBF765F9013730
:105230000123641008366DE7022770E7089CD0460A
:105240008FE703994F4B214412910B9903EBC40351
:10525000DDE9106753E90223002946D04F490020B9
:10526000FBF774FA3B463246FAF78EFFCDE91001A0
:10527000039FDDE90401FBF7DBFD0446FBF7D2F8F1
:1052800002460B46DDE90401FAF77EFF30340246A0
:105290000B46CDE9042307F8014BDDE91023FBF7AA
:1052A00089FD002865D1DDE9042338490020FAF79B
:1052B0006BFFDDE91023FBF77DFD002840F0B68091
:1052C000129B9F423FF47AAFDDE91001304B002280
:1052D000FBF712F92E4BCDE910010022DDE90401A4
:1052E000FBF70AF9CDE90401C3E730463946FBF77D
:1052F00003F9CDE91001129B039C1493DDE904012D
:10530000FBF796FD1590FBF78DF802460B46DDE99D
:105310000401FAF739FF159B303304F8013B129B67
:105320009C4206460F464FF0000224D11B4BDDE99C
:105330001001FAF72BFF02460B4630463946FBF7C1
:1053400057FD002871D1DDE9102314490020FAF738
:105350001BFF02460B4630463946FBF72BFD002863
:105360003FF42CAF149F7B1E149317F8013C302B95
:10537000F8D0C24649E0064BFBF7BEF8CDE9040180
:10538000BCE700BF50E7010028E701000000F03F44
:105390000000244000001C40000014400000E03FDA
:1053A000DDE90489039FDDE9062340464946FBF712
:1053B000CDF9FBF73DFD0446FBF734F8DDE90623A4
:1053C000FBF79AF804F130060B4602464946404680
:1053D000FAF7DAFE07F8016B039E089BBE1BB34287
:1053E00038D102460B46FAF7D1FEDDE906238046A6
:1053F0008946FBF7FDFC58BBDDE9062340464946DC
:10540000FBF7CEFC08B1E10722D42846594618F034
:10541000E2FC00233B70249B0AF101001860269BEC
:10542000002B3FF4E7AC1F60E4E427463B461F46F1
:1054300013F8012D392A07D1039A9A42F7D103991B
:10544000302208F101080A701A7801321A7090E7C8
:10545000D046EBE7A14B0022FBF74EF800220023D9
:1054600080468946FBF79CFC00289CD0CDE70B9A30
:10547000002A00F0CD80229A012A00F3AF80139A0F
:10548000002A00F0A78003F233430A9C069F069A85
:105490001A440692099A01211A442846099218F0E2
:1054A0003DFD0646002F0CDD099B002B09DDBB42AC
:1054B000069AA8BF3B46D21A0692099AFF1AD31A37
:1054C00009930A9BF3B10B9B002B00F0A580002CE5
:1054D00010DD31462246284614F08CF85A46014623
:1054E0000646284618F023FD59468046284618F0FF
:1054F00072FCC3460A9B1A1B04D05946284614F076
:1055000079F883460121284618F008FD0E9B002BF0
:10551000044640F383801A460146284614F06AF890
:10552000229B012B04467CDD4FF00008236904EB2D
:105530008303186918F0A4FCC0F12000099B1844EB
:1055400010F01F0000F08E80C0F12003042B40F308
:105550008780C0F11C00069B03440693099B03440B
:1055600007440993069B002B05DD59461A46284639
:1055700018F079FD8346099B002B05DD21461A466C
:10558000284618F070FD04460F9B002B6CD0214676
:10559000584618F0C7FD002866DA002359460A224B
:1055A000284618F02FFC0B9B0AF1FF3A8346002B8C
:1055B00000F08B81314600230A22284618F022FC95
:1055C000B9F1000F064600F39180229B022B40F3B5
:1055D0008D8051E0169BC3F1360356E7089B5C1E95
:1055E0000A9BA342BFBF0A9B0A94E21A0E9BB6BF56
:1055F0009B181C1B0E93089BB8BF0024002BB9BF3F
:10560000069B089A069F089BBCBF9F1A00233EE793
:105610000A9C069F0B9E45E70A9A6EE7229B012B88
:1056200019DC049BBBB9059BC3F313039BB9059B12
:1056300023F000431B0D1B0583B1069B013306932A
:10564000099B013309934FF001080E9B002B7FF457
:105650006DAF012072E74FF00008F6E79846F4E7D7
:1056600080D018461C3076E7089B002B38DC229B44
:10567000022B35DDDDF82090B9F1000F0DD1214668
:105680004B460522284618F0BDFB01460446584605
:1056900018F048FD00283FF7BDAD239B039F6FEA3C
:1056A000030A4FF000082146284618F094FB002E0C
:1056B0003FF4ABAEB8F1000F05D0B04503D0414682
:1056C000284618F088FB3146284618F084FB9CE6F3
:1056D00000242646E1E7C24626469BE5000024401A
:1056E0000B9BDDF82090002B00F0F680002F05DDED
:1056F00031463A46284618F0B6FC0646B8F1000F87
:1057000055D07168284618F032FB326902320746DC
:10571000920006F10C010C3018F040F901223946D4
:10572000284618F0A0FC039B01330893039B4B44CD
:105730000A93049B03F00103B04609930646089BB5
:105740002146013B5846049318F051FA0346303382
:105750000690414658460B9318F0E4FC32468146C9
:105760002146284618F0F9FCC2680B9B074602BB8D
:105770000146584618F0D6FC0B9B0246394628468F
:10578000CDE90B3218F027FB229B0C9A089F43EAC5
:105790000201099B0B430B9B0DD1392B29D0B9F189
:1057A000000F01DD069B3133049A13707BE730460E
:1057B000B9E70122E2E7B9F1000F06DB229941EADD
:1057C0000909099959EA010120D1002AECDD59465D
:1057D00001222846089318F046FC2146834618F01B
:1057E000A1FC0028089B02DCDED1DA07DCD5392BCE
:1057F000D8D1049A392313703B461F46013B17F852
:10580000012C392A50D001321A704CE7002A03DDEE
:10581000392BEED00133C7E7089A0A9902F8013C08
:105820008A422AD0594600230A22284618F0EAFA6A
:10583000B04583464FF000034FF00A024146284628
:1058400007D118F0DFFA80460646089B013308931B
:1058500075E718F0D7FA3146804600230A22284619
:1058600018F0D0FA0646F0E7B9F1000F039ACCBF62
:105870004F46012717444FF0000859460122284699
:10588000089318F0F0FB2146834618F04BFC0028E3
:10589000B2DC02D1089BDB07AED43B461F4613F8AF
:1058A000012D302AFAD0FEE6039A9A42A5D10AF1D8
:1058B000010A312379E7134BFFF7BBBA269B002B74
:1058C0007FF493AA104BFFF7B4BAB9F1000F03DCD1
:1058D000229B022B3FF7D0AE039F2146584618F07B
:1058E00086F900F1300307F8013B039ABA1A914593
:1058F000BADD594600230A22284618F083FA834667
:10590000EBE700BF33FE0100C1FF010070B517F0E7
:1059100028FE154C01460546144814F0D9FA2168B2
:10592000134814F0D5FA2368B3F5007F19D2114E4D
:105930001A013068855000EB0310FBF7B5FA2368B5
:10594000356805EB031510F09BF9C1B2284600F04D
:105950000BF92368084801332360BDE8704014F058
:10596000B7BA0648F9E700BF1411002078F8010023
:1059700094F8010010110020B7F80100D4F80100DC
:1059800037B5404814F0A4FA3F49404814F0A0FA53
:105990004FF4005012F066FE3D4B3B4A3D49186003
:1059A000002849D03C4814F093FA002436493B487B
:1059B00014F08EFA00F00CF9334A002841D1354931
:1059C000374814F085FA3049364814F081FA00203F
:1059D00002F05AFC2C4A00283AD12E49324814F0E1
:1059E00077FA2949314814F073FA314931480022D5
:1059F00017F0E2FD322200232E48CDE9002312F0F9
:105A00004DFD214A23492C4814F062FA1E492B48C7
:105A100014F05EFA00F07EF81B4A00BB1D492848CE
:105A200014F056FA14F0020520D0264814F050FA6B
:105A30000124204603B030BD174814F049FA02246F
:105A4000B4E72149164814F043FA84F00104BAE798
:105A50001D49154814F03CFA84F00204C1E71A49C4
:105A6000174814F035FA84F00104DBE714F0010460
:105A700004D0164814F02CFA2C46DAE7144814F037
:105A800027FAD6E7F9F8010096FA01001DF901009E
:105A900010110020A3FA010031F9010046F90100BC
:105AA00054F9010063F9010073F9010084F9010060
:105AB0000D590000D00A002097F90100ABF9010050
:105AC000C5F90100E0F901008DFA0100FFF90100BC
:105AD0002EFA010008B5FFF753FF28B9054814F066
