:10000000A0590020C93C0000BB5F0100F93C000082
:10001000F93C0000F93C0000F93C00000000000041
:10002000000000000000000000000000913A000005
:10003000F93C0000000000003D3A0000EB5B0100CD
:10004000893C000085030100893C0000893C0000D8
:10005000893C0000893C0000893C0000893C00008C
:10006000893C0000893C0000893C0000893C00007C
:10007000893C0000893C0000893C0000893C00006C
:10008000893C0000893C0000893C0000893C00005C
:10009000893C0000893C0000893C0000893C00004C
:1000A000893C0000893C0000893C0000893C00003C
:1000B000893C0000893C0000893C0000893C00002C
:1000C000893C0000893C0000893C0000893C00001C
:0C00D000893C0000893C0000893C0000D5
:0400DC00FFFFFFFF24
:1000E0007BB972B90029BEBF00204FF0004106E085
:1000F00008BF00281CBF6FF000414FF0FF3000F038
:10010000B9B9ADF1080C6DE904CE002909DB002B6B
:100110001ADB00F04DF8DDF804E0DDE9022304B05D
:100120007047404261EB4101002B1BDB00F040F8BF
:10013000DDF804E0DDE9022304B0404261EB410157
:10014000524263EB43037047524263EB430300F0B8
:100150002FF8DDF804E0DDE9022304B0404261EB52
:1001600041017047524263EB430300F021F8DDF890
:1001700004E0DDE9022304B0524263EB430370471D
:1001800053B94AB9002908BF00281CBF4FF0FF31FE
:100190004FF0FF3000F06EB9ADF1080C6DE904CE00
:1001A00000F006F8DDF804E0DDE9022304B0704752
:1001B0002DE9F047089D0E4604468C46002B40F082
:1001C00081808A42174645D9B2FA82F24AB1C2F119
:1001D000200106FA02F320FA01F1974041EA030CEC
:1001E00094404FEA174E230CBCFBFEF6B9B20EFB4F
:1001F00016CC43EA0C4306FB01F0984209D9FB18E0
:1002000006F1FF3C80F01581984240F21281023ED7
:100210003B441B1AA4B2B3FBFEF00EFB103344EABE
:10022000034400FB01F1A14209D93C1900F1FF335D
:1002300080F00181A14240F2FE8002383C44641A01
:1002400040EA064000211DB1D4400023C5E9004327
:10025000BDE8F08702B9FFDEB2FA82F2002A4FD180
:10026000CB1B4FEA174E1FFA87F80121B3FBFEFCA8
:10027000260C0EFB1C3346EA034608FB0CF3B34284
:1002800007D9BE190CF1FF3002D2B34200F2EB8065
:100290008446F61AA3B2B6FBFEF00EFB106643EAE4
:1002A000064408FB00F8A04507D93C1900F1FF33CC
:1002B00002D2A04500F2D2801846A4EB080440EA1E
:1002C0000C40C0E78B4208D9002D00F0AF80002120
:1002D000C5E900060846BDE8F087B3FA83F10029B6
:1002E00049D1B34202D3824200F2BB80841A66EB4A
:1002F000030301209C46002DAAD0C5E9004CA7E7C6
:10030000C2F120039740D8409140DE404FEA174E9B
:1003100008434FEA104CB6FBFEF11FFA87F80EFBBC
:1003200011664CEA064601FB08F3B34204FA02F4F4
:1003300009D9BE1901F1FF3C80F08E80B34240F232
:100340008B8002393E44F31A86B2B3FBFEF00EFBFB
:10035000103346EA034600FB08F3B34207D9BE193F
:1003600000F1FF3C74D2B34272D902383E44F31A12
:1003700040EA01417AE7C1F1200703FA01F422FAC9
:1003800007F31C4320FA07F906FA01F34FEA144C6D
:10039000FE4049EA03094FEA1943B6FBFCFE1FFA87
:1003A00084F80CFB1E6643EA06460EFB08FAB245CB
:1003B00002FA01F200FA01F308D9A6190EF1FF3092
:1003C00048D2B24546D9AEF1020E2644A6EB0A0643
:1003D0001FFA89F9B6FBFCF00CFB106649EA0646E9
:1003E00000FB08F8B04507D9A61900F1FF3C2DD253
:1003F000B0452BD90238264440EA0E40A6EB080649
:10040000A0FB02894E45C446CE4618D315D075B31D
:10041000B3EB0C0266EB0E0606FA07F722FA01F3BD
:10042000CE401F43C5E90076002111E72946284642
:100430000EE76646EDE6184601E74345E7D2B8EB1E
:10044000020C69EB04040138A646E0E76046D3E7F6
:1004500060468CE78646B9E7614674E702383C445B
:100460002BE7084647E7ACF1020C3E4411E729466A
:10047000EEE600BF704700BF2DE9F04FB14C94F895
:10048000D6608FB006F00106002800F0CA81CEBB0E
:1004900094F87C7094F8290094F82C204FF02709E8
:1004A0002D2309FB074700F0030019FB0239FF2346
:1004B00084F82A300FF0BCF994F8D600410707F110
:1004C0007D0704EB090800F1268114F80900314684
:1004D000C0F3801008F0DAFC06220146054608F158
:1004E000020015F09EFD29460622B81C15F099FD64
:1004F00014F809305A060AD413F00E0F40F0E380C6
:10050000636A93B10C2630460FB0BDE8F08F062128
:1005100008F1020007F020F9002800F02F8214F8FB
:10052000093013F00E0FEBD0CDE00AF0AFFE82469B
:10053000002800F04A820AF0B5FE8346002800F049
:100540005D820CF065F80546002800F054824FF6F5
:10055000FF73806FAB8505F11C030B93002800F03F
:10056000308205F16C0205F1680107F001F9B5F878
:100570006420754995F83DE095F8DC0095F840C099
:10058000C5F830A10A4042F4887295F8261142F06D
:1005900001020EF03F0E6EF07F0E20F0030021F0FE
:1005A0000301A5F86420002262F3000C4FF01B1336
:1005B00085F83DE085F8DC0085F82611634864493C
:1005C00085F83F204FF0060EC5E913226A866A635C
:1005D0006A65A5F8C820A5F8CC20A5F8E82085F81C
:1005E000EA20C5F80021A5F80421A5F81821C5F8CE
:1005F0002021A5F8242185F82F21AA67EB6585F82D
:1006000040C02866A5F8C4E0C5F81C11A5F87C20F8
:1006100095F872E195F89AC195F87E0095F8521117
:10062000A5F8502162F3C30C62F3041E21F0070108
:1006300020F01F00A5F87021A5F89821A5F8A421A5
:1006400085F89AC185F872E185F8521185F87E0027
:100650000CF028FBA5F8D6000CF02AFBD5F8A83141
:100660003C49A5F8D8001940C5F8A8110CF026FBA4
:1006700095F8AC1160F3020185F8AC110CF024FB85
:10068000C4E933AB0B9B636295F8AC1195F820C0BD
:10069000ED610301002203F0700321F078010B43A8
:1006A00062F3000CC5E96E22C5E96C22C5E905229A
:1006B000C5F8C02185F8AC3185F820C010F07EFA6D
:1006C000002840F0678194F828300121C3F34203E9
:1006D0000DA88DF8343007F0C3F9002800F096809B
:1006E00014F8093003F00F03022B00F1FF3233D06E
:1006F000012B00F0538178781030C100002B00F0FE
:100700003F81062B00F07F814FF4DA704FF41B71AC
:1007100000FB02102BE0C0F3C000324604F1D70109
:100720000FF05CFAFF2884F82A0002D030460FF060
:100730001FF9414603480FF095F8024839460FF07B
:1007400091F8D5E6D818002080F8FFFF480148014D
:100750007F4101000000FFF698F801301033DB0004
:1007600000FB03F000F5AA70642303FB020094F879
:100770002070B14AE4610025312365F30007A0FB36
:100780000201236084F82070A9A3D3E90023C4E9FF
:100790000555C4E90155FFF7F3FCB4F8D480E060D7
:1007A00008F06EFB0746B8F1000F08D114F80950A5
:1007B00005F00F05A5F10105B5FA85F56D0994F869
:1007C0002820E36865F3000212F0010584F8282070
:1007D00000F08580DFF87492984904930020022588
:1007E0000DF1300801930591CDE907980321CDE97A
:1007F000020006942A4600903B460C9508F08EFABB
:1008000041460AF0D7FD002800F0A580636A002B5E
:100810003FF478AE0BF0E2F80C2630460FB0BDE89E
:10082000F08F002E3FF46EAE20460AF0D1FD8442D8
:100830000CD0834A8349844840F2197314F02EFE89
:10084000404080F311884FF0030002DF94F8283015
:10085000D8070DAD0ED502220D9203217B4B0095DA
:100860000122002008F0C6FA29460AF0A3FD00285C
:1008700040F0D38002220321744B009500200D929A
:1008800008F0B8FA29460AF095FD002840F09F804C
:100890006F480AF0D9FD002840F085806D480AF0C5
:1008A000A3FD84420CD0664A6649674840F23B7318
:1008B00014F0F4FD404080F311884FF0030002DF94
:1008C000636A0BB10BF08AF894F8D63000266FF308
:1008D0000003304684F8D6300FB0BDE8F08F5E4894
:1008E0005E4ADFF868E1DFF854C10694A8FB000116
:1008F0004FF0910909FB081103F24718C2F8008074
:100900004FF00209049309920DF1300848A3D3E98E
:1009100000234FF6FF7ACDE907E80295CDF8309035
:10092000CDF814C0CDF80CA0FFF72AFC4A46CDE95B
:1009300000503B462846032108F09AF941460AF048
:1009400039FD00287FF462AF94F8D63043F00103FC
:1009500084F8D630D7E5424905914AF2D832009260
:10096000CDE90798CDE90300CDE9010006943B46A7
:10097000012203210C9508F0D1F9DFE71226C2E528
:1009800098F801001030C00000F54D73194400F5CF
:100990009A70BDE60BF022F80326B4E54FF4F2702E
:1009A0004FF47F71B4E6264A2E4927484FF4E76397
:1009B00014F074FD404080F311884FF0030002DF13
:1009C0006CE705F17000A867CBE507269BE5214899
:1009D0000AF00AFD84423FF495AD40F23273184AA2
:1009E0001849194814F05AFD404080F311884FF01F
:1009F000030002DF86E558460AF05AFC50460AF02A
:100A00004BFC07267FE598F801301033DB0003F537
:100A10004D70014403F59A707AE60E480AF0E4FC42
:100A200084423FF46FAD40F22473D8E7AFF3008007
:100A30008D49FD1A0700000000CA9A3B4DB700001F
:100A4000E0960100D0970100B8940100A9B300001E
:100A5000F4180020D8180020002AE784B8190020D4
:100A600059B90000E89501002DE9F04F044690F8CF
:100A7000E93090F8E80083428BB00D4616460ED060
:100A8000C01A00F0030002281BD094F82D2194F81E
:100A90002C319A4230D100200BB0BDE8F08F94F891
:100AA000522112F00108F0D194F8051194F8047164
:100AB0008F4200F07683981E012284F8E90084F8C2
:100AC000EA2094F8983194F899219A4206D094F843
:100AD0009A2102F00601042900F0A78394F8EA7035
:100AE0007A1E052A00F24F83DFE812F05C00E6026E
:100AF00062024D031003C401294806F0E3FD58B318
:100B000094F82C3184F82D310379022243F0030349
:100B100042710371C271D4F8B03194F82E2102727F
:100B20002BB394F85221910721D494F8AB21D2072A
:100B30001DD4D4F8BC21934204BF1A68C4F8BC2168
:100B4000D4F8B421B2B91A68026018600368C4E925
:100B50006D000BB9C4F8C001B4F8CC0000289AD1DC
:100B6000B4F8C630012B0ED9A4F8CC3093E7D4F8F2
:100B7000B42172B1D4F8B8311A6802601860036801
:100B8000C4F8B801E5E70133A4F8CC300BB0BDE8F8
:100B9000F08F0360C4E96C00C4F8B801D9E700BF66
:100BA000241C0020A64F3B68002B00F0E284B4F820
:100BB0003680628E94F806319044B04413F00303FB
:100BC0001FFA88F840F06A84B4F8EC90A8EB0902A8
:100BD00010041FFA82FA3FF558AF94F8701194F898
:100BE000712194F8040184F805018A4294F8E80020
:100BF00084F8E90009D094F8722102F00702052A6E
:100C000004BF84F87111A4F8CC303B689C4204BF47
:100C100000233B60D4F80071002F00F06585386830
:100C2000002800F06185B4F80831E28D4168C4F80D
:100C300000119342B4F80A11B4F80CC100F0AC866C
:100C4000A28DFA804FF00C0E0022FB833984A7F8A6
:100C500022C087F804E03A7739460AF02FFB0AF001
:100C600037FB2368002B09DAD4E9011223F0004393
:100C70008A422CBFA91869182360CD1AE38DB4F8F5
:100C8000087113FB0AF39BB2B3FBF7F117FB01F2F8
:100C900092B293421FFA81FB80F01485D31A6948FF
:100CA00040F2E24202FB03F3A3FB000162A3D3E99B
:100CB0000023FFF765FA20F07F400544628E94F927
:100CC0003D30A9EB0808D8443244904440F2E24950
:100CD000002BA4F8328009FB07F7C0F215855A4AA9
:100CE0005A495B4840F65F1314F0D8FB404080F34C
:100CF00011884FF0030002DF4FF000083E46B4F8C1
:100D00000C21B4F80A11534B5348218642F2107C4F
:100D10000CFB02723B443844B3FBF7F301F1060CC1
:100D2000013AB2FBF7F2B0FBF7F798B2A4F8C6208D
:100D30006045B4F80821A4F8D200A4F8CA70E2858E
:100D400002DD401A063880B294F80631A4F8CE00CD
:100D5000590744BF0023A4F8C8300221012011F034
:100D60006FFD002202218146012006F04FFD3B4924
:100D70004FF4E472204606F0DBFCC21C5FFA82FAF4
:100D8000374B009452460121002008F033F830F030
:100D900002030CD02C4A33492D4840F68E1314F030
:100DA0007DFB404080F311884FF0030002DF254BAC
:100DB000A6FB0367304620A3D3E900233946FFF79B
:100DC000DFF9294AE368049320F07F4BABFB022351
:100DD000072000FB0B33B01A67EB0301089406945D
:100DE0004FF47A7200240023204F214E0797059676
:100DF0000394FFF7C5F92B46CDE901B0CDF800808B
:100E000020465246012107F089FF30F002030CD042
:100E10000D4A14490E4840F6A81314F03FFB404019
:100E200080F311884FF0030002DFB9F1000F40F0AA
:100E3000CC856FF047002FE68D49FD1A07000000B2
:100E4000A01B002000CA9A3BDC9701001895010006
:100E5000B89401007FC3C901FF596202D81900206C
:100E600045C20000149901008D49FD1AEDC1000032
:100E700051F10000618EE28E94F8EC300A44324465
:100E800096B2DA07194600F12182B4F8EE20B61ABC
:100E900030043FF5FAAD94F8642094F8658094F836
:100EA000E800B4F8627084F8E90013F01C0F02F057
:100EB000070908F0070840F09185B4F8606013F066
:100EC000E00F08D094F865205B0963F3020284F810
:100ED00065204FF4A47794F8AC3194F86420D4F8EA
:100EE0000051C3F3C00363F3C30284F86420002DF0
:100EF00000F08C852868002800F0888594F864E06C
:100F000094F865204368C4F800318907CEF3020CD9
:100F10000EF00703C2F3020E02F0070202D4994555
:100F200000F04B87A38DEB801022002385F81DC0B5
:100F300085F81EE02A712B7729460AF0BFF9D4F80C
:100F40000051002D00F0CF852868002800F0CB85E7
:100F5000B4F860304268C4F80021B3420AD3B3F554
:100F6000A47F07D8B4F86230BB4203D3B3F5A47FA3
:100F700040F23787A4F86060A4F862702B7FA28DDE
:100F8000EA8043F003030221092229712B776A7753
:100F9000B4F85E30B4F85C202B841523AA84EB7778
:100FA00029466F84EE840AF089F90AF091F96CE51C
:100FB00094F8EC3013F0030500F0158294F93D30FD
:100FC000002BBFF662AD012D7FF45FADBB4806F08C
:100FD00079FB054600283FF458AD03790D2243F014
:100FE0000303042700F1080603714271C7710C2145
:100FF00030460FF0E5FB3146082204F1F60015F00B
:1010000010F83A4605F1100104F19C0015F009F8BA
:10101000D4F8B031002B00F0AD8694F85221970738
:1010200000F1A88694F8AB21D60700F1A386D4F886
:10103000BC21934204BF1A68C4F8BC21D4F8B4217F
:10104000002A01F0E480D4F8B8311A682A601D60E3
:101050002B68C4F8B851002B01F082800AF05CF9CB
:10106000054600283FF411AD2B7FA28DEA8043F0A6
:1010700003030226172103222B776977EA7704F20C
:10108000551108222E7105F1200014F0CAFF94F8C2
:10109000533185F8283094F8543185F82930286880
:1010A00029460AF00BF90AF013F994F8EC3066F3CC
:1010B000010384F8EC30E8E4E28E618E94F8EC30C1
:1010C0000A44324496B2DA0700F15B81B4F8F220A8
:1010D000B61A33043FF5D9AC94F8E83084F8E93017
:1010E00004F13805052204F1ED01284614F099FFBA
:1010F0002846052106F0B4FC94F83D30012260F347
:10110000050384F83D3084F8C421BEE46B4806F042
:10111000D9FA00283FF4B9AC94F8E83084F8E93003
:10112000012302794371D4F8B03142F00302122155
:101130000271C171002B00F0BA8294F85221950718
:1011400000F1B58294F8AB21D10700F1B082D4F858
:10115000BC21934204BF1A68C4F8BC21D4F8B4215E
:10116000002A01F01580D4F8B8311A6802601860BE
:101170000368C4F8B801002B00F0C584B4F8CA3085
:10118000A4F8CC3081E44E4A4E494F484FF46F7377
:1011900014F084F9404080F311884FF0030002DF1F
:1011A00073E494F8197194F818C1674554D194F810
:1011B000257194F824C1674500F0F882A7EB0C076D
:1011C000FF077FF562AC94F82631D80740F101871C
:1011D0009F0740F1EB860AF09FF8014600B394F8B0
:1011E000243184F82531037FA28DC28043F00303AC
:1011F0000B77022006220C2308714A77CB7794F8EC
:101200002701B4F82821B4F82A31A1F8233081F855
:101210002000A1F8212008680AF050F80AF058F8D8
:1012200094F8E80094F8E9302AE402F0070106296E
:1012300001F2428101A050F821F000BF0516000024
:10124000DD0A0000DD0A0000DD0A0000791500005B
:1012500079150000DD0A0000A7EB0C07F8077FF501
:1012600014AC94F8DC1011F0010700F0E1830AF0EF
:1012700053F807460028D3D094F8183184F8193170
:10128000037FA28DC28043F003030922022041465E
:101290003B7738717A77FA7707F12000082214F04B
:1012A000EBFED4F8203187F82030C3F307221B0C63
:1012B00087F8212087F822303946ACE7241C00202B
:1012C000DC97010018950100B894010002200AF093
:1012D00005F8074600283FF4D8ABC84806F0F2F9F5
:1012E000054600283FF4D1AB94F8EC306FF30003CF
:1012F000C3F38200C3F3421250EA020884F8EC30D0
:10130000DBB240F0358694F8E820A4F8EE809B0725
:1013100084F8E92000F1EC864346414605226A71D3
:1013200085F808802A796B72D4F8B031698142F06F
:10133000030218212A71E971002B4AD094F8522136
:10134000970746D494F8AB21D60742D4D4F8BC21F1
:10135000934204BF1A68C4F8BC21D4F8B421002A0F
:1013600000F02987D4F8B8311A682A601D602B680C
:10137000C4F8B851002B7FF488ABC4F8C051FFF714
:1013800084BB9E4806F09EF9054600283FF47DABDD
:10139000238E027994F8EC1033440633A4F8F2302B
:1013A0006FF30001012342F00302082084F8EC10DF
:1013B0002A716871EB71052204F1ED01281814F00F
:1013C00030FED4F8B031B4F8F220A5F80D20002B8F
:1013D000B4D1D4F8B421002AC4D12B60C4E96C552F
:1013E000C4F8B851C6E7854806F06CF906460028EF
:1013F0003FF44BAB94F93D30002B00F1040880F230
:101400004B8494F87E30190700F1308694F8ED5043
:10141000002D00F0EF84037994F8DC2043F00303FF
:10142000D207037140F15086D4F81C315B0740F1BC
:101430004B86112203234572C27103727771D4F86F
:10144000B031002284F8ED20002B00F01D8594F8C7
:101450005221900700F1188594F8AB21D10700F1D3
:101460001385D4F8BC21934204BF1A68C4F8BC2188
:10147000D4F8B421002A00F0F186D4F8B8311A6803
:1014800032601E60C4F8B8613368002B00F06C85D0
:1014900094F8E83084F8E930FFF7F7BA012009F052
:1014A0001DFF064600283FF4F0AA544806F00AF94A
:1014B000054600283FF4E9AA09F02EFF238E326882
:1014C00094F806014344063399B2D4F800315360CE
:1014D0002A79C4F800616FF301000C2384F8060137
:1014E000A4F8EC1042F003026B71D4F81031D4F878
:1014F000B001434E2A710022EA71A6FB032394F83F
:101500001461B4F808212E72C3F38F23B4F80A6172
:10151000A5F80B20B4F80C21A5F80F20A5F80D6054
:10152000A5F81110A5F80930002800F0618294F8A0
:1015300052319F0700F15C8294F8AB31DE0700F175
:101540005782D4F8BC31984204BF0368C4F8BC3158
:10155000D4F8B431002B00F03986D4F8B8311A68C9
:101560002A601D602868C4F8B85100287FF48DAA4D
:1015700003E73C60FFF71BBB02F00702B4F89CC115
:10158000B4F8A011B4F89E91B4F8A281A4F85EC09A
:10159000042AA4F8621000F0978494F89A31062285
:1015A00062F3020384F89A31D4F80071002F00F03E
:1015B00077843868002800F073843B7F4268B4F871
:1015C0002CE0C4F8002143F0030302223B774FF0E4
:1015D000090A1523A7F806E0A7F820C079843A7114
:1015E000FB773946A7F82490A7F8268087F81DA036
:1015F00009F064FE09F06CFEFFF770BA241C0020AD
:101600005917B7D1DC4806F05DF800283FF466AA08
:1016100094F89A31B4F89E71B4F8A221A4F8D67067
:101620000121A4F8D82061F30203092284F89A3139
:1016300042710279D4F8B031878142F003024FF051
:10164000140CC172C173002702711B21482280F85B
:1016500007C04772017282728273002B00F01183FF
:1016600094F85221910700F10C8394F8AB21D20732
:1016700000F10783D4F8BC21934204BF1A68C4F870
:10168000BC21D4F8B421002A00F0D885D4F8B831B0
:101690001A68026018600368C4F8B801002B00F0F3
:1016A0001985B4F8CA30A4F8CC30FFF717BAD4F8CB
:1016B000B421002A7FF457AD0360C4E96C00C4F87C
:1016C000B80158E507FB113340F2E242AB489BB248
:1016D00002FB03F3A3FB0001A5A3D3E90023FEF75C
:1016E0004FFD2D1AFFF7EABAA54AA649A64840F6CB
:1016F000EA0313F0D3FE404080F311884FF003005B
:1017000002DF3868FFF78FBAE26C636C9B4E03FB15
:101710001A23E3640FF026FF804694F8DC00C0F340
:1017200082000FF021FF08EB000307FB03F397484B
:10173000E26C94F8141103F5742303F23F23A0FB29
:1017400003034FEA934A0AFB0BF07B080244963BE3
:101750009A4228BF1A4609FB01FC4FF0000EC4E96B
:101760001232A0FB060182A3D3E90023C4F854C0BF
:10177000C4F8E4E0C4F844A0FEF702FDD4F8103148
:1017800084468348A0FB0330800A09FB00F0A0FBDD
:10179000060177A3D3E90023A5EB0C05FEF7F0FCC7
:1017A000A7EB0A0620F07F48FFF7A9BA94F871C1A9
:1017B00094F87071BC4500F0AA81764FD7F800C04C
:1017C000BCF1000F00F0B58464457FF45EA994F885
:1017D00072C10CF0070CBCF1050F00F28B860FF202
:1017E000080E5EF82CF000BFD3180000511800005E
:1017F00001180000810A0000810A0000810A00002F
:1018000090073FF542A909F087FD014600283FF403
:1018100007AD037F94F87221032060F302020343B3
:1018200084F87221A08D0B77022718230F714B7754
:10183000B4F87421B4F87631C880B4F878010A8419
:10184000B4F87A214B840F238884CA84CB77E2E4EE
:1018500094F87381B8F1000F40F01B8594F93D3086
:10186000002BC0F23A8594F8723194F87C01C4F8E8
:101870001081052262F30203012284F8723184F898
:101880001421002800F00686B4F87431B3FBF0F39D
:10189000134413FB00F39BB294F8722194F80601F1
:1018A000A4F80831C2F3C0039B0020F0070243F004
:1018B00002031343B4F87801B4F87A2184F80631AE
:1018C000013984F80511A4F80A01A4F80C21FFF7E6
:1018D000DCB82948B4F83680B4F8329005F0F2FE4E
:1018E000014600283FF49CAC94F872010A794FF04D
:1018F000040C6CF3020042F003024FF0180C84F861
:10190000720108EB09030A7181F805C0B4F874C1CB
:10191000B4F87601B4F87821A1F808C03344B4F8DB
:101920007AC148818A810F200022A1F811304FF03E
:10193000FF33C8714B758B75CB750B764B768B76F9
:10194000CB760B774B778B772046A1F80EC00A74C5
:10195000CA740A750AF046FBB4F8CA30A4F8CC3051
:1019600094F8E80094F8E9303C60FFF789B800BFCC
:101970008D49FD1A07000000241C002000CA9A3B74
:10198000DC97010000990100B894010083DE1B433D
:101990005917B7D1A01B0020228E8A427FF450A98C
:1019A00040F2E24202FB03FB42F21072B4F8C6E0DE
:1019B00002FB0CB2013AB2FBFBF292B296457FF405
:1019C0003FA903233B71FFF747B9012210460221CB
:1019D00005F01CFF6FF04700FFF75EB8C3F382000D
:1019E00060F3020284F864204FF4A476FFF767BA2C
:1019F000D4F8B431002B7FF4B0AD2860C4E96C5545
:101A0000C4F8B85100287FF440A8B6E4D44AD549B8
:101A1000D54840F6636313F041FD404080F31188E0
:101A20004FF0030002DF286894F8EC10FFF766BA65
:101A3000CE4805F047FE804600283FF4F1AB94F80D
:101A40001931CB4AC4F81C21013B092284F8193111
:101A5000427194F93D200379002AACBF08220E227E
:101A600043F00303C271082203713946104414F095
:101A700003FBD4F81C3188F80830C3F307221B0C91
:101A800088F8092088F80A30D4F8B031002B00F02B
:101A90007D8194F85221910700F1788194F8AB216F
:101AA000D20700F17381D4F8BC21934204BF1A68B5
:101AB000C4F8BC21D4F8B421002A00F0E083D4F8A3
:101AC000B8311A68C8F80020C3F80080D8F8003090
:101AD000C4F8B881002B00F04783B4F8CA30A4F8EA
:101AE000CC30FFF79DBB9E4A9E499F4840F68F63CE
:101AF00013F0D4FC404080F311884FF0030002DF64
:101B00002868FFF725BAC4F8C001FFF737BB94F87F
:101B1000987194F89921BA4200F0E18194F89A11F1
:101B200001F00702062A00F2D6840FF2080C5CF8D6
:101B300022F000BFDD1B0000810A0000810A0000C6
:101B4000810A0000511B0000511B0000810A0000A7
:101B5000B4F89C31A4F85E3001F00703B4F8A0217A
:101B6000B4F89E91B4F8A281A4F86220042B00F08E
:101B70007C830B46062262F3020384F89A31D4F880
:101B80000071002F00F04B833868002800F0478375
:101B90003B7F4268B4F82CC0C4F8002143F0030333
:101BA0003B77022209237B773A71B4F85E10B4F8D0
:101BB00062207A841523FB77A7F806C03984A7F83A
:101BC00024903946A7F8268009F078FB09F080FBBD
:101BD00094F8E80094F8E930FEF752BF634805F046
:101BE00071FD034600283FF41BAB94F89A21B4F82A
:101BF0009E71B4F8A211A4F8D6700120A4F8D810F0
:101C000060F30202092184F89A2159711979D4F8F4
:101C1000B0219F8141F003014FF0140CD872D873AA
:101C2000002719711B20482183F807C05F721872C2
:101C300099729973002A00F0DF8294F85211890793
:101C400000F1DA8294F8AB11CF0700F1D582D4F815
:101C5000BC118A4204BF1168C4F8BC11D4F8B41195
:101C6000002900F01B84D4F8B821116819601360B2
:101C7000C4F8B8311A68002A7FF42FAFC4F8C03115
:101C80002BE7D4F8B421002A7FF400AD0360C4E947
:101C90006C00C4F8B80101E504F17F073B462A4611
:101CA00004F1EE0104F25D1010F078F939461022CB
:101CB00004F1A00014F0B5F9082204F1980104F130
:101CC000B90014F0AEF994F8970094F8B82094F89D
:101CD0007E3084F88F5043F0080365F3000042F033
:101CE000010284F8970084F87E3084F8905084F8DC
:101CF000915084F8925084F8935084F8945084F86A
:101D0000955084F89650C4F8B0504146C4F8B45089
:101D100084F8B82020460AF033FBD4F8B031002B09
:101D200040D094F8522195073CD494F8AB21D007C9
:101D300038D4D4F8BC21934204BF1A68C4F8BC213B
:101D4000D4F8B421002A00F08182D4F8B8311A689E
:101D500032601E603368C4F8B861FFF796BB00BFFD
:101D6000DC97010000990100B8940100241C0020B8
:101D70007F410100D4F8B421002A7FF464A92B60CC
:101D8000C4E96C55C4F8B851FFF765B9D4F8B4216B
:101D9000002A7FF494AEC8F80030C4E96C88C4F817
:101DA000B88197E6D4F8B421002ACED13360C4E9D3
:101DB0006C66C4F8B861FFF768BB90457FF4B2A8C1
:101DC00003232B71294609F079FAD4F80051002D2C
:101DD00000F00F832868002800F00B834368C4F8E4
:101DE000003103232B71294609F068FA09F070FAD3
:101DF000FEF74BBE04F17F073B462A4604F1EE0195
:101E000004F25D1010F0CAF83946102204F1A00067
:101E100014F007F9082204F1980104F1B90014F054
:101E200000F994F8972094F8B81094F87E3084F86C
:101E30008F5042F0010265F3000143F008030120D6
:101E400084F8972084F8B81084F87E3084F8905095
:101E500084F8915084F8925084F8935084F8945008
:101E600084F8955084F89650C4F8B050C4F8B45033
:101E700032797071D4F8B03142F003020521327129
:101E8000F171002B7FF4E3AAD4F8B421002A7FF487
:101E9000F4AA3360C4E96C66C4F8B861FFF7F4BA19
:101EA000D04AD149D14840F6335313F0F7FA4040B5
:101EB00080F311884FF0030002DF3868B4F85EC089
:101EC000B4F86210FFF779BBB4F8A421002A40F0FF
:101ED0004E8184F89931A4F8CC20FFF765BB94F8C3
:101EE000A82194F8A91191423EF4CFAD94F8AA111B
:101EF00001F00300032800F03A8200287EF4C5AD0B
:101F0000BB4805F0DFFB014600283FF489A994F89F
:101F1000AA3194F8AC2194F8AB71012060F301036D
:101F2000C3F3820060F30202C3F3421060F30612AF
:101F3000C7F34007087984F8AA3167F3C30284F82D
:101F4000AC21C3F3820C40F00300C3F34213032718
:101F500016220871CA7181F808C04B724F710022B5
:101F600020460AF03FF8B8E5C4F8C061FFF790BA20
:101F7000238E33440633A4F8EE3009F0CDF93B68E4
:101F8000D4F800215A60C4F8007109F0C5F903685B
:101F9000D4F800215A6094F8EC30B4F8EE10C4F88C
:101FA0000001C3F382085B09FFF7B8B940F652336A
:101FB0008C4A90498D4813F071FA404080F31188A3
:101FC0004FF0030002DF94F8E80094F8E930FEF7E0
:101FD00057BD874805F076FB00283FF421A994F807
:101FE000252194F82631013A84F82521027943F01D
:101FF0000103062184F8263142F003024171D4F82E
:10200000B03102710B216FF00E020C270172427287
:1020100005214FF0FF32C7718172C2720273002B2B
:1020200000F0BE8094F85221910700F1B98094F835
:10203000AB21D20700F1B480D4F8BC21934204BF95
:102040001A68C4F8BC21D4F8B421002A00F01C821C
:10205000D4F8B8311A6802601860C4F8B80103688F
:10206000002B7FF43AADC4F8C00136E54146204666
:102070000AF086F9D4F8B03183B394F8522192076C
:102080002CD494F8AB21D70728D4D4F8BC219342A0
:1020900004BF1A68C4F8BC21D4F8B421002A00F0A7
:1020A000B781D4F8B8311A6832601E60C4F8B861DC
:1020B0003368002B00F0878094F8523123F003033B
:1020C00084F85231FFF7E4B90D233572F37102271A
:1020D000FFF7B4B9C4F8C001FFF7E3BAD4F8B421EC
:1020E000002ADED13360C4E96C66C4F8B861DFE76A
:1020F00009F012F91023A28D87F81C803B7194F827
:1021000064303868FA80C3F302037B7794F8653053
:10211000C3F30203BB77394609F0D0F809F0D8F8C9
:1021200094F8EC30B4F8EE10C3F382085B09FFF7C3
:10213000F5B894F8723103F00703052B00F2DA8149
:1021400001A050F823F000BFD31800005118000080
:10215000011800008B0A00008B0A00008B0A0000A7
:10216000C4F8C051FEF77ABFC4F8C081B5E494F852
:102170009A01B4F8A671A4F89E21002363F302002B
:1021800084F89A01A4F8A431A4F8A271FFF70CBA5C
:102190001A68026018600368C4E96D00FEF7EBBFBF
:1021A000D4F8B421002A7FF453AF0360C4E96C0073
:1021B000C4F8B80153E71A682A601D602B68C4E9A7
:1021C0006D55FFF7D7B8C4F8C06175E703682B6099
:1021D00005602868C4E96D5500287EF456ACFFF709
:1021E000CCB800BFDC97010000990100B894010051
:1021F000241C002018950100D4F8B41100297FF4A4
:1022000032AD1A60C4E96C33C4F8B83132E51A68EB
:102210002A601D602B68C4E96D55FEF71CBFB74AE4
:10222000B749B84840F6335313F038F9404080F3CB
:1022300011884FF0030002DF3868A9E41A680260D1
:1022400018600368C4E96D00FFF728BA1A683260A5
:102250001E603368C4E96D66FFF717B91A6832600B
:102260001E60C4E96D66FFF70FB9B4F8A421002A17
:1022700040F0D48084F89971A4F8CC207FE41A68E7
:10228000C8F80020C3F80080D8F80030C4E96D8891
:1022900020E49D4805F016FA014600283EF4C0AF40
:1022A000037943F003030B71112003220F23C8713C
:1022B0004A710B7294F873314B722046002209F078
:1022C00091FE94F8703184F8713100233B6094F8EA
:1022D000E80094F8E930FEF7D3BB8B4805F0F2F93B
:1022E000014600283EF49CAF0379182243F0030313
:1022F00003714271B4F87421B4F87631B4F87801FE
:102300000A81B4F87A214B8110238881CA81CB716C
:1023100094F87C310B74B4F87E31B4F88001B4F8D1
:102320008221A1F81130B4F88431A1F81300B4F877
:102330008601A1F81520B4F88821A1F81730B4F867
:102340008A31A1F81D30A1F81900A1F81B20204600
:10235000424609F047FE94F8703184F8713194F8E0
:10236000E80094F8E930C7F80080FEF789BB080759
:1023700084F8A921C1F3820268D594F8AA21022128
:1023800061F3840284F8AA2194F8AA2157064FEA3F
:10239000521153D5022161F3471284F8AA2194F80F
:1023A000AA1194F864C094F8650094F8AB21C1F3C5
:1023B00082070CF0070C00F00700C2F38002BC4556
:1023C00008BF00275200B0EB511F42F001024FEA54
:1023D000511108BF002142EA4112023B42EA870242
:1023E000062184F8E93084F8EC2084F8EA10FEF73E
:1023F00075BB424A4249434840F6726313F04EF8B7
:10240000404080F311884FF0030002DF2868E5E4C4
:102410001A6832601E60C4E96D6649E600200B460A
:1024200060F30203A4F89E21B4F8A62184F89A313F
:10243000A4F8A401A4F8A221FFF7A1BBC8070FD5F7
:10244000012161F3471284F8AA21A8E7D10710D52A
:1024500094F8AA21012161F3840284F8AA2193E768
:1024600011F0040118BF042161F3471284F8AA2176
:1024700095E712F0040218D094F8AA21042161F320
:10248000840284F8AA217FE71A6802601860C4E910
:102490006D00E4E5B4F87631FFF7FEB91168196014
:1024A0001360C4E96D33FFF7E5BB94F8AA1162F33A
:1024B000840184F8AA1167E7104A1449114840F6CC
:1024C0005B5312F0EBFF404080F311884FF00300A4
:1024D00002DFFEF703BB094A0C490A4840F65B538A
:1024E00012F0DCFF404080F311884FF0030002DF60
:1024F000FEF796BE40F65F435AE500BFDC97010049
:1025000000990100B8940100241C002018950100D6
:102510002DE9F04F9C4695B05CF80C6B1D46136896
:1025200086460C4660462E31174605F1080A0322FE
:10253000D3F80090CDF828E005F11C0813F071FDE8
:1025400004F12A010422504613F06BFD04F13A0114
:102550000522404613F065FD4046052105F080FA4E
:1025600095F8213000F03F0060F30503012885F85D
:1025700021300AD994F83F3003F01F02053AC3F323
:1025800004010B2A85F8221002D915B0BDE8F08F9E
:102590003A6896F8DC1000209060B4F83480A5F812
:1025A000128094F8362094F837005B0942EA002242
:1025B00063F38401AA82638E86F8DC10ADF83030B4
:1025C0000EF0D0FF034696F8DC000B93C0F38200B8
:1025D0000EF0CAFF0B9BDFF828C394F83110AA8ACB
:1025E00040F2E24B0BFB08F8184408FB00F000F542
:1025F000742000F23F20ACFB00C04FEA580C800C66
:102600000BFB01F1ACF1960CA862C5F82CC0E96394
:10261000218FB14BADF8361042F2107C0CFB0181DA
:10262000AE48434402F1060C0139B3FBF8F3B1FBA9
:10263000F8F1A6F8C61099B261454044A6F8D21048
:10264000B0FBF8F0A6F8CA0002DD891A063989B293
:10265000A6F8CE100422514606F1E00013F0E1FC8A
:10266000237F04F11E0A5146C3F38013062212A8E9
:102670008DF8403013F0D5FC237F4FF48072A28395
:1026800099F82A0097F812B0C3F340128DF83C2055
:102690000B920DF08BFD0146062204F12B00002960
:1026A00040F0ED8013F0E8FC04F12503BBF1FF0FCF
:1026B0000E9304F11F0300F0EB801A465146584672
:1026C0000CF0F0FFA27F0E980232A27712A9062228
:1026D00013F0A7FC96F8DC30698AAA8AA286C3F3B5
:1026E000820384F83830BDF83630E38661863046A0
:1026F00009F09AFF21462882E0807C680A9808F059
:10270000DDFD2B8AE3800F2323710B9B2068002BB8
:1027100000F0BA8095F809E02B7A95F80BC0A97AF9
:1027200095F8212041EA0C2143EA0E234B4042F068
:10273000400201216B8485F821202177214608F091
:10274000BDFD08F0C5FD95F84900012100F0070026
:102750000EF096F9624A4FF0000A8346312300F2E8
:102760005240A0FB02013360C6E901AA58A3D3E995
:102770000023FDF705FDFC68BDF83020AD6A20F0B0
:102780007F4040F2E24303FB023302215246F060F5
:10279000A4F5AE7401201C4405F038F8484609F051
:1027A000A7FA821C4F4BCDF80090D2B250460121BF
:1027B00006F020FB0128A8EB0508A4EB0B047FD052
:1027C00099F82830DB0773D4304609F02DFFDFF885
:1027D00010B1A8FB0B893EA3D3E900230546494667
:1027E0004046FDF7CDFC404A069620F07F4AAAFB02
:1027F0000223072101FB0A3340F23F11BF68089111
:102800003A4907913A490591B8EB020069EB030197
:10281000F368049300264FF47A7200230396FDF7C1
:10282000AFFC2BA3D3E900238446A4FB0B01CDE925
:1028300001ACFDF7A5FC033520F07F40EDB2313F40
:102840003B4600902A463046012106F067FA30F0F8
:1028500002030CD0274A284928484FF4A07312F0ED
:102860001DFE404080F311884FF0030002DF01227B
:102870001046022104F0CAFF15B0BDE8F08F04F144
:10288000240113F0CEFB0FE79DF83C30237755E78A
:102890000E9811930622002113F0EEFB9DF84030B4
:1028A000A377119B12A91846062213F0BAFB11E771
:1028B0000023012200931846114606F09BFA83E795
:1028C00008F09EFD81453FF47BAF0CF01DFC77E7DF
:1028D0008D49FD1A070000007FC3C901FF5962023C
:1028E00000CA9A3B35F100008D49FD1AD9F000006D
:1028F00051F10000D099010014990100B894010031
:1029000083DE1B43000000002DE9F041D0E90BC736
:10291000D0F828800CEB07043034A0450E4615464D
:1029200018D81B4F18A3D3E90023ACFB0701FDF710
:1029300027FCA4EB080420F07F40306012A3D3E909
:102940000023A4FB0701FDF71BFC20F07F4028605B
:10295000BDE8F0810E4C0CA3D3E90023A8FB0401D1
:10296000FDF70EFC20F07F4307F130003360A0FB41
:10297000040105A3D3E90023FDF702FC20F07F400A
:102980002860BDE8F08100BF8D49FD1A07000000F6
:1029900000CA9A3B70B516F0FFF8154C0146054683
:1029A000144812F07BFD2168134812F077FD23686C
:1029B000B3F5007F19D2114E1A013068855000EB33
:1029C000031000F065F92368356805EB031510F076
:1029D000EDF9C1B2284600F00DF92368084801332B
:1029E0002360BDE8704012F059BD0648F9E700BF0A
:1029F0007C0E0020A4A00100C0A00100780E0020E1
:102A0000E3A0010000A1010037B5414812F046FDE6
:102A10004049414812F042FD4FF4005012F0F0FCE2
:102A20003E4B3C4A3E49186000284AD03D4812F0CF
:102A300035FD002437493C4812F030FD00F00EF916
:102A4000344A002842D13649384812F027FD31492E
:102A5000374812F023FD002002F00EFC2D4A00281A
:102A60003BD12F49334812F019FD2A49324812F060
:102A700015FD32493248002216F0B9F84FF41672AB
:102A800000232F48CDE9002312F0D6FB214A244928
:102A90002C4812F003FD1F492B4812F0FFFC00F0F8
:102AA0007FF81C4A00BB1E49284812F0F7FC14F0BE
:102AB000020520D0264812F0F1FC0124204603B084
:102AC00030BD184812F0EAFC0224B3E72149174848
:102AD00012F0E4FC84F00104B9E71E49154812F035
:102AE000DDFC84F00204C0E71A49184812F0D6FC55
:102AF00084F00104DBE714F0010404D0164812F05E
:102B0000CDFC2C46DAE7154812F0C8FCD6E700BF2A
:102B100025A10100C2A2010049A10100780E0020F8
:102B2000CFA201005DA1010072A1010080A10100FE
:102B30008FA101009FA10100B0A101009529000013
:102B400038080020C3A10100D7A10100F1A10100B4
:102B50000CA20100B9A201002BA201005AA201009F
:102B600008B5FFF751FF28B9054812F097FCFFF7A9
:102B700011FFFEE7034812F091FC002008BD00BFE2
:102B800089A20100A1A201004A1E53425341024AF8
:102B90000248137012F082BCC4480020D8A2010081
:102BA00070B50F480F4D88B012F078FC0E4B0F48EF
:102BB0001D2200261A70FF229E705A70DA7012F0E1
:102BC0006DFC0FCD03AC0FC42B6823600849009641
:102BD0003346032203A802F0C5FC08B070BD00BF55
:102BE00001A3010080900100B648002029A3010044
:102BF000E890010010B5164B1B7886B02BB3B0F9E6
:102C00000430144C23711B126371C388A3711B0A17
:102C1000E371038923721B0A6372837AA372E172E0
:102C20008389237300211B0A18226846637313F0FB
:102C300023FA094B6946CDE9013400200E23ADF893
:102C40000C3004F01FFB06B010BD4FF0FF30FAE768
:102C5000C4480020B64800201491010008B5084877
:102C600011F09AFA074B186020B9074812F016FCC9
:102C7000012008BD054812F011FC0020F9E700BF53
:102C800046A30100800E00204DA3010070A30100A7
:102C900070B5234D2B688AB00446002B3DD02148E7
:102CA00012F0FCFB286883683821DB6898472868A5
:102CB00004AA0D2112F0C0FB286806AA102112F008
:102CC000BBFB08AA0E21286812F0B6FB164812F0CA
:102CD000E5FBDDE9041201EB810303EB830042F223
:102CE000107392FBF3F505EB8000DDE90656A0803A
:102CF00005EB850000EB800096FBF3F303EB80030C
:102D0000E3800998089B0090CDE90156074823818C
:102D100012F0C4FB00200AB070BD0120FBE700BF29
:102D2000800E00208CA30100A9A30100D5A30100FF
:102D30002DE9F04387B0214C9DF83C909DF84080F0
:102D400006460F4610461946142550EA010317D1CE
:102D5000119C142D18BF0135A4F1150408BF3023B0
:102D60002C4408BF8DF8143024EAE47414B1B9F18E
:102D7000000F12D1142D15D9D4B907B0BDE8F083D6
:102D80000E9A0023FDF7FCF9A25C0DF8052084469D
:102D90000B4660461946013DD7E739464046B047E5
:102DA000013CE3E71DF805003946B0470135E1E78E
:102DB00039464046B047013CDEE700BF10A40100A1
:102DC0000B6801330B60014B1B6818475001002052
:102DD000014B1860704700BF500100202DE9F04FF3
:102DE000002687B005468B461C4602F1FF3A4FF09D
:102DF000FF3837464FF0000907E0B9F1000F0BD15B
:102E0000252800F00A815946A8471AF8010F002822
:102E1000F3D107B0BDE8F08F7A280AD8622810D81D
:102E2000302851D044D8252800F0F5802D2800F016
:102E3000FB8059462520A8479AF800005946A84724
:102E4000D8E7A0F16303172BF3D801A252F823F0BF
:102E50000F300000112F0000332E0000332E000031
:102E6000332E0000F32E0000112F0000332E00003F
:102E7000332E0000F32E0000332E0000332E00000E
:102E8000332E00008B2F0000332E0000332E000065
:102E9000D72F0000332E0000112F0000332E00002A
:102EA000332E0000B92E0000332E0000F32E000058
:102EB000392815D95828BCD19AF80030702B6ED11A
:102EC00054F8042B002375E0B8F1000F0BDA002F43
:102ED00000F0AC80A0F13008002F08BF022794E773
:102EE000B8F1000FF6DB0A2303FB0808A8F130084D
:102EF000F2E7682803D1682E06D1482685E76C28BA
:102F000002D16C2E00F09480002E92D106467CE710
:102F10007A2E06D1A14659F8042BD317752823D150
:102F20000FE06C2EF6D04C2E05D1073424F00709A3
:102F3000F9E80223F2E77528226804F1040912D1A6
:102F40000023F81E18BF0120012F0CBF30242024BD
:102F500001900A20CDE90248009059462846FFF723
:102F6000E7FE4C4646E7D317002A73F10001E8DA82
:102F700059462D20CDE90423A847DDE90423524218
:102F800063EB430308F1FF38DBE759463020A847DD
:102F900059467820A8474FF0080801278CE76C2E87
:102FA0008ED04C2E8CD1E31D23F007031C465B68AA
:102FB00054F8082BF81E18BF0120012F0CBF302138
:102FC0002021CDE902181021019000912846594690
:102FD000FFF7AEFE0EE754F8043B99464A4619F84F
:102FE000010B78B9032F25D1A2EB0309A8EB09093E
:102FF000B9F1000F7FF7FEAE59462020A84709F12E
:10300000FF39F5E759460493A847049BE6E754F8CF
:10301000040B594613E7594611E74E464F464FF009
:10302000FF384FF00109F0E60327EEE60127ECE652
:103030004C26EAE68146E8E607B50B460021024643
:103040000191034801A9FFF7C9FE03B05DF804FB35
:10305000C12D00002DE9F84FB0F8189019F00808BC
:10306000044693460DD001290CBF49F0100949F0E0
:103070002009A0F818908BF31188BFF36F8FBDE87B
:10308000F88F09F00709022907D1204612F013FA38
:103090000028F0D00128238B50D16769218B002FA5
:1030A00015DA256821F00701C4E9008841F0010123
:1030B00021830026218B01F0070ACA4502D0A368AC
:1030C000002B5CD10DB9002E74D0002358E001F024
:1030D00007035A1F012A20D821F00701062B256873
:1030E00089B2C4E900880CD1002D2B4638BF0023DB
:1030F0002BB1628B1B6801326283002BF8D141F047
:1031000002012183204612F0D6F906460028D1D0CC
:10311000238B43F020032383CBE7042B0CD121F036
:10312000070189B22183204612F0C5F9054600281F
:10313000BFD041F0200121830025BAE7032809D13F
:10314000226923F00703166843F006032383002552
:103150002F46AFE7042806D1226923F007035668FB
:1031600043F00403F2E7052806D1226923F00703A0
:10317000966843F00503E9E700252E46E8E70123BA
:1031800041F0080121838BF31188BFF36F8F03BBDC
:10319000002D33D116B121492046B0474FF020030E
:1031A000EFF3118B83F31188BFF36F8F238B23F021
:1031B00008032383238BDA0628D523F01003238307
:1031C0000121B4F8189009F0070900297FF45BAFDA
:1031D00051E7A1680029DBD00B68D1F804B0002BBF
:1031E00038BF0023994652463B462046D847B9F19E
:1031F000000FCDD0D9F800304946EEE729463B46CE
:10320000524620462D6812F072F9C1E713F02001F2
:103210001EBF23F0200323830221D2E71B550100A8
:1032200010B50748074C10F0B7FF074B1860204651
:1032300000F05EFF2046FFF7CBFD002010BD00BF71
:1032400021A401004D320000840E00200A2838B568
:10325000074D044604D1286883680D215B689847B0
:1032600028688368E1B25B689847204638BD00BF94
:10327000840E00200E4A70B5841AA3100D4C5C43D6
:103280000546E4B20C2000FB04200E464021084411
:1032900012F020FC011E05DB074B03EBC40463683E
:1032A0009847002128463346BDE87040184700BFC4
:1032B000980E0020B76DDBB6649101002DE9F04156
:1032C000104E841BA310104C5C43E4B20C256543E4
:1032D000804605F140000F463044402112F013FCB7
:1032E000011E09DB094A7319C3E90E27084B53F87D
:1032F0003430BDE8F041184740463B46BDE8F04158
:10330000184700BF980E0020B76DDBB6695B01005F
:1033100064910100002270B501210446104600F0BE
:10332000F9FB002000F0C4FB0F4810F005FC0F4B28
:10333000984215D115F044F8E6680D49304612F070
:1033400009F900280BDB01253564E468084904F11C
:103350001C0012F0FFF8002801DBE564002070BDBE
:103360006FF00400FBE700BFA93300000000AD0BC5
:103370007491010001460C2309484B4370B5C418F1
:10338000D4E90E5600224033A263184412F0D9FB50
:103390002DB132462B460348BDE87040184770BD3A
:1033A000980E0020F805002010B1012804D07047C5
:1033B000034B1B6C5B0701D1FFF7DCBF704700BFFD
:1033C000980E002008B54FF02003EFF3118183F32E
:1033D0001188BFF36F8F124A136843F0020013F095
:1033E000010310600CD04FF08042D2F80C34D2F8B8
:1033F0000C2413F0010303D00A4812F0A2FB0123AE
:1034000081F31188BFF36F8F23B1BDE8084000201E
:10341000FFF7B0BFBDE80840012010F09DBB00BF22
:10342000E80E0020D80E002010B5074C23782BB9E9
:103430004FF4A57015F0E4FA01232370BDE81040A5
:10344000002010F089BB00BFC5480020094BBFF326
:103450005B8F53E8002F22F0020143E800100028A0
:10346000F7D1BFF35B8FD30702D4012010F0C0BBAC
:10347000704700BFE80E002010B58AB0002301227B
:10348000CDE90632019308AA094BCDE9082204AC24
:1034900001AACDE90444CDE9023412F088FB0028EA
:1034A00004DB05220023204611F0D6FB0AB010BD34
:1034B0007B5B0100024AC3B21C2003FB0020704763
:1034C000980E0020094BBFF35B8F53E8002F42F0AA
:1034D000010143E800100028F7D1BFF35B8F930789
:1034E00002D4012010F038BB704700BFE80E002066
:1034F000094BBFF35B8F53E8002F22F0010143E833
:1035000000100028F7D1BFF35B8F930702D401208E
:1035100010F06EBB704700BFE80E00202DE9F843A5
:103520003A49BFF35B8F0646012251E8003F41E86C
:1035300000200028F9D1BFF35B8F33B934493548F7
:103540004B60CB608A6012F018F8731E012B32D8E2
:10355000012E07D14FF08043D3F81C3403F003034E
:10356000012B28D015F046FA044618B92A4B1B78CF
:10357000002B44D14FF02003EFF3118583F3118822
:10358000BFF36F8F0124254FDFF89480DFF894900C
:103590004FF08042D2F81834D2F81824D2030CD558
:1035A00003F00303012B01D0012E06D10CB385F3E8
:1035B0001188BFF36F8FBDE8F883ACB1284600F0E7
:1035C00033FB4FF08042D2F81835002BE0D1396838
:1035D0000029DDD03B603B680123C2F81835C8F8EC
:1035E0008031C9F80030D3E70021012011F0ECFA56
:1035F000E7E74FF080430222C3F80423DBE74FF0F4
:1036000080430222C3F808230546BCE7EC0E0020E5
:10361000880E0020B40E0020F34C0020040100406E
:1036200000E100E008000040821C084B22F07F42CD
:10363000C3F84025D3F80425904200D17047D3F851
:103640000405821C22F07F42F2E700BF0010014017
:103650000A4B00221A601B68094A0A4B1168D3F80A
:10366000400540F6CC43401A20F07F40B0FBF3F019
:1036700003FB0013136011F033BD00BF4011014084
:10368000F00E00200010014038B5104D104B002402
:10369000C5F808451C601B680E4B4FF40032C3F898
:1036A00080214FF48033C5F80433224601211120D4
:1036B00000F030FA112000F0FBF9074A01231360F3
:1036C00002202B60FFF72AFF204638BD0010014082
:1036D0004011014000E100E0081001402DE9F041F7
:1036E000324A334C1568D4F8043540F6FF115B1BA1
:1036F000B0F1FF3F08BF084623F07F421B0240D4D1
:10370000013820EAE0708842A8BF084640F6CC4362
:103710004FF48031C4F808131A4403FB0020D4F896
:103720000425B0FBF3F05843D4F84035214F224E26
:103730004FF000089B1AC7F8008023F07F43B04287
:1037400094BF2D18AD193868012B22F07F40C4F8C2
:103750004005C4F8441305D10F2015F051F9C7F8FE
:1037600000803B68154B4FF40032C3F88021D4F839
:1037700004052B1A23F07F43012B04D1FFF754FFDC
:103780000DE00020C2E725F07F43C4F84035D4F8AF
:1037900004052D1A023D25F07F45B542EED84FF4C1
:1037A0008033C4F80433BDE8F08100BFF00E002080
:1037B000001001404011014034EB7F0000E100E0C7
:1037C0004FF02002EFF3118382F31188BFF36F8F64
:1037D000084AD2F80405084A1268801A20F07F408F
:1037E00040F6CC42B0FBF2F083F31188BFF36F8F49
:1037F000704700BF00100140F00E00204FF0200382
:10380000EFF3118283F31188BFF36F8F0649074BE3
:103810000868D3F8043582F31188BFF36F8F1B1A41
:1038200023F07F4318447047F00E00200010014041
:1038300010B5114C114AA2610323C4E90433104BA3
:10384000E36122664FF480630E4A0F492362626689
:1038500000231022E01DA3626362E3622367E36634
:103860006367A26612F0B0FB0849204612F0ACFB79
:103870002023A37110BD00BFF40E002038A4010066
:10388000D6480020C648002041A4010045A40100FC
:10389000F0B5264E07460C460FCE8DB001AD0FC5D4
:1038A0000FCE0FC596E8070085E807003846002FC1
:1038B00038D0002C38D0381F2146024610344B78BF
:1038C0000D781B0443EA0563CD782B438D780431D2
:1038D00043EA05238C4242F8043FF0D1144C042102
:1038E0008A07036916D1C3F30742A55C1A0EA25CCE
:1038F00042EA0562C3F30725DBB2655DE35C42EA99
:10390000054242EA03220CAD21F003032B4453F895
:103910002C3C534050F8042F013153402C290361B3
:10392000DED101200DB0F0BD2046FBE794900100F0
:103930004CA401002DE9F043154689B00646002845
:1039400058D0002959D0002A59D010230A46684679
:10395000194612F053F9294668462A4C12F066F9C6
:1039600005F11007A146A035E8466A4610231178F4
:10397000013B615C02F8011BF9D1684612F09BF92A
:10398000694604A812F0D0F901A905A812F0CCF9F3
:1039900002A906A812F0C8F903A907A812F0C4F9F1
:1039A000102319460DEB0302684612F027F9394639
:1039B0006846103712F03AF9AF42D5D1102498F882
:1039C0000030013C19F8033008F8013BF7D1684694
:1039D00012F071F92946684612F028F910231946A9
:1039E0006A46304612F00AF968461022214612F063
:1039F00012F9012009B0BDE8F0830846FAE7104645
:103A0000F8E700BF4CA40100094A0A499368096815
:103A1000D967094998674B6843F080534B6000238E
:103A200083F31188BFF36F8F9368D86F704700BF1F
:103A300020240020A0A0010000ED00E012498A68C7
:103A40004FF038001044EFF3098C80E8F01F20207D
:103A500080F31188BFF36F8F0C4F4FF000668A6AB6
:103A60008A603E60906F0023936780F3118804B5ED
:103A7000104600F083FABDE8044002F1380090E8F7
:103A8000F01F8CF3098870472024002004ED00E02B
:103A90001EF0040F0CBFEFF30880EFF3098081697B
:103AA00011F8021C0229FFD001B512F082FA01BD03
:103AB00043B2002B08DB012200F01F0002FA00F0E5
:103AC0005B09024A42F82300704700BF00E100E0B2
:103AD00043B2002B0DDB01225B0900F01F0002FA4C
:103AE00000F02033034A42F82300BFF34F8FBFF3A7
:103AF0006F8F704700E100E0054B420900F01F00A6
:103B000053F82220012303FA00F01040704700BF51
:103B100000E100E043B2002BA8BF03F1604301F1D4
:103B20000101B8BF064B4FEA4111ACBF03F5614339
:103B300000F00F00C9B2B4BF195483F800137047E6
:103B400014ED00E008B572B6044B586A18B10022B3
:103B50005A6214F00FFD62B608BD00BF2024002099
:103B600042F8203C009B42F81C3C0A49019B42F869
:103B7000183C029B42F8143C21F001014FF0807385
:103B800042F8043C42F8081C0023203A826583670F
:103B9000704700BF0D5601000B4A0346906890B174
:103BA00013F1160F806E05D0A0F120029A4206D8BC
:103BB000834204D281422CBF0021012100E0002178
:103BC000002908BF002070472024002008B50446C3
:103BD0000E46154600F0B6F9084B20469C6000F0F2
:103BE000CDF9284686F30988002163B681F3118850
:103BF000BFF36F8F0022002311F008FD2024002066
:103C0000014910220A60704710ED00E072B6404092
:103C100080F31188BFF36F8FBFF34F8F30BF62B651
:103C2000BFF36F8F704700BF72B6494081F31188B0
:103C300020BF80F3118862B6704700BF30BFFFF726
:103C4000FDBF00BF0E4A08B50E4B22F07F029A60FE
:103C5000BFF34F8FBFF36F8FD3F8882022F4700229
:103C6000C3F88820EFF3148323F0040383F314884C
:103C700010F0F6FA10F0FEFA00F036F910F038FB0A
:103C80000000000000ED00E001B572B60B4A506A7A
:103C900000281EBF0021516214F06CFC62B6EFF3E5
:103CA0000580A0F110004FEAC0000549014409C990
:103CB0009847BDE801400349084700002024002040
:103CC000008F0100CD3E000012F0FCF9202080F3AF
:103CD000118808484FF40261401880F30988EFF317
:103CE00014800221084380F31488BFF36F8FFFF71D
:103CF000A9FF0000205B0020EFF30880EFF30981AB
:103D000001B5724600F064F801BD00BF38B5174B2D
:103D100014469A6A9A6A9A6A0546900716D5586BAD
:103D20009A6A120604D519B19A6A22F080029A6240
:103D30009A6A9A6A9A6AD2060BD400200B4A936A4E
:103D400043F0FF0393620023237038BD6FF015002A
:103D5000EEE75B681B05F0D52946FFF71DFF00283D
:103D6000EBD080F309880220E8E700BF00ED00E017
:103D70000D4B9A6A9A6A9A6A920508D59A6B9A6A62
:103D8000120404D518B19A6A22F400429A62064BD2
:103D90009A6A9A6AD20558BF9A6A9A6A002042F4CF
:103DA0007F429A620870704700ED00E0074B9A6A04
:103DB0009A6A9A6A9A6A9A6A9A6A9A6A6FEA02424E
:103DC0006FEA12429A620020704700BF00ED00E0E7
:103DD00070B5374B5B688AB00E46C3F30803002505
:103DE00085F31188BFF36F8F02F07F41B1F17F4FF0
:103DF00011D102F00C0108290DD0110701D406469B
:103E000001250022033B8DF80720032B48D8DFE86B
:103E100003F0043F433C2E46F3E7254BDA6A920752
:103E20003ED4DC6A14F0804409D028331B78F3B107
:103E30000DF1070201213046FFF768FF04469DF8A7
:103E4000073093B92022314602A812F0EAF8099B04
:103E500045B3C3F3080222B96FEA53236FEA432341
:103E6000099302A9204612F0A2F80AB070BD114BC6
:103E70001B782BB10DF107010120FFF779FFDDE77A
:103E80000D4B188884B2002CD9D0FFF78FFFD5E7EF
:103E90000DF107020021CEE70DF107010020ECE74C
:103EA0000024CCE723F4FF7323F00103D8E700BF1D
:103EB00000ED00E029ED00E02AED00E0024A536940
:103EC00043F010035361704700ED00E0044B996824
:103ED000986A884203D003494FF080520A607047C5
:103EE0002024002004ED00E0044800232021C21813
:103EF0000133272B82F80013F9D1704700E100E06D
:103F000008B50E4B9B68834207D1EFF3058393B14D
:103F10000B4A536843F08053536010F0F9FC4FF0A4
:103F20002003EFF3118083F31188BFF36F8FBDE897
:103F3000084014F07DBC10F085FF00BF2024002055
:103F400000ED00E01FB5084B0193084B0293084BAE
:103F5000039301AB0093074A074B0121684600F029
:103F6000A7F805B05DF804FB000000200000000089
:103F700000000B0600000020000001201FB5836E2A
:103F8000203B0193064B2022CDE90223012101AB06
:103F90006846009300F096F805B05DF804FB00BF9A
:103FA00000000B15DFF884C0F0B506460027104668
:103FB0008F4200DBF0BD56F827E0DEF8044094B3F2
:103FC00043B1651E2C4219D11F2C17D9DEF80020F1
:103FD000154213D1202CC2B2DEF80050DEF80800E2
:103FE0000FD9B4F1004F0ED8013CB4FA84F4C4F1F7
:103FF0001F046400072A44EA000406D96FF0150084
:10400000D8E70824F6E73E24F4E725F01F0515431A
:1040100045F0100544F00104CCF80820501CCCF801
:104020000C50CCF810400137C2E700BF90ED00E023
:10403000034B05225A60BFF34F8FBFF36F8F70475A
:1040400090ED00E0BFF35F8F014B00225A60704794
:1040500090ED00E013490868082810B51ED8FFF756
:10406000F1FF114C49680022904201F10C0105D189
:104070000E4B1870FFF7DCFF002010BDA26051F856
:104080000C3C23F01F03134343F01003E36051F88B
:10409000043C43F0010323610132E5E74FF0FF30B8
:1040A000EBE700BF8091010090ED00E0D64C0020CE
:1040B00010B5034C01232278FFF774FF207010BD68
:1040C000D64C002008B5084A00231278FFF76AFF93
:1040D00010F1160F03D0054B0022072800DD08BDA4
:1040E00098601A610130F8E7D64C002090ED00E0AE
:1040F000014B1860704700BF540100204FF02003AF
:10410000EFF3118283F31188BFF36F8F0649012308
:10411000C1F840354FF08041C1F8783582F31188FD
:10412000BFF36F8F0020704700E0014020B1034BC8
:10413000800143F001031847704700BFE090010081
:10414000F0B40278012A04460B4616D0022A2CD07D
:104150008AB9194A0D4602F11007106851682E46B7
:1041600003C60832BA423546F7D1127832706288F7
:104170005A73120A9A73F0BC70470F4A0D4602F147
:104180001007106851682E4603C60832BA423546F9
:10419000F7D11278327062685A73C2F30721120C99
:1041A000DA73120A99731A74E5E70146F0BC11221A
:1041B000184611F036BF00BF5BA50100F8B50A4FE5
:1041C00006460025FB79ECB2A34202D86FF0010449
:1041D00008E0C4EBC4013944304612F076F80135EA
:1041E0000028EFD12046F8BD00000020436837B515
:1041F0000446580508D422690AB1D90704D5164DDA
:104200002078EB79834202D8002003B030BDC0EBA8
:10421000C0000023694628440093CDF8033012F013
:1042200054F80028F0D06368DA0706D495F83820EF
:10423000082A02D8A2689F2AE6D9DB0601D423699E
:1042400043B9D4E902239A42DED81F2ADCD9B3F558
:10425000804FD9D80120D8E70000002010B50121F7
:104260000446083013F0F9FD2146034A0078BDE802
:104270001040072311F0C0BFA091010013B50C4CF2
:104280000146052294F8370001F09AFC70B9094BF9
:1042900018689A8800909B79ADF8042094F837004C
:1042A0008DF806300422694601F08AFC02B010BD88
:1042B00000000020CE900100F0B5284A067885B0B5
:1042C00005460F4602F12C00062111F0B0FF1446FE
:1042D00040B1082102F12C0011F0A9FF10B1137EAA
:1042E000B34231D12E46694616F80B3B84F837307D
:1042F000304600230093CDF8033011F0E6FF04466A
:10430000287864B1314612F07CFB0446F8B928786D
:10431000314601F005FC0546E0B105210EE06FF0E5
:10432000FF03029302A94FF6FF73ADF80C308DF82E
:104330000E3001F0F5FB054660B1042101F066FC8A
:104340003D60204605B0F0BD6FF02204F9E76FF044
:104350001504F6E76FF00B04F3E700BF0000002040
:104360002DE9F04700258768DFF8E890A8463B78FC
:104370009D4201DBBDE8F08707EB8503B3F8010040
:10438000B3F803604FF02003EFF3118A83F3118831
:10439000BFF36F8F01F0ECFB044628B98AF3118854
:1043A000BFF36F8F0135E2E78AF31188BFF36F8F98
:1043B00000F1280A26B34FF02003EFF3118283F3B4
:1043C0001188BFF36F8FE3696BB1013BE36182F347
:1043D0001188BFF36F8F204601F0A6FA013E10F05E
:1043E00015FCB6B2E6E763692BB1A1691868606194
:1043F0008B4208BFA06182F31188BFF36F8F1BB996
:10440000204612F0E9FACDE74FF02002EFF31181D8
:1044100082F31188BFF36F8FDA68E261C3F800801E
:10442000626AC3F80C808AB9C4E9083381F3118841
:10443000BFF36F8F012104F1300011F081FFC3073A
:10444000C9D45146484614F094F9C4E71360636236
:10445000ECE700BFD80D0020F8B5064688790C4679
:104460000EF0B4FB194B83422ED120460EF0B6FB62
:1044700020460EF0B3FB164D0C2707FB00535B687C
:104480005BB156B920460EF0A9FB07FB005043680C
:10449000D3E900011A7A11F071FF20460EF09EFB5D
:1044A0000C2707FB0050836873B120460EF096FB83
:1044B00078432E5420460EF091FB07FB0055A86868
:1044C000BDE8F84010F0A2BBF8BD00BF9407002083
:1044D0009C0F002038B503210446083013F0BDFCC2
:1044E000A368057818782146FFF7B6FF25B1034881
:1044F000BDE8384010F08ABB38BD00BFE80000209E
:1045000038B504210446083013F0A7FC457800783C
:104510002146FFF7A1FF25B10248BDE8384010F061
:1045200075BB38BDE80000202DE9F84F4FF0FF3291
:104530004FF0FF3305461648DFF858800E4613F05B
:104540000FFC044600F1080B00210027584613F029
:1045500026FC277520460EF041FB4FF00C0A0AFBA3
:104560000080458020460EF039FB0AFB0080876002
:1045700020460EF033FB0AFB0080032147605846BB
:1045800013F044FC867005802046BDE8F88F00BF1C
:10459000940700209C0F0020F0B5154687B00C460C
:1045A00021B9FFF7C1FF0446002847D001220021AE
:1045B000684614F00FFA20460EF010FB214E0C2333
:1045C00003FB0060C0F808D0204613F0F9FB1E483A
:1045D000214613F0E8FB64220023684610F03CFB00
:1045E000074680B1194A1A491A484FF4BC7310F0B3
:1045F00055FF1948394610F051FF404080F31188AB
:104600004FF0030002DF20460EF0E8FA0C2343438C
:10461000F65C56B120460EF095FB092E0CBF6FF0EC
:104620003C006FF0040007B0F0BD15B12C603046BF
:10463000F9E720460EF086FB2846F4E76FF03600D7
:10464000F1E700BF9C0F0020040100206CA50100D1
:10465000A0A50100A9A50100C6A5010070B5154ED1
:10466000062206F13101054611F0CBFC0446E0B10B
:10467000062142F20500FFF757FF0446B8B10622B3
:104680002946083013F0C8FB2146002242F20500FB
:10469000FFF782FF044640B90622294606F13100A1
:1046A00011F0BFFC012386F83030204670BD6FF05A
:1046B0003604FAE700000020F7B5044611F00100C7
:1046C000154615D01C4EC4EBC403E700F35C012B68
:1046D00005D03C1B0020335D2B7003B0F0BD0720DC
:1046E00010FB04303044FFF7B9FF0028F1D0F4E7A5
:1046F0004B0710D5104EC4EBC403E700F35C012B4D
:1047000005D1072010FB04303044FFF7A7FF3C1B06
:10471000335D2B70E1E70621684605F0ABFD40B93B
:104720009DF80530684603F03F038DF80530FFF72C
:1047300095FF0123EDE700BF000000202DE9F04FB9
:1047400087B006469DF84880DDF840909DF844A06B
:104750000C4617460021102202A81D4611F08CFCC1
:10476000B8F1000F0ED0B4BB002D3FD1DFF8B0B0D0
:10477000584611F033FC09238DF800308DF8010004
:10478000CDF804B0CDE90247B8F1000F30D0BAF14E
:10479000000F2DD10123CDF810D00593022202A9DC
:1047A00042F2080011F04EFE044638B9BAF1000F8B
:1047B00020D1042106F1140011F0C2FD204607B0FB
:1047C000BDE8F08F14F83320083A012A25D90133C7
:1047D0009F42F7D1C8E70023FAE715F83320083ADB
:1047E000012A1AD901339945F7D1BFE70023FAE727
:1047F0000122D4E7CDE902590122B8F1000F03D01C
:104800000592CDF810D0022202A942F2090011F05F
:1048100019FE0028CDD00446D0E76FF01504CDE78F
:10482000E6A501007FB506460D4642F20A000121C9
:10483000FFF77AFE0446E8B10830CDB1012113F04C
:10484000F4FA143606232046029301968DF80C5094
:104850000EF0C4F9094B0C2202FB003001AB43609F
:104860000022214642F20A00FFF796FE04B070BD16
:104870002946E4E76FF03600F8E700BF9C0F002000
:1048800030B5134DC0EBC00085B005440C4671B186
:104890000023694620460093CDF8033011F015FD42
:1048A00028B12146284611F0C9FC05B030BD02A848
:1048B00011F016FE02A8FFF781FC0028F7DA02A922
:1048C000284611F0BBFC002CEFD029462046EAE731
:1048D00000000020024BD3F81C311B69184700BFB1
:1048E0000000002038B505460C4619B9FFF71CFE3C
:1048F000044698B140F635439D4209D12046FFF762
:10490000E9FF054610B120460EF01CFA284638BDD6
:104910000448214613F047FA0025F7E76FF0360503
:10492000F4E700BF040100207FB5837A072B04461B
:104930001ED1061D0D21304611F079FCD0B9E37867
:1049400023B12B4B93F8A0301D0713D5022142F25F
:104950001600FFF7E9FD054660B10221083013F0AB
:1049600055FA23880380294642F21600FFF7BAFF62
:1049700004B070BD0C21304611F059FC1C4D0146AD
:1049800078B995F8A130D8070BD5022300911A46C3
:10499000204611F0EAFD20B98021304611F0D0FC0C
:1049A000E6E795F8A0309A0611D5D5F81C319B683A
:1049B0009B070CD50DF10E0103A811F02BFD30B9AA
:1049C000BDF80E20BDF80C10204611F0B1FDE378C3
:1049D000012BCDD10821304611F029FC0028C7D188
:1049E0003222002304F15801024810F065FABFE7B3
:1049F00000000020D80D00202DE9F84FDFF80481D9
:104A0000DFF814A1D8F80C303D486FF31033C8F824
:104A10000C3001F047F8451C3A484FF0FF324FF098
:104A2000FF33294610F064FC60B13749374841F242
:104A30008643524610F032FD404080F311884FF01B
:104A4000030002DFDFF8D4902E4EA9F58277A9F19A
:104A50001C0B15B910F06AF8D4E7F368C3F30433FC
:104A6000042B42D1337B002B42D100220023484645
:104A700013F07BF9044660B92549244841F22343E9
:104A8000524610F00BFD404080F311884FF00300B8
:104A900002DF4FF0FF324FF0FF33584610F0DCF8E2
:104AA000D7F8000120B10EF04DF90023C7F800310E
:104AB000204613F085F9C7F800012046FFF70AFFEA
:104AC00098B1144810F0A2F820460EF087F821465D
:104AD0001F20FFF7C1FCD7F800010EF033F90023C7
:104AE0002046C7F800310EF02DF91436013DB0E72D
:104AF000012BFAD13069343801F0F4F9F5E700BF41
:104B00006C01002058010020A0A50100A9A501000A
:104B1000EDA50100E80000206CA5010004010020C3
:104B20002DE9F041044600F10806304613F0A5F9DE
:104B3000B4F80C80B8F1010F05460CD81C4A1D4989
:104B40001D4841F6DC0310F0A9FC404080F31188B9
:104B50004FF0030002DF0221304613F07EF90746D2
:104B6000007811F037FBC20706460CD4104A1349EF
:104B700011484FF4C75310F091FC404080F3118866
:104B80004FF0030002DF05230D4A3878214611F06B
:104B900033FBB30707D52069A4F80C8010FA85F51C
:104BA000A560BDE8F0812046BDE8F0410EF0CAB82E
:104BB0006CA50100F1A50100A9A501000AA601004C
:104BC0003892010070B5037D012B044636D0032BCB
:104BD00063D18389032B0CD8324A3349334840F2DE
:104BE0000C5310F05BFC404080F311884FF0030041
:104BF00002DF042104F1080013F02FF9FF2243889B
:104C000006886275A289C6F30B009A42E08203D03F
:104C100020460EF097F80FE000F0AAFF05460028A6
:104C2000F6D001F0C7F9320B60752146284611F025
:104C30004BFE284611F0D0FE002070BD8389012B69
:104C40000CD8184A1849194841F2104310F026FCB4
:104C5000404080F311884FF0030002DF022104F18D
:104C6000080013F0FAF80546007811F0B3FA83074C
:104C70000CD40C4A0E490D4841F2144310F00EFCBE
:104C8000404080F311884FF0030002DF094A287882
:104C90000423214611F0B0FABAE70EF053F86FF092
:104CA0001500CAE76CA50100F1A50100A9A5010046
:104CB00023A601001892010010B5037D012B0446C4
:104CC0000CD0094A09490A4841F6231310F0E6FBC3
:104CD000404080F311884FF0030002DF2046FFF7C9
:104CE0001FFF002010BD00BF6CA5010051A60100F0
:104CF000A9A50100084A0346D2F81C0130B9D968B9
:104D000039B1196929B1C2F81C3170476FF04400FC
:104D100070476FF015007047000000200148022125
:104D200011F00EBB9800002000487047E6A5010076
:104D300037B50C46054618B9ECB16FF0150417E00D
:104D4000002369460093CDF8033011F0BEFA002825
:104D5000F2D02B78012BF0D1AB7903F0C003C02B3C
:104D6000EBD12846FFF72AFA0028E5DB6FF0440470
:104D7000204603B030BD074BDC79012C06D0621C05
:104D800029462046DA71FFF77BFDF1E76FF00B044F
:104D9000EEE700BF0000002070B586B001AA002138
:104DA00041F20900FFF7F8FB1A4E044618B1002340
:104DB000F37106B070BD019B9D6804900135ADF89C
:104DC0001400062204A9284611F01BF918B901980D
:104DD0000DF0B8FFEBE7104B186802909B88ADF818
:104DE0000C30062202A9284611F00BF90028EED05B
:104DF000294606220DF1110011F013F901988DF8E2
:104E000010400DF09FFF012304A92046F371FFF726
:104E100037FDCEE700000020D59001002DE9F341D9
:104E2000154B93F88A4014F0010407460E4615D03E
:104E300001AA00214FF60940FFF7AEFB0546C8B9AD
:104E4000019B9B685C78B44228BF34464FF016083B
:104E50009E1CA54206DB01980DF074FF204602B0AF
:104E6000BDE8F08108FB05701622314611F0D9F833
:104E70000135EEE70024F1E700000020F0B5144D05
:104E8000EC7989B0F4B9012102A8FFF7C7FFE871F6
:104E9000C0B116270FE002AB07FB063106220DF169
:104EA000010011F0BEF80123694630468DF800304C
:104EB000FFF7E6FC0134EB79E6B2B342EBD8002011
:104EC00009B0F0BD00210846FFF732FFF8E700BF48
:104ED0000000002073B53B4DD5F81C31996811F0E6
:104EE00001011FD101AA40F60340FFF755FB04461C
:104EF000002864D1019B9B681B7883B905F1980356
:104F0000184611F08EF9BFF35B8F00F0050053E8EF
:104F1000002F43E800010029F9D1BFF35B8F01980E
:104F20000DF010FF01AA002141F20300FFF734FB4E
:104F30000446002843D1019B234899680822013187
:104F400011F06FF801980DF0FDFE214601AA41F223
:104F50000100FFF721FB0446002830D10198836847
:104F60005A7885F83820D9789A7842EA01226A87F7
:104F70001A7985F83920197ADA7942EA0122AA8762
:104F80005A799B7942EA0323EB870DF0DBFE214639
:104F900001AA41F20200FFF7FFFA044678B9019B2B
:104FA0000A4899684022013111F03BF801980DF050
:104FB000C9FE95F844305E060AD46FF0120420460C
:104FC00002B070BD0000002040000020480000201A
:104FD000214601AA42F20300FFF7DEFA0446002848
:104FE000EDD1019B9F4899680822013111F019F811
:104FF00001980DF0A7FE214601AA42F20200FFF738
:10500000CBFA04460028DAD1019B9B68B3F8012053
:10501000A5F8CC2091B221B1DA789348114613F06B
:10502000D9FC01980DF08EFE95F8446016F020062C
:1050300000F0FB8095F864301C0711D501AA00210F
:1050400042F21C00FFF7A8FA04460028B7D10198E5
:10505000836853F8012F5B68C5E92A230DF072FEBF
:1050600095F8A030980623D50DF10201684611F09D
:10507000D1F904460028A2D1042142F22400FFF70E
:1050800053FA0646002800F0D7800421083012F0B9
:10509000BDFEBDF800300380BDF8023043802246DB
:1050A000314642F22400FFF777FA0446002886D101
:1050B000082142F20100FFF737FA0446002800F009
:1050C000BB800821084412F0A1FE95F8A02012F040
:1050D000020F14BF2F230F23910695F8A12048BF7C
:1050E00043F0400312F0090F18BF43F4006300229D
:1050F0000370C3F3072343708270C2700271427160
:105100008271C271214642F20100FFF745FA04465E
:1051100000287FF454AF95F844309A061ED4B5F8B1
:10512000CC10D9B901AA41F20500FFF735FA0446BF
:1051300000287FF444AFB5F8CC3063B9019B9B687D
:105140005A78997842EA0122A5F8CC209A884648F4
:10515000114613F03FFC01980DF0F4FD082140F6D4
:105160000140FFF7E1F90446002865D00821084412
:1051700012F04CFE10230370882300224370022695
:1051800020238270C670027142718271C371214600
:1051900040F60140FFF700FA044600287FF40FAF05
:1051A000014601AA4FF60140FFF7F6F940BB01980E
:1051B0000DF0C8FD01AA21464FF60240FFF7ECF9B9
:1051C000F0B9019B294899683246013110F029FF56
:1051D00001980DF0B7FD95F889305B0710D501AA4D
:1051E00021464FF60340FFF7D7F948B9019B204805
:1051F00099680122114410F014FF01980DF0A2FDEE
:10520000EB79002B7FF4DBAEFFF7C6FDEB79002BCB
:105210007FF4D5AEFFF732FE044600287FF4CFAE10
:105220001448FFF71BFA0446C9E6022140F66D4018
:10523000FFF77AF9044610B96FF03604BFE6022191
:10524000083012F0E3FD0123037046702146324618
:1052500040F66D40FFF7A0F9044600283FF4EAAE9F
:10526000ADE600BFA0000020D00000208900002093
:10527000880000200100002070B5274DD5F81C31B2
:1052800088B00646002B40D0012105F1980011F0AE
:1052900057F810F001033BD1204A1660002000218E
:1052A0006FF00802CDE90601CDE90232CDE9003305
:1052B00004931B491B4B1C484FF420720FF040FD18
:1052C0001A49194813F09EFBD5F81C31DB68984742
:1052D000044650B966B9FFF7FDFD044628B900F051
:1052E00075FE044608B9FFF719FD204608B070BDE9
:1052F000012105F1940011F023F8C307F5D40C48FF
:1053000005F18C0113F035FAEFE76FF01204ECE7CA
:105310006FF04404E9E700BF00000020B40F002054
:10532000004D0020F94900007008002074A601001B
:10533000D80D002010B5FFF7CDFD044628B900F0C8
:1053400045FE044608B9FFF7E9FC044B1B681BB196
:105350002046BDE81040184710BD00BFB40F002024
:105360002DE9F04F8DB005469A467C480E69002322
:105370000C469146059310F054FF800740F1DF8002
:105380000846FEF733FF0746002800F0DB8005F1F2
:1053900014080621404610F04AFF8346002840F0DA
:1053A000D4800F22014608A810F066FEA368ADF86D
:1053B0002030E368ADF8223007232A788DF82D30AD
:1053C00023788DF82EB09A4204D064486FF480514F
:1053D00010F0C5FF624B2078287083F837006168B1
:1053E0000DF12502FFF768F98346002866D105F123
:1053F0000B00002E3FD0216910F020FF6068C1072C
:1054000041D5002E3CD010F0100F14BF042301230F
:1054100021698DF824300DF1260010F00FFF0F21C7
:1054200042F20600FFF780F88346002800F09080E3
:105430000F2208A9083012F0EFFC0022594642F270
:105440000600FFF7A9F8002840F0858036B36368AE
:10545000DA0737D401212846FFF7E4F98346059897
:10546000BBF1000F65D048B3002100F0CFFB0598D9
:1054700011F0B2FA22E0069606A9CDF81B60BBE750
:105480008DF82460CBE7169B33B9C0F3C007C7F192
:1054900003038DF82430C2E70127F8E76368C3F3FC
:1054A000C003CDE90173179B00935246169B4946F2
:1054B0002846FFF743F983460028C8D058460DB068
:1054C000BDE8F08F05A92846FEF7F6FE83460028C2
:1054D000C0D010F10C0FF1D1002EEFD163689B0703
:1054E000ECD4626882F00202C2F3400B0BF00102BE
:1054F0000C21404610F042FF62680721C2F3C0024F
:10550000404610F03BFF6268082102F0010240466D
:1055100010F034FF3A460921404610F02FFF626830
:105520000B21C2F38002404610F028FF4FF0000B21
:10553000C4E708B111F050FA002ED7D1D1E76FF0CF
:105540000A0BBBE76FF0150BB8E76FF0440BB5E73C
:105550006FF0360BB2E78346B0E700BF980000203B
:105560000000002013B5049CCDE9003413460A4620
:1055700001460248FFF7F4FE02B010BD18000020FB
:1055800013B5184810F04DFEC10429D5154810F088
:1055900048FE4206C0F3801422D4124810F041FEA7
:1055A000C3051DD5104801A9FEF786FEC0B90E48F7
:1055B0000121FFF737F950B12146019800F026FB91
:1055C00008486FF4805110F0CAFEC0F3003401980F
:1055D00011F002FA24B103484FF4805110F0B0FEEC
:1055E00002B010BD2C00002018000020F0B5057896
:1055F00085B004469DB13C2D40D16FF04001434839
:1056000010F0ADFE0020FEF739FE0446B0B345723F
:10561000002100F0FBFA204611F0DEF92EE00379BC
:10562000B0F80160023B051D012BB7B2294602A864
:1056300026D810F003FE9DF808300622023B04F144
:1056400011010DF101008DF8083010F0EAFC012382
:105650008DF80030E378012B0CD102A8FEF70EFE86
:10566000E378012B054604D128486FF0400110F083
:1056700076FE65B91F21384610F040FF05B0F0BD39
:1056800010F0DCFD2946684610F0D8FDE2E7284618
:1056900002A920F8886B10F0D1FD227EE37D43EA59
:1056A0000223A5F89E30A27E637E43EA0223A5F87A
:1056B000A430E37E227F43EA0223A5F8A630E378F4
:1056C000EB700024012B6C7216D1694605F18F0036
:1056D00010F0B4FD297A0E4EC1EBC101314405F141
:1056E000960010F0ABFDD6F8AC10224601F0400356
:1056F000134301D0FFF744FF0721284600F086FA44
:105700002846FFF711F9284686E700BF2C00002045
:105710000000002038B50546054812F021FB04467C
:1057200020B10021083012F03AFB2575204638BD23
:10573000BC07002070B502460B464FF02001EFF386
:10574000118581F31188BFF36F8F0C480021D0F8C9
:105750000041C0F8001185F31188BFF36F8F24B9A1
:10576000BDE870400120FFF7D5BF012304F1080018
:105770002375A18112F013FB204670BD00000020AC
:1057800070B504460F2C0D461046194605D80D2C51
:1057900012D9BDE87040FFF7CDBF132C0CD10B48D8
:1057A00012F0DEFA044628B10021083012F0F7FAB0
:1057B00001232375204670BD02460B460DB10448F7
:1057C000EEE7BDE870400120FFF7A4BFE40700202A
:1057D000440700200023C0E901330146C3600148AB
:1057E00012F0C7BFEC06002038B5094B1D6804460F
:1057F000617A2DB951B92046BDE8384001F0C0BEEC
:105800002B680BB1204698472D69F1E738BD00BFE2
:10581000B80F00202DE9F8434D6904460E46904626
:105820001F464FF0FF333F484FF0FF320FF014FA9E
:10583000A37A072B46D14FF02003EFF3118283F3B5
:105840001188BFF36F8F002D4ED000232B60A3690A
:10585000002B46D1C4E9055582F31188BFF36F8F41
:10586000042106F1080012F0E8FA238808F0FD0888
:1058700043EA0838B389A0F80080043B4380022340
:1058800033753046FFF726F8002849D04FF0200343
:10589000EFF3118183F31188BFF36F8F002D39D09F
:1058A0006369002253B19D4231D12B684ABBA26982
:1058B0006361954200D1A36100232B6081F31188BD
:1058C000BFF36F8F17480FF0A1F915B12846FFF706
:1058D00081FF1FB130460DF035FA00273846BDE88C
:1058E000F8831D60A561B7E7A36933B103F10C0923
:1058F000DB680133C9F80030AEE7E36904F11C0945
:10590000F7E71360A3699D4208BFA261D4E71A4676
:105910001B68C7E7D9F80030013BC9F80030CDE774
:105920000127DBE7D000002000487047D0000020AE
:10593000031D70B50446184610F05BFF820519D5AB
:10594000B4F89E20B4F8A010914213D8B4F8A21075
:1059500091420FD3D4E9291291420BD1BFF35B8F4F
:1059600053E8002F22F4007243E800210029F7D108
:10597000BFF35B8F074B1D6805B970BDEE683EB184
:10598000B4F8A630B4F8A420B4F89E102046B0476E
:105990002D69F1E7B80F0020F8B5074608460D4617
:1059A00010F07EFD044610B900242046F8BD094BD6
:1059B0001E68002EF9D0B3680BB93669F9E729469D
:1059C000384698470028EFD0284610F069FD002897
:1059D000F3D1E9E7B80F002070B5044600F13406B2
:1059E00000220023304612F0C0F9054658B920467F
:1059F00010F061FF04F158010748BDE87040002233
:105A000000230FF059BA686908B1FFF7E3FE284692
:105A10000DF098F9E4E700BFD80D00202DE9F04122
:105A20009846837A072B06460D46174605D008464A
:105A30000DF088F96FF0380015E062B30FF0E0F870
:105A4000164B8342164807BF002200234FF0FF3257
:105A50004FF0FF330EF05EFD044630B928460DF0DE
:105A600071F96FF03600BDE8F081B37A072B06D0EC
:105A700028460DF067F92046FFF7ACFEDAE7002371
:105A8000C0E90178C360686106F13400294612F06C
:105A90008AF90020E7E74A61F6E700BFF00D002031
:105AA000EC06002038B51B4B0022012104469A6009
:105AB00013F0AAF9184B03F1540010F09AFE04F108
:105AC0001405194608B9012038BD9A7A9AB9BFF36E
:105AD0005B8F1A1D52E8000F20F0400C42E800CE08
