:10000000E05D00208147000021890100B147000028
:10001000B1470000B1470000B147000000000000F8
:10002000000000000000000000000000D9440000B3
:10003000B147000000000000854400005585010024
:10004000414700003D2901004147000041470000B1
:100050004147000041470000414700004147000080
:100060004147000041470000414700004147000070
:100070004147000041470000414700004147000060
:100080004147000041470000414700004147000050
:100090004147000041470000414700004147000040
:1000A0004147000041470000414700004147000030
:1000B0004147000041470000414700004147000020
:1000C0004147000041470000414700004147000010
:0C00D0004147000041470000414700008C
:0400DC00FFFFFFFF24
:1000E00053B94AB9002908BF00281CBF4FF0FF319F
:1000F0004FF0FF3000F06EB9ADF1080C6DE904CEA1
:1001000000F006F8DDF804E0DDE9022304B07047F2
:100110002DE9F047089D0E4604468C46002B40F022
:1001200081808A42174645D9B2FA82F24AB1C2F1B9
:10013000200106FA02F320FA01F1974041EA030C8C
:1001400094404FEA174E230CBCFBFEF6B9B20EFBEF
:1001500016CC43EA0C4306FB01F0984209D9FB1880
:1001600006F1FF3C80F01581984240F21281023E78
:100170003B441B1AA4B2B3FBFEF00EFB103344EA5F
:10018000034400FB01F1A14209D93C1900F1FF33FE
:1001900080F00181A14240F2FE8002383C44641AA2
:1001A00040EA064000211DB1D4400023C5E90043C8
:1001B000BDE8F08702B9FFDEB2FA82F2002A4FD121
:1001C000CB1B4FEA174E1FFA87F80121B3FBFEFC49
:1001D000260C0EFB1C3346EA034608FB0CF3B34225
:1001E00007D9BE190CF1FF3002D2B34200F2EB8006
:1001F0008446F61AA3B2B6FBFEF00EFB106643EA85
:10020000064408FB00F8A04507D93C1900F1FF336C
:1002100002D2A04500F2D2801846A4EB080440EABE
:100220000C40C0E78B4208D9002D00F0AF800021C0
:10023000C5E900060846BDE8F087B3FA83F1002956
:1002400049D1B34202D3824200F2BB80841A66EBEA
:10025000030301209C46002DAAD0C5E9004CA7E766
:10026000C2F120039740D8409140DE404FEA174E3C
:1002700008434FEA104CB6FBFEF11FFA87F80EFB5D
:1002800011664CEA064601FB08F3B34204FA02F495
:1002900009D9BE1901F1FF3C80F08E80B34240F2D3
:1002A0008B8002393E44F31A86B2B3FBFEF00EFB9C
:1002B000103346EA034600FB08F3B34207D9BE19E0
:1002C00000F1FF3C74D2B34272D902383E44F31AB3
:1002D00040EA01417AE7C1F1200703FA01F422FA6A
:1002E00007F31C4320FA07F906FA01F34FEA144C0E
:1002F000FE4049EA03094FEA1943B6FBFCFE1FFA28
:1003000084F80CFB1E6643EA06460EFB08FAB2456B
:1003100002FA01F200FA01F308D9A6190EF1FF3032
:1003200048D2B24546D9AEF1020E2644A6EB0A06E3
:100330001FFA89F9B6FBFCF00CFB106649EA064689
:1003400000FB08F8B04507D9A61900F1FF3C2DD2F3
:10035000B0452BD90238264440EA0E40A6EB0806E9
:10036000A0FB02894E45C446CE4618D315D075B3BE
:10037000B3EB0C0266EB0E0606FA07F722FA01F35E
:10038000CE401F43C5E90076002111E729462846E3
:100390000EE76646EDE6184601E74345E7D2B8EBBF
:1003A000020C69EB04040138A646E0E76046D3E797
:1003B00060468CE78646B9E7614674E702383C44FC
:1003C0002BE7084647E7ACF1020C3E4411E729460B
:1003D000EEE600BF704700BF2DE9F04FB14C94F836
:1003E000D6608FB006F00106002800F0CA81CEBBAF
:1003F00094F87C7094F8290094F82C204FF0270989
:100400002D2309FB074700F0030019FB0239FF23E6
:1004100084F82A3011F0E8FC94F8D600410707F17F
:100420007D0704EB090800F1268114F80900314624
:10043000C0F380100AF046FF06220146054608F187
:10044000020018F0B4FA29460622B81C18F0AFFAD8
:1004500014F809305A060AD413F00E0F40F0E38066
:10046000636A93B10C2630460FB0BDE8F08F0621C9
:1004700008F1020009F08CFB002800F02F8214F82C
:10048000093013F00E0FEBD0CDE00DF0DBF9824612
:10049000002800F04A820DF0E1F98346002800F0C0
:1004A0005D820EF091FB0546002800F054824FF665
:1004B000FF73806FAB8505F11C030B93002800F0E0
:1004C000308205F16C0205F1680109F06DFBB5F8A9
:1004D0006420754995F83DE095F8DC0095F840C03A
:1004E000C5F830A10A4042F4887295F8261142F00E
:1004F00001020EF03F0E6EF07F0E20F0030021F09F
:100500000301A5F86420002262F3000C4FF01B13D6
:1005100085F83DE085F8DC0085F8261163486449DC
:1005200085F83F204FF0060EC5E913226A866A63FC
:100530006A65A5F8C820A5F8CC20A5F8E82085F8BC
:10054000EA20C5F80021A5F80421A5F81821C5F86E
:100550002021A5F8242185F82F21AA67EB6585F8CD
:1005600040C02866A5F8C4E0C5F81C11A5F87C2099
:1005700095F872E195F89AC195F87E0095F85211B8
:10058000A5F8502162F3C30C62F3041E21F00701A9
:1005900020F01F00A5F87021A5F89821A5F8A42146
:1005A00085F89AC185F872E185F8521185F87E00C8
:1005B0000EF054FEA5F8D6000EF056FED5F8A83180
:1005C0003C49A5F8D8001940C5F8A8110EF052FE14
:1005D00095F8AC1160F3020185F8AC110EF050FEF5
:1005E000C4E933AB0B9B636295F8AC1195F820C05E
:1005F000ED610301002203F0700321F078010B4349
:1006000062F3000CC5E96E22C5E96C22C5E905223A
:10061000C5F8C02185F8AC3185F820C012F0AAFDDC
:10062000002840F0678194F828300121C3F3420389
:100630000DA88DF8343009F02FFC002800F09680CA
:1006400014F8093003F00F03022B00F1FF3233D00E
:10065000012B00F0538178781030C100002B00F09E
:100660003F81062B00F07F814FF4DA704FF41B714D
:1006700000FB02102BE0C0F3C000324604F1D701AA
:1006800011F088FDFF2884F82A0002D0304611F0CE
:100690004BFC4146034811F0C1FB0248394611F0BA
:1006A000BDFBD5E6C819002080F8FFFF48014801CE
:1006B0007F4101000000FFF698F801301033DB00A5
:1006C00000FB03F000F5AA70642303FB020094F81A
:1006D0002070B14AE4610025312365F30007A0FBD7
:1006E0000201236084F82070A9A3D3E90023C4E9A0
:1006F0000555C4E90155FFF7F3FCB4F8D480E06078
:100700000AF0DAFD0746B8F1000F08D114F80950D5
:1007100005F00F05A5F10105B5FA85F56D0994F809
:100720002820E36865F3000212F0010584F8282010
:1007300000F08580DFF87492984904930020022528
:100740000DF1300801930591CDE907980321CDE91A
:10075000020006942A4600903B460C950AF0FAFCEB
:1007600041460DF003F9002800F0A580636A002BD4
:100770003FF478AE0DF00EFC0C2630460FB0BDE80D
:10078000F08F002E3FF46EAE20460DF0FDF884424F
:100790000CD0834A8349844840F2197317F000F85B
:1007A000404080F311884FF0030002DF94F82830B6
:1007B000D8070DAD0ED502220D9203217B4B00957B
:1007C000012200200AF032FD29460DF0CFF8002862
:1007D00040F0D38002220321744B009500200D923B
:1007E0000AF024FD29460DF0C1F8002840F09F8052
:1007F0006F480DF005F9002840F085806D480DF038
:10080000CFF884420CD0664A6649674840F23B7391
:1008100016F0C6FF404080F311884FF0030002DF5E
:10082000636A0BB10DF0B6FB94F8D63000266FF377
:100830000003304684F8D6300FB0BDE8F08F5E4834
:100840005E4ADFF868E1DFF854C10694A8FB0001B6
:100850004FF0910909FB081103F24718C2F8008014
:100860004FF00209049309920DF1300848A3D3E92F
:1008700000234FF6FF7ACDE907E80295CDF83090D6
:10088000CDF814C0CDF80CA0FFF72AFC4A46CDE9FC
:1008900000503B46284603210AF006FC41460DF075
:1008A00065F800287FF462AF94F8D63043F0010376
:1008B00084F8D630D7E5424905914AF2D832009201
:1008C000CDE90798CDE90300CDE9010006943B4648
:1008D000012203210C950AF03DFCDFE71226C2E558
:1008E00098F801001030C00000F54D73194400F570
:1008F0009A70BDE60DF04EFB0326B4E54FF4F2709E
:100900004FF47F71B4E6264A2E4927484FF4E76337
:1009100016F046FF404080F311884FF0030002DFDD
:100920006CE705F17000A867CBE507269BE5214839
:100930000DF036F884423FF495AD40F23273184A18
:100940001849194816F02CFF404080F311884FF0E9
:10095000030002DF86E558460CF086FF50460CF097
:1009600077FF07267FE598F801301033DB0003F5A9
:100970004D70014403F59A707AE60E480DF010F8B8
:1009800084423FF46FAD40F22473D8E7AFF30080A8
:100990008D49FD1A0700000000CA9A3B05DD0000E2
:1009A00024B6010014B7010098B2010061D900001B
:1009B000E4190020C8190020002AE784A81A0020A2
:1009C00011DF000020B501002DE9F04F044690F83A
:1009D000E93090F8E80083428BB00D4616460ED001
:1009E000C01A00F0030002281BD094F82D2194F8BF
:1009F0002C319A4230D100200BB0BDE8F08F94F832
:100A0000522112F00108F0D194F8051194F8047104
:100A10008F4200F07683981E012284F8E90084F862
:100A2000EA2094F8983194F899219A4206D094F8E3
:100A30009A2102F00601042900F0A78394F8EA70D5
:100A40007A1E052A00F24F83DFE812F05C00E6020E
:100A500062024D031003C401294809F04FF858B34E
:100A600094F82C3184F82D310379022243F00303EA
:100A700042710371C271D4F8B03194F82E21027220
:100A80002BB394F85221910721D494F8AB21D207CB
:100A90001DD4D4F8BC21934204BF1A68C4F8BC2109
:100AA000D4F8B421B2B91A68026018600368C4E9C6
:100AB0006D000BB9C4F8C001B4F8CC0000289AD17D
:100AC000B4F8C630012B0ED9A4F8CC3093E7D4F893
:100AD000B42172B1D4F8B8311A68026018600368A2
:100AE000C4F8B801E5E70133A4F8CC300BB0BDE899
:100AF000F08F0360C4E96C00C4F8B801D9E700BF07
:100B0000141D0020A64F3B68002B00F0E284B4F8CF
:100B10003680628E94F806319044B04413F003039B
:100B20001FFA88F840F06A84B4F8EC90A8EB090248
:100B300010041FFA82FA3FF558AF94F8701194F838
:100B4000712194F8040184F805018A4294F8E800C0
:100B500084F8E90009D094F8722102F00702052A0E
:100B600004BF84F87111A4F8CC303B689C4204BFE8
:100B700000233B60D4F80071002F00F065853868D1
:100B8000002800F06185B4F80831E28D4168C4F8AE
:100B900000119342B4F80A11B4F80CC100F0AC860D
:100BA000A28DFA804FF00C0E0022FB833984A7F847
:100BB00022C087F804E03A7739460CF05BFE0CF06F
:100BC00063FE2368002B09DAD4E9011223F0004305
:100BD0008A422CBFA91869182360CD1AE38DB4F896
:100BE000087113FB0AF39BB2B3FBF7F117FB01F299
:100BF00092B293421FFA81FB80F01485D31A6948A0
:100C000040F2E24202FB03F3A3FB000162A3D3E93B
:100C10000023FFF765FA20F07F400544628E94F9C7
:100C20003D30A9EB0808D8443244904440F2E249F0
:100C3000002BA4F8328009FB07F7C0F215855A4A49
:100C40005A495B4840F65F1316F0AAFD404080F316
:100C500011884FF0030002DF4FF000083E46B4F861
:100C60000C21B4F80A11534B5348218642F2107CF0
:100C70000CFB02723B443844B3FBF7F301F1060C62
:100C8000013AB2FBF7F2B0FBF7F798B2A4F8C6202E
:100C90006045B4F80821A4F8D200A4F8CA70E2852F
:100CA00002DD401A063880B294F80631A4F8CE006E
:100CB000590744BF0023A4F8C8300221012014F0D2
:100CC0009BF8002202218146012008F0BBFF3B492E
:100CD0004FF4E472204608F047FFC21C5FFA82FA24
:100CE000374B00945246012100200AF09FFA30F061
:100CF00002030CD02C4A33492D4840F68E1316F0CF
:100D00004FFD404080F311884FF0030002DF254B78
:100D1000A6FB0367304620A3D3E900233946FFF73B
:100D2000DFF9294AE368049320F07F4BABFB0223F1
:100D3000072000FB0B33B01A67EB030108940694FD
:100D40004FF47A7200240023204F214E0797059616
:100D50000394FFF7C5F92B46CDE901B0CDF800802B
:100D60002046524601210AF0F5F930F002030CD07A
:100D70000D4A14490E4840F6A81316F011FD4040E4
:100D800080F311884FF0030002DFB9F1000F40F04B
:100D9000CC856FF047002FE68D49FD1A0700000053
:100DA000901C002000CA9A3B30B7010008B3010034
:100DB00098B201007FC3C901FF596202C81A00201E
:100DC000FDE7000068B801008D49FD1AA5E70000A5
:100DD00009170100618EE28E94F8EC300A44324427
:100DE00096B2DA07194600F12182B4F8EE20B61A5D
:100DF00030043FF5FAAD94F8642094F8658094F8D7
:100E0000E800B4F8627084F8E90013F01C0F02F0F7
:100E1000070908F0070840F09185B4F8606013F006
:100E2000E00F08D094F865205B0963F3020284F8B0
:100E300065204FF4A47794F8AC3194F86420D4F88A
:100E40000051C3F3C00363F3C30284F86420002D90
:100E500000F08C852868002800F0888594F864E00C
:100E600094F865204368C4F800318907CEF3020C7A
:100E70000EF00703C2F3020E02F0070202D49945F6
:100E800000F04B87A38DEB801022002385F81DC056
:100E900085F81EE02A712B7729460CF0EBFCD4F87C
:100EA0000051002D00F0CF852868002800F0CB8588
:100EB000B4F860304268C4F80021B3420AD3B3F5F5
:100EC000A47F07D8B4F86230BB4203D3B3F5A47F44
:100ED00040F23787A4F86060A4F862702B7FA28D7F
:100EE000EA8043F003030221092229712B776A77F4
:100EF000B4F85E30B4F85C202B841523AA84EB7719
:100F000029466F84EE840CF0B5FC0CF0BDFC6CE55A
:100F100094F8EC3013F0030500F0158294F93D309D
:100F2000002BBFF662AD012D7FF45FADBB4808F02A
:100F3000E5FD054600283FF458AD03790D2243F046
:100F40000303042700F1080603714271C7710C21E5
:100F5000304611F011FF3146082204F1F60017F077
:100F600026FD3A4605F1100104F19C0017F01FFD23
:100F7000D4F8B031002B00F0AD8694F852219707D9
:100F800000F1A88694F8AB21D60700F1A386D4F827
:100F9000BC21934204BF1A68C4F8BC21D4F8B42120
:100FA000002A01F0E480D4F8B8311A682A601D6084
:100FB0002B68C4F8B851002B01F082800CF088FC3B
:100FC000054600283FF411AD2B7FA28DEA8043F047
:100FD00003030226172103222B776977EA7704F2AD
:100FE000551108222E7105F1200017F0E0FC94F84D
:100FF000533185F8283094F8543185F82930286821
:1010000029460CF037FC0CF03FFC94F8EC3066F30A
:10101000010384F8EC30E8E4E28E618E94F8EC3061
:101020000A44324496B2DA0700F15B81B4F8F22048
:10103000B61A33043FF5D9AC94F8E83084F8E930B7
:1010400004F13805052204F1ED01284617F0AFFC44
:101050002846052108F020FF94F83D30012260F376
:10106000050384F83D3084F8C421BEE46B4808F0E1
:1010700045FD00283FF4B9AC94F8E83084F8E93035
:10108000012302794371D4F8B03142F003021221F6
:101090000271C171002B00F0BA8294F852219507B9
:1010A00000F1B58294F8AB21D10700F1B082D4F8F9
:1010B000BC21934204BF1A68C4F8BC21D4F8B421FF
:1010C000002A01F01580D4F8B8311A68026018605F
:1010D0000368C4F8B801002B00F0C584B4F8CA3026
:1010E000A4F8CC3081E44E4A4E494F484FF46F7318
:1010F00016F056FB404080F311884FF0030002DFEA
:1011000073E494F8197194F818C1674554D194F8B0
:10111000257194F824C1674500F0F882A7EB0C070D
:10112000FF077FF562AC94F82631D80740F10187BC
:101130009F0740F1EB860CF0CBFB014600B394F81F
:10114000243184F82531037FA28DC28043F003034C
:101150000B77022006220C2308714A77CB7794F88C
:101160002701B4F82821B4F82A31A1F8233081F8F6
:101170002000A1F8212008680CF07CFB0CF084FB17
:1011800094F8E80094F8E9302AE402F0070106290F
:1011900001F2428101A050F821F000BF6515000066
:1011A0003D0A00003D0A00003D0A0000D91400007D
:1011B000D91400003D0A0000A7EB0C07F8077FF5E3
:1011C00014AC94F8DC1011F0010700F0E1830CF08E
:1011D0007FFB07460028D3D094F8183184F81931E2
:1011E000037FA28DC28043F00303092202204146FF
:1011F0003B7738717A77FA7707F12000082217F0E9
:1012000001FCD4F8203187F82030C3F307221B0CEF
:1012100087F8212087F822303946ACE7141D0020DA
:1012200030B7010008B3010098B2010002200CF0B1
:1012300031FB074600283FF4D8ABC84808F05EFCF5
:10124000054600283FF4D1AB94F8EC306FF300036F
:10125000C3F38200C3F3421250EA020884F8EC3070
:10126000DBB240F0358694F8E820A4F8EE809B07C6
:1012700084F8E92000F1EC864346414605226A7174
:1012800085F808802A796B72D4F8B031698142F010
:10129000030218212A71E971002B4AD094F85221D7
:1012A000970746D494F8AB21D60742D4D4F8BC2192
:1012B000934204BF1A68C4F8BC21D4F8B421002AB0
:1012C00000F02987D4F8B8311A682A601D602B68AD
:1012D000C4F8B851002B7FF488ABC4F8C051FFF7B5
:1012E00084BB9E4808F00AFC054600283FF47DAB0D
:1012F000238E027994F8EC1033440633A4F8F230CC
:101300006FF30001012342F00302082084F8EC107F
:101310002A716871EB71052204F1ED01281817F0AC
:1013200046FBD4F8B031B4F8F220A5F80D20002B1C
:10133000B4D1D4F8B421002AC4D12B60C4E96C55CF
:10134000C4F8B851C6E7854808F0D8FB064600281F
:101350003FF44BAB94F93D30002B00F1040880F2D0
:101360004B8494F87E30190700F1308694F8ED50E4
:10137000002D00F0EF84037994F8DC2043F00303A0
:10138000D207037140F15086D4F81C315B0740F15D
:101390004B86112203234572C27103727771D4F810
:1013A000B031002284F8ED20002B00F01D8594F868
:1013B0005221900700F1188594F8AB21D10700F174
:1013C0001385D4F8BC21934204BF1A68C4F8BC2129
:1013D000D4F8B421002A00F0F186D4F8B8311A68A4
:1013E00032601E60C4F8B8613368002B00F06C8571
:1013F00094F8E83084F8E930FFF7F7BA01200CF0F0
:1014000049FA064600283FF4F0AA544808F076FB53
:10141000054600283FF4E9AA0CF05AFA238E3268F8
:1014200094F806014344063399B2D4F8003153606E
:101430002A79C4F800616FF301000C2384F80601D7
:10144000A4F8EC1042F003026B71D4F81031D4F818
:10145000B001434E2A710022EA71A6FB032394F8DF
:101460001461B4F808212E72C3F38F23B4F80A6113
:10147000A5F80B20B4F80C21A5F80F20A5F80D60F5
:10148000A5F81110A5F80930002800F0618294F841
:1014900052319F0700F15C8294F8AB31DE0700F116
:1014A0005782D4F8BC31984204BF0368C4F8BC31F9
:1014B000D4F8B431002B00F03986D4F8B8311A686A
:1014C0002A601D602868C4F8B85100287FF48DAAEE
:1014D00003E73C60FFF71BBB02F00702B4F89CC1B6
:1014E000B4F8A011B4F89E91B4F8A281A4F85EC03B
:1014F000042AA4F8621000F0978494F89A31062226
:1015000062F3020384F89A31D4F80071002F00F0DE
:1015100077843868002800F073843B7F4268B4F811
:101520002CE0C4F8002143F0030302223B774FF084
:10153000090A1523A7F806E0A7F820C079843A71B4
:10154000FB773946A7F82490A7F8268087F81DA0D6
:101550000CF090F90CF098F9FFF770BA141D002008
:101560005917B7D1DC4808F0C9FA00283FF466AA39
:1015700094F89A31B4F89E71B4F8A221A4F8D67008
:101580000121A4F8D82061F30203092284F89A31DA
:1015900042710279D4F8B031878142F003024FF0F2
:1015A000140CC172C173002702711B21482280F8FC
:1015B00007C04772017282728273002B00F01183A0
:1015C00094F85221910700F10C8394F8AB21D207D3
:1015D00000F10783D4F8BC21934204BF1A68C4F811
:1015E000BC21D4F8B421002A00F0D885D4F8B83151
:1015F0001A68026018600368C4F8B801002B00F094
:101600001985B4F8CA30A4F8CC30FFF717BAD4F86B
:10161000B421002A7FF457AD0360C4E96C00C4F81C
:10162000B80158E507FB113340F2E242AB489BB2E8
:1016300002FB03F3A3FB0001A5A3D3E90023FEF7FC
:101640004FFD2D1AFFF7EABAA54AA649A64840F66B
:10165000EA0316F0A5F8404080F311884FF003002C
:1016600002DF3868FFF78FBAE26C636C9B4E03FBB6
:101670001A23E36412F052FA804694F8DC00C0F3B7
:10168000820012F04DFA08EB000307FB03F39748C2
:10169000E26C94F8141103F5742303F23F23A0FBCA
:1016A00003034FEA934A0AFB0BF07B080244963B84
:1016B0009A4228BF1A4609FB01FC4FF0000EC4E90C
:1016C0001232A0FB060182A3D3E90023C4F854C060
:1016D000C4F8E4E0C4F844A0FEF702FDD4F81031E9
:1016E00084468348A0FB0330800A09FB00F0A0FB7E
:1016F000060177A3D3E90023A5EB0C05FEF7F0FC68
:10170000A7EB0A0620F07F48FFF7A9BA94F871C149
:1017100094F87071BC4500F0AA81764FD7F800C0EC
:10172000BCF1000F00F0B58464457FF45EA994F825
:1017300072C10CF0070CBCF1050F00F28B860FF2A2
:10174000080E5EF82CF000BF33180000B11700003F
:1017500061170000E1090000E1090000E109000053
:1017600090073FF542A90CF0B3F8014600283FF47A
:1017700007AD037F94F87221032060F30202034354
:1017800084F87221A08D0B77022718230F714B77F5
:10179000B4F87421B4F87631C880B4F878010A84BA
:1017A000B4F87A214B840F238884CA84CB77E2E48F
:1017B00094F87381B8F1000F40F01B8594F93D3027
:1017C000002BC0F23A8594F8723194F87C01C4F889
:1017D0001081052262F30203012284F8723184F839
:1017E0001421002800F00686B4F87431B3FBF0F33E
:1017F000134413FB00F39BB294F8722194F8060192
:10180000A4F80831C2F3C0039B0020F0070243F0A4
:1018100002031343B4F87801B4F87A2184F806314E
:10182000013984F80511A4F80A01A4F80C21FFF786
:10183000DCB82948B4F83680B4F8329008F05EF984
:10184000014600283FF49CAC94F872010A794FF0ED
:10185000040C6CF3020042F003024FF0180C84F801
:10186000720108EB09030A7181F805C0B4F874C16C
:10187000B4F87601B4F87821A1F808C03344B4F87C
:101880007AC148818A810F200022A1F811304FF0DF
:10189000FF33C8714B758B75CB750B764B768B769A
:1018A000CB760B774B778B772046A1F80EC00A7466
:1018B000CA740A750CF072FEB4F8CA30A4F8CC30C1
:1018C00094F8E80094F8E9303C60FFF789B800BF6D
:1018D0008D49FD1A07000000141D002000CA9A3B24
:1018E00030B7010054B8010098B2010083DE1B43F9
:1018F0005917B7D1901C0020228E8A427FF450A93C
:1019000040F2E24202FB03FB42F21072B4F8C6E07E
:1019100002FB0CB2013AB2FBFBF292B296457FF4A5
:101920003FA903233B71FFF747B90122104602216B
:1019300008F088F96FF04700FFF75EB8C3F3820044
:1019400060F3020284F864204FF4A476FFF767BACC
:10195000D4F8B431002B7FF4B0AD2860C4E96C55E5
:10196000C4F8B85100287FF440A8B6E4D44AD54959
:10197000D54840F6636315F013FF404080F31188AB
:101980004FF0030002DF286894F8EC10FFF766BA06
:10199000CE4808F0B3F8804600283FF4F1AB94F845
:1019A0001931CB4AC4F81C21013B092284F81931B2
:1019B000427194F93D200379002AACBF08220E221F
:1019C00043F00303C271082203713946104417F033
:1019D00019F8D4F81C3188F80830C3F307221B0C1F
:1019E00088F8092088F80A30D4F8B031002B00F0CC
:1019F0007D8194F85221910700F1788194F8AB2110
:101A0000D20700F17381D4F8BC21934204BF1A6855
:101A1000C4F8BC21D4F8B421002A00F0E083D4F843
:101A2000B8311A68C8F80020C3F80080D8F8003030
:101A3000C4F8B881002B00F04783B4F8CA30A4F88A
:101A4000CC30FFF79DBB9E4A9E499F4840F68F636E
:101A500015F0A6FE404080F311884FF0030002DF2E
:101A60002868FFF725BAC4F8C001FFF737BB94F820
:101A7000987194F89921BA4200F0E18194F89A1192
:101A800001F00702062A00F2D6840FF2080C5CF877
:101A900022F000BF3D1B0000E1090000E109000049
:101AA000E1090000B11A0000B11A0000E1090000CC
:101AB000B4F89C31A4F85E3001F00703B4F8A0211B
:101AC000B4F89E91B4F8A281A4F86220042B00F02F
:101AD0007C830B46062262F3020384F89A31D4F821
:101AE0000071002F00F04B833868002800F0478316
:101AF0003B7F4268B4F82CC0C4F8002143F00303D4
:101B00003B77022209237B773A71B4F85E10B4F870
:101B100062207A841523FB77A7F806C03984A7F8DA
:101B200024903946A7F826800BF0A4FE0BF0ACFEFB
:101B300094F8E80094F8E930FEF752BF634807F0E4
:101B4000DDFF034600283FF41BAB94F89A21B4F85C
:101B50009E71B4F8A211A4F8D6700120A4F8D81090
:101B600060F30202092184F89A2159711979D4F895
:101B7000B0219F8141F003014FF0140CD872D8734B
:101B8000002719711B20482183F807C05F72187263
:101B900099729973002A00F0DF8294F85211890734
:101BA00000F1DA8294F8AB11CF0700F1D582D4F8B6
:101BB000BC118A4204BF1168C4F8BC11D4F8B41136
:101BC000002900F01B84D4F8B82111681960136053
:101BD000C4F8B8311A68002A7FF42FAFC4F8C031B6
:101BE0002BE7D4F8B421002A7FF400AD0360C4E9E8
:101BF0006C00C4F8B80101E504F17F073B462A46B2
:101C000004F1EE0104F25D1012F0A4FC394610223A
:101C100004F1A00016F0CBFE082204F1980104F1B3
:101C2000B90016F0C4FE94F8970094F8B82094F820
:101C30007E3084F88F5043F0080365F3000042F0D3
:101C4000010284F8970084F87E3084F8905084F87C
:101C5000915084F8925084F8935084F8945084F80A
:101C6000955084F89650C4F8B0504146C4F8B4502A
:101C700084F8B82020460CF05FFED4F8B031002B79
:101C800040D094F8522195073CD494F8AB21D0076A
:101C900038D4D4F8BC21934204BF1A68C4F8BC21DC
:101CA000D4F8B421002A00F08182D4F8B8311A683F
:101CB00032601E603368C4F8B861FFF796BB00BF9E
:101CC00030B7010054B8010098B20100141D002083
:101CD0007F410100D4F8B421002A7FF464A92B606D
:101CE000C4E96C55C4F8B851FFF765B9D4F8B4210C
:101CF000002A7FF494AEC8F80030C4E96C88C4F8B8
:101D0000B88197E6D4F8B421002ACED13360C4E973
:101D10006C66C4F8B861FFF768BB90457FF4B2A861
:101D200003232B7129460BF0A5FDD4F80051002D9B
:101D300000F00F832868002800F00B834368C4F884
:101D4000003103232B7129460BF094FD0BF09CFD11
:101D5000FEF74BBE04F17F073B462A4604F1EE0135
:101D600004F25D1012F0F6FB3946102204F1A000D7
:101D700016F01DFE082204F1980104F1B90016F0D6
:101D800016FE94F8972094F8B81094F87E3084F8F2
:101D90008F5042F0010265F3000143F00803012077
:101DA00084F8972084F8B81084F87E3084F8905036
:101DB00084F8915084F8925084F8935084F89450A9
:101DC00084F8955084F89650C4F8B050C4F8B450D4
:101DD00032797071D4F8B03142F0030205213271CA
:101DE000F171002B7FF4E3AAD4F8B421002A7FF428
:101DF000F4AA3360C4E96C66C4F8B861FFF7F4BABA
:101E0000D04AD149D14840F6335315F0C9FC40407F
:101E100080F311884FF0030002DF3868B4F85EC029
:101E2000B4F86210FFF779BBB4F8A421002A40F09F
:101E30004E8184F89931A4F8CC20FFF765BB94F863
:101E4000A82194F8A91191423EF4CFAD94F8AA11BB
:101E500001F00300032800F03A8200287EF4C5ADAB
:101E6000BB4807F04BFE014600283FF489A994F8CF
:101E7000AA3194F8AC2194F8AB71012060F301030E
:101E8000C3F3820060F30202C3F3421060F3061250
:101E9000C7F34007087984F8AA3167F3C30284F8CE
:101EA000AC21C3F3820C40F00300C3F342130327B9
:101EB00016220871CA7181F808C04B724F71002256
:101EC00020460CF06BFBB8E5C4F8C061FFF790BA90
:101ED000238E33440633A4F8EE300BF0F9FC3B6854
:101EE000D4F800215A60C4F800710BF0F1FC0368CB
:101EF000D4F800215A6094F8EC30B4F8EE10C4F82D
:101F00000001C3F382085B09FFF7B8B940F652330A
:101F10008C4A90498D4815F043FC404080F311886D
:101F20004FF0030002DF94F8E80094F8E930FEF780
:101F300057BD874807F0E2FD00283FF421A994F837
:101F4000252194F82631013A84F82521027943F0BD
:101F50000103062184F8263142F003024171D4F8CE
:101F6000B03102710B216FF00E020C270172427228
:101F700005214FF0FF32C7718172C2720273002BCC
:101F800000F0BE8094F85221910700F1B98094F8D6
:101F9000AB21D20700F1B480D4F8BC21934204BF36
:101FA0001A68C4F8BC21D4F8B421002A00F01C82BD
:101FB000D4F8B8311A6802601860C4F8B801036830
:101FC000002B7FF43AADC4F8C00136E54146204607
:101FD0000CF0B2FCD4F8B03183B394F852219207DC
:101FE0002CD494F8AB21D70728D4D4F8BC21934241
:101FF00004BF1A68C4F8BC21D4F8B421002A00F048
:10200000B781D4F8B8311A6832601E60C4F8B8617C
:102010003368002B00F0878094F8523123F00303DB
:1020200084F85231FFF7E4B90D233572F3710227BA
:10203000FFF7B4B9C4F8C001FFF7E3BAD4F8B4218C
:10204000002ADED13360C4E96C66C4F8B861DFE70A
:102050000BF03EFC1023A28D87F81C803B7194F896
:1020600064303868FA80C3F302037B7794F86530F4
:10207000C3F30203BB7739460BF0FCFB0BF004FC07
:1020800094F8EC30B4F8EE10C3F382085B09FFF764
:10209000F5B894F8723103F00703052B00F2DA81EA
:1020A00001A050F823F000BF33180000B117000062
:1020B00061170000EB090000EB090000EB090000CC
:1020C000C4F8C051FEF77ABFC4F8C081B5E494F8F3
:1020D0009A01B4F8A671A4F89E21002363F30200CC
:1020E00084F89A01A4F8A431A4F8A271FFF70CBAFD
:1020F0001A68026018600368C4E96D00FEF7EBBF60
:10210000D4F8B421002A7FF453AF0360C4E96C0013
:10211000C4F8B80153E71A682A601D602B68C4E947
:102120006D55FFF7D7B8C4F8C06175E703682B6039
:1021300005602868C4E96D5500287EF456ACFFF7A9
:10214000CCB800BF30B7010054B8010098B201000C
:10215000141D002008B30100D4F8B41100297FF445
:1021600032AD1A60C4E96C33C4F8B83132E51A688C
:102170002A601D602B68C4E96D55FEF71CBFB74A85
:10218000B749B84840F6335315F00AFB404080F396
:1021900011884FF0030002DF3868A9E41A68026072
:1021A00018600368C4E96D00FFF728BA1A68326046
:1021B0001E603368C4E96D66FFF717B91A683260AC
:1021C0001E60C4E96D66FFF70FB9B4F8A421002AB8
:1021D00040F0D48084F89971A4F8CC207FE41A6888
:1021E000C8F80020C3F80080D8F80030C4E96D8832
:1021F00020E49D4807F082FC014600283EF4C0AF71
:10220000037943F003030B71112003220F23C871DC
:102210004A710B7294F873314B72204600220CF015
:10222000BDF994F8703184F8713100233B6094F863
:10223000E80094F8E930FEF7D3BB8B4807F05EFC6A
:10224000014600283EF49CAF0379182243F00303B3
:1022500003714271B4F87421B4F87631B4F878019E
:102260000A81B4F87A214B8110238881CA81CB710D
:1022700094F87C310B74B4F87E31B4F88001B4F872
:102280008221A1F81130B4F88431A1F81300B4F818
:102290008601A1F81520B4F88821A1F81730B4F808
:1022A0008A31A1F81D30A1F81900A1F81B202046A1
:1022B00042460CF073F994F8703184F8713194F857
:1022C000E80094F8E930C7F80080FEF789BB0807FA
:1022D00084F8A921C1F3820268D594F8AA210221C9
:1022E00061F3840284F8AA2194F8AA2157064FEAE0
:1022F000521153D5022161F3471284F8AA2194F8B0
:10230000AA1194F864C094F8650094F8AB21C1F365
:1023100082070CF0070C00F00700C2F38002BC45F6
:1023200008BF00275200B0EB511F42F001024FEAF4
:10233000511108BF002142EA4112023B42EA8702E2
:10234000062184F8E93084F8EC2084F8EA10FEF7DE
:1023500075BB424A4249434840F6726315F020FA81
:10236000404080F311884FF0030002DF2868E5E465
:102370001A6832601E60C4E96D6649E600200B46AB
:1023800060F30203A4F89E21B4F8A62184F89A31E0
:10239000A4F8A401A4F8A221FFF7A1BBC8070FD598
:1023A000012161F3471284F8AA21A8E7D10710D5CB
:1023B00094F8AA21012161F3840284F8AA2193E709
:1023C00011F0040118BF042161F3471284F8AA2117
:1023D00095E712F0040218D094F8AA21042161F3C1
:1023E000840284F8AA217FE71A6802601860C4E9B1
:1023F0006D00E4E5B4F87631FFF7FEB911681960B5
:102400001360C4E96D33FFF7E5BB94F8AA1162F3DA
:10241000840184F8AA1167E7104A1449114840F66C
:102420005B5315F0BDF9404080F311884FF0030075
:1024300002DFFEF703BB094A0C490A4840F65B532A
:1024400015F0AEF9404080F311884FF0030002DF31
:10245000FEF796BE40F65F435AE500BF30B7010075
:1024600054B8010098B20100141D002008B3010007
:102470002DE9F04F9C4695B05CF80C6B1D46136837
:1024800086460C4660462E31174605F1080A03229F
:10249000D3F80090CDF828E005F11C0816F087FA73
:1024A00004F12A010422504616F081FA04F13A019F
:1024B0000522404616F07BFA4046052107F0ECFC69
:1024C00095F8213000F03F0060F30503012885F8FE
:1024D00021300AD994F83F3003F01F02053AC3F3C4
:1024E00004010B2A85F8221002D915B0BDE8F08F3F
:1024F0003A6896F8DC1000209060B4F83480A5F8B3
:10250000128094F8362094F837005B0942EA0022E2
:1025100063F38401AA82638E86F8DC10ADF8303054
:1025200011F0FCFA034696F8DC000B93C0F382002E
:1025300011F0F6FA0B9BDFF828C394F83110AA8A41
:1025400040F2E24B0BFB08F8184408FB00F000F5E2
:10255000742000F23F20ACFB00C04FEA580C800C06
:102560000BFB01F1ACF1960CA862C5F82CC0E96335
:10257000218FB14BADF8361042F2107C0CFB01817B
:10258000AE48434402F1060C0139B3FBF8F3B1FB4A
:10259000F8F1A6F8C61099B261454044A6F8D210E9
:1025A000B0FBF8F0A6F8CA0002DD891A063989B234
:1025B000A6F8CE100422514606F1E00016F0F7F915
:1025C000237F04F11E0A5146C3F38013062212A88A
:1025D0008DF8403016F0EBF9237F4FF48072A28320
:1025E00099F82A0097F812B0C3F340128DF83C20F6
:1025F0000B9210F0B7F80146062204F12B000029D7
:1026000040F0ED8016F0FEF904F12503BBF1FF0F59
:102610000E9304F11F0300F0EB801A465146584612
:102620000FF01CFBA27F0E980232A27712A906229D
:1026300016F0BDF996F8DC30698AAA8AA286C3F33F
:10264000820384F83830BDF83630E3866186304640
:102650000CF0C6FA21462882E0807C680A980BF0CC
:1026600009F92B8AE3800F2323710B9B2068002B31
:1026700000F0BA8095F809E02B7A95F80BC0A97A9A
:1026800095F8212041EA0C2143EA0E234B4042F009
:10269000400201216B8485F82120217721460BF02F
:1026A000E9F80BF0F1F895F84900012100F0070076
:1026B00010F0C2FC624A4FF0000A8346312300F258
:1026C0005240A0FB02013360C6E901AA58A3D3E936
:1026D0000023FDF705FDFC68BDF83020AD6A20F051
:1026E0007F4040F2E24303FB023302215246F06096
:1026F000A4F5AE7401201C4407F0A4FA48460BF080
:10270000D3FD821C4F4BCDF80090D2B25046012130
:1027100008F08CFD0128A8EB0508A4EB0B047FD082
:1027200099F82830DB0773D430460CF059FADFF8FB
:1027300010B1A8FB0B893EA3D3E900230546494607
:102740004046FDF7CDFC404A069620F07F4AAAFBA2
:102750000223072101FB0A3340F23F11BF680891B1
:102760003A4907913A490591B8EB020069EB030138
:10277000F368049300264FF47A7200230396FDF762
:10278000AFFC2BA3D3E900238446A4FB0B01CDE9C6
:1027900001ACFDF7A5FC033520F07F40EDB2313FE1
:1027A0003B4600902A463046012108F0D3FC30F029
:1027B00002030CD0274A284928484FF4A07314F08C
:1027C000EFFF404080F311884FF0030002DF012249
:1027D0001046022107F036FA15B0BDE8F08F04F17B
:1027E000240116F0E4F80FE79DF83C30237755E715
:1027F0000E9811930622002116F004F99DF840303E
:10280000A377119B12A91846062216F0D0F811E7FB
:102810000023012200931846114608F007FD83E7C4
:102820000BF0CAF881453FF47BAF0EF049FF77E724
:102830008D49FD1A070000007FC3C901FF596202DC
:1028400000CA9A3BED1601008D49FD1A9116010050
:102850000917010038B9010068B8010098B20100F9
:1028600083DE1B43000000002DE9F041D0E90BC7D7
:10287000D0F828800CEB07043034A0450E461546EE
:1028800018D81B4F18A3D3E90023ACFB0701FDF7B1
:1028900027FCA4EB080420F07F40306012A3D3E9AA
:1028A0000023A4FB0701FDF71BFC20F07F402860FC
:1028B000BDE8F0810E4C0CA3D3E90023A8FB040172
:1028C000FDF70EFC20F07F4307F130003360A0FBE2
:1028D000040105A3D3E90023FDF702FC20F07F40AB
:1028E0002860BDE8F08100BF8D49FD1A0700000097
:1028F00000CA9A3B70B517F01CFF114D0146064601
:10290000104814F04DFF2C68B4F5007F13D20E4A26
:1029100021011268565002EB041412F023FDC1B2DB
:10292000204600F0EBF82968084814F039FF2B68BE
:1029300001332B6070BDBDE87040054814F030BF16
:10294000EC0E0020A4C00100E80E0020ACC0010085
:10295000CFC0010070B53E4B8CB003AA03F108064E
:10296000144618685968154603C50833B3422A4609
:10297000F7D118681B792B712860364814F010FFC6
:10298000354814F00DFF3548214614F009FF4FF487
:10299000005014F09BFE324B186050B1314814F0D7
:1029A000FFFE3148214614F0FBFE002004F080F8C1
:1029B00020B12E4814F0F4FE012446E0294814F01A
:1029C000EFFE2B48214614F0EBFE4AF6FF32FF21C2
:1029D0001D2000F089F806460028EAD1214814F0AD
:1029E000DFFE2146234814F0DBFE3246224923480D
:1029F00017F0CAFE4FF4167200232048204DCDE98F
:102A0000002314F07FFD174814F0CAFE21461D482C
:102A100014F0C6FE1C4816F0B0F90FCD07AC0FC479
:102A20002B682360194900963346032207A804F057
:102A3000E3F904460028BCD10A4814F0B1FE14485A
:102A400014F0AEFE074814F0ABFE20460CB070BD8B
:102A5000CFC10100F2C0010017C101003BC101005C
:102A6000E80E00204EC1010058C1010067C10100FD
:102A700070C101008CC10100F5280000F0070020A2
:102A800070AD01009EC10100B9C1010008AE010096
:102A9000BFC1010008B5FFF75DFF18B9044814F085
:102AA0007FFEFEE7034814F07BFE002008BD00BF58
:102AB000DCC10100F5C1010038B50C46BDF81000BD
:102AC000E5681C46C3180E2B114608DC2246284434
:102AD00015F06DFF034B2A789A72204638BD6FF0CF
:102AE0000604FAE72E490020034B5970110A1870AA
:102AF0009970DA70002070472E4900200B4BB0F916
:102B0000042010B590F905401C715A71C288DA7121
:102B1000140A9C7102895A72140AD9721C72828931
:102B20005A73110A1973002010BD00BF2E490020EE
:102B30002DE9F04387B0214C9DF83C909DF84080F2
:102B400006460F4610461946142550EA010317D1D0
:102B5000119C142D18BF0135A4F1150408BF3023B2
:102B60002C4408BF8DF8143024EAE47414B1B9F190
:102B7000000F12D1142D15D9D4B907B0BDE8F083D8
:102B80000E9A0023FDF7ACFAA25C0DF805208446EE
:102B90000B4660461946013DD7E739464046B047E7
:102BA000013CE3E71DF805003946B0470135E1E790
:102BB00039464046B047013CDEE700BF07C201008E
:102BC0000B6801330B60014B1B681847380100206C
:102BD000014B1860704700BF380100202DE9F04F0D
:102BE000002687B005468B461C4602F1FF3A4FF09F
:102BF000FF3837464FF0000907E0B9F1000F0BD15D
:102C0000252800F00A815946A8471AF8010F002824
:102C1000F3D107B0BDE8F08F7A280AD8622810D81F
:102C2000302851D044D8252800F0F5802D2800F018
:102C3000FB8059462520A8479AF800005946A84726
:102C4000D8E7A0F16303172BF3D801A252F823F0C1
:102C50000F2E0000112D0000332C0000332C00003B
:102C6000332C0000F32C0000112D0000332C000049
:102C7000332C0000F32C0000332C0000332C000018
:102C8000332C00008B2D0000332C0000332C00006F
:102C9000D72D0000332C0000112D0000332C000034
:102CA000332C0000B92C0000332C0000F32C000062
:102CB000392815D95828BCD19AF80030702B6ED11C
:102CC00054F8042B002375E0B8F1000F0BDA002F45
:102CD00000F0AC80A0F13008002F08BF022794E775
:102CE000B8F1000FF6DB0A2303FB0808A8F130084F
:102CF000F2E7682803D1682E06D1482685E76C28BC
:102D000002D16C2E00F09480002E92D106467CE712
:102D10007A2E06D1A14659F8042BD317752823D152
:102D20000FE06C2EF6D04C2E05D1073424F00709A5
:102D3000F9E80223F2E77528226804F1040912D1A8
:102D40000023F81E18BF0120012F0CBF30242024BF
:102D500001900A20CDE90248009059462846FFF725
:102D6000E7FE4C4646E7D317002A73F10001E8DA84
:102D700059462D20CDE90423A847DDE9042352421A
:102D800063EB430308F1FF38DBE759463020A847DF
:102D900059467820A8474FF0080801278CE76C2E89
:102DA0008ED04C2E8CD1E31D23F007031C465B68AC
:102DB00054F8082BF81E18BF0120012F0CBF30213A
:102DC0002021CDE902181021019000912846594692
:102DD000FFF7AEFE0EE754F8043B99464A4619F851
:102DE000010B78B9032F25D1A2EB0309A8EB090940
:102DF000B9F1000F7FF7FEAE59462020A84709F130
:102E0000FF39F5E759460493A847049BE6E754F8D1
:102E1000040B594613E7594611E74E464F464FF00B
:102E2000FF384FF00109F0E60327EEE60127ECE654
:102E30004C26EAE68146E8E607B50B460021024645
:102E40000191034801A9FFF7C9FE03B05DF804FB37
:102E5000C12B000030B585B0CDE901010446002545
:102E60000548039501A9FFF7B9FEDDE90230984254
:102E7000B8BF255405B030BD7B7701002DE9F84F70
:102E8000B0F8189019F00808044693460DD00129AF
:102E90000CBF49F0100949F02009A0F818908BF3F5
:102EA0001188BFF36F8FBDE8F88F09F00709022979
:102EB00007D1204614F08EFC0028F0D00128238B87
:102EC00050D16769218B002F15DA256821F00701A1
:102ED000C4E9008841F0010121830026218B01F023
:102EE000070ACA4502D0A368002B5CD10DB9002E99
:102EF00074D0002358E001F007035A1F012A20D89C
:102F000021F00701062B256889B2C4E900880CD19D
:102F1000002D2B4638BF00232BB1628B1B6801327A
:102F20006283002BF8D141F002012183204614F086
:102F300051FC06460028D1D0238B43F02003238385
:102F4000CBE7042B0CD121F0070189B22183204665
:102F500014F040FC05460028BFD041F02001218339
:102F60000025BAE7032809D1226923F00703166870
:102F700043F00603238300252F46AFE7042806D13C
:102F8000226923F00703566843F00403F2E705289B
:102F900006D1226923F00703966843F00503E9E7A9
:102FA00000252E46E8E7012341F0080121838BF339
:102FB0001188BFF36F8F03BB002D33D116B12149A8
:102FC0002046B0474FF02003EFF3118B83F31188B5
:102FD000BFF36F8F238B23F008032383238BDA0641
:102FE00028D523F0100323830121B4F8189009F0A9
:102FF000070900297FF45BAF51E7A1680029DBD006
:103000000B68D1F804B0002B38BF00239946524614
:103010003B462046D847B9F1000FCDD0D9F8003053
:103020004946EEE729463B46524620462D6814F0B5
:10303000EDFBC1E713F020011EBF23F02003238323
:103040000221D2E73978010030B51049104889B023
:10305000002217F099FB0F4D0F4900220023CDE904
:10306000062300240E23CDE90334CDE901440B4BA4
:1030700000944FF44072284613F0C8FF08492846D0
:1030800017F08BFA204609B030BD00BFA530000014
:103090002808002060080020204E0020BD340000D9
:1030A00018C20100014813F017BF00BF78060020C6
:1030B00008B500F065FA094814F092FE04232822AE
:1030C0000749084817F07DF8074B084A1A604FF483
:1030D0000040BDE8084000F099BC00BFFC0E002095
:1030E00070710020040F00203C0100201F7E0100B1
:1030F000F8B50F4BBFF35B8F002553E8007F43E823
:103100000052002AF9D1BFF35B8F0A4C0A4E361BDE
:103110003611B54200DBF8BD63685B792BB12368DB
:10312000DB6813B139462046984701351034F0E783
:10313000F40E002050AD010070AD0100064BBFF34E
:103140005B8F53E8002F013243E800210029F8D1BA
:10315000BFF35B8F704700BFF40E0020044A054B9D
:103160009B1AB1EBD30F34BF52F8310000207047E7
:1031700048AC010050AD0100094B4268C31A1B1155
:10318000013310B513714368064C196001225A715E
:10319000227812B9044813F09FFE0123237010BD5A
:1031A00050AD01003C4900207806002070B5114B5D
:1031B000BFF35B8F53E8005F6A1C43E800210029DE
:1031C000F8D1BFF35B8F2DB90B4C0C4E361B36116B
:1031D000B54200DB70BD237B43B123685B6903B15B
:1031E0009847042200212046FFF7C6FF013510341E
:1031F000EEE700BFF80E002050AD010070AD0100F9
:10320000164B984237B5044602D3154B984220D34B
:1032100014480022002301A913F084F90546D8B907
:103220000122019BBFF35B8F53E8001F43E800209E
:103230000028F9D1BFF35B8F019821461F2204308B
:1032400015F07FFB019C7E2384F8233084F8245002
:103250000434204603B030BD034CFAE764AA0100F1
:1032600014D90100040F002020C2010048B1054B11
:10327000984205D3A03398422CBF0020012070470C
:1032800000207047707100202DE9F04F4C4B1B78E7
:1032900085B0044603B960B34FF02003EFF3118605
:1032A00083F31188BFF36F8F464814F0A9FD0546DC
:1032B00086F31188BFF36F8F78B1BFF35B8F424BFA
:1032C00053E8002F013A43E800210029F8D1BFF369
:1032D0005B8F94B1284614F0ACFE24B93B4B1B68BD
:1032E0000BB1FFF705FF374814F088FD041E18BF27
:1032F0000124204605B0BDE8F08F354B1B78CBB9D3
:103300002B7ADB0716D414F0A7FE8046284614F06B
:103310006EFE0146404614F086FD2E4F2E4BDFF820
:10332000D4B0DB1BDB0803932C4BDB1B06464FEAB8
:10333000D30A36B92A4E2B4FBF1B3F114FF000085E
:103340003AE0B6FA86F1C1F11F094946284614F061
:1033500051FE254B9842014602D3244B98421AD382
:103360000846FFF783FF0246A8B9214B994212D0C5
:103370006B8903989909B0EB931F4FEA8A1343F0C6
:10338000010388BF57F83120ADF800304946434665
:10339000584614F0A2FD012101FA09F126EA0106BE
:1033A000C7E773685B7923B1336829461B683046E9
:1033B000984708F101081036B845F2DB8AE700BFEC
:1033C0003C490020FC0E0020F00E0020F40E0020EE
:1033D0003D49002048AC010050AD010020AD010086
:1033E00050AD010070AD010064AA010014D90100C4
:1033F00020C201003AC20100294B73B51B6841810C
:1034000004469847274DE060BFF35B8F55E8003FC7
:10341000013345E80032002AF8D1BFF35B8F4FF04B
:103420002003EFF3118683F31188BFF36F8F1E48DB
:10343000214614F0D9FC86F31188BFF36F8F1B4B24
:103440001B7883B14FF02003EFF3118483F31188CD
:10345000BFF36F8F0020FFF717FF84F31188BFF3CE
:103460006F8F02B070BD124A2B681268002AF8D024
:10347000012B09D100220023CDE900230D480A22A7
:10348000002314F03FF8ECE70A2BEAD1094817F0C3
:1034900087F9094802B0BDE8704013F01DBD00BFB8
:1034A0003C010020F00E0020FC0E00203D490020D1
:1034B000200F0020280800207806002010B5FFF714
:1034C00075FE13F003FD0C4B186030B10B4B1B68FD
:1034D000092B02DD0A4813F0FFFC094C0020FFF71E
:1034E000D3FE0028FAD14FF0FF324FF0FF332046D1
:1034F00013F018FDF2E700BF200F0020F00E0020AF
:1035000078060020F8B50E4F3D7875B90D4C0E4E7B
:10351000FFF74CFE361B3611B54207DB0020FFF7E4
:10352000B3FE0028FAD101233B70F8BD63685B79D4
:103530001BB1236820461B69984701351034EBE71F
:103540003D49002050AD010070AD010007B50438C1
:103550000190BFF35B8F50E8003F5A1E40E8002106
:103560000029F8D1BFF35B8F012B03D1034801A9D8
:1035700013F00AF803B05DF804FB00BF040F00204D
:103580002023024902481A4616F01BBE1072002082
:10359000240F002037B50023094D01930120FFF7C8
:1035A00073FE0446FFF7CAFD0022002301A9284646
:1035B00012F0B8FF08B1002CF0D1019803B030BD73
:1035C000240F002007B500230193074800220023A1
:1035D00001A912F0A7FF10B1FFF7DCFF01900198DD
:1035E00003B05DF804FB00BF240F0020F0B5037AA0
:1035F000457A85B02D090190D8071CD4DDB100248F
:1036000026460198314614F0F5FC0746FFF72EFEDA
:1036100070B134B9019B2946186914F004FC0446C2
:1036200048B124FA06F3D90702D53846FFF78EFFD2
:103630000136AE42E5D3019B1A7A920704D55B6945
:10364000084C0393039B2BB9064801A912F09CFF79
:1036500005B0F0BD1D6803A9204612F095FF039543
:10366000F0E700BF240F00200EB403B503AB014602
:1036700053F8042B04480193FFF7B0FA002002B07E
:103680005DF804EB03B07047018401002DE9F04FB1
:1036900085B011F0020490469DF8387006461A462F
:1036A00001F0010901F0080507D011F0440F37D1EE
:1036B0003249FFF7D9FF01460C46B9F1000F0AD095
:1036C0002F4B304953F827202F4B3046002A08BF94
:1036D0001A46FFF7C9FF3DB12C4B2D4953F827205F
:1036E0003046FFF7C1FF0546B8F1000F43D0012374
:1036F00003FA07F7274B17F0100F274F18BF1F4685
:10370000BDF840109DF83C00FFF728FD3946024601
:103710003046FFF7A9FF2844204405B0BDE8F08FEC
:103720001E4B19680029C7D01D4B4FF4616E1B68F2
:10373000B2FBF3F34FF47A7CB3FBF1F4B4FBFEF28B
:103740000EFB124E01FB14340CFB04F44FF03C0A48
:10375000B4FBF1FB01FB1B440CFB04F4BEFBFAF3CE
:10376000B4FBF1F1CDE901B10AFB13E100910D4980
:10377000FFF77AFF9FE7084FC2E700BF8BC2010047
:103780005CAE010016CE01007DC2010070AE0100EA
:10379000B0C2010087C2010082C20100400F0020B8
:1037A000440F002094C2010038B50C46E1070546DD
:1037B00003D5084A0849FFF757FFE20608D4A306D5
:1037C00028464CBF05490649BDE83840FFF74CBFC5
:1037D00038BD00BF7DC2010016CE010015C1010039
:1037E00014C101002DE9F0471D46089B1746DA0673
:1037F00004460E4605D499064CBF2A492A49FFF7CC
:1038000033FFDFF8AC904FF00008A8452ADBDFF863
:10381000A480DFF8A490DFF898A00025BD422FD245
:10382000725D49462046FFF71FFF0135102D20D15C
:103830001E49DFF87C80DFF884902046FFF714FFF4
:103840000025AF4228D9725DA2F120035F2B28BF6B
:103850002E2249462046FFF707FF0135102D14D1CF
:10386000BDE8F08749462046FFF7FEFE08F1010853
:10387000CBE76A07D2D151462046FFF7F5FECDE7E8
:1038800041462046FFF7F0FECFE76B07D9D141460E
:103890002046FFF7E9FED4E741462046FFF7E4FE65
:1038A000DBE700BF15C1010014C10100C0C2010067
:1038B000BEC20100BCC20100B6C20100C2C201000A
:1038C0002DE9F0478B7A13F0070817468AB00A7A79
:1038D00005460E4620D04989C3F3C2038909D24365
:1038E000CDE900830291F36802F001023946FFF747
:1038F000CDFE8146347AE44314F001040ED029460B
:10390000304614F013FCB8F1000F2BD04246394674
:103910002846FFF749FF25E0C146EBE7B8F1000F65
:1039200026D12746EB68069306AA3B46A96830468F
:1039300014F0E8FB069A6B681A603AB1AB6813445E
:1039400013F8014CA4F10A035C425C41284614F0D0
:103950004AFD069B1F44002BE4D11CB113492846A5
:10396000FFF782FE284614F03EFD0AB0BDE8F0875E
:10397000304614F071FB0E4902462846FFF774FEEC
:103980004FF0100A05AA234606A93046CDF814A028
:1039900014F0B8FB059A002AB8D04B46009706A948
:1039A0002846FFF71FFF059B1C44EBE7C5C201003B
:1039B00016CE010073B542F20F738B4228BF0B463F
:1039C00005680F4A04460521684613F0F6FE636851
:1039D0000C495B6806460B22284614F09AFB636884
:1039E0003246694628465B6814F093FB63680649D3
:1039F0005B681B22284614F08CFB02B070BD00BF30
:103A00009BD6010003C30100E7C20100084A10B5BC
:103A10000123084C13600021A04204D801B11360B7
:103A2000054B186010BD40085B000121F4E700BFA2
:103A3000440F002040420F00400F0020F8B5074F10
:103A40000D4604464618B44201D12846F8BD3868F0
:103A500014F8011B83685B689847F4E75C0F00204B
:103A6000014814F0C0BC00BF9CAE01000148FFF744
:103A7000A1BF00BF9CAE010008B5034812F074FB63
:103A8000024B186008BD00BF0FC301005C0F00208F
:103A900010B508460C4614F09DFA054821460F2241
:103AA000FFF70EFF2046BDE8104014F0C2BA00BF79
:103AB0009CAE0100014B01221A7070474F49002053
:103AC000024B034801221A7014F08DBC50490020AB
:103AD000C4AE01000148FFF76DBF00BFC4AE0100D6
:103AE00010B508460C4614F075FA054821460F2219
:103AF000FFF7E6FE2046BDE8104014F09ABA00BF7A
:103B0000C4AE0100054B1B781BB141F2883016F0A2
:103B100042BD0120002113F0BDB900BF5049002073
:103B20002DE9F84FDFF89090DFF890B007460E4689
:103B30000424CA4699F8003033B94FF0FF324FF0F1
:103B4000FF33584612F04AFD32463946002000F055
:103B50006DFB9AF80030804613B9584612F0B6FD56
:103B6000144DB8F1000F18D001232B709AF80030D3
:103B700033B93046BDE8F88F5CB92C704FF0FF3494
:103B8000002000F09FFB0028F3D02B78002BF3D10E
:103B9000EFE7013CFFF7B6FFF2E72B7813B1013CEA
:103BA00004D12C702B78002BC4D1E2E7FFF7AAFFD9
:103BB000F8E700BF4F49002050490020640600206C
:103BC00010B50748074C12F0CFFA074B1860204693
:103BD00001F044F92046FEF7FBFF002010BD00BFB6
:103BE0000FC30100ED3B0000740F00200A2838B518
:103BF000074D044604D1286883680D215B68984707
:103C000028688368E1B25B689847204638BD00BFEA
:103C1000740F002070B504460D48231A9A100D4BFE
:103C20005343DBB20C255D4305F140030E461844B7
:103C3000402114F009FC011E04DB074B2B445B6898
:103C40009847002120463346BDE87040184700BF22
:103C5000880F0020B76DDBB6E8AE01002DE9F0411A
:103C60000F4C104D031B9B105D43EBB20C255D43C5
:103C7000074605F140000E462044402114F0FDFBAC
:103C8000011E08DB084B2C44C4E90E36074B5B5978
:103C9000BDE8F041184738463346BDE8F0411847C3
:103CA000880F0020B76DDBB6DD840100E8AE0100AF
:103CB000002270B501210446104600F04FFC0020A0
:103CC00000F01AFC0F4812F03BF90F4B984215D147
:103CD00016F0DDF9E6680D49304613F0CAFD0028FC
:103CE0000BDB01253564E468084904F11C0013F07E
:103CF000C0FD002801DBE564002070BD6FF004000A
:103D0000FBE700BF453D00000000AD0B00AF010028
:103D100001460C2309484B4370B5C418D4E90E562C
:103D200000224033A263184414F0C5FB2DB1324683
:103D30002B460348BDE87040184770BD880F00202F
:103D4000A805002010B1012804D07047034B1B6C5C
:103D50005B0701D1FFF7DCBF704700BF880F002071
:103D600008B54FF02003EFF3118183F31188BFF3FF
:103D70006F8F124A136843F0020013F001031060C2
:103D80000CD04FF08042D2F80C34D2F80C2413F04F
:103D9000010303D00A4814F08EFB012381F311883C
:103DA000BFF36F8F23B1BDE808400020FFF7B0BF1D
:103DB000BDE80840012012F0D3B800BFD80F0020A2
:103DC000C80F002010B5074C23782BB94FF4A5700D
:103DD00016F0E1FB01232370BDE81040002012F033
:103DE000BFB800BF51490020094BBFF35B8F53E8B8
:103DF000002F22F0020143E800100028F7D1BFF3A2
:103E00005B8FD30702D4012012F0F6B8704700BFD1
:103E1000D80F002010B58AB000230122CDE9063268
:103E2000019308AA094BCDE9082204AC01AACDE907
:103E30000444CDE9023414F074FB002804DB0522AD
:103E40000023204613F06EF80AB010BDEF84010085
:103E5000024AC3B21C2003FB00207047880F0020D9
:103E6000094BBFF35B8F53E8002F42F0010143E899
:103E700000100028F7D1BFF35B8F930702D4012015
:103E800012F06EB8704700BFD80F0020094BBFF387
:103E90005B8F53E8002F22F0010143E80010002857
:103EA000F7D1BFF35B8F930702D4012012F0A4B8BF
:103EB000704700BFD80F00202DE9F8433A49BFF3FF
:103EC0005B8F0646012251E8003F41E800200028B0
:103ED000F9D1BFF35B8F33B9344935484B60CB60C0
:103EE0008A6013F0D9FC731E012B32D8012E07D142
:103EF0004FF08043D3F81C3403F00303012B28D088
:103F000016F043FB044618B92A4B1B78002B44D10A
:103F10004FF02003EFF3118583F31188BFF36F8F08
:103F20000124254FDFF89480DFF894904FF0804211
:103F3000D2F81834D2F81824D2030CD503F00303B6
:103F4000012B01D0012E06D10CB385F31188BFF3EC
:103F50006F8FBDE8F883ACB1284600F089FB4FF0C5
:103F60008042D2F81835002BE0D139680029DDD025
:103F70003B603B680123C2F81835C8F88031C9F8A6
:103F80000030D3E70021012012F084FFE7E74FF073
:103F900080430222C3F80423DBE74FF08043022270
:103FA000C3F808230546BCE7DC0F0020780F00208B
:103FB000A40F00201E4E00200401004000E100E09C
:103FC00008000040821C084B22F07F42C3F84025C5
:103FD000D3F80425904200D17047D3F80405821C21
:103FE00022F07F42F2E700BF001001400A4B00229E
:103FF0001A601B68094A0A4B1168D3F8400540F65D
:10400000CC43401A20F07F40B0FBF3F003FB0013D9
:10401000136013F0CBB900BF40110140E00F002046
:104020000010014038B5104D104B0024C5F808456C
:104030001C601B680E4B4FF40032C3F880214FF414
:104040008033C5F8043322460121112000F086FA9E
:10405000112000F051FA074A0123136002202B605F
:10406000FFF72AFF204638BD0010014040110140F3
:1040700000E100E0081001402DE9F041324A334CE4
:104080001568D4F8043540F6FF115B1BB0F1FF3F13
:1040900008BF084623F07F421B0240D4013820EAC3
:1040A000E0708842A8BF084640F6CC434FF4803108
:1040B000C4F808131A4403FB0020D4F80425B0FB0D
:1040C000F3F05843D4F84035214F224E4FF000080A
:1040D0009B1AC7F8008023F07F43B04294BF2D188D
:1040E000AD193868012B22F07F40C4F84005C4F8B0
:1040F000441305D10F2016F04EFAC7F800803B6834
:10410000154B4FF40032C3F88021D4F804052B1A64
:1041100023F07F43012B04D1FFF754FF0DE0002073
:10412000C2E725F07F43C4F84035D4F804052D1AC2
:10413000023D25F07F45B542EED84FF48033C4F8F8
:104140000433BDE8F08100BFE00F00200010014003
:104150004011014034EB7F0000E100E04FF020020D
:10416000EFF3118382F31188BFF36F8F084AD2F8FF
:104170000405084A1268801A20F07F4040F6CC42BD
:10418000B0FBF2F083F31188BFF36F8F704700BF6D
:1041900000100140E00F00204FF02003EFF31182E8
:1041A00083F31188BFF36F8F0649074B0868D3F874
:1041B000043582F31188BFF36F8F1B1A23F07F43FE
:1041C00018447047E00F00200010014010B5114C5A
:1041D000114AA2610323C4E90433104BE361226650
:1041E0004FF480630E4A0F49236262660023102257
:1041F000E01DA3626362E3622367E3666367A2660E
:1042000014F095FB0849204614F091FB2023A3717C
:1042100010BD00BFE40F002067C301006249002009
:104220005249002070C3010074C301002DE9F84F0A
:10423000234F4FF0180B14460BFB00720646936A8F
:10424000556AAB42884634D8D2F820A0AAEB0509BB
:1042500009F1FF32944211D84FF0180906FB099377
:104260003B44224658684146284414F0A0FB09FB11
:1042700006762C4474620120BDE8F88F13449C42FA
:104280001BD800FB0BBBBB444A46DBF804002C44A4
:10429000284414F08CFBB4EB0A0406D0DBF80400CD
:1042A000224608EB090114F082FB182000FB067679
:1042B000E0E7013B5B1BA342CED20020DCE700BF5E
:1042C000E40F0020034B182202FB00339A6A586A5D
:1042D000801A7047E40F0020F0B5264E07460C46C2
:1042E0000FCE8DB001AD0FC50FCE0FC596E80700FC
:1042F00085E807003846002F38D0002C38D0381F0A
:104300002146024610344B780D781B0443EA0563BE
:10431000CD782B438D78043143EA05238C4242F853
:10432000043FF0D1144C04218A07036916D1C3F36A
:104330000742A55C1A0EA25C42EA0562C3F3072598
:10434000DBB2655DE35C42EA054242EA03220CAD62
:1043500021F003032B4453F82C3C534050F8042F16
:10436000013153402C290361DED101200DB0F0BD95
:104370002046FBE784AD01007BC301002DE9F0433B
:10438000154689B00646002858D0002959D0002A81
:1043900059D010230A466846194614F0E4F8294615
:1043A00068462A4C14F0F7F805F11007A146A0352D
:1043B000E8466A4610231178013B615C02F8011B54
:1043C000F9D1684614F02CF9694604A814F061F993
:1043D00001A905A814F05DF902A906A814F059F97D
:1043E00003A907A814F055F9102319460DEB030291
:1043F000684614F0B8F839466846103714F0CBF820
:10440000AF42D5D1102498F80030013C19F80330A0
:1044100008F8013BF7D1684614F002F929466846CE
:1044200014F0B9F8102319466A46304614F09BF888
:1044300068461022214614F0A3F8012009B0BDE817
:10444000F0830846FAE71046F8E700BF7BC3010097
:10445000094A0A4993680968D967094998674B6806
:1044600043F080534B60002383F31188BFF36F8FB9
:104470009368D86F704700BF982400208CC001005B
:1044800000ED00E012498A684FF038001044EFF365
:10449000098C80E8F01F202080F31188BFF36F8F14
:1044A0000C4F4FF000668A6A8A603E60906F00236E
:1044B000936780F3118804B5104600F0F9FBBDE85E
:1044C000044002F1380090E8F01F8CF3098870472F
:1044D0009824002004ED00E01EF0040F0CBFEFF361
:1044E0000880EFF30980816911F8021C0229FFD0CE
:1044F00001B514F011FA01BD43B2002B08DB012213
:1045000000F01F0002FA00F05B09024A42F82300A3
:10451000704700BF00E100E043B2002B0DDB012239
:104520005B0900F01F0002FA00F02033034A42F852
:104530002300BFF34F8FBFF36F8F704700E100E0A0
:10454000054B420900F01F0053F82220012303FA13
:1045500000F01040704700BF00E100E043B2002BC4
:10456000A8BF03F1604301F10101B8BF064B4FEA58
:104570004111ACBF03F5614300F00F00C9B2B4BFF5
:10458000195483F80013704714ED00E008B572B6B3
:10459000044B586A18B100225A6215F08BFD62B6BE
:1045A00008BD00BF9824002042F8203C009B42F840
:1045B0001C3C0A49019B42F8183C029B42F8143CFF
:1045C00021F001014FF0807342F8043C42F8081CCE
:1045D0000023203A82658367704700BF2B79010072
:1045E0000B4A0346906890B113F1160F806E05D008
:1045F000A0F120029A4206D8834204D281422CBF05
:104600000021012100E00021002908BF002070479F
:104610009824002008B504460E46154600F02CFBF1
:10462000084B20469C6000F043FB284686F309882F
:10463000002163B681F31188BFF36F8F002200233E
:1046400013F073F998240020014910220A60704782
:1046500010ED00E072B6404080F31188BFF36F8F19
:10466000BFF34F8F30BF62B6BFF36F8F704700BF8D
:1046700072B6494081F3118820BF80F3118862B679
:10468000704700BF73B506460C4601B3134B144D7B
:104690001448ED1AED08AD0145F00105ADF80050E4
:1046A000D1E90123096813F018FCADF80050D4E9F2
:1046B0000423E1680C4813F010FCE1690B482A461A
:1046C00013F0DEFBA1690A482A4613F0D9FB214604
:1046D000304602B0BDE8704011F086BD48AC010024
:1046E00038AD01007BC40100AAC40100D9C4010097
:1046F000E8C4010030BFFFF7FDBF00BF0E4A08B598
:104700000E4B22F07F029A60BFF34F8FBFF36F8F83
:10471000D3F8882022F47002C3F88820EFF31483C2
:1047200023F0040383F3148811F0FCFD11F004FE60
:1047300000F074FA11F03EFE0000000000ED00E011
:1047400001B572B60B4A506A00281EBF00215162A3
:1047500015F0B0FC62B6EFF30580A0F110004FEA4F
:10476000C0000549014409C99847BDE80140034913
:104770000847000098240020D4AA0100014C000042
:1047800014F066F9202080F3118808484FF4026184
:10479000401880F30988EFF314800221084380F366
:1047A0001488BFF36F8FFFF7A9FF0000605F002040
:1047B000EFF30880EFF3098101B5724600F04AF982
:1047C00001BD00BF2DE9F047334B344C344DE41AA2
:1047D000E408A40144F001090746884631484946E7
:1047E000164613F040FBAA6AD00603D52E48494668
:1047F00013F039FBAB6A190704D52C4844F00101CA
:1048000013F031FB264DAB6A9A0735D544F0010A07
:104810002748514613F027FBD5F83490AB6A1B06A6
:104820000BD524485246494613F02AFBB8F1000F35
:1048300003D0AB6A23F08003AB62194DAA6AD0079C
:1048400004D51D4844F0010113F00DFBAB6A990635
:1048500004D51A4844F0010113F005FB104B9A6A85
:10486000D2060CD400200E4A936A43F0FF039362F1
:1048700000233370BDE8F0876FF01509DDE75B6852
:104880001B05EFD539464846FFF7AAFE0028E9D0B8
:1048900080F309880220E6E748AC010038AD01004A
:1048A00000ED00E016C501002CC501005FC5010048
:1048B00072C501008AC50100A0C50100BFC5010085
:1048C00070B5234B234C244D2448E41AE408A4017A
:1048D00044F00106314613F0C6FAAA6A930103D5E3
:1048E0001F48314613F0BFFAAB6ADD0104D51D48FD
:1048F00044F0010113F0B7FA174DAA6A100304D56A
:10490000194844F0010113F0AEFAAB6A590304D51B
:10491000164844F0010113F0A6FA0F4DAA6A92035B
:1049200004D5134844F0010113F09DFAAB6ADB0390
:1049300004D5104844F0010113F095FA064A936A31
:104940006FEA03436FEA13439362002070BD00BF18
:1049500048AC010038AD010000ED00E0EEC50100FB
:1049600006C6010019C6010033C6010051C6010088
:1049700076C6010090C601002DE9F0412A4B2B4C70
:104980002B4DE41AE408A40144F0010807460E4642
:104990002848414613F067FAAA6AD10403D526488D
:1049A000414613F060FAAB6A1A0504D5234844F077
:1049B000010113F058FA1E4DAB6A9B0512D544F065
:1049C00001081F48414613F04EFAA96BAB6A180460
:1049D00008D51C48424613F053FA1FB1AB6A23F4C2
:1049E0000043AB62124DAB6A590504D5164844F03A
:1049F000010113F038FAAB6ADA050DD5134844F01B
:104A0000010113F030FA0A4A936A002043F47F430D
:104A100093623070BDE8F081AB6A9B04F3D50C481B
:104A200044F00101EDE700BF48AC010038AD0100E2
:104A300000ED00E0BBC60100D1C601005FC501006A
:104A4000E2C60100FBC6010010C701002BC7010030
:104A5000BFC501002DE9F041574B5E688AB00F4693
:104A6000C6F30804002585F31188BFF36F8F02F0A9
:104A70007F43B3F17F4F0DD102F00C03082B0BD114
:104A80004E494F4B4F48C91AC908890141F00101ED
:104A900013F0E9F92F4603E0120701D40746012578
:104AA00000238DF80730E31E092B6BD8DFE803F0F5
:104AB00005595D3D6A6A6A6A6A61414B3F4E4248E8
:104AC000F61AF608B60146F00106314613F0CBF9A6
:104AD000394BDC6A4FF0000814F002048DF80780AF
:104AE00005D03A48314613F0BEF9002420E0DB6AD5
:104AF0005B001DD53648314613F0B5F9354B1B78B0
:104B000033B10DF1070201213846FFF75BFE0EE0DD
:104B1000314B1B782BB10DF107010120FFF72CFF62
:104B200005E02E4B1B889BB213B1FFF7C9FE04466C
:104B30009DF8073093B92022394602A813F037FFB9
:104B4000099B9DB3C3F3080222B96FEA53236FEAAE
:104B50004323099302A92046FFF794FD0AB0BDE85C
:104B6000F0810DF107020021CEE70DF107010020D1
:104B7000D4E71249124B1A48C91AC908890141F0F1
:104B80000101B0E70E4A0D4B164817499B1ADB0886
:104B900016F4F87F4FEA831318BF014643F0010370
:104BA0001248A4F1100213F07FF99EE723F4FF737B
:104BB00023F00103CDE700BF00ED00E038AD0100B8
:104BC00048AC010043C701006EC7010085C7010062
:104BD000A6C7010028ED00E029ED00E02AED00E085
:104BE000C5C7010010C80100FBC7010029C80100AA
:104BF000024A536943F010035361704700ED00E02F
:104C0000044B9968986A884203D003494FF0805258
:104C10000A6070479824002004ED00E00448002357
:104C20002021C2180133272B82F80013F9D17047D5
:104C300000E100E008B50E4B9B68834207D1EFF31B
:104C4000058393B10B4A536843F08053536011F0CE
:104C500081FF4FF02003EFF3118083F31188BFF33E
:104C60006F8FBDE8084015F0AEBB12F051FA00BFDF
:104C70009824002000ED00E01FB5084B0193084B7D
:104C80000293084B039301AB0093074A074B0121A2
:104C9000684600F0C3F805B05DF804FB0000002092
:104CA0000000000000000B060000002000000120B2
:104CB0001FB5836E203B0193064B2022CDE90223D2
:104CC000012101AB6846009300F0B2F805B05DF831
:104CD00004FB00BF00000B15DFF8BCC0F8B50646AA
:104CE0000F4610460021B94215DA56F821E0DEF8E9
:104CF0000440002C46D0ABB1651E2C420CD0224A99
:104D0000224B2348D21AD208920142F0010213F03A
:104D1000B7F86FF01500F8BD1F2CF0D9DEF80020B1
:104D20001542ECD1202CC5B2DEF80020DEF80800D8
:104D300016D9B4F1004F15D8013CB4FA84F4C4F18B
:104D40001F046400072D44EA00040DD90E4A0F4BDE
:104D50001048D21AD208920142F001022946D6E741
:104D60000824EFE73E24EDE722F01F022A4342F039
:104D7000100244F00104CCF80850681CCCF80C2058
:104D8000CCF810400131AEE728AD010048AC01007D
:104D900040C8010063C8010090ED00E0034B05220C
:104DA0005A60BFF34F8FBFF36F8F704790ED00E0F5
:104DB000BFF35F8F014B00225A60704790ED00E017
:104DC00013490868082810B51ED8FFF7F1FF114CE9
:104DD00049680022904201F10C0105D10E4B187078
:104DE000FFF7DCFF002010BDA26051F80C3C23F05F
:104DF0001F03134343F01003E36051F8043C43F0F6
:104E0000010323610132E5E74FF0FF30EBE700BF1C
:104E10000CAF010090ED00E0624D002010B5034C96
:104E200001232278FFF758FF207010BD624D00204B
:104E300008B5084A00231278FFF74EFF10F1160F4D
:104E400003D0054B0022072800DD08BD98601A61D9
:104E50000130F8E7624D002090ED00E0014B186052
:104E6000704700BF400100204FF02003EFF3118294
:104E700083F31188BFF36F8F06490123C1F84035D2
:104E80004FF08041C1F8783582F31188BFF36F8FFE
:104E90000020704700E0014020B1034B800143F047
:104EA00001031847704700BF00AE01000E4B4029B8
:104EB00070B528BF40210D4C46181D46B04203F185
:104EC000020304D1002305F81130074870BD0278B1
:104ED0001209A25C03F8022C10F8012B02F00F0259
:104EE000A25C03F8012CE9E7634D0020E1C8010052
:104EF00030B503788BB0044607AD032B21D8DFE82B
:104F000003F0021A1C1E1249284613F010FD6378A4
:104F10000493A3780393E37802932379019363794D
:104F200000930C4AA37905951E210B4812F045FC0D
:104F300009480BB030BD0949E6E70949E4E70949EA
:104F4000E2E7094A0A21284612F037FCDFE700BFF2
:104F50009CC80100BEC80100E44D0020A3C80100A8
:104F6000AAC80100B4C801000FD60100F0B402784D
:104F7000012A04460B4616D0022A2CD08AB9194AB7
:104F80000D4602F11007106851682E4603C608321C
:104F9000BA423546F7D11278327062885A73120AD3
:104FA0009A73F0BC70470F4A0D4602F11007106863
:104FB00051682E4603C60832BA423546F7D11278F8
:104FC000327062685A73C2F30721120CDA73120A44
:104FD00099731A74E5E70146F0BC1122184613F0E4
:104FE000E6BC00BFF9C8010070B50B4D06460FCDF9
:104FF0008CB06C460FC40FCD0FC495E80F0084E849
:105000000F000B2E9BBF0CAB03EB8606034856F834
:10501000300C0CB070BD00BFB0AD0100F5C901008F
:105020002DE9F74F02EBC30A0746894614460025CF
:105030008B1ED4F800804FF0000B62685A4506D8EA
:105040000834A245F5D10C9B00201D701AE098F899
:10505000012098F800C0A81C8118494517D9BCF157
:10506000090FA3EB050201D1002A0EDC134B1449F2
:105070001448C91AC908890141F0010112F0F3FE70
:105080006FF0150003B0BDE8F08F4FF0080CD6B2FA
:10509000711C7955691CC9B2023607F801C057FA6C
:1050A00080F0D8F804100193354413F080FCEDB281
:1050B000019B0BF1010B08F10808BEE748AC0100A9
:1050C000F8AC0100FDC90100F8B50A4F06460025FD
:1050D000FB79ECB2A34202D86FF0010408E0C4EB04
:1050E000C4013944304613F05DFD01350028EFD18D
:1050F0002046F8BD00000020436837B50446580537
:1051000008D422690AB1D90704D5164D2078EB7965
:10511000834202D8002003B030BDC0EBC0000023A2
:10512000694628440093CDF8033013F03BFD002876
:10513000F0D06368DA0706D495F83820082A02D838
:10514000A2689F2AE6D9DB0601D4236943B9D4E9D2
:1051500002239A42DED81F2ADCD9B3F5804FD9D872
:105160000120D8E7000000200549064A8368064868
:10517000521AD2089201197842F0020212F080BE4F
:1051800048AC0100F8AC010016CA010008B50121C5
:10519000083014F0F5FE064B064A01780648D21A8C
:1051A000D2089201BDE8084042F0010212F068BE48
:1051B00048AC0100F8AC01003ECA0100836810B59C
:1051C0001C88204602F016FA60B9084A084B0948C4
:1051D000D21AD2089201214642F00102BDE81040E5
:1051E00012F04EBEBDE8104013F0EABEF8AC01006C
:1051F00048AC010060CA010038B583681A78DAB992
:10520000B3F80150284602F0F5F9044660B90B4B9B
:105210000B4A0C48D21AD2089201294642F00102E8
:10522000BDE8384012F02CBE012102F057FA2046AA
:10523000BDE8384013F0C4BE38BD00BF48AC010023
:10524000F8AC010084CA0100F8B586683578F5B974
:10525000B6F80170384602F0CDF9044660B90C4B3F
:105260000C4A0D48D21AD2089201394642F0010286
:10527000BDE8F84012F004BEF3784372294602F00C
:105280002DFA25802046BDE8F84013F099BEF8BD00
:1052900048AC0100F8AC010084CA010010B50A4A0C
:1052A0000A4C81898068A41AFFF700FEFDF7A8FF69
:1052B000E408A40144F00204014622460448BDE883
:1052C000104012F0DDBD00BF48AC0100F8AC010099
:1052D000AACA010073B58568B5F80160304602F0CE
:1052E00089F9044660B91F4A1F4B2048D21AD208D8
:1052F000920142F00102314612F0C2FD02B070BDCF
:105300002B78BBB92A79EB7843EA0223A0F89E30C8
:10531000AA796B7943EA0223A0F8A430EB792A7AC0
:1053200043EA0223A0F8A63001F092FF204613F0D2
:1053300047FEE3E71A2BF9D1C378012BF6D14FF4DE
:105340008061043013F031FC4305EFD4D4F8A03071
:1053500000936946D4F8A8300193204602F07CFD02
:10536000E4E700BFF8AC010048AC010060CA0100EE
:105370002DE9F043074685B09079344E88461446AF
:105380000FF000FF864216D0314B324DA0790097C6
:10539000ED1AED0801900FF0F5FEAD0145F00205A4
:1053A000CDE902062B462C480422694612F0B1FDD5
:1053B00005B0BDE8F08320460FF0ECFE274D4FF01E
:1053C0000C0909FB00535B88BB4211D0204B214ED6
:1053D0002046F61A0FF0DEFEF60809FB0050B60173
:1053E00046F0020642881E483346394612F05CFDFC
:1053F00020460FF0CFFE0C2606FB005043686BB131
:10540000B8F1000F0AD120460FF0C4FE06FB005091
:105410004368D3E900011A7A13F0E5FB20460FF048
:10542000B9FE0C2606FB00508368002BC0D0204636
:105430000FF0B0FE704305F8008020460FF0AAFE82
:1054400006FB0055A86811F047FDB1E750070020A2
:1054500048AC0100F8AC0100CECA01008C1000205D
:1054600003CB010073B502EBC30305460846117870
:10547000A9421AD008329A42F9D18689164B174CA4
:1054800080683146E41AFFF711FDFDF7B9FEE40824
:10549000A40144F002040346ADF80040104832462F
:1054A000294612F01AFD02B070BD818953788B42F3
:1054B0000DD9094A094B0B489B1ADB089B0143F0A5
:1054C00001032A4602B0BDE8704012F0EDBC5368FB
:1054D00002B0BDE87040184748AC0100F8AC0100CC
:1054E00058CB010036CB010010B50121044608302D
:1054F00014F046FD2146034A0078BDE8104007231A
:10550000FFF7B0BF2CAF010013B50C4C01460522CC
:1055100094F8370002F096F870B9094B18689A8829
:1055200000909B79ADF8042094F837008DF8063090
:105530000422694602F086F802B010BD0000002087
:10554000E0AD0100F0B5284A067885B005460F4663
:1055500002F12C00062113F01BFB144640B1082178
:1055600002F12C0013F014FB10B1137EB34231D1C1
:105570002E46694616F80B3B84F837303046002338
:105580000093CDF8033013F00DFB0446287864B186
:10559000314602F07DF80446F8B92878314602F029
:1055A00001F80546E0B105210EE06FF0FF0302931C
:1055B00002A94FF6FF73ADF80C308DF80E3001F0F4
:1055C000F1FF054660B1042102F088F83D602046F5
:1055D00005B0F0BD6FF02204F9E76FF01504F6E7AF
:1055E0006FF00B04F3E700BF000000202DE9F74F38
:1055F000464B474DD0F80880DFF820A1ED1A002671
:10560000ED08B14698F800309E4202DB03B0BDE8D9
:10561000F08F08EB8603B3F80110B3F803704FF076
:105620002003EFF3118B83F31188BFF36F8F0846CC
:10563000019101F0DFFF0199044658B98BF31188FD
:10564000BFF36F8FAA01334842F0010212F018FC39
:105650000136D7E78BF31188BFF36F8F00F1280B6A
:1056600057B34FF02003EFF3118283F31188BFF398
:105670006F8FE3696BB1013BE36182F31188BFF384
:105680006F8F204601F0E0FD013F11F025FCBFB215
:10569000E6E763692BB1A169186860618B4208BFB6
:1056A000A06182F31188BFF36F8F4BB9A9011A482B
:1056B00041F0010112F0D7FB204613F081FCC7E74F
:1056C0004FF02002EFF3118182F31188BFF36F8F47
:1056D000DA68E261C3F80090626AC3F80C908AB994
:1056E000C4E9083381F31188BFF36F8F012104F1FE
:1056F000300013F05AFAC307C3D45946504614F089
:10570000F3FDBEE713606362ECE700BF48AC010045
:10571000F8AC01007ACB010096CB0100480E0020C6
:1057200038B504210446083014F02AFC4578017885
:1057300040882246FFF71CFE25B10348BDE83840EB
:1057400011F0CABB38BD00BFE800002038B5032106
:105750000446083014F014FCA36805781978B0F8F2
:1057600001002246FFF704FE25B10348BDE838409A
:1057700011F0B2BB38BD00BFE80000202DE9F84FA2
:105780004FF0FF324FF0FF3305461648DFF85880E0
:105790000E4614F078FB044600F1080B00210027A8
:1057A000584614F08FFB277520460FF0F3FC4FF09E
:1057B0000C0A0AFB0080458020460FF0EBFC0AFB38
:1057C0000080876020460FF0E5FC0AFB0080032183
:1057D0004760584614F0ADFB867005802046BDE852
:1057E000F88F00BF500700208C1000202DE9F041F9
:1057F000074686B015460C4621B9FFF7BFFF0446A1
:10580000002854D001220021684614F0AEFE204644
:105810000FF0C0FC274E0C2303FB0060C0F808D03B
:10582000204614F060FB2448214614F04FFB64220C
:105830000023684611F076FB804680B11F4A20495C
:1058400020484FF4BC7311F0ABFF1F48414611F0E4
:10585000A7FF404080F311884FF0030002DF20468D
:105860000FF098FC0C234343F65CBEB1174A184B6B
:1058700018489B1ADB089B0143F002033246394665
:1058800012F012FB20460FF039FD092E0CBF6FF00D
:105890003C006FF0040006B0BDE8F08115B12C604B
:1058A0003046F8E720460FF029FD2846F3E76FF071
:1058B0003600F0E78C10002004010020ADCB010081
:1058C000E1CB0100EACB010007CC010048AC0100AC
:1058D000F8AC010027CC010073B506460D4601AABD
:1058E000002142F22F00FFF781FF044660B10C490E
:1058F0000C4B0D48C91AC908890141F0010112F089
:10590000B2FA204602B070BD01988368B3F8012056
:105910003280B3F803302B800FF0F0FCF1E700BFCA
:10592000F8AC010048AC010043CC010070B5154E45
:10593000062206F13101054613F029F80446E0B1CC
:10594000062142F20500FFF719FF0446B8B106220E
:105950002946083014F0F3FA2146002242F20500ED
:10596000FFF744FF044640B90622294606F13100FC
:1059700013F01DF8012386F83030204670BD6FF01B
:105980003604FAE700000020F7B5044611F00100E4
:10599000154615D01C4EC4EBC403E700F35C012B85
:1059A00005D03C1B0020335D2B7003B0F0BD0720F9
:1059B00010FB04303044FFF7B9FF0028F1D0F4E7C2
:1059C0004B0710D5104EC4EBC403E700F35C012B6A
:1059D00005D1072010FB04303044FFF7A7FF3C1B24
:1059E000335D2B70E1E70621684606F01FFF40B9E2
:1059F0009DF80530684603F03F038DF80530FFF74A
:105A000095FF0123EDE700BF000000202DE9F04FD6
:105A100087B006469DF84880DDF840909DF844A088
:105A20000C4617460021102202A81D4612F0EAFF7C
:105A3000B8F1000F0ED0B4BB002D3FD1DFF8B0B0ED
:105A4000584612F091FF09238DF800308DF80100BF
:105A5000CDF804B0CDE90247B8F1000F30D0BAF16B
:105A6000000F2DD10123CDF810D00593022202A9F9
:105A700042F2080013F0C8F8044638B9BAF1000F32
:105A800020D1042106F1140013F08FF8204607B04E
:105A9000BDE8F08F14F83320083A012A25D90133E4
:105AA0009F42F7D1C8E70023FAE715F83320083AF8
:105AB000012A1AD901339945F7D1BFE70023FAE744
:105AC0000122D4E7CDE902590122B8F1000F03D039
:105AD0000592CDF810D0022202A942F2090013F07B
