:10000000A0590020C93C0000BB5F0100F93C000082
:10001000F93C0000F93C0000F93C00000000000041
:10002000000000000000000000000000913A000005
:10003000F93C0000000000003D3A0000EB5B0100CD
:10004000893C000085030100893C0000893C0000D8
:10005000893C0000893C0000893C0000893C00008C
:10006000893C0000893C0000893C0000893C00007C
:10007000893C0000893C0000893C0000893C00006C
:10008000893C0000893C0000893C0000893C00005C
:10009000893C0000893C0000893C0000893C00004C
:1000A000893C0000893C0000893C0000893C00003C
:1000B000893C0000893C0000893C0000893C00002C
:1000C000893C0000893C0000893C0000893C00001C
:0C00D000893C0000893C0000893C0000D5
:0400DC00FFFFFFFF24
:1000E0007BB972B90029BEBF00204FF0004106E085
:1000F00008BF00281CBF6FF000414FF0FF3000F038
:10010000B9B9ADF1080C6DE904CE002909DB002B6B
:100110001ADB00F04DF8DDF804E0DDE9022304B05D
:100120007047404261EB4101002B1BDB00F040F8BF
:10013000DDF804E0DDE9022304B0404261EB410157
:10014000524263EB43037047524263EB430300F0B8
:100150002FF8DDF804E0DDE9022304B0404261EB52
:1001600041017047524263EB430300F021F8DDF890
:1001700004E0DDE9022304B0524263EB430370471D
:1001800053B94AB9002908BF00281CBF4FF0FF31FE
:100190004FF0FF3000F06EB9ADF1080C6DE904CE00
:1001A00000F006F8DDF804E0DDE9022304B0704752
:1001B0002DE9F047089D0E4604468C46002B40F082
:1001C00081808A42174645D9B2FA82F24AB1C2F119
:1001D000200106FA02F320FA01F1974041EA030CEC
:1001E00094404FEA174E230CBCFBFEF6B9B20EFB4F
:1001F00016CC43EA0C4306FB01F0984209D9FB18E0
:1002000006F1FF3C80F01581984240F21281023ED7
:100210003B441B1AA4B2B3FBFEF00EFB103344EABE
:10022000034400FB01F1A14209D93C1900F1FF335D
:1002300080F00181A14240F2FE8002383C44641A01
:1002400040EA064000211DB1D4400023C5E9004327
:10025000BDE8F08702B9FFDEB2FA82F2002A4FD180
:10026000CB1B4FEA174E1FFA87F80121B3FBFEFCA8
:10027000260C0EFB1C3346EA034608FB0CF3B34284
:1002800007D9BE190CF1FF3002D2B34200F2EB8065
:100290008446F61AA3B2B6FBFEF00EFB106643EAE4
:1002A000064408FB00F8A04507D93C1900F1FF33CC
:1002B00002D2A04500F2D2801846A4EB080440EA1E
:1002C0000C40C0E78B4208D9002D00F0AF80002120
:1002D000C5E900060846BDE8F087B3FA83F10029B6
:1002E00049D1B34202D3824200F2BB80841A66EB4A
:1002F000030301209C46002DAAD0C5E9004CA7E7C6
:10030000C2F120039740D8409140DE404FEA174E9B
:1003100008434FEA104CB6FBFEF11FFA87F80EFBBC
:1003200011664CEA064601FB08F3B34204FA02F4F4
:1003300009D9BE1901F1FF3C80F08E80B34240F232
:100340008B8002393E44F31A86B2B3FBFEF00EFBFB
:10035000103346EA034600FB08F3B34207D9BE193F
:1003600000F1FF3C74D2B34272D902383E44F31A12
:1003700040EA01417AE7C1F1200703FA01F422FAC9
:1003800007F31C4320FA07F906FA01F34FEA144C6D
:10039000FE4049EA03094FEA1943B6FBFCFE1FFA87
:1003A00084F80CFB1E6643EA06460EFB08FAB245CB
:1003B00002FA01F200FA01F308D9A6190EF1FF3092
:1003C00048D2B24546D9AEF1020E2644A6EB0A0643
:1003D0001FFA89F9B6FBFCF00CFB106649EA0646E9
:1003E00000FB08F8B04507D9A61900F1FF3C2DD253
:1003F000B0452BD90238264440EA0E40A6EB080649
:10040000A0FB02894E45C446CE4618D315D075B31D
:10041000B3EB0C0266EB0E0606FA07F722FA01F3BD
:10042000CE401F43C5E90076002111E72946284642
:100430000EE76646EDE6184601E74345E7D2B8EB1E
:10044000020C69EB04040138A646E0E76046D3E7F6
:1004500060468CE78646B9E7614674E702383C445B
:100460002BE7084647E7ACF1020C3E4411E729466A
:10047000EEE600BF704700BF2DE9F04FB14C94F895
:10048000D6608FB006F00106002800F0CA81CEBB0E
:1004900094F87C7094F8290094F82C204FF02709E8
:1004A0002D2309FB074700F0030019FB0239FF2346
:1004B00084F82A300FF0BCF994F8D600410707F110
:1004C0007D0704EB090800F1268114F80900314684
:1004D000C0F3801008F0DAFC06220146054608F158
:1004E000020015F09EFD29460622B81C15F099FD64
:1004F00014F809305A060AD413F00E0F40F0E380C6
:10050000636A93B10C2630460FB0BDE8F08F062128
:1005100008F1020007F020F9002800F02F8214F8FB
:10052000093013F00E0FEBD0CDE00AF0AFFE82469B
:10053000002800F04A820AF0B5FE8346002800F049
:100540005D820CF065F80546002800F054824FF6F5
:10055000FF73806FAB8505F11C030B93002800F03F
:10056000308205F16C0205F1680107F001F9B5F878
:100570006420754995F83DE095F8DC0095F840C099
:10058000C5F830A10A4042F4887295F8261142F06D
:1005900001020EF03F0E6EF07F0E20F0030021F0FE
:1005A0000301A5F86420002262F3000C4FF01B1336
:1005B00085F83DE085F8DC0085F82611634864493C
:1005C00085F83F204FF0060EC5E913226A866A635C
:1005D0006A65A5F8C820A5F8CC20A5F8E82085F81C
:1005E000EA20C5F80021A5F80421A5F81821C5F8CE
:1005F0002021A5F8242185F82F21AA67EB6585F82D
:1006000040C02866A5F8C4E0C5F81C11A5F87C20F8
:1006100095F872E195F89AC195F87E0095F8521117
:10062000A5F8502162F3C30C62F3041E21F0070108
:1006300020F01F00A5F87021A5F89821A5F8A421A5
:1006400085F89AC185F872E185F8521185F87E0027
:100650000CF028FBA5F8D6000CF02AFBD5F8A83141
:100660003C49A5F8D8001940C5F8A8110CF026FBA4
:1006700095F8AC1160F3020185F8AC110CF024FB85
:10068000C4E933AB0B9B636295F8AC1195F820C0BD
:10069000ED610301002203F0700321F078010B43A8
:1006A00062F3000CC5E96E22C5E96C22C5E905229A
:1006B000C5F8C02185F8AC3185F820C010F07EFA6D
:1006C000002840F0678194F828300121C3F34203E9
:1006D0000DA88DF8343007F0C3F9002800F096809B
:1006E00014F8093003F00F03022B00F1FF3233D06E
:1006F000012B00F0538178781030C100002B00F0FE
:100700003F81062B00F07F814FF4DA704FF41B71AC
:1007100000FB02102BE0C0F3C000324604F1D70109
:100720000FF05CFAFF2884F82A0002D030460FF060
:100730001FF9414603480FF095F8024839460FF07B
:1007400091F8D5E6D818002080F8FFFF480148014D
:100750007F4101000000FFF698F801301033DB0004
:1007600000FB03F000F5AA70642303FB020094F879
:100770002070B14AE4610025312365F30007A0FB36
:100780000201236084F82070A9A3D3E90023C4E9FF
:100790000555C4E90155FFF7F3FCB4F8D480E060D7
:1007A00008F06EFB0746B8F1000F08D114F80950A5
:1007B00005F00F05A5F10105B5FA85F56D0994F869
:1007C0002820E36865F3000212F0010584F8282070
:1007D00000F08580DFF87492984904930020022588
:1007E0000DF1300801930591CDE907980321CDE97A
:1007F000020006942A4600903B460C9508F08EFABB
:1008000041460AF0D7FD002800F0A580636A002B5E
:100810003FF478AE0BF0E2F80C2630460FB0BDE89E
:10082000F08F002E3FF46EAE20460AF0D1FD8442D8
:100830000CD0834A8349844840F2197314F02EFE89
:10084000404080F311884FF0030002DF94F8283015
:10085000D8070DAD0ED502220D9203217B4B0095DA
:100860000122002008F0C6FA29460AF0A3FD00285C
:1008700040F0D38002220321744B009500200D929A
:1008800008F0B8FA29460AF095FD002840F09F804C
:100890006F480AF0D9FD002840F085806D480AF0C5
:1008A000A3FD84420CD0664A6649674840F23B7318
:1008B00014F0F4FD404080F311884FF0030002DF94
:1008C000636A0BB10BF08AF894F8D63000266FF308
:1008D0000003304684F8D6300FB0BDE8F08F5E4894
:1008E0005E4ADFF868E1DFF854C10694A8FB000116
:1008F0004FF0910909FB081103F24718C2F8008074
:100900004FF00209049309920DF1300848A3D3E98E
:1009100000234FF6FF7ACDE907E80295CDF8309035
:10092000CDF814C0CDF80CA0FFF72AFC4A46CDE95B
:1009300000503B462846032108F09AF941460AF048
:1009400039FD00287FF462AF94F8D63043F00103FC
:1009500084F8D630D7E5424905914AF2D832009260
:10096000CDE90798CDE90300CDE9010006943B46A7
:10097000012203210C9508F0D1F9DFE71226C2E528
:1009800098F801001030C00000F54D73194400F5CF
:100990009A70BDE60BF022F80326B4E54FF4F2702E
:1009A0004FF47F71B4E6264A2E4927484FF4E76397
:1009B00014F074FD404080F311884FF0030002DF13
:1009C0006CE705F17000A867CBE507269BE5214899
:1009D0000AF00AFD84423FF495AD40F23273184AA2
:1009E0001849194814F05AFD404080F311884FF01F
:1009F000030002DF86E558460AF05AFC50460AF02A
:100A00004BFC07267FE598F801301033DB0003F537
:100A10004D70014403F59A707AE60E480AF0E4FC42
:100A200084423FF46FAD40F22473D8E7AFF3008007
:100A30008D49FD1A0700000000CA9A3B4DB700001F
:100A4000E0960100D0970100B8940100A9B300001E
:100A5000F4180020D8180020002AE784B8190020D4
:100A600059B90000E89501002DE9F04F044690F8CF
:100A7000E93090F8E80083428BB00D4616460ED060
:100A8000C01A00F0030002281BD094F82D2194F81E
:100A90002C319A4230D100200BB0BDE8F08F94F891
:100AA000522112F00108F0D194F8051194F8047164
:100AB0008F4200F07683981E012284F8E90084F8C2
:100AC000EA2094F8983194F899219A4206D094F843
:100AD0009A2102F00601042900F0A78394F8EA7035
:100AE0007A1E052A00F24F83DFE812F05C00E6026E
:100AF00062024D031003C401294806F0E3FD58B318
:100B000094F82C3184F82D310379022243F0030349
:100B100042710371C271D4F8B03194F82E2102727F
:100B20002BB394F85221910721D494F8AB21D2072A
:100B30001DD4D4F8BC21934204BF1A68C4F8BC2168
:100B4000D4F8B421B2B91A68026018600368C4E925
:100B50006D000BB9C4F8C001B4F8CC0000289AD1DC
:100B6000B4F8C630012B0ED9A4F8CC3093E7D4F8F2
:100B7000B42172B1D4F8B8311A6802601860036801
:100B8000C4F8B801E5E70133A4F8CC300BB0BDE8F8
:100B9000F08F0360C4E96C00C4F8B801D9E700BF66
:100BA000241C0020A64F3B68002B00F0E284B4F820
:100BB0003680628E94F806319044B04413F00303FB
:100BC0001FFA88F840F06A84B4F8EC90A8EB0902A8
:100BD00010041FFA82FA3FF558AF94F8701194F898
:100BE000712194F8040184F805018A4294F8E80020
:100BF00084F8E90009D094F8722102F00702052A6E
:100C000004BF84F87111A4F8CC303B689C4204BF47
:100C100000233B60D4F80071002F00F06585386830
:100C2000002800F06185B4F80831E28D4168C4F80D
:100C300000119342B4F80A11B4F80CC100F0AC866C
:100C4000A28DFA804FF00C0E0022FB833984A7F8A6
:100C500022C087F804E03A7739460AF02FFB0AF001
:100C600037FB2368002B09DAD4E9011223F0004393
:100C70008A422CBFA91869182360CD1AE38DB4F8F5
:100C8000087113FB0AF39BB2B3FBF7F117FB01F2F8
:100C900092B293421FFA81FB80F01485D31A6948FF
:100CA00040F2E24202FB03F3A3FB000162A3D3E99B
:100CB0000023FFF765FA20F07F400544628E94F927
:100CC0003D30A9EB0808D8443244904440F2E24950
:100CD000002BA4F8328009FB07F7C0F215855A4AA9
:100CE0005A495B4840F65F1314F0D8FB404080F34C
:100CF00011884FF0030002DF4FF000083E46B4F8C1
:100D00000C21B4F80A11534B5348218642F2107C4F
:100D10000CFB02723B443844B3FBF7F301F1060CC1
:100D2000013AB2FBF7F2B0FBF7F798B2A4F8C6208D
:100D30006045B4F80821A4F8D200A4F8CA70E2858E
:100D400002DD401A063880B294F80631A4F8CE00CD
:100D5000590744BF0023A4F8C8300221012011F034
:100D60006FFD002202218146012006F04FFD3B4924
:100D70004FF4E472204606F0DBFCC21C5FFA82FAF4
:100D8000374B009452460121002008F033F830F030
:100D900002030CD02C4A33492D4840F68E1314F030
:100DA0007DFB404080F311884FF0030002DF254BAC
:100DB000A6FB0367304620A3D3E900233946FFF79B
:100DC000DFF9294AE368049320F07F4BABFB022351
:100DD000072000FB0B33B01A67EB0301089406945D
:100DE0004FF47A7200240023204F214E0797059676
:100DF0000394FFF7C5F92B46CDE901B0CDF800808B
:100E000020465246012107F089FF30F002030CD042
:100E10000D4A14490E4840F6A81314F03FFB404019
:100E200080F311884FF0030002DFB9F1000F40F0AA
:100E3000CC856FF047002FE68D49FD1A07000000B2
:100E4000A01B002000CA9A3BDC9701001895010006
:100E5000B89401007FC3C901FF596202D81900206C
:100E600045C20000149901008D49FD1AEDC1000032
:100E700051F10000618EE28E94F8EC300A44324465
:100E800096B2DA07194600F12182B4F8EE20B61ABC
:100E900030043FF5FAAD94F8642094F8658094F836
:100EA000E800B4F8627084F8E90013F01C0F02F057
:100EB000070908F0070840F09185B4F8606013F066
:100EC000E00F08D094F865205B0963F3020284F810
:100ED00065204FF4A47794F8AC3194F86420D4F8EA
:100EE0000051C3F3C00363F3C30284F86420002DF0
:100EF00000F08C852868002800F0888594F864E06C
:100F000094F865204368C4F800318907CEF3020CD9
:100F10000EF00703C2F3020E02F0070202D4994555
:100F200000F04B87A38DEB801022002385F81DC0B5
:100F300085F81EE02A712B7729460AF0BFF9D4F80C
:100F40000051002D00F0CF852868002800F0CB85E7
:100F5000B4F860304268C4F80021B3420AD3B3F554
:100F6000A47F07D8B4F86230BB4203D3B3F5A47FA3
:100F700040F23787A4F86060A4F862702B7FA28DDE
:100F8000EA8043F003030221092229712B776A7753
:100F9000B4F85E30B4F85C202B841523AA84EB7778
:100FA00029466F84EE840AF089F90AF091F96CE51C
:100FB00094F8EC3013F0030500F0158294F93D30FD
:100FC000002BBFF662AD012D7FF45FADBB4806F08C
:100FD00079FB054600283FF458AD03790D2243F014
:100FE0000303042700F1080603714271C7710C2145
:100FF00030460FF0E5FB3146082204F1F60015F00B
:1010000010F83A4605F1100104F19C0015F009F8BA
:10101000D4F8B031002B00F0AD8694F85221970738
:1010200000F1A88694F8AB21D60700F1A386D4F886
:10103000BC21934204BF1A68C4F8BC21D4F8B4217F
:10104000002A01F0E480D4F8B8311A682A601D60E3
:101050002B68C4F8B851002B01F082800AF05CF9CB
:10106000054600283FF411AD2B7FA28DEA8043F0A6
:1010700003030226172103222B776977EA7704F20C
:10108000551108222E7105F1200014F0CAFF94F8C2
:10109000533185F8283094F8543185F82930286880
:1010A00029460AF00BF90AF013F994F8EC3066F3CC
:1010B000010384F8EC30E8E4E28E618E94F8EC30C1
:1010C0000A44324496B2DA0700F15B81B4F8F220A8
:1010D000B61A33043FF5D9AC94F8E83084F8E93017
:1010E00004F13805052204F1ED01284614F099FFBA
:1010F0002846052106F0B4FC94F83D30012260F347
:10110000050384F83D3084F8C421BEE46B4806F042
:10111000D9FA00283FF4B9AC94F8E83084F8E93003
:10112000012302794371D4F8B03142F00302122155
:101130000271C171002B00F0BA8294F85221950718
:1011400000F1B58294F8AB21D10700F1B082D4F858
:10115000BC21934204BF1A68C4F8BC21D4F8B4215E
:10116000002A01F01580D4F8B8311A6802601860BE
:101170000368C4F8B801002B00F0C584B4F8CA3085
:10118000A4F8CC3081E44E4A4E494F484FF46F7377
:1011900014F084F9404080F311884FF0030002DF1F
:1011A00073E494F8197194F818C1674554D194F810
:1011B000257194F824C1674500F0F882A7EB0C076D
:1011C000FF077FF562AC94F82631D80740F101871C
:1011D0009F0740F1EB860AF09FF8014600B394F8B0
:1011E000243184F82531037FA28DC28043F00303AC
:1011F0000B77022006220C2308714A77CB7794F8EC
:101200002701B4F82821B4F82A31A1F8233081F855
:101210002000A1F8212008680AF050F80AF058F8D8
:1012200094F8E80094F8E9302AE402F0070106296E
:1012300001F2428101A050F821F000BF0516000024
:10124000DD0A0000DD0A0000DD0A0000791500005B
:1012500079150000DD0A0000A7EB0C07F8077FF501
:1012600014AC94F8DC1011F0010700F0E1830AF0EF
:1012700053F807460028D3D094F8183184F8193170
:10128000037FA28DC28043F003030922022041465E
:101290003B7738717A77FA7707F12000082214F04B
:1012A000EBFED4F8203187F82030C3F307221B0C63
:1012B00087F8212087F822303946ACE7241C00202B
:1012C000DC97010018950100B894010002200AF093
:1012D00005F8074600283FF4D8ABC84806F0F2F9F5
:1012E000054600283FF4D1AB94F8EC306FF30003CF
:1012F000C3F38200C3F3421250EA020884F8EC30D0
:10130000DBB240F0358694F8E820A4F8EE809B0725
:1013100084F8E92000F1EC864346414605226A71D3
:1013200085F808802A796B72D4F8B031698142F06F
:10133000030218212A71E971002B4AD094F8522136
:10134000970746D494F8AB21D60742D4D4F8BC21F1
:10135000934204BF1A68C4F8BC21D4F8B421002A0F
:1013600000F02987D4F8B8311A682A601D602B680C
:10137000C4F8B851002B7FF488ABC4F8C051FFF714
:1013800084BB9E4806F09EF9054600283FF47DABDD
:10139000238E027994F8EC1033440633A4F8F2302B
:1013A0006FF30001012342F00302082084F8EC10DF
:1013B0002A716871EB71052204F1ED01281814F00F
:1013C00030FED4F8B031B4F8F220A5F80D20002B8F
:1013D000B4D1D4F8B421002AC4D12B60C4E96C552F
:1013E000C4F8B851C6E7854806F06CF906460028EF
:1013F0003FF44BAB94F93D30002B00F1040880F230
:101400004B8494F87E30190700F1308694F8ED5043
:10141000002D00F0EF84037994F8DC2043F00303FF
:10142000D207037140F15086D4F81C315B0740F1BC
:101430004B86112203234572C27103727771D4F86F
:10144000B031002284F8ED20002B00F01D8594F8C7
:101450005221900700F1188594F8AB21D10700F1D3
:101460001385D4F8BC21934204BF1A68C4F8BC2188
:10147000D4F8B421002A00F0F186D4F8B8311A6803
:1014800032601E60C4F8B8613368002B00F06C85D0
:1014900094F8E83084F8E930FFF7F7BA012009F052
:1014A0001DFF064600283FF4F0AA544806F00AF94A
:1014B000054600283FF4E9AA09F02EFF238E326882
:1014C00094F806014344063399B2D4F800315360CE
:1014D0002A79C4F800616FF301000C2384F8060137
:1014E000A4F8EC1042F003026B71D4F81031D4F878
:1014F000B001434E2A710022EA71A6FB032394F83F
:101500001461B4F808212E72C3F38F23B4F80A6172
:10151000A5F80B20B4F80C21A5F80F20A5F80D6054
:10152000A5F81110A5F80930002800F0618294F8A0
:1015300052319F0700F15C8294F8AB31DE0700F175
:101540005782D4F8BC31984204BF0368C4F8BC3158
:10155000D4F8B431002B00F03986D4F8B8311A68C9
:101560002A601D602868C4F8B85100287FF48DAA4D
:1015700003E73C60FFF71BBB02F00702B4F89CC115
:10158000B4F8A011B4F89E91B4F8A281A4F85EC09A
:10159000042AA4F8621000F0978494F89A31062285
:1015A00062F3020384F89A31D4F80071002F00F03E
:1015B00077843868002800F073843B7F4268B4F871
:1015C0002CE0C4F8002143F0030302223B774FF0E4
:1015D000090A1523A7F806E0A7F820C079843A7114
:1015E000FB773946A7F82490A7F8268087F81DA036
:1015F00009F064FE09F06CFEFFF770BA241C0020AD
:101600005917B7D1DC4806F05DF800283FF466AA08
:1016100094F89A31B4F89E71B4F8A221A4F8D67067
:101620000121A4F8D82061F30203092284F89A3139
:1016300042710279D4F8B031878142F003024FF051
:10164000140CC172C173002702711B21482280F85B
:1016500007C04772017282728273002B00F01183FF
:1016600094F85221910700F10C8394F8AB21D20732
:1016700000F10783D4F8BC21934204BF1A68C4F870
:10168000BC21D4F8B421002A00F0D885D4F8B831B0
:101690001A68026018600368C4F8B801002B00F0F3
:1016A0001985B4F8CA30A4F8CC30FFF717BAD4F8CB
:1016B000B421002A7FF457AD0360C4E96C00C4F87C
:1016C000B80158E507FB113340F2E242AB489BB248
:1016D00002FB03F3A3FB0001A5A3D3E90023FEF75C
:1016E0004FFD2D1AFFF7EABAA54AA649A64840F6CB
:1016F000EA0313F0D3FE404080F311884FF003005B
:1017000002DF3868FFF78FBAE26C636C9B4E03FB15
:101710001A23E3640FF026FF804694F8DC00C0F340
:1017200082000FF021FF08EB000307FB03F397484B
:10173000E26C94F8141103F5742303F23F23A0FB29
:1017400003034FEA934A0AFB0BF07B080244963BE3
:101750009A4228BF1A4609FB01FC4FF0000EC4E96B
:101760001232A0FB060182A3D3E90023C4F854C0BF
:10177000C4F8E4E0C4F844A0FEF702FDD4F8103148
:1017800084468348A0FB0330800A09FB00F0A0FBDD
:10179000060177A3D3E90023A5EB0C05FEF7F0FCC7
:1017A000A7EB0A0620F07F48FFF7A9BA94F871C1A9
:1017B00094F87071BC4500F0AA81764FD7F800C04C
:1017C000BCF1000F00F0B58464457FF45EA994F885
:1017D00072C10CF0070CBCF1050F00F28B860FF202
:1017E000080E5EF82CF000BFD3180000511800005E
:1017F00001180000810A0000810A0000810A00002F
:1018000090073FF542A909F087FD014600283FF403
:1018100007AD037F94F87221032060F302020343B3
:1018200084F87221A08D0B77022718230F714B7754
:10183000B4F87421B4F87631C880B4F878010A8419
:10184000B4F87A214B840F238884CA84CB77E2E4EE
:1018500094F87381B8F1000F40F01B8594F93D3086
:10186000002BC0F23A8594F8723194F87C01C4F8E8
:101870001081052262F30203012284F8723184F898
:101880001421002800F00686B4F87431B3FBF0F39D
:10189000134413FB00F39BB294F8722194F80601F1
:1018A000A4F80831C2F3C0039B0020F0070243F004
:1018B00002031343B4F87801B4F87A2184F80631AE
:1018C000013984F80511A4F80A01A4F80C21FFF7E6
:1018D000DCB82948B4F83680B4F8329005F0F2FE4E
:1018E000014600283FF49CAC94F872010A794FF04D
:1018F000040C6CF3020042F003024FF0180C84F861
:10190000720108EB09030A7181F805C0B4F874C1CB
:10191000B4F87601B4F87821A1F808C03344B4F8DB
:101920007AC148818A810F200022A1F811304FF03E
:10193000FF33C8714B758B75CB750B764B768B76F9
:10194000CB760B774B778B772046A1F80EC00A74C5
:10195000CA740A750AF046FBB4F8CA30A4F8CC3051
:1019600094F8E80094F8E9303C60FFF789B800BFCC
:101970008D49FD1A07000000241C002000CA9A3B74
:10198000DC97010000990100B894010083DE1B433D
:101990005917B7D1A01B0020228E8A427FF450A98C
:1019A00040F2E24202FB03FB42F21072B4F8C6E0DE
:1019B00002FB0CB2013AB2FBFBF292B296457FF405
:1019C0003FA903233B71FFF747B9012210460221CB
:1019D00005F01CFF6FF04700FFF75EB8C3F382000D
:1019E00060F3020284F864204FF4A476FFF767BA2C
:1019F000D4F8B431002B7FF4B0AD2860C4E96C5545
:101A0000C4F8B85100287FF440A8B6E4D44AD549B8
:101A1000D54840F6636313F041FD404080F31188E0
:101A20004FF0030002DF286894F8EC10FFF766BA65
:101A3000CE4805F047FE804600283FF4F1AB94F80D
:101A40001931CB4AC4F81C21013B092284F8193111
:101A5000427194F93D200379002AACBF08220E227E
:101A600043F00303C271082203713946104414F095
:101A700003FBD4F81C3188F80830C3F307221B0C91
:101A800088F8092088F80A30D4F8B031002B00F02B
:101A90007D8194F85221910700F1788194F8AB216F
:101AA000D20700F17381D4F8BC21934204BF1A68B5
:101AB000C4F8BC21D4F8B421002A00F0E083D4F8A3
:101AC000B8311A68C8F80020C3F80080D8F8003090
:101AD000C4F8B881002B00F04783B4F8CA30A4F8EA
:101AE000CC30FFF79DBB9E4A9E499F4840F68F63CE
:101AF00013F0D4FC404080F311884FF0030002DF64
:101B00002868FFF725BAC4F8C001FFF737BB94F87F
:101B1000987194F89921BA4200F0E18194F89A11F1
:101B200001F00702062A00F2D6840FF2080C5CF8D6
:101B300022F000BFDD1B0000810A0000810A0000C6
:101B4000810A0000511B0000511B0000810A0000A7
:101B5000B4F89C31A4F85E3001F00703B4F8A0217A
:101B6000B4F89E91B4F8A281A4F86220042B00F08E
:101B70007C830B46062262F3020384F89A31D4F880
:101B80000071002F00F04B833868002800F0478375
:101B90003B7F4268B4F82CC0C4F8002143F0030333
:101BA0003B77022209237B773A71B4F85E10B4F8D0
:101BB00062207A841523FB77A7F806C03984A7F83A
:101BC00024903946A7F8268009F078FB09F080FBBD
:101BD00094F8E80094F8E930FEF752BF634805F046
:101BE00071FD034600283FF41BAB94F89A21B4F82A
:101BF0009E71B4F8A211A4F8D6700120A4F8D810F0
:101C000060F30202092184F89A2159711979D4F8F4
:101C1000B0219F8141F003014FF0140CD872D873AA
:101C2000002719711B20482183F807C05F721872C2
:101C300099729973002A00F0DF8294F85211890793
:101C400000F1DA8294F8AB11CF0700F1D582D4F815
:101C5000BC118A4204BF1168C4F8BC11D4F8B41195
:101C6000002900F01B84D4F8B821116819601360B2
:101C7000C4F8B8311A68002A7FF42FAFC4F8C03115
:101C80002BE7D4F8B421002A7FF400AD0360C4E947
:101C90006C00C4F8B80101E504F17F073B462A4611
:101CA00004F1EE0104F25D1010F078F939461022CB
:101CB00004F1A00014F0B5F9082204F1980104F130
:101CC000B90014F0AEF994F8970094F8B82094F89D
:101CD0007E3084F88F5043F0080365F3000042F033
:101CE000010284F8970084F87E3084F8905084F8DC
:101CF000915084F8925084F8935084F8945084F86A
:101D0000955084F89650C4F8B0504146C4F8B45089
:101D100084F8B82020460AF033FBD4F8B031002B09
:101D200040D094F8522195073CD494F8AB21D007C9
:101D300038D4D4F8BC21934204BF1A68C4F8BC213B
:101D4000D4F8B421002A00F08182D4F8B8311A689E
:101D500032601E603368C4F8B861FFF796BB00BFFD
:101D6000DC97010000990100B8940100241C0020B8
:101D70007F410100D4F8B421002A7FF464A92B60CC
:101D8000C4E96C55C4F8B851FFF765B9D4F8B4216B
:101D9000002A7FF494AEC8F80030C4E96C88C4F817
:101DA000B88197E6D4F8B421002ACED13360C4E9D3
:101DB0006C66C4F8B861FFF768BB90457FF4B2A8C1
:101DC00003232B71294609F079FAD4F80051002D2C
:101DD00000F00F832868002800F00B834368C4F8E4
:101DE000003103232B71294609F068FA09F070FAD3
:101DF000FEF74BBE04F17F073B462A4604F1EE0195
:101E000004F25D1010F0CAF83946102204F1A00067
:101E100014F007F9082204F1980104F1B90014F054
:101E200000F994F8972094F8B81094F87E3084F86C
:101E30008F5042F0010265F3000143F008030120D6
:101E400084F8972084F8B81084F87E3084F8905095
:101E500084F8915084F8925084F8935084F8945008
:101E600084F8955084F89650C4F8B050C4F8B45033
:101E700032797071D4F8B03142F003020521327129
:101E8000F171002B7FF4E3AAD4F8B421002A7FF487
:101E9000F4AA3360C4E96C66C4F8B861FFF7F4BA19
:101EA000D04AD149D14840F6335313F0F7FA4040B5
:101EB00080F311884FF0030002DF3868B4F85EC089
:101EC000B4F86210FFF779BBB4F8A421002A40F0FF
:101ED0004E8184F89931A4F8CC20FFF765BB94F8C3
:101EE000A82194F8A91191423EF4CFAD94F8AA111B
:101EF00001F00300032800F03A8200287EF4C5AD0B
:101F0000BB4805F0DFFB014600283FF489A994F89F
:101F1000AA3194F8AC2194F8AB71012060F301036D
:101F2000C3F3820060F30202C3F3421060F30612AF
:101F3000C7F34007087984F8AA3167F3C30284F82D
:101F4000AC21C3F3820C40F00300C3F34213032718
:101F500016220871CA7181F808C04B724F710022B5
:101F600020460AF03FF8B8E5C4F8C061FFF790BA20
:101F7000238E33440633A4F8EE3009F0CDF93B68E4
:101F8000D4F800215A60C4F8007109F0C5F903685B
:101F9000D4F800215A6094F8EC30B4F8EE10C4F88C
:101FA0000001C3F382085B09FFF7B8B940F652336A
:101FB0008C4A90498D4813F071FA404080F31188A3
:101FC0004FF0030002DF94F8E80094F8E930FEF7E0
:101FD00057BD874805F076FB00283FF421A994F807
:101FE000252194F82631013A84F82521027943F01D
:101FF0000103062184F8263142F003024171D4F82E
:10200000B03102710B216FF00E020C270172427287
:1020100005214FF0FF32C7718172C2720273002B2B
:1020200000F0BE8094F85221910700F1B98094F835
:10203000AB21D20700F1B480D4F8BC21934204BF95
:102040001A68C4F8BC21D4F8B421002A00F01C821C
:10205000D4F8B8311A6802601860C4F8B80103688F
:10206000002B7FF43AADC4F8C00136E54146204666
:102070000AF086F9D4F8B03183B394F8522192076C
:102080002CD494F8AB21D70728D4D4F8BC219342A0
:1020900004BF1A68C4F8BC21D4F8B421002A00F0A7
:1020A000B781D4F8B8311A6832601E60C4F8B861DC
:1020B0003368002B00F0878094F8523123F003033B
:1020C00084F85231FFF7E4B90D233572F37102271A
:1020D000FFF7B4B9C4F8C001FFF7E3BAD4F8B421EC
:1020E000002ADED13360C4E96C66C4F8B861DFE76A
:1020F00009F012F91023A28D87F81C803B7194F827
:1021000064303868FA80C3F302037B7794F8653053
:10211000C3F30203BB77394609F0D0F809F0D8F8C9
:1021200094F8EC30B4F8EE10C3F382085B09FFF7C3
:10213000F5B894F8723103F00703052B00F2DA8149
:1021400001A050F823F000BFD31800005118000080
:10215000011800008B0A00008B0A00008B0A0000A7
:10216000C4F8C051FEF77ABFC4F8C081B5E494F852
:102170009A01B4F8A671A4F89E21002363F302002B
:1021800084F89A01A4F8A431A4F8A271FFF70CBA5C
:102190001A68026018600368C4E96D00FEF7EBBFBF
:1021A000D4F8B421002A7FF453AF0360C4E96C0073
:1021B000C4F8B80153E71A682A601D602B68C4E9A7
:1021C0006D55FFF7D7B8C4F8C06175E703682B6099
:1021D00005602868C4E96D5500287EF456ACFFF709
:1021E000CCB800BFDC97010000990100B894010051
:1021F000241C002018950100D4F8B41100297FF4A4
:1022000032AD1A60C4E96C33C4F8B83132E51A68EB
:102210002A601D602B68C4E96D55FEF71CBFB74AE4
:10222000B749B84840F6335313F038F9404080F3CB
:1022300011884FF0030002DF3868A9E41A680260D1
:1022400018600368C4E96D00FFF728BA1A683260A5
:102250001E603368C4E96D66FFF717B91A6832600B
:102260001E60C4E96D66FFF70FB9B4F8A421002A17
:1022700040F0D48084F89971A4F8CC207FE41A68E7
:10228000C8F80020C3F80080D8F80030C4E96D8891
:1022900020E49D4805F016FA014600283EF4C0AF40
:1022A000037943F003030B71112003220F23C8713C
:1022B0004A710B7294F873314B722046002209F078
:1022C00091FE94F8703184F8713100233B6094F8EA
:1022D000E80094F8E930FEF7D3BB8B4805F0F2F93B
:1022E000014600283EF49CAF0379182243F0030313
:1022F00003714271B4F87421B4F87631B4F87801FE
:102300000A81B4F87A214B8110238881CA81CB716C
:1023100094F87C310B74B4F87E31B4F88001B4F8D1
:102320008221A1F81130B4F88431A1F81300B4F877
:102330008601A1F81520B4F88821A1F81730B4F867
:102340008A31A1F81D30A1F81900A1F81B20204600
:10235000424609F047FE94F8703184F8713194F8E0
:10236000E80094F8E930C7F80080FEF789BB080759
:1023700084F8A921C1F3820268D594F8AA21022128
:1023800061F3840284F8AA2194F8AA2157064FEA3F
:10239000521153D5022161F3471284F8AA2194F80F
:1023A000AA1194F864C094F8650094F8AB21C1F3C5
:1023B00082070CF0070C00F00700C2F38002BC4556
:1023C00008BF00275200B0EB511F42F001024FEA54
:1023D000511108BF002142EA4112023B42EA870242
:1023E000062184F8E93084F8EC2084F8EA10FEF73E
:1023F00075BB424A4249434840F6726313F04EF8B7
:10240000404080F311884FF0030002DF2868E5E4C4
:102410001A6832601E60C4E96D6649E600200B460A
:1024200060F30203A4F89E21B4F8A62184F89A313F
:10243000A4F8A401A4F8A221FFF7A1BBC8070FD5F7
:10244000012161F3471284F8AA21A8E7D10710D52A
:1024500094F8AA21012161F3840284F8AA2193E768
:1024600011F0040118BF042161F3471284F8AA2176
:1024700095E712F0040218D094F8AA21042161F320
:10248000840284F8AA217FE71A6802601860C4E910
:102490006D00E4E5B4F87631FFF7FEB91168196014
:1024A0001360C4E96D33FFF7E5BB94F8AA1162F33A
:1024B000840184F8AA1167E7104A1449114840F6CC
:1024C0005B5312F0EBFF404080F311884FF00300A4
:1024D00002DFFEF703BB094A0C490A4840F65B538A
:1024E00012F0DCFF404080F311884FF0030002DF60
:1024F000FEF796BE40F65F435AE500BFDC97010049
:1025000000990100B8940100241C002018950100D6
:102510002DE9F04F9C4695B05CF80C6B1D46136896
:1025200086460C4660462E31174605F1080A0322FE
:10253000D3F80090CDF828E005F11C0813F071FDE8
:1025400004F12A010422504613F06BFD04F13A0114
:102550000522404613F065FD4046052105F080FA4E
:1025600095F8213000F03F0060F30503012885F85D
:1025700021300AD994F83F3003F01F02053AC3F323
:1025800004010B2A85F8221002D915B0BDE8F08F9E
:102590003A6896F8DC1000209060B4F83480A5F812
:1025A000128094F8362094F837005B0942EA002242
:1025B00063F38401AA82638E86F8DC10ADF83030B4
:1025C0000EF0D0FF034696F8DC000B93C0F38200B8
:1025D0000EF0CAFF0B9BDFF828C394F83110AA8ACB
:1025E00040F2E24B0BFB08F8184408FB00F000F542
:1025F000742000F23F20ACFB00C04FEA580C800C66
:102600000BFB01F1ACF1960CA862C5F82CC0E96394
:10261000218FB14BADF8361042F2107C0CFB0181DA
:10262000AE48434402F1060C0139B3FBF8F3B1FBA9
:10263000F8F1A6F8C61099B261454044A6F8D21048
:10264000B0FBF8F0A6F8CA0002DD891A063989B293
:10265000A6F8CE100422514606F1E00013F0E1FC8A
:10266000237F04F11E0A5146C3F38013062212A8E9
:102670008DF8403013F0D5FC237F4FF48072A28395
:1026800099F82A0097F812B0C3F340128DF83C2055
:102690000B920DF08BFD0146062204F12B00002960
:1026A00040F0ED8013F0E8FC04F12503BBF1FF0FCF
:1026B0000E9304F11F0300F0EB801A465146584672
:1026C0000CF0F0FFA27F0E980232A27712A9062228
:1026D00013F0A7FC96F8DC30698AAA8AA286C3F3B5
:1026E000820384F83830BDF83630E38661863046A0
:1026F00009F09AFF21462882E0807C680A9808F059
:10270000DDFD2B8AE3800F2323710B9B2068002BB8
:1027100000F0BA8095F809E02B7A95F80BC0A97AF9
:1027200095F8212041EA0C2143EA0E234B4042F068
:10273000400201216B8485F821202177214608F091
:10274000BDFD08F0C5FD95F84900012100F0070026
:102750000EF096F9624A4FF0000A8346312300F2E8
:102760005240A0FB02013360C6E901AA58A3D3E995
:102770000023FDF705FDFC68BDF83020AD6A20F0B0
:102780007F4040F2E24303FB023302215246F060F5
:10279000A4F5AE7401201C4405F038F8484609F051
:1027A000A7FA821C4F4BCDF80090D2B250460121BF
:1027B00006F020FB0128A8EB0508A4EB0B047FD052
:1027C00099F82830DB0773D4304609F02DFFDFF885
:1027D00010B1A8FB0B893EA3D3E900230546494667
:1027E0004046FDF7CDFC404A069620F07F4AAAFB02
:1027F0000223072101FB0A3340F23F11BF68089111
:102800003A4907913A490591B8EB020069EB030197
:10281000F368049300264FF47A7200230396FDF7C1
:10282000AFFC2BA3D3E900238446A4FB0B01CDE925
:1028300001ACFDF7A5FC033520F07F40EDB2313F40
:102840003B4600902A463046012106F067FA30F0F8
:1028500002030CD0274A284928484FF4A07312F0ED
:102860001DFE404080F311884FF0030002DF01227B
:102870001046022104F0CAFF15B0BDE8F08F04F144
:10288000240113F0CEFB0FE79DF83C30237755E78A
:102890000E9811930622002113F0EEFB9DF84030B4
:1028A000A377119B12A91846062213F0BAFB11E771
:1028B0000023012200931846114606F09BFA83E795
:1028C00008F09EFD81453FF47BAF0CF01DFC77E7DF
:1028D0008D49FD1A070000007FC3C901FF5962023C
:1028E00000CA9A3B35F100008D49FD1AD9F000006D
:1028F00051F10000D099010014990100B894010031
:1029000083DE1B43000000002DE9F041D0E90BC736
:10291000D0F828800CEB07043034A0450E4615464D
:1029200018D81B4F18A3D3E90023ACFB0701FDF710
:1029300027FCA4EB080420F07F40306012A3D3E909
:102940000023A4FB0701FDF71BFC20F07F4028605B
:10295000BDE8F0810E4C0CA3D3E90023A8FB0401D1
:10296000FDF70EFC20F07F4307F130003360A0FB41
:10297000040105A3D3E90023FDF702FC20F07F400A
:102980002860BDE8F08100BF8D49FD1A07000000F6
:020000021000EC
:10000000044420460621F7F7A7FB0028F1D021463B
:100010002846062206F005F8002038BDB41D002051
:1000200010B503460C4613F8010B00221946FFF7E2
:10003000D5FD072801D9022010BD064B00EB80003A
:1000400003EBC0030622596A204605F0EAFF0020B0
:1000500010BD00BFB41D002070B5054600200E463F
:10006000FBF76EFE68B929460246044611F8010BFB
:10007000FFF7B4FD07281CD886B1012E03D012204B
:1000800070BD0C2070BD00EB80030B4911F83320CC
:1000900042F0100201F83320204670BD064B00EB01
:1000A000800013F8302066F3041203F83020304645
:1000B00070BD022070BD00BFB41D0020314A32491E
:1000C000F0B40023314C137004EBC3025278072ABA
:1000D00002EB820505D811F835206FF3451201F8BF
:1000E000352014F833206FF3000204F83320013375
:1000F000082BE9D10F7891F8285091F8504091F8E9
:10010000782091F8A060002363F300070F70204F60
:1001100063F3000563F3000463F300023B7081F8AE
:1001200028501C4F91F8C85081F8504081F8782031
:1001300091F8F04091F818213B7063F3000663F3E7
:10014000000563F3000463F3000281F8A060124B22
:10015000124E134F81F8C85081F8F0404FF0FF3530
:100160004FF0FF34C3E9004581F81821376020B112
:10017000F0BC0C490C4808F0AEBCF0BC0A4808F0D2
:10018000B2BC00BFEC4C0020B41D00202C1F00208E
:10019000EB4C0020EA4C0020A00C0020281F00207F
:1001A000A0BB0D00A1FB0000A80C0020072807D869
:1001B000044B00EB800013F83000C0F3C000704720
:1001C00000207047B41D0020024B1B7803700248CA
:1001D000704700BFEA4C0020341D002010B5204BB2
:1001E0001B78834204460CD91E4B1C5D072C19D882
:1001F0001D4B04EB840213F83230DB0720D5204678
:1002000010BD1A4A1A491B4840F2C62305F046F9A8
:10021000404080F311884FF0030002DF114B1C5D5A
:10022000072CE5D9114A144912484FF4327305F0EE
:1002300035F9404080F311884FF0030002DFD7E723
:100240000A4A0E490B4840F2C92305F027F94040FD
:1002500080F311884FF0030002DF204610BD00BF7D
:10026000EA4C00202C1D0020B41D0020589A0100EB
:100270003C9C0100B89401005C9C0100309C010092
:10028000072823D870B500EB8003114E16F83330E1
:10029000DB0704464FEA800505D52C4416F83400E8
:1002A000C0F3401070BD0B4A0B490C484FF4357336
:1002B00005F0F4F8404080F311884FF0030002DFAE
:1002C0002C4416F83400C0F3401070BD0020704775
:1002D000B41D0020589A0100A89A0100B8940100AA
:1002E000034A044B00280CBF10461846704700BF55
:1002F000F41E00206C1F00201C4B1B78FBB11378F0
:10030000FF2B1CD12DE9F047194D06460023AF1FE6
:1003100003EB83045FFA83FE17F8344014F0010006
:100320004FEA830C03D0C4F38014B44209D00133E4
:10033000082B05F12805EBD10120BDE8F08701204D
:100340007047AC1F01F1FF3814F801AF18F8019F96
:10035000CA45ECD1AC42F7D1634482F800E017F80B
:1003600033305A07E9D5C3F30010E6E7EB4C002021
:10037000BA1D0020024B1878003818BF01207047C2
:10038000EB4C0020684620F007018D4601B501F0D6
:100390008BFEF3F7D7FBF3F799FDBDE801408546E7
:1003A000704700BF08B5094BD3F840213AB9012086
:1003B000F7F7B4FABDE808400220F7F7AFBA00201B
:1003C000C3F84001F8F73CFCF1E700BF00B0004083
:1003D0000020F7F7A3BA00BF01F064BF012800D8DE
:1003E000704708B5064A074907484FF41B7305F0E4
:1003F00055F8404080F311884FF0030002DF08BD3C
:10040000649C0100AC9C0100B8940100012800D854
:10041000704708B5064A0749074840F2772305F0B8
:100420003DF8404080F311884FF0030002DF08BD23
:10043000649C0100AC9C0100B894010030B500221E
:100440008BB00B68154C16490892CDE90322CDE913
:100450000122069207940591D3E900549968A542B8
:100460002CBFC1EB0501C1EB04010346009110460E
:100470001146F8F753FC022801D80BB030BD094AE9
:1004800009490A4840F2952305F008F8404080F3F6
:1004900011884FF0030002DF0BB030BD0D040100E6
:1004A00005070100649C0100CC9C0100B894010088
:1004B0002DE9F04385B004464FF0FF0C0DF10F001D
:1004C000DDF830809DF834908DF80FC00D4616464B
:1004D0001F46FBF78BF818B91EE0FBF787F8D8B179
:1004E00090F820309B070DF10F00F6D12D4B9A6844
:1004F000AAB9B9F1000F36D0012201920097334614
:10050000294620464246FBF72BF8D8B96FF0430442
:10051000204605B0BDE8F083224B9A681AB3CDE9B6
:1005200000793346294620464246FBF719F848B978
:10053000B9F1000FEAD1D8F80C10D8F80000FFF795
:100540007DFFE3E7184A1949194840F2112304F0E6
:10055000A5FF404080F311884FF0030002DFB9F19E
:10056000000FD3D1E7E7D8F80C201A60C3E90145A2
:100570004046B04700220F4B0092044611461046F9
:10058000F8F738FC0228C3D9074A0B49084840F25B
:100590004B2304F083FF404080F311884FF00300A9
:1005A00002DFB5E7A41F0020649C0100DC95010078
:1005B000B8940100DD030100CC9C0100F0B54C4E65
:1005C0008BB0FBF705F8B368FF228DF80E209BB1C6
:1005D00033688BB10DF10E00FBF708F8044658B1F3
:1005E00094F8203013F003050DF10E0006D0FAF751
:1005F000FDFF04460028F3D10BB0F0BD05ABD6E9F2
:100600000027E169E068009304ABB847074600287B
:1006100062D0B36831682846984717F10B0F1AD09B
:10062000483711D0334A3449344840F2DF2304F0CC
:1006300035FF404080F311884FF0030002DF03E0F4
:1006400090F820309B0741D00DF10E00FAF7CEFF55
:100650000028F5D1D0E7FF230DF10F008DF80F3002
:10066000FAF7C4FF48BB3268059B00930992012347
:10067000002201933260D6E90101049B06AAFAF731
:100680006FFF0028E0D01B4A1D491C4840F2DD23C3
:1006900004F004FF404080F311884FF0030002DFB4
:1006A000D2E743F0020380F82030836998470DF1C8
:1006B0000F00FAF79BFF0028D5D090F820309A075A
:1006C000F5D4C26831689142F1D1EAE7C1680068A7
:1006D000FFF7B4FE0BB0F0BD94F82030A269E168DA
:1006E00043F0020384F8203020469047ACE700BF77
:1006F000A41F0020649C0100F49C0100B894010038
:10070000E8950100002208B511460A4B0120F7F7D1
:10071000B1F800B908BD084A0849094840F2A323C6
:1007200004F0BCFE404080F311884FF0030002DF6C
:1007300008BD00BF94040020649C0100E8950100FE
:10074000B894010010B5154803F026FD144B18604D
:1007500000B3144B00249C6000F020FA002818DB42
:10076000224621460120F3F7D5F9224621460B20E7
:10077000F3F7D0F9224621461820F3F7CBF90120F0
:10078000F3F796F90B20F3F793F91820F3F790F9A4
:10079000204610BD6FF0120010BD00BF009D01008B
:1007A000A01F0020A41F0020044A10B403461068B4
:1007B00084688AB21946236810BC1847A01F00201D
:1007C000084B1B689A6810B4546834B18AB2A446C6
:1007D000014610BC1846002360476FF0220010BC91
:1007E000704700BFA01F0020FFF7EABF002070473E
:1007F00010B582B0049C009400240194FFF758FEC9
:1008000002B010BD10B582B0009090F82040C369CE
:10081000026904F00104D0E905010194FFF748FEE4
:1008200008B1443001D102B010BD074A0749084859
:10083000E42304F033FE404080F311884FF00300BE
:1008400002DF02B010BD00BF649C0100049D0100E6
:10085000B894010030B5044683B0002835D0264B4B
:100860001A6882422BD0FF230DF107008DF8073064
:10087000FAF7BCFE034640B91FE094420ED00DF1DA
:100880000700FAF7B3FE0346B8B193F820209207A9
:10089000F5D4DA6818461146002CEED193F82020E2
:1008A0009D6942F0020283F82020A8470DF107005D
:1008B000FAF79CFE03460028E7D103B030BD9B68E1
:1008C0006BB1214600209847CDE70B4A9368002B77
:1008D000C9D011680029C6D000209847C3E7074A4D
:1008E00007490848EE2304F0D9FD404080F3118801
:1008F0004FF0030002DFB6E7A41F0020649C010054
:10090000189D0100B89401000020704710B50446FE
:10091000FAF75EFE3CB120B320681030FAF794FE7F
:1009200080B1002010BD1D4CA36843B32068002394
:10093000A36023600028F1D000681030FAF784FE2D
:100940000028EED1164A174917484FF49E7304F059
:10095000A5FD404080F311884FF0030002DF002026
:1009600010BD0F4A1149104840F21F1304F096FDC4
:10097000404080F311884FF0030002DFCCE7084AC3
:100980000B4909484FF4927304F088FD404080F30E
:1009900011884FF0030002DFC8E700BFA41F00204A
:1009A000649C0100449D0100B8940100209D010059
:1009B000309D01006FF04700704700BFD0E9002371
:1009C000002A04DB9A4238BF1A46104670478068F6
:1009D000984238BF1846704710B51446F8F750FAD9
:1009E0002146F8F74FFA0330030204D4092894BFD4
:1009F0000020012010BD002010BD00BF262810B52A
:100A000004461CD0272812D0252808D00A281ED931
:100A1000272821D80330400001F0B0FB02E002207B
:100A200001F0ACFB2046BDE8104001F0ADBB50200A
:100A300001F0A4FB2046BDE8104001F0A5BB1A2040
:100A400001F09CFB2046BDE8104001F09DBB023048
:100A5000400001F093FBE5E7064A074907484FF4D9
:100A6000C37304F01BFD404080F311884FF0030076
:100A700002DFD7E7649C010018950100B8940100DB
:100A800001F0EABB08B501F00DFCBDE8084001F03B
:100A9000CDBC00BF08B501F005FC01F0C7FCBDE806
:100AA000084001F073BC00BF08B501F0FBFB01F08A
:100AB000BDFC01F0A3FC01F083FEBDE8084001F09D
:100AC00065BC00BF08B50146154801F0FDFA01F00C
:100AD00009FC50B101F04CFD00F092F800280CDB4D
:100AE000BDE808400020FFF711BF01F0C3FB01F093
:100AF0003FFD00F085F80028F2DA0A4A0A490B485F
:100B000040F2E91304F0CAFC404080F311884FF032
:100B1000030002DF0020BDE80840FFF7F7BE00BF7A
:100B2000D9030100649C01004C9D0100B8940100B0
:100B300010B50446FFF7B8FF2046BDE81040FFF7A8
:100B4000C1BF00BF01F1100004F060B830B5054628
:100B50008BB00C460122002104A807F03BFF0023C4
:100B60000D4A03932846032369460192029304F039
:100B700004FD00280DDB14F163004FF00001494132
:100B800064220023EFF7FCFA02460B4604A804F0A7
:100B900063F80BB030BD00BF450B010010B501205C
:100BA000F2F788FC0449012400238C60CB60BDE887
:100BB00010404B6004F0E1BCBC1F002008B50120D0
:100BC000F2F778FCBDE808404FF4FA71FFF7BEBFBA
:100BD00008B50A4BBFF35B8F53E8002F511C43E865
:100BE00000100028F8D1BFF35B8F002A01DD002040
:100BF00008BDF2F767FC002008BD00BFB81F002049
:100C000008B50D4B1A68002A12DDBFF35B8F53E85D
:100C1000002F511E43E800100028F8D1BFF35B8F6E
:100C2000012A01DD002008BDF2F762FC002008BDAA
:100C30006FF0440008BD00BFB81F002010B5044687
:100C4000FFF732FF01F0D0FB2046BDE81040FFF770
:100C500039BF00BF30B583B00446FFF713FF9620BD
:100C600001F0F4FB00231A461946184601F074FB04
:100C700001F05CFB01F0E2FA01F020FBD8B91D485D
:100C8000214601F021FAFFF775FB48BB01F0CCFCCF
:100C900000210446084601F0E1FA00210546084615
:100CA00001F0D8FA2C44C334201A01F075FC01F08D
:100CB000ADFC03B030BD104A1049114840F2811319
:100CC00004F0ECFB404080F311884FF0030002DF9A
:100CD0000848214601F0F8F9FFF74CFB0028D5D071
:100CE0000DF10700FFF770FA01469DF8070001F0CB
:100CF0002DFDCBE78D110100589D0100A49D010041
:100D0000B8940100037BC3F302132DE9F041002BDB
:100D1000044693FAA3F0B0FA80F008BF4FF0FF301A
:100D2000451C53D0227B591E0B4063F306122273DD
:100D300005F12400FFF762FEE27B217C8A42D3B2F8
:100D40003ED00133DBB2022B37D02725022215FB20
:100D50000325E373012704F10F0808EB050630466D
:100D600001F072FA18F8053003F00F03022B45D09A
:100D7000204694F8601010F85F2F9142D3B236D01D
:100D80000133DBB2022B42D02722022112FB0312D5
:100D900084F85F30104402300622B11C05F041F99E
:100DA00021461C4801F090F9962001F04FFB0020ED
:100DB00001F0C4FA3046BDE8F0811D460023C8E7C3
:100DC0002725022215FB03250027C4E7124A1349F1
:100DD000134840F27A2304F061FB404080F311880D
:100DE0004FF0030002DF237BC3F302139AE7002FC7
:100DF000D6D0272303FB01000230CCE70948214667
:100E000001F062F901F0B4FA3046BDE8F0811A460B
:100E10000023BDE7550C0100589D0100B89D01005D
:100E2000B894010059100100F0B5C468454B25790C
:100E300083B015F0010501936CD1064601F064F909
:100E4000284601F095F92946284601F081F92A46FD
:100E50002521082001F0C4F901A801F0A7F93A49B9
:100E600040F25B6001F048FA237BC3F3420262F375
:100E7000061323732046FFF745FFFFF77BFA50BBAD
:100E8000637B9B0734D1276835683846FFF796FDAA
:100E90000544726805F10901012001F0E3FA01F04F
:100EA000B5FB2046FAF730FF811C2A46C9B2384606
:100EB000FFF792FD30B92046FFF726FDD0B900209C
:100EC00003B0F0BD2148214601F0FEF801F0D2F94F
:100ED000002003B0F0BD607B10F0030018BF0120BC
:100EE000FFF7FEF94178821C007801F061FACAE749
:100EF0000120F5E7164A1749174840F21B1304F082
:100F0000CDFA404080F311884FF0030002DF00204B
:100F100003B0F0BDFFF774FE002805DB0020FFF7EB
:100F2000F5FC002003B0F0BD094A0C490A48BE2375
:100F300004F0B4FA404080F311884FF0030002DF60
:100F4000ECE700BFD6BE898E555555003D0C01001B
:100F5000589D0100E8950100B89401004C9D0100E6
:100F6000C36870B51E680446F7F78AFF0546304629
:100F7000FFF724FD00232D1AC4E9005323812046E6
:100F8000BDE87040FFF750BF824208B511D0127B18
:100F9000D20702D46FF0470008BD144A1A60029AC3
:100FA00000231360FFF714FE00280FDB6FF00A0028
:100FB00008BDD37B272101FB0322537C03F00F03E1
:100FC000012B14BF6FF04700002008BD084A0949F3
:100FD000094840F2451304F061FA404080F311885B
:100FE0004FF0030002DF6FF00A0008BD610F01003F
:100FF000589D01004C9D0100B894010010B5D8B176
:101000000C46FFF7FDFD002804DB2046BDE810403C
:10101000FFF77CBC0C4A0D490D4840F26B1304F0FD
:101020003DFA404080F311884FF0030002DF204674
:10103000BDE81040FFF76ABC064801F045F8BDE87E
:10104000104001F017B900BF589D01004C9D0100F0
:10105000B89401003D0C010010B50446FFF724FDD3
:10106000237B03F07102012A05D1C3F3420262F32C
:1010700006132373DBB213F0700F06D101F0B4F93D
:101080002046BDE81040FFF71DBD2046FFF73AFEA1
:1010900001F0EAF8BDE8104001F0B8BA002070474E
:1010A0000020704710B582B00446FFF791FD00287C
:1010B00019DB134A1349144800940023FFF798FBE7
:1010C00008B1443001D102B010BD104A1049114896
:1010D0006B2304F0E3F9404080F311884FF00300E4
:1010E00002DF02B010BD094A0B490A48682304F028
:1010F000D5F9404080F311884FF0030002DFD8E7B4
:10110000290E0100FD0F0100890F0100589D01000B
:10111000C09D0100B89401004C9D01002DE9F843E9
:10112000457B9DF820801746EA0789461E460AD56A
:10113000B8F1000F17D099F80030B7EBD31F19D0D2
:101140000020BDE8F883044611F8020B099AC0F3A9
:101150008010FFF7D1F80028EDD1637BDB07EFD5D6
:10116000B8F1000FE7D1099B1878FFF789F800283C
:10117000E1D1E5E709F108013046062204F041FF1C
:10118000B0FA80F04009BDE8F88300BF2DE9F04FC8
:1011900085B0044601F09CF810F0FF0F0AD1FFF76C
:1011A00083FCB748214600F08FFF01F063F805B0DB
:1011B000BDE8F08F01F0ACF8074601F027F90546CD
:1011C00001F02EF901F008FB064601F0F3FA804623
:1011D00001F0E4F8FFF768FC17F0FF0FE1D016F01C
:1011E000FF0740F08680FF208DF80F0001F09EF889
:1011F00094F80F800646007811234FF0270909FB69
:10120000083800F00F0304EB080A032BEDB20AF1D3
:10121000020B00F08180052BC3D17378222BC0D143
:1012200014F8082002F00F02012A00F0B780637B57
:10123000990763D5002D00F0A98014F808303178A3
:10124000C3F38012B2EBD11FABD103F00F03012B1C
:1012500006F1080500F0CF8029465846062204F022
:10126000D0FEB0FA80F0400900289AD0A368002B85
:1012700097D00420FAF726F9002892D08148214619
:1012800000F022FF00F0F6FF01F018F800286FD1FF
:10129000237943F00102DB0722715BD4FAF730F9BE
:1012A0004FF6FF7305460A22C3803146027124229D
:1012B0001C3004F0B6FEAC6001F054F9286101F076
:1012C000ADF900210446084600F0C4FF241A6C6101
:1012D000002F3DD09DF80F30AB76FAF711F9294673
:1012E000E8602868FAF724F9FAF732F905B0BDE8A2
:1012F000F08F5FFA88F0FEF771FF75E7C0F380109A
:101300000DF10F02B11CFEF7F7FF002895D1637BAA
:101310009A077FF546AF8DE773780C2B7FF441AFCA
:1013200014F8082002F00F03012B3FF43AAF0DF13F
:101330000F0301930095C2F380125B4631462046AD
:10134000FFF7ECFE00285FD1307800F00F0362E772
:10135000FF23C1E74C4A4D494D484FF4447304F014
:101360009DF8404080F311884FF0030002DF95E7BD
:10137000454A4849464840F2023304F08FF840405D
:1013800080F311884FF0030002DF81E79DF80F0022
:10139000FEF776FF00287FF450AF02E7B51CC0F3DC
:1013A000801029460DF10F02FEF7A6FF00283FF43A
:1013B000F8AE14F808303178C3F38012B2EBD11FC5
:1013C0007FF4EFAE03F00F03012B06F108094ED0B6
:1013D00049465846062204F014FE00287FF4E1AE88
:1013E0009DF80F00FF282FD0A37BFF2B2CD0C51A10
:1013F0006842684138E706222946584604F001FE53
:1014000000283FF433AF27E71D48214600F05CFE7B
:1014100000F0AEFF94F85F0009FB0040613000F07F
:1014200013FF00F04BFF00283FF4C1AE164A1949E4
:10143000174840F2C52304F031F8404080F311888A
:101440004FF0030002DFB2E6337814F80820C3F34C
:101450008013B3EBD21F7FF4A4AE29460AF1080033
:10146000062204F0CEFDB0FA80F04009FCE6062228
:101470004946584604F0C5FD0028B1D0A8E700BF92
:10148000591001003D0C0100589D0100E895010034
:10149000B8940100A49D0100F8B50546FFF704FBD0
:1014A000FAF7C2F80446002833D0214B2149224ADA
:1014B0001B8808781178A3800122A071E171227045
:1014C0001BB195F92130002B04DB2846BDE8F8401C
:1014D000FFF7F8BA95F8493003F00703022B16D04E
:1014E000042B14BF28274FF4BC7701F083F806467D
:1014F00001F086F86A6B361A0023C4E90327A66058
:1015000028466B63EB63BDE8F840FFF7DBBA1827AA
:10151000EBE70A4A0A490B4840F2722303F0BEFF88
:10152000404080F311884FF0030002DFBDE700BFA9
:10153000B4480020EE4C0020EF4C0020D49D010068
:1015400030970100B894010008B500F0EBFE037875
:10155000012262F301030370002008BD00207047E0
:10156000704700BF14207047014B33F810007047DC
:10157000489E010005480649064A10B40023064C5F
:1015800003700B701370238010BC7047ED4C00206B
:10159000EE4C0020EF4C0020B448002010B5D0B134
:1015A0000C46FFF72DFB002804DB2046BDE8104069
:1015B000FFF7ACB90B4A0C490C48AB2303F06EFFA4
:1015C000404080F311884FF0030002DF2046BDE861
:1015D0001040FFF79BB9064800F076FDBDE81040CB
:1015E00000F048BED49D01004C9D0100B89401005C
:1015F00099140100F8B504460120F9F763FF064687
:1016000058B394F84950B4F8427005F007052846DD
:10161000002100F09DFD94F862306A001B0742F043
:10162000010210D5391DC9B2082000F0D9FD00F023
:1016300081FE2946024604F1630000F0FBFFBDE88D
:10164000F84000F0FBBDF9B2082000F0C9FD06F13A
:101650001C00BDE8F84000F0F1BD074A0749084802
:101660004FF4ED7303F01AFF404080F311884FF000
:10167000030002DFC5E700BFD49D0100209E0100EA
:10168000B894010038B50446FFF7FCF9962000F045
:10169000DDFE94F8482094F84900C2F3C00300F03E
:1016A000070002F00702002100F056FE2046FFF777
:1016B000A1FF00F003FE58BB00F0B6FF054694F80A
:1016C0004900012100F0070000F0C8FD94F84930FE
:1016D00003F007030544022B05F1A30516D0042BE4
:1016E00014BF28234FF4BC7394F84800C0F3C00122
:1016F00000F007001D4400F0ADFD281A00F04CFF7B
:1017000021460A48BDE8384000F0DEBC1823EBE76C
:10171000074A084908484FF4D37303F0BFFE40401E
:1017200080F311884FF0030002DFC5E77518010050
:10173000D49D0100A49D0100B8940100F8B50F46A6
:1017400090F84810B0F8406001F007040546C1F376
:10175000C001204600F0FCFC95F862306200DB0618
:1017600042F00102F1B20DD50431C9B2082000F0F7
:1017700037FD394605F1840000F092FFBDE8F840DE
:1017800000F062BD082000F02BFD3846BDE8F840AF
:1017900000F05ABD2DE9F043044683B001AAC06CA5
:1017A0008946216DF5F7FAFF94F862305A0706462C
:1017B00032D400284ED0019A94F8617094F86030C9
:1017C00002F1040808EB070513B96B7884F8603060
:1017D00037B118F80720012161F3010208F807204A
:1017E000DB1B6B702046FDF739FC6B78834224D9F4
:1017F000687018F8073043F0100308F8073018F83D
:10180000073000226FF3471308F80730AA70C9F8B1
:10181000005003B0BDE8F08343F0040384F8623065
:1018200000F080FD0546E6B1037843F01003037035
:10183000C9F8005003B0BDE8F083236D32689A42C6
:1018400018F8073014BF43F010036FF3041308F8BF
:101850000730D4E743F0040384F8623000F062FDFF
:1018600005462B786FF304132B70C9F8005003B0B2
:10187000BDE8F0832DE9F04182B0044600F028FD78
:1018800010F0FF0F0AD1FFF705F9B348214600F029
:101890001BFC00F0EFFC02B0BDE8F08100F038FD69
:1018A000C5B200F07BFDFFF7F5F8AC4A13880120C4
:1018B00003441380F9F706FE0646002800F0C680B0
:1018C000002D5BD1A64B1F78002F40F0AE80012287
:1018D00001A920461A70FFF75DFF962000F0B6FDC3
:1018E00094F8490000F0070000F028FD9D482146CB
:1018F00000F0EAFB00F08AFE94F862200199C2F33E
:1019000040030878C2F300029B0043EAC20320F0C0
:101910000C0213430B702046FFF710FF00F0CEFCC3
:10192000002840F0CC8000F065FEF0B11DB3208AA5
:101930004FF6FF73984200F0E4802946FDF7AAF9BC
:1019400077B194F862301B0700F1D280F9F7D8FD27
:1019500002233371238A3068F3803146F9F7E8FDBA
:10196000F9F7F6FD02B0BDE8F08100F037FE00F0B7
:101970003BFE002DDBD1002FE3D18CE794F86230E1
:10198000190706F11C0700F19080327F03F0010176
:10199000C2F38000884269D094F9212081F00101CE
:1019A00061F30003002A84F8623005DA94F82430E9
:1019B00043F0010384F8243094F862305A0700F1B0
:1019C0008C80D4E9130101AAF5F7E8FE80460028CF
:1019D00000F0898094F86120019B1344597951B13A
:1019E00094F86230DD0606D5D4E92530013340F1A4
:1019F0000000C4E9253094F860300A44D2B29A421B
:101A0000C0F08E806FD10022A4F86020206D04F118
:101A10004C01F5F7CBFE019D327F2B68C8F80030F2
:101A200094F86230C5F8008021E0013FFFB201A9BF
:101A300020461F70FFF7AEFE002F40F0EB804648B7
:101A4000214600F041FB00F093FC55E7464A474928
:101A50004748DA2303F022FD404080F311884FF01D
:101A6000030002DF002D3FF42DAF87E70025C2F30E
:101A7000C002C3F340039A4259D00027384A3D4B75
:101A8000002111702046012201A91A70FFF782FE81
:101A9000337FD9063FF521AF019B1A78D2063FF577
:101AA0001CAF5B78002BCAD017E700F043FC032281
:101AB0000146384604F0B5FA94F8623065E72A4AE0
:101AC0002D492B484FF4A37303F0E8FC404080F30A
:101AD00011884FF0030002DF25E76FF3820384F8DB
:101AE000623000F01FFC94F86230327F0025BEE7C0
:101AF00000F020FC727FC11C06F11F0004F091FA77
:101B000024E7194A1D491A4840F2531303F0C6FC52
:101B1000404080F311884FF0030002DF208A0CE779
:101B200084F86120327F94F8623000259FE703201B
:101B3000F9F7C8FC0028A0D094F8623083F00203C3
:101B400084F86230737F002B97D094F862301807C6
:101B500016D4012792E700BF99140100B448002071
:101B6000ED4C002085160100D49D0100209E01004F
:101B7000B8940100EE4C0020A49D0100309E0100AD
:101B800000F0B8FDC0B300F0D7FD28BBD4F8732037
:101B9000D4F87730134304D1337F03F00303032BCE
:101BA00004D01D4B02221A700027BCE600F0BEFBD9
:101BB00042781B2A0146F4D80332384604F031FA41
:101BC000D4F87330D4F8772013F1FF3342F1FF32A9
:101BD000C4F87330C4F87720D4F87330D4F8772081
:101BE0000D49013304F1730042F100020127C4F8EA
:101BF00073300F70426041E7084A0949094840F2D2
:101C0000123303F04BFC404080F311884FF0030087
:101C100002DFB8E72F4660E6EF4C0020D49D0100BC
:101C2000289E0100B89401002DE9F041C468228A81
:101C30004FF6FF739A4282B000F0C3800546FFF76B
:101C400099FCE18A668B94F82130481E31440022C9
:101C500080B261835906E282208304F11C0200F104
:101C60008F8003F03F0694F8221000961346024638
:101C700004F12300FDF756FB0746D4E90C61E26A44
:101C8000D4E90E0331448A4228BF0A4603440026A1
:101C90006263E3632663A66300F036FA304600F021
:101CA00067FA2046FFF7A6FC04F1080000F07EFA70
:101CB000637BA27B217B1B0243EA0243194340F270
:101CC0005B6000F019FB3846FEF798FE2146494854
:101CD00000F0FAF9962000F0B9FB94F8482094F847
:101CE0004900C2F3C003314602F0070200F00700CA
:101CF00000F032FBD4F800802F684046FEF75EFE0D
:101D000007446A6807F10901304600F0ABFB05465D
:101D100000F050FC304600F067FC626BE36B94F817
:101D20004900303203EB420300F0070001211D445B
:101D300000F092FA94F8492002F00702022A0544C2
:101D40003DD0042A0CBF4FF4BC7328231046012158
:101D50001D4400F083FA284400F01EFC217C03316E
:101D60003A464046C9B2FEF737FE90B122482146B6
:101D700000F0AAF900F07EFA002002B0BDE8F08180
:101D80003044618C80B203F03F03FDF707FB074648
:101D900073E72046FEF7B8FD0028EDD0174A184932
:101DA00018484FF4867303F079FB404080F31188A4
:101DB0004FF0030002DF002002B0BDE8F0811823DD
:101DC000C4E7FEF71DFF002806DB0020FEF79EFD9E
:101DD000002002B0BDE8F081084A0B49094876238B
:101DE00003F05CFB404080F311884FF0030002DFFA
:101DF000EBE700BF75180100310B0100589E010090
:101E0000E8950100B89401004C9D010030B583B005
:101E1000C4680546FEF7DCFE002828DB2B89A16A92
:101E2000D4E90B2001339BB201FB0301E08A8A4213
:101E300028BF0A4603442263E382134A1349144825
:101E400000950023FEF7D4FC08B1443001D103B063
:101E500030BD104A104911485B2303F01FFB40407E
:101E600080F311884FF0030002DF03B030BD094A50
:101E70000B490A48482303F011FB404080F31188C6
:101E80004FF0030002DFC9E7291C01009D15010086
:101E9000B5090100589E0100C09D0100B8940100E1
:101EA0004C9D0100054B4FF480320021C3F808150A
:101EB000C3F84423C3F80423704700BF00B00040B8
:101EC000054B1878421C1A7018B9044B01221A608D
:101ED00070470120704700BFF04C002000B0004068
:101EE00010B50D4C207848B10138C0B2207018B937
:101EF0000A4B01221A6010BD012010BD084A094991
:101F000009482E2303F0CAFA404080F311884FF0AD
:101F1000030002DF2078E7E7F04C002004B0004027
:101F2000A49E0100F09E0100B8940100014BD3F87B
:101F30000405704700B00040024B00F5A87043F85C
:101F40002010704700B00040F0B4124B124D012633
:101F5000344600212C60C3F80405C3F80011C3F80F
:101F600004111C6005E0D3F8042132B9D3F804252C
:101F70001AB1D3F80021002AF5D02E60D3F804213D
:101F8000002AE7D1D3F80475002FE3D0F0BCC3F8E2
:101F90000425704700E0004004E0004070B58CB0BC
:101FA0000E4615460146102268461C46F5F7C6FB4C
:101FB00010220DEB02003146F5F7C0FB6846FFF733
:101FC000C3FF25B12846102208A9F5F7B7FB24B1B5
:101FD0002046102208A904F024F80CB070BD00BF00
:101FE000F0B42A4EDFF8B8C03478294BCCF860350D
:101FF00004F10B03DBB2DB00264F03F18043E50065
:1020000003F5F83305F1804505F5F83507EB84074E
:10201000CCF8645525B2C3F8107588B34AF24E2740
:1020200049F6346C42F2B840022A14BF3A4662467E
:1020300041F24A57022914BF014639461648174F44
:10204000C3F814750A44A0FB02329209AB0003F1F5
:10205000804303F510430134D3F8401591428ABF01
:10206000D3F8401501228A1AC3F840250C4B04F01E
:1020700001044FF49062C3F804253470F0BC70473B
:10208000084AC3F814252922E0E700BFF14C0020DC
:102090000C11004040910040D34D621000100040F0
:1020A00000F0014004100040044BD3F8103123B17C
:1020B000034A044B10681B68184770470010004023
:1020C000EC220020E822002038B5044601200D460D
:1020D000F1F7FEFC084A0948094B0A49156010252A
:1020E00002220460C1F804530120C3F88021BDE836
:1020F0003840F1F7DDBC00BFEC220020E8220020D0
:1021000000E100E00010004010B50120F1F7E0FC14
:102110000C4B0D490D4A00240120C3F8FC4FC3F8B5
:10212000FC0F0B6823F0807323F0010343F08073EE
:102130004FF410644FF490500B60C2F80048C2F89E
:10214000040810BD001000407417004000F001406A
:10215000064B022814BF03220422C3F81025D3F82B
:10216000502642F00102C3F850267047001000408C
:10217000014BC3F80C05704700100040014BC3F839
:102180000805704700100040074BC3F85405D3F80A
:10219000182522F00072C3F81825D3F8182542F04C
:1021A0000072C3F818257047001000400B4A002148
:1021B000012310B4C2F82C15C2F83035C378C2F828
:1021C00024354378847801781B0443EA046343EAA6
:1021D000012310BCC2F81C35704700BF001000403E
:1021E000C2F34203022B10B414BF00244FF08074DA
:1021F000D307C0F1080348BF44F480141B0400F067
:102200000F00204303F470230A4A10BC034343F435
:102210008073C2F81435D2F8183507481840C2F850
:102220001805D2F81835194341F44031C2F8181591
:10223000704700BF001000400000F8FE014BC3F8DB
:102240000405704700100040014BC3F804057047B7
:10225000001000400120704729207047022814BF59
:102260000A200620704700BF014B01221A60704708
:102270000010004030B4084A0848094901234FF4CF
:1022800090650024C2F808555360D360C0F800423E
:1022900030BC0B60704700BF00F0014000100040F0
:1022A00010100040044B0022C3F80021C3F80C2199
:1022B000C3F81021704700BF00100040034BD3F853
:1022C0000001003818BF0120704700BF0010004017
:1022D000034BD3F80C01003818BF0120704700BF32
:1022E00000100040034BD3F85005B0FA80F04009CD
:1022F000704700BF00100040044B40F20312C3F8C7
:102300003425C3F83805C3F83C1570470010004069
:10231000034BD3F80004003818BF0120704700BFFA
:102320000010004000487047E0210020004870473E
:10233000E421002000487047DC200020054B10B449
:10234000002103240246C3F80042084610BCFFF7F0
:1023500047BE00BF00100040044B10B403240146E8
:10236000C3F80042012010BCFFF73ABE0010004045
:102370000449054B03204FF49062C1F80002C3F8F2
:10238000082570470010004000F00140024B002279
:10239000C3F81C21704700BF00100040034BD3F866
:1023A0001C01003818BF0120704700BF001000401A
:1023B00030B40024A30003F1804303F58053156873
:1023C000C3F8005601349588C3F82056082C02F152
:1023D0000602EFD1034B40EA012030BCC3F84006AF
:1023E000704700BF00100040034AD2F8403623F087
:1023F000FF03C2F84036704700100040024B002235
:10240000C3F81421704700BF00100040034BD3F8FD
:102410001401003818BF0120704700BF00100040B1
:10242000014BD3F810047047001000400449054BDD
:10243000054A4FF48020C1F84803C3F808257047C7
:1024400000B0004000F001406000700E034B044AF1
:102450001B7803F5A87342F823007047F14C002065
:1024600000900040F0B4A2F57423314DA3F5107331
:10247000AB42044606D902F1E87202F5D43202F505
:10248000A57201392B4D2C4B2C4801262E600026BD
:10249000C3F804652A4DA0FB02020426C3F81065A8
:1024A000900C0226C3F80865264AC3F84005C5F813
:1024B00048154FF48021C5F844132349C2F8381554
:1024C0002021C2F83C35C2F8041554B34FF4001370
:1024D000C2F808354FF480141A4B1C4A1C49C3F843
:1024E00004450025012404260C60C2F80455C2F8F6
:1024F0001065C2F80855146002F5B032154F164E3B
:10250000164D174CC3F848750C32C3F84C15C3F878
:102510005065C3F85455C3F85845F0BCC3F85C2562
:1025200070474FF48013C2F808354FF40014D3E716
:10253000BFBDF07F0C8000400080004083DE1B4365
:1025400000B0004000F0014048B100400090004061
:102550000C9000400C1100404091004004F00140FC
:1025600044910040014BD3F84805704700B000404B
:1025700010B40548054C0649064A01232360036050
:1025800010BC0B6013607047108000400480004056
:1025900004900040109000400449054BC1F84405E8
:1025A0004FF08862C3F80425704700BF00800040E8
:1025B00000F00140054B06480649074AC3F84005AC
:1025C000C3F84415C3F80425704700BF00F001406C
:1025D000001100404080004040000004014BD3F84F
:1025E0004405704700800040014B1860704700BFF1
:1025F000F0220020014B1868704700BFF022002035
:10260000014BD3F84005704700800040024B4FF06B
:102610000062C3F80425704700F00140014BD3F875
:102620004805704700800040014BD3F848057047CB
:1026300000800040F0B4144C144F154B154D164E4D
:10264000022914BF2146394600240227C3F8004559
:10265000C3F80075C3F80415104FC3F808054FF010
:102660000071C3F80C55C3F810250122C3F8147586
:102670002846C3F80042C3F80441C3F80841C6F82D
:102680000415F0BC1A60704701000001010001014F
:1026900000F00040E421002000F00140D01F0020A5
:1026A00070B4104B104D114E044600220220C3F8A6
:1026B0000025C3F80005C3F80465C3F808450C4EAF
:1026C000C3F80C150124C3F810552846C3F8146547
:1026D000C3F80042C3F80421C3F808211C6070BC91
:1026E000704700BF00F00040E4210020000001011D
:1026F000D01F00200E4A0223C2F80433D2F804315E
:1027000033B920BF40BF20BFD2F80431002BF8D02E
:10271000074B084A02204FF40041C3F80803C2F8EF
:102720008011D3F80801B0FA80F04009704700BF6B
:1027300000F0004000E100E0034BD3F80004003853
:1027400018BF0120704700BF00F00040154B164A2B
:1027500030B40324C3F80045C3F80405C3F80815D2
:10276000D2F80405114D124C0138C3F810050021B0
:102770004020C3F81455C3F80011C3F80411C3F87E
:102780000811C2F86005D2F800324FF4000043F09F
:102790004003C2F80032C2F82811C4F8040530BC66
:1027A000704700BF00F0004000100040CC1F002028
:1027B00000F00140014BD3F80004704700F00040E6
:1027C0000349044A0023C1F82831C2F80035704794
:1027D0000010004000F00040084BD3F8280160B121
:1027E00003F56043D3F8000138B1D3F8040120B1F8
:1027F000D3F80801B0FA80F040097047001000409B
:10280000022910B514460BD00A4A0B490B481F2366
:1028100002F044FE404080F311884FF0030002DFD5
:102820000B201CB1BDE81040F1F742B9BDE81040E3
:10283000F1F74EB9FC9E01004C9F0100B8940100D5
:1028400029B10139012905D80B20F1F755B9182014
:10285000F1F752B908B5074A07490848372302F08B
:102860001DFE404080F311884FF0030002DF00207E
:1028700008BD00BFFC9E010018950100B89401003E
:10288000884213D028B9481E01288CBF002001209F
:102890007047012806D159B1A1F10200B0FA80F0C9
:1028A00040097047022804D000207047012070477B
:1028B000704701298CBF002001207047012908B50D
:1028C0000FD002290DD091B10C4A0D490D48682353
:1028D00002F0E4FD404080F311884FF0030002DF76
:1028E00008BD094B4FF40062C3F8002108BD064B38
:1028F0004FF08072C3F8002108BD00BFFC9E0100AC
:1029000018950100B894010000E100E0032810B51B
:10291000044604D8114B1C5D8CB1204610BD104AF2
:10292000104911482B2302F0B9FD404080F3118873
:102930004FF0030002DF094B1C5D002CEDD1084A6B
:102940000A4909482E2302F0A9FD404080F311886E
:102950004FF0030002DF204610BD00BFDC9F0100E6
:102960005C9F0100AC9F0100B8940100CC9F010066
:10297000013810B51C46042855D8DFE800F0121ABB
:10298000161E030004291ED0BA23284A28492948C4
:1029900002F084FD404080F311884FF0030002DF15
:1029A00010BD04291FD04E23EFE7042913D07C2348
:1029B000EBE703291FD06523E7E703292BD0042980
:1029C00021D0A223E1E71C4B02219C600320BDE83B
:1029D0001040F4F74FBF194B02219C600120BDE865
:1029E0001040F4F747BF164B02219C600020BDE861
:1029F0001040F4F73FBF134B01219C600846BDE82F
:102A00001040F4F737BF104B02219C600846BDE828
:102A10001040F4F72FBF0D4B01219C600220BDE850
:102A20001040F4F727BFC023AFE700BF5C9F010051
:102A300018950100B8940100F4040020C40400209B
:102A4000A4040020B4040020E4040020D4040020E6
:102A500001460020FFF770BA4FF08053D3F8A4204E
:102A6000013208D04FF08052D2F8A03013F00103A9
:102A70000FD100207047D3F8A8304FF6FF729BB2F9
:102A80009342F6D04FF08052D2F8A03013F00103F9
:102A9000EFD0D2F8A430190C10B503700C0AC3F3B0
:102AA00007238170C4704370D2F8A8300371C3F358
:102AB000072363F03F034371D2F89030013335D0E0
:102AC000D2F89430013331D0D2F8983001332DD080
:102AD000D2F89C30013329D0D2F890308371190C90
:102AE0000C0AC3F3072301724472C371D2F8943005
:102AF0008372190C0C0AC3F3072301734473C37266
:102B0000D2F898308373190C0C0AC3F307230174AD
:102B10004474C373D2F89C3083741A0C110AC3F343
:102B2000072302754175C374012010BD10220021D6
:102B3000063003F0A1FA012010BD00BF10B510222D
:102B40000C46002103F098FA4FF08053D3F8802010
:102B5000013234D0D3F88420013230D0D3F8882029
:102B600001322CD0D3F88C20013228D0D3F8802029
:102B70002270110C080AC2F30722A170E070627083
:102B8000D3F884202271110C080AC2F30722A17124
:102B9000E0716271D3F888202272110C080AC2F326
:102BA0000722A1726272E072D3F88C3023731A0C80
:102BB000110AC3F30723A273E173637310BD2046A8
:102BC0001022BDE81040002103F056BA024B282223
:102BD00002FB0030704700BF1C0700208379054AC4
:102BE000282101FB03235B6AC01A034BC010584322
:102BF000704700BF1C070020ABAAAAAA10B50A4A5A
:102C00008379282404FB03230A681B6A5C68236811
:102C10009A4294BF0A600B60FFF7E0FFD4E90023FB
:102C200002FB003010BD00BF1C0700202DE9F34758
:102C3000054601911046194616461F4605F0AEFF9F
:102C4000804689464FF02003EFF3118A83F3118801
:102C5000BFF36F8F6B8B002B54D02A8B9A423DD9D8
:102C600000220023284601F055FC0446002835D0F8
:102C70008AF31188BFF36F8F019B002B52D056EA65
:102C8000070310D07B1C08BFB6F1FF3F0BD002F04A
:102C900093FAB8EB000669EB0107002E77F1000309
:102CA000BCBF00260027A379DFF89080282202FB12
:102CB000038301A91B6A1B6832461D6820463B46F8
:102CC000A8470546206170BBA07900EB8000214633
:102CD00008EBC00005F052FD2C461FE0688B431E38
:102CE0006B838AF31188BFF36F8F2C8B241A686A69
:102CF000182303FB04041148114B2D1AED105D43FA
:102D0000A571B9E78AF31188BFF36F8F32463B464E
:102D1000284601F0FFFB04460028ADD1204602B052
:102D2000BDE8F0872361002301222360A280A381F4
:102D3000019A2369E281A360F0E700BF1C0700202D
:102D4000CDCCCCCC2DE9F041174D044600262827E8
:102D50000CB9BDE8F0812379D4F80080013BDBB2E7
:102D60002371002BF5D1216959B163799B0707D4F1
:102D7000A37907FB035320461B6A1B689B6898478F
:102D80002661A079A66007FB00532660DB691BB1B2
:102D9000204698474446DBE700EB8000214605EBE0
:102DA000C00005F0EBFCF5E71C07002013B50A4C4A
:102DB000206818B9094801F0EFF9206083680422FF
:102DC0001B680DEB02019847002802DAF0F716FDA8
:102DD0000190019802B010BD24230020AAA6010092
:102DE00008B5094B1A786AB9012119700620052126
:102DF000F0F790FE0620F0F75BFE044B4FF0004228
:102E0000C3F80423002008BDF24C002000600040FD
:102E10002A4B70B546682A48134083423ED00DD8ED
:102E2000062B15D005D89BB1022B39D06FF01500B9
:102E300033E0B3F5801FF9D1012309E02148834233
:102E400030D0B3F5A00F2FD0B3F5800FEED1022311
:102E5000D00654BFC2F34015032582F4807412F4E7
:102E6000007FC2F34020C4F3002407D012F4006FA7
:102E700076681BD001228A40C6F8082540EA440241
:102E800001F01F0142EA032301F5E0714FF0A04277
:102E900043EA850342F82130002070BD0723D7E7BD
:102EA0000423D5E70523D3E70323D1E7520542BF27
:102EB00001228A40C6F80C25E0E700BF0600F000BA
:102EC0000600100002004000F8B50C464168C668D4
:102ED000087A04F01F05B2F5A03F45EA40150CD171
:102EE00005F01F0101F5E0714FF0A04050F82110EE
:102EF000CF0707D56FF02200BDE0B2F5005FF168A3
:102F000000F0AA80F0680121A14001437069F160DE
:102F10000121A140B2F5A03FB2690CBF084388432C
:102F2000B3F5C02F0CBF0A438A43B26132697061A6
:102F3000B3F5802F0CBF114322EA0101544A3161DD
:102F4000D2F804130023C9B203F5A27052F820008E
:102F5000C0F30420854240F0848021FA03F0C007CA
:102F60007FD5012199404B48BFF35B8FCF4350E899
:102F700000CF0CEA070C40E800CEBEF1000FF6D1FE
:102F8000BFF35B8F9B0003F1804303F5C043D3F88D
:102F9000100520F00100C3F81005C2F80813002145
:102FA000284604F076FFF368E34013F0010351D0A4
:102FB0007369E34013F001025ED0B369E340DB07BD
:102FC0005FBF316921FA04F404F00104C4F1020482
:102FD000304954BFE4B203240022012707FA02F665
:102FE000BFF35B8F51E8000F40EA060341E8003C65
:102FF000BCF1000FF6D1BFF35B8FD04010F001039E
:1030000034D1910001F1804101F5C0414032D1F845
:10301000100520F4473020F440709200C1F81005EC
:103020002D0292B2D1F8100505F4F85502F1804254
:1030300002F5C04245EA04450543C1F81055136046
:103040001268D1F8102542F00102C1F81025104A8B
:10305000C2F8046318460EE00120A04021EA0001F6
:1030600054E70133082B7FF46FAF98E70132082A49
:10307000B4D16FF01200F8BD3169E14001F00101F7
:10308000C1F103012846C9B204F003FF1046F2E77C
:1030900000600040442300202DE9F0413F4D2E68A0
:1030A000002E4ED03E4BD3E90510DA681B69014370
:1030B00022EA01024FF0A0410127D1F810455C40FF
:1030C00022EA04044FF0000872BB2A602B683548DE
:1030D000002301251F46D0F8042305FA03F111420D
:1030E00011D09A0002F1804202F5C242116851B13A
:1030F00003F5A27150F821101760C1F3042105FAFD
:1031000001F112680C430133082BE4D1DCB94EB154
:10311000234CD4E90510E268014322EA01020125AB
:10312000002642BBBDE8F0813A4206D0002108F0FB
:103130001F0004F0AEFE22EA070208F101087F003A
